:020000040800F2
:1000000000000220D9250008F71A0008F91A000894
:10001000FB1A0008FD1A0008FF1A00080000000083
:10002000000000000000000000000000011B0008AC
:10003000031B000800000000051B0008071B000848
:100040002126000821260008212600082126000874
:100050002126000821260008651D00082126000829
:100060002126000821260008212600082126000854
:100070002126000821260008212600082126000844
:100080002126000821260008212600082126000834
:100090002126000821260008212600082126000824
:1000A0002126000821260008212600082126000814
:1000B00021260008AD1E0008212600082126000880
:1000C00021260008212600082126000821260008F4
:1000D00021260008ED1C0008212600082126000822
:1000E00021260008212600082126000821260008D4
:1000F00021260008212600082126000821260008C4
:1001000021260008212600082126000821260008B3
:1001100021260008212600082126000821260008A3
:100120002126000821260008212600082126000893
:100130002126000821260008212600082126000883
:100140002126000821260008212600082126000873
:100150002126000821260008212600082126000863
:100160002126000821260008212600082126000853
:100170002126000821260008212600082126000843
:080180002126000821260008D9
:10019000044B05481B1A062B02D9044B03B1184720
:1001A000704700BF770000207400002000000000AE
:1001B00005490648091A891001EBD171491002D08E
:1001C000034B03B1184770477400002074000020EF
:1001D0000000000010B5064C237843B9FFF7D8FFA4
:1001E000044B13B10448AFF300800123237010BD0A
:1001F00074000020000000002426000808B5084B09
:100200001BB108490848AFF300800848036813B9D8
:10021000BDE80840CCE7064B002BF9D09847F7E73C
:100220000000000078000020242600087400002050
:100230000000000070B50F4E0F4D761BB61018BFB2
:10024000002405D0013455F8043B9847A642F9D163
:100250000A4E0B4D761B02F0E5F9B61018BF0024CC
:1002600006D0013455F8043B9847A642F9D170BD39
:1002700070BD00BFE8260008E8260008EC2600084C
:10028000E826000870B4860746D0541E002A41D0E4
:10029000CAB2034602E014F1FF343BD303F8012B4A
:1002A0009D07F8D1032C2ED9CDB245EA05250F2C98
:1002B00045EA054519D903F110022646103E0F2ED6
:1002C00042F8105C42F80C5C42F8085C42F8045CAE
:1002D00002F11002F2D8A4F1100222F00F0204F091
:1002E0000F041032032C13440DD91E462246043A43
:1002F000032A46F8045BFAD8221F22F003020432D4
:10030000134404F003042CB1C9B21C4403F8011BCC
:100310009C42FBD170BC704714460346C2E700BF45
:100320000EB410B5044683B018B183690BB900F060
:100330001FF906A803460190059AA168204600F01F
:1003400021FA03B0BDE8104003B070470FB410B5F8
:100350000A4B1C6882B024B1A36913B9204600F08F
:1003600007F905A803460190049AA168204600F009
:1003700009FA02B0BDE8104004B070470000002048
:1003800000207047014900F039B900BFB5110008DD
:100390000020704770B54A1E682505FB02F50E4621
:1003A00005F1740100F054F9044640B100210C300D
:1003B000666005F168022160A060FFF763FF2046D8
:1003C00070BD00BF204B70B51D68AB6906465BB3BE
:1003D00048356B68AC68013B05D521E0013B5A1CF0
:1003E00004F168041CD0B4F90C20002AF6D10025D1
:1003F0004FF6FF720123E281A38165662560A56047
:10040000656025616561A5612946082204F15C00EB
:10041000FFF738FF6563A563A564E564204670BDFA
:10042000286828B10546D4E7284600F00FF8CFE742
:1004300004213046FFF7AEFF28600028F2D10C23DC
:1004400004463360EAE700BF3C2600083D4B3E49C6
:100450001A682DE9F04F90424FF000038364C364A3
:10046000036508BF012383B008BF8361816207462B
:10047000FFF7A8FF78603846FFF7A4FFB86038465A
:10048000FFF7A0FF7D68F86000240423AB812C6097
:100490006C60AC606C66EC812C616C61AC61214677
:1004A00005F15C000822FFF7EDFEBE68DFF89CB0A6
:1004B000DFF89CA0DFF89C90DFF89C80C5F824B0A2
:1004C00001230922C5F828A0C5F82C90C5F8308072
:1004D0002D622146F381B28134607460B460746629
:1004E00034617461B46106F15C0008220193FFF786
:1004F000C9FEFD68366212200222C6F824B0C6F892
:1005000028A0C6F82C90C6F830802146A881EA8140
:100510002C606C60AC606C662C616C61AC6105F148
:100520005C000822FFF7AEFE019B2D62C5F824B0E7
:10053000C5F828A0C5F82C90C5F83080BB6103B081
:10054000BDE8F08F3C26000885030008F90D00087F
:10055000210E00085D0E00087D0E0008024B0349C5
:10056000186800F04BB800BF3C260008B511000821
:10057000836903B96AE77047704700BF704700BFDF
:10058000704700BF704700BF024B0349186800F076
:100590000FB800BF0000002091030008024B034980
:1005A000186800F005B800BF0000002081030008B3
:1005B0002DE9F04110F148071BD0884600267D68E0
:1005C000BC68013D0FD4A389012B05F1FF3506D985
:1005D000B4F90E300133204601D0C04706436B1CEE
:1005E00004F16804EFD13F68002FE8D13046BDE840
:1005F000F0813E463046BDE8F08100BF2DE9F8436A
:1006000010F148071FD0884606464FF000097D6864
:10061000BC68013D11D4A389012B05F1FF3508D930
:10062000B4F90E3001332146304602D0C04749EAC2
:1006300000096B1C04F16804EDD13F68002FE6D17E
:100640004846BDE8F883B9464846BDE8F88300BF90
:1006500070B5CC1C24F0030408340C2C38BF0C24D7
:10066000002C06463BDBA14239D8274D296851B101
:100670000A68121B04D436E01A68121B1AD51946F0
:100680004B68002BF8D16968002937D021463046E5
:1006900000F0A0FB431C22D0C31C23F00305A8429A
:1006A00005D0291A304600F095FB013017D02C6098
:1006B0002B4604E00B2A0DD91A6013441C6003F189
:1006C0000B0020F007001A1D821A02D051429950E7
:1006D00070BD70BD8B420ED05A684A60EFE70C23A4
:1006E0003360002070BD0B2A03D84A680B462A608D
:1006F000E5E70B46E0E70A460B46F8E7304600F030
:1007000069FB6860C2E700BF900000209368013B6E
:10071000002B10B4936007DBCCB21368581C106038
:100720001970204610BC70479469A34202DBCCB21A
:100730000A2CF2D110BC00F0A5BB00BF93B1F8B5F4
:1007400014460F460646D51801E0AC4208D03A469A
:1007500014F8011B3046FFF7D9FF431CF5D1F8BD53
:100760000020F8BD00207047936810B5144613B9F7
:100770005360184610BD00F061FD0023A360636064
:1007800010BD00BF2DE9F04F9DB08946144603937C
:10079000824618B18369002B00F00A818A4B994583
:1007A00000F00C81894B994500F00B81884B9945ED
:1007B00008BFDAF80C90B9F80C30180740F1EE8059
:1007C000D9F81030002B00F0E98030238DF82A3062
:1007D0002378804E0021202209918DF829200127BD
:1007E000002B00F08480252B254603D117E0252B14
:1007F00000F0858015F8013F002BF8D1B5EB040B14
:1008000075D022465B4649465046FFF797FF0130B8
:100810006DD0099B2A785B440993002A67D0002396
:100820004FF0FF3201350493079306938DF8533050
:100830001A93059204E0049A07FA03F3134304930E
:1008400029780522304600F0FBFE2C46831B01353B
:100850000028F0D1049BD90644BF20228DF85320F4
:1008600021781A0744BF2B228DF853202A2969D0FA
:10087000A1F13002092A0BD8079B14F8011F03EBE2
:10088000830302EB4303A1F13002092AF5D9079350
:100890002E293FD0504D0322284600F0D1FE38B11A
:1008A000049B401B402202FA00F0034301340493EE
:1008B00021784A488DF828100622013400F0C0FE45
:1008C000002849D0464BF3B103AB00934A46454B51
:1008D00004A95046AFF300808046B8F1FF3F06D030
:1008E000099B434409932378002B7FF47CAFB9F82C
:1008F0000C305B0659D409981DB0BDE8F08FB5EBFC
:10090000040B8CD07DE7039B073323F007030833E8
:100910000393E5E761782A2904F1010026D0A1F1CB
:1009200030020023092A05930446B3D814F8011FA6
:1009300003EB830302EB4303A1F13002092AF5D94B
:100940000593A7E7039A11680432002903921FDB7D
:100950000791617801349BE703AB00934A46214B32
:1009600004A9504600F0E6F88046B6E7039B1A68F3
:100970000592002A03F104030393B8BF4FF0FF323E
:1009800004F10203AEBFA178A17805921C4681E76D
:10099000494243F0020307910493DAE7494650467F
:1009A00000F0E8FA00283FF410AF4FF0FF30A3E763
:1009B000FFF7DEFD044B99457FF4F4AEDAF80490BE
:1009C000F9E6DAF80890F6E68026000860260008C6
:1009D00040260008AC260008B4260008B826000807
:1009E000000000003D07000810B4044C13460A46FE
:1009F0000146206810BCFFF7C5BE00BF0000002004
:100A00002DE9F0470C4691460A698968DDF8208097
:100A10008A42B8BF0A46C9F8002094F84310064637
:100A20001F4611B10132C9F80020236899065DD52F
:100A3000D9F800200232C9F80020236813F0060F0D
:100A400019461DD1E1688A1A002AD8BF194617DD58
:100A500004F1190A002505E0E368D9F800209B1A83
:100A6000AB420CDD0123524639463046C0470130C7
:100A700005F10105F0D14FF0FF30BDE8F0872168A6
:100A800094F84330003318BF01238A060AD5E118D1
:100A90005A1C302081F84300224494F8451082F813
:100AA0004310023304F1430239463046C047013057
:100AB000E1D0236803F00603042B29D0A368226940
:100AC0009342C8BF4FF0000930DD9B1A99441A3495
:100AD000002501E04D4529D0012322463946304604
:100AE000C047013005F10105F4D1C4E713F0060F4A
:100AF00008D1E168D9F800208A1A002AD8BF19461F
:100B0000A6DCBDE794F84330003318BF0123C9E7E2
:100B1000D9F80010E068A3682269A0EB01099342AC
:100B200029EAE979D1DCB9F1000FD0D10020BDE884
:100B3000F08700BF2DE9F0430C46097E85B06E2991
:100B4000064617460C98984604F1430C55D00FD82A
:100B5000632900F01B8100F2D68000295CD058295F
:100B600040F0E88084F845102268DFF860E213E086
:100B7000732900F0FD8000F289806F2900F0E48085
:100B8000702940F0D780226842F02002226078234A
:100B9000DFF83CE284F845300368150603F10401F0
:100BA00000F1FF8055064BBF1B881B680160016088
:100BB000D00744BF42F020022260002B40F0958015
:100BC000226822F0200222601021002284F84320B3
:100BD0006068A0600028C0F28D80226822F00402C4
:100BE0002260002B67D1002840F0868065460829E6
:100BF0006FD0ACEB0503236111E023681A0600F106
:100C0000D38013F0400F0368626903F104010160AF
:100C10001B6814BF1A801A60002365462361CDF853
:100C200000803B4603AA21463046FFF7E9FE01302B
:100C300021D02A46236939463046C04701301AD0B0
:100C40002368E06813F0020F039B19D0C21A002A30
:100C500016DD04F11909002504E0E068039BC21ABF
:100C6000AA420DDD01234A4639463046C0470130CD
:100C700005F10105F1D14FF0FF3005B0BDE8F0837B
:100C80009842B8BF184605B0BDE8F08375295BD01F
:100C900078294FD122687AE76168A1602D20002968
:100CA000C3F1000384F8430021DB22F00402DFF8E3
:100CB0001CE122600A216546B3FBF1F201FB123010
:100CC00013461EF8002005F8012D002BF4D1082949
:100CD0008FD12368D9078CD5626823699A4288DC52
:100CE000302305F8013C013D83E710216DE7DFF873
:100CF000DCE00A21002BDED19EF8003084F842307F
:100D000004F1420573E7642901D0692912D12268F0
:100D10000368150603F1040152D455064BBFB3F91D
:100D200000301B6801600160002BB5DBDFF89CE040
:100D30000A214DE7012384F84210236104F14205A2
:100D4000002384F843306AE723681A0633D413F08B
:100D5000400F036803F1040215BF1B881B68026083
:100D600002606F2914BF0A210821DFF860E02CE738
:100D700003686268191D01601D680021284600F0A3
:100D80005FFC00B3401B60602061D9E703681A680C
:100D9000191D0123016004F1420584F842202361FA
:100DA000CEE701601B6803E703686269191D0160F3
:100DB0001B681A6030E703681A1D02601B68D0E7E1
:100DC00001601B68B0E76068DEE700BFC02600086E
:100DD000D426000838B5074C002305460846236092
:100DE00000F05AFE431C00D038BD2368002BFBD016
:100DF0002B6038BDDC01002010B50C46B1F90E1097
:100E000000F0DCFD002803DB636D0344636510BD67
:100E1000A38923F48053A38110BD00BF0020704735
:100E20002DE9F0411646B1F90C201F46D3050C46BA
:100E3000054607D500220223B1F90E1000F076FB1B
:100E4000B4F90C20B4F90E1022F48052A2813B4672
:100E500032462846BDE8F04100F076B810B50C46A1
:100E6000B1F90E1000F062FBA389421C0EBF23F4FF
:100E7000805343F480536065A38110BDB1F90E1017
:100E800000F0F2B8F8B50D461446064610B1836975
:100E9000002B42D0254B9C4244D0254B9C4243D052
:100EA000244B9C4208BFF468A389A269A2601A0778
:100EB00022D5236903B322686169D31AEDB28B424C
:100EC0002F4621DA0133A168501C0139A16020604E
:100ED000157062699A4206D0A389DB0701D50A2DF5
:100EE00001D03846F8BD2146304600F063F90028AD
:100EF000F7D04FF0FF37F4E72146304600F03AF8DC
:100F00000028F6D12369D6E72146304600F052F991
:100F10000028EED122680123D5E7FFF729FB034B18
:100F20009C42BAD17468BFE7B468BDE78026000868
:100F30006026000840260008024B0A460146186851
:100F4000FFF7A0BF0000002070B50D46084C114609
:100F500006461A4628460023236000F0ABFD431CDA
:100F600000D070BD2368002BFBD0336070BD00BF84
:100F7000DC010020384B70B51D6806460C4615B1E3
:100F8000AB69002B42D0354B9C4245D0344B9C4240
:100F900058D0344B9C4208BFEC68B4F90C2093B293
:100FA00019070CD52069A8B113F001021ED063699E
:100FB00000225B42A361A260F0B1002070BDDD069B
:100FC00042D558072AD4206942F00803A3819BB276
:100FD0000028E9D103F42072B2F5007FE4D0304656
:100FE000214600F0E7FAA3892069DDE7990758BF99
:100FF0006269A2600028E0D1B4F90C301A06DDD590
:1010000043F04003A3814FF0FF3070BD2846FFF747
:10101000AFFA124B9C42B9D16C68BEE7616B51B11B
:1010200004F14403994204D0304600F057FCB4F96F
:101030000C200023636300232069636022F02402F4
:101040002060C1E7AC68A8E742F0400209233360A2
:101050004FF0FF30A28170BD000000208026000804
:10106000602600084026000838B5074C00230546D6
:101070000846236000F0E8FC431C00D038BD23681C
:10108000002BFBD02B6038BDDC0100208B891A07B8
:101090002DE9F0410D46804633D44A68002A67DDC9
:1010A000EC6A002C45D00022D8F80060C8F8002077
:1010B00013F4805260D06A6D5F0705D569686B6B69
:1010C000521A0BB12B6CD21A0023296A4046A04752
:1010D000441C39D0AB892A692A60DB044FF0000236
:1010E0006A6043D4696BC8F8006011B305F144032A
:1010F000994202D0404600F0F1FB00206863BDE851
:10110000F0810E69AEB10C680E6098070CBF4B6998
:101110000023A41B8B600AE023463246AF6A296A8B
:101120004046B8470028A4EB0004064404DD002C28
:10113000F2DC0020BDE8F081AB8943F04003AB81D5
:101140004FF0FF30BDE8F081D8F800201D2AF3D819
:10115000174BD340DB4313F00103EDD1A9892C6970
:101160006B60C9042C60BDD5002ABBD16865B9E7A6
:101170000A6C002A94DCDCE70123296A4046A04778
:10118000431C024602D0AB89EC6A95E7D8F80030E0
:10119000002BF8D01D2B01D0162B02D1C8F800600F
:1011A000C7E7AB8943F04003AB81BDE8F08100BFE6
:1011B000010040200B6933B310B5044682B008B17A
:1011C0008369ABB1114B994219D0114B994218D098
:1011D000104B994208BFE168B1F90C3013B90020F7
:1011E00002B010BD204602B0BDE81040FFF74EBF70
:1011F0000191FFF7BDF90199044B9942E5D161686E
:10120000EAE7A168E8E70020704700BF80260008F1
:10121000602600084026000820B1054B01461868EA
:10122000FFF7C8BF034B04491868FFF7E7B900BFD1
:10123000000000203C260008B51100089368002B30
:1012400073D02DE9F04F8B8983B00C4619070090BD
:10125000164626D5226922B313F0020035682CD039
:101260004FF00009B04FC846B246B84543464A461B
:1012700028BF3B460098B8F1000F50D0216AA66AFB
:10128000B047002858DDDAF808301B1A8144A8EB73
:101290000008CAF80830002BE7D1002003B0BDE8F1
:1012A000F08F21460098FFF765FE002840F033815B
:1012B000A389356813F00200D2D113F0010945D19A
:1012C0004F46019637B39A05D4F8088040F18380E1
:1012D0004745C346C0F0AB8013F4906F40F0AC803C
:1012E0002068BA465A46494600F094FAA268236834
:1012F000A2EB08025B44A2602360019A9368A3EB0F
:101300000A03D144A7EB0A079360002BC5D0A38939
:10131000002FD8D1D5F800906F680835D2E7D5F8FE
:101320000090D5F8048008359FE7002070472146DB
:101330000098FFF73FFF70B3B4F90C3043F040035F
:101340004FF0FF30A38103B0BDE8F08F81463346F4
:101350004E46A8469A464D464EB380B32068236950
:101360006269B145CB4628BFB34698425F4604D96F
:10137000A36813449B4500F3A68093454BDB1346BB
:10138000A76A216A00982A46B847071ED4DDB9EB40
:101390000709CCD00120DAF80830DB1B3D44F61BEE
:1013A000CAF80830002B3FF478AF002ED5D108F1F1
:1013B000080313E9600098460833002EF9D032463E
:1013C0000A21284600F03CF9002800F0A1800130F5
:1013D000A0EB0509C2E720682369984202D8636937
:1013E0009F425DD2B84528BFB8464246494600F004
:1013F00011FAA3682268A3EB08034244A3602260A9
:101400000BB1C24679E721460098FFF7D3FE0028CA
:1014100092D1C24671E75A46294600F0FBF9A2680C
:101420002368A2EB0B025B44A2602360AFE7206855
:10143000B846BA46BB4655E762692068216902EBA7
:101440004208A0EB010A08EBD8780AF101004FEA44
:10145000680838444045424684BF804642465B05A2
:1014600044D511460098FFF7F3F88346002855D07D
:101470005246216900F034F9A38923F4906343F0C4
:101480008003A3810BEB0A00A8EB0A03C4F810B099
:10149000C4F814802060A360B846BA46BB4621E772
:1014A0006FF00041B94228BF39464A4691FBF3F13B
:1014B0000098A66A03FB01F3216AB047B0F1000A65
:1014C0003FF71BAF38E71A462946019300F0A2F90F
:1014D0002268019B00981A4422602146FFF76AFEA9
:1014E000019B00287FF428AF1F4650E7009800F0CA
:1014F0003DFA83460028C5D1009D2169284600F0A9
:10150000EDF9B4F90C300C2223F080032A6015E7C2
:1015100006F1010922E74FF0FF30BFE6009A0C23E5
:101520001360B4F90C3009E700FCFF7F70B50D467D
:10153000084C114606461A4628460023236000F050
:101540009BFA431C00D070BD2368002BFBD0336096
:1015500070BD00BFDC01002070B50C46B1F90E1063
:10156000002990B015461E4613DB01AA00F03CFA94
:1015700000280EDB029A02F47042A2F50052B2FA81
:1015800082F252094FF48063002032602B6010B069
:1015900070BDA38900221B06326004D540230020C1
:1015A0002B6010B070BD4FF4806300202B6010B032
:1015B00070BD00BF8A8992070B4606D501F147022C
:1015C00001211A601A6159617047F0B583B001AB0F
:1015D0006A460C460546FFF7BFFF009906462846B7
:1015E000FFF736F8B4F90C30D0B1019A124F0099D8
:1015F000AF6243F08003A3812060206161611AB96A
:101600003343A38103B0F0BD2846B4F90E1000F0B7
:10161000FFF9B4F90C300028F2D043F00103EFE7F2
:101620009A05EFD404F1470243F002030121A3819C
:10163000226022616161E5E7850300080000000087
:1016400001F0FF01102A2BDB10F0070F08D010F873
:10165000013B013A8B422DD010F0070F42B3F6D177
:10166000F0B441EA012141EA014122F007047FF090
:1016700000070023F0E80256083C85EA010586EAE7
:10168000010685FA47F5A3FA87F586FA47F6A5FA23
:1016900087F68EB9EED1F0BC01F0FF0102F007022F
:1016A00032B110F8013B013A83EA010313B1F8D1DA
:1016B0000020704701387047002D06BF35460338BB
:1016C000073815F0010F07D1013015F4807F02BFF4
:1016D000013015F4C03F0130F0BC0138704700BF45
:1016E000844641EA000313F003036DD1403A41D32D
:1016F00051F8043B40F8043B51F8043B40F8043BEC
:1017000051F8043B40F8043B51F8043B40F8043BDB
:1017100051F8043B40F8043B51F8043B40F8043BCB
:1017200051F8043B40F8043B51F8043B40F8043BBB
:1017300051F8043B40F8043B51F8043B40F8043BAB
:1017400051F8043B40F8043B51F8043B40F8043B9B
:1017500051F8043B40F8043B51F8043B40F8043B8B
:1017600051F8043B40F8043B51F8043B40F8043B7B
:10177000403ABDD2303211D351F8043B40F8043B1B
:1017800051F8043B40F8043B51F8043B40F8043B5B
:1017900051F8043B40F8043B103AEDD20C3205D32B
:1017A00051F8043B40F8043B043AF9D2043208D023
:1017B000D2071CBF11F8013B00F8013B01D30B8895
:1017C00003806046704700BF082A13D38B078DD073
:1017D00010F003038AD0C3F10403D21ADB071CBF45
:1017E00011F8013B00F8013B80D331F8023B20F8AF
:1017F000023B7BE7043AD9D3013A11F8013B00F8E8
:10180000013BF9D20B7803704B7843708B7883706F
:10181000604670478842F0B50DD98B1898420AD2BD
:101820008418002A51D0224613F8014D02F8014DC8
:101830009942F9D1F0BD0F2A48D941EA00039B072C
:1018400046D100F1100401F11003154653F8106C55
:1018500044F8106C53F80C6C44F80C6C53F8086C9A
:1018600044F8086C103D53F8046C44F8046C0F2DD8
:1018700003F1100304F11004E8D8A2F1100323F0DF
:101880000F0302F00F0E1033BEF1030F194403448F
:1018900021D91E1F0D467446043C55F8047B46F8BA
:1018A000047F032CF8D8AEF1040424F003040434BC
:1018B0002144234402F0030262B1013B0A4411F8BF
:1018C000014B03F8014F8A42F9D1F0BD0346F3E71B
:1018D0000346F2E7F0BD7246EEE700BF91B151F862
:1018E000043C0439002BB8BFC9181F4B1A68FAB161
:1018F0008A4230B40AD908680C18A24226D04A603D
:10190000196030BC70478B4203D81A465368002BCD
:10191000F9D1146815198D420DD006D808680C1835
:101920009C4219D04B605160EBE70C230360E8E761
:101930004A601960704709680C4411199942146093
:10194000DFD10ACB0C4453601460DAE714685268A4
:101950004A6020440860D3E71C685B684B60204401
:1019600008605160CDE700BF90000020F8B5144634
:10197000F9B1C2B106460D4600F05CF8844201D8C8
:101980002846F8BD21463046FEF762FE074670B194
:1019900022462946FFF7A4FE294630463D46FFF77A
:1019A0009DFF2846F8BDFFF799FF2546E8E7054665
:1019B000E6E71146BDE8F840FEF74ABE70B50D46B1
:1019C000084C114606461A4628460023236000F0BC
:1019D0005BF8431C00D070BD2368002BFBD0336044
:1019E00070BD00BFDC01002038B50B46074C054632
:1019F000114618460023236000F02EF8431C00D047
:101A000038BD2368002BFBD02B6038BDDC010020E3
:101A100038B5074C002305460846236000F024F83B
:101A2000431C00D038BD2368002BFBD02B6038BD91
:101A3000DC01002051F8040C0028A0F10400BCBF18
:101A40000B58C018704700BF024B58221A604FF065
:101A5000FF307047DC010020024B58221A604FF023
:101A6000FF307047DC010020024B58221A60002032
:101A7000704700BFDC010020024B58221A604FF073
:101A8000FF307047DC010020024B58221A604FF0F3
:101A9000FF307047DC010020044A05491368002B21
:101AA00008BF0B4618441060184670479800002085
:101AB000E0010020024B58221A604FF0FF307047BF
:101AC000DC01002008B54FF4A06000F029FA4FF4C3
:101AD000E13000F0B3F8A82000F09AF800F04CF9DB
:101AE00042F2CF0140F2E73000F062F900F090F9E5
:101AF00000F0B4F9FEE77047FEE7FEE7FEE7FEE719
:101B0000704770477047704782B00023019300937D
:101B10002A4A136843F480331360284B1B6803F48C
:101B200000330093019B01330193009B1BB9019B80
:101B3000B3F5A04FF1D1214B1B6813F4003F06D041
:101B400001230093009B012B04D002B070470023B7
:101B50000093F7E7194B1A6C42F080521A64184947
:101B60000A6842F440420A609A689A609A6842F4AD
:101B700000429A609A6842F4A0529A60114A5A60F0
:101B80001A6842F080721A600C4B1B6813F0007FD9
:101B9000FAD040F205720C4B1A60A3F580639A6884
:101BA00022F003029A609A6842F002029A60034BA4
:101BB0009B6803F00C03082BF9D1C6E700380240FC
:101BC0000070004008544007003C024008B50D4B2F
:101BD0001A6842F001021A60002199601A6822F026
:101BE000847222F480321A60074A5A601A6822F41A
:101BF00080221A60D960FFF787FF4FF00062034B25
:101C00009A6008BD003802401030002400ED00E06A
:101C100010B504466FF0040000F0C2F9E008054B6F
:101C20001870C0EB401300EB8300C300024A13801E
:101C300010BD00BFA2000020A0000020F0B589B0B8
:101C400007460121084600F077FA0121102000F034
:101C50008FFA254E07220921304600F0FCF90722B1
:101C60000A21304600F0F7F94FF4C06306930223CF
:101C70008DF81C308DF81D3000248DF81E40012594
:101C80008DF81F5006A9304600F0A0F90297ADF874
:101C90000C40ADF80E40ADF81040ADF814400C23E8
:101CA000ADF8123004F1804404F5883402A92046CE
:101CB00000F0D6FB2946204600F03AFC2A4640F2C6
:101CC0002551204600F046FC25238DF804300323DF
:101CD0008DF805308DF806308DF8075001A800F01A
:101CE00029F909B0F0BD00BF0000024008B540F27C
:101CF0002551194800F04AFC00B908BD164800F00B
:101D000025FCC0B2154B1B8813F4004FF5D113F41A
:101D1000804F0CD00A2803D00022104B1A8008BD37
:101D20006FEA43436FEA53430C4A138008BD0D2802
:101D30000DD0C3F30D020A49885401339BB2074A00
:101D40001380C72BD9D90022044B1A80D5E743F45E
:101D50008043024A138008BD00100140A400002007
:101D6000AC00002008B50120024B186000F028F9F3
:101D700008BD00BFA800002000B583B001210420E9
:101D800000F0DAF94FF40053009300238DF804308B
:101D900003238DF8053001238DF807306946034889
:101DA00000F014F903B05DF804FB00BF0008024026
:101DB00030B585B005460C460121022000F0CAF975
:101DC0000295ADF804400023ADF80630ADF80C30B4
:101DD0000E4C01A9204600F0C1FA0122114620460E
:101DE00000F00CFB1D238DF8003001258DF801500B
:101DF00003238DF802308DF80350684600F09AF8FE
:101E00002946204600F0ECFA05B030BD0004004041
:101E100070B582B00121084600F08EF90121084614
:101E200000F098F90126009602238DF80430002571
:101E30008DF8065003228DF805208DF80730064CEA
:101E40006946204600F0C2F832462946204600F096
:101E500002F902B070BD00BF0000024010B584B0AE
:101E60004FF0804000F0AEF94FF0FF3302930024B2
:101E7000ADF80440ADF80640ADF80C4001A94FF0B4
:101E8000804000F06BFA2346224621464FF0804006
:101E900000F0DBFA21464FF0804000F09DFA01216E
:101EA0004FF0804000F09CFA04B010BD10B5012145
:101EB000184800F0AFFA20B90121164800F0B6FA30
:101EC00010BD00214FF0804000F08AFA114C002133
:101ED000204600F085FA4FF0804000F07FFA00EBDA
:101EE000800041000C4B19600C48FEF72FFA0021CE
:101EF0004FF0804000F070FA0021204600F06CFAAC
:101F000001214FF0804000F06BFA0121204600F0E3
:101F100067FAD1E7000400409C000020A0260008DA
:101F200040F0BF6040F40030014BD860704700BF04
:101F300000ED00E0C3785BB903785A0903F01F0392
:101F4000012101FA03F32032134941F8223070478E
:101F500010B4124BDA68D243C2F30222C2F1040376
:101F6000DCB20F2141FA02F24378A340DBB2817860
:101F70000A4013431B01DBB2027807490A4482F886
:101F800000330378580903F01F03012202FA03F318
:101F900041F8203010BC704700E100E000ED00E0A7
:101FA000042805D0054A136823F004031360704722
:101FB000024A136843F004031360704710E000E026
:101FC000014B5861704700BF003C014000230F2BBC
:101FD00040D8F0B425E084682240826082684C7961
:101FE000AC402243826044689FB20126BE4024EA8E
:101FF0000604446044688A79BA4092B2224342603F
:10200000C2689CB266000324B44022EA0402C260A3
:10201000C268CC7904FA05F51543C56001330F2B6E
:1020200016D801229A400C68A243F7D104685D00DB
:102030000322AA40D2431440046004680E79AE40E3
:10204000344304600C79013CE4B2012CD8D8C2E7D7
:10205000F0BC7047704730B401F007039B009A4012
:10206000C908083150F821400F2505FA03F324EA86
:10207000030340F8213050F821301A4340F8212062
:1020800030BC704710B4284B9B6803F00C03042B42
:1020900022D0082B23D013B1244B036001E0234B43
:1020A0000360214CA368C3F303132149CB5CDAB26C
:1020B0000368D3404360A268C2F382228A5CD2B232
:1020C00023FA02F28260A268C2F342328A5CD2B280
:1020D000D340C36010BC7047164B0360E1E7124B5E
:1020E0005A685B6803F03F0312F4800F12D0114A64
:1020F000B2FBF3F20C4B5B68C3F3881303FB02F3F0
:10210000094A5268C2F3014201325200B3FBF2F3B2
:102110000360C6E7054AB2FBF3F2034B5B68C3F307
:10212000881303FB02F3EBE7003802400024F400BD
:102130006400002000127A0029B9054A136B23EAD3
:10214000000010637047024A136B18431063704716
:102150000038024029B9054A136C23EA00001064D4
:102160007047024A136C18431064704700380240ED
:1021700029B9054A536C23EA000050647047024AAB
:10218000536C1843506470470038024029B9054A1F
:10219000136A23EA000010627047024A136A184368
:1021A000106270470038024029B9054A536A23EA91
:1021B000000050627047024A536A184350627047E9
:1021C0000038024008B5584B984227D0B0F1804FF4
:1021D0002DD0564B984233D0554B984239D0554B61
:1021E00098423FD0544B984245D0544B98424BD0E4
:1021F000534B984251D0534B984257D0524B984230
:102200005FD0524B984267D0514B98426FD0514BA0
:10221000984275D0504B98427BD008BD01210846AA
:10222000FFF7C2FF00210120FFF7BEFF08BD01211B
:102230000846FFF7ABFF00210120FFF7A7FF08BD0D
:1022400001210220FFF7A2FF00210220FFF79EFFDD
:1022500008BD01210420FFF799FF00210420FFF7AA
:1022600095FF08BD01210820FFF790FF00210820FD
:10227000FFF78CFF08BD01211020FFF787FF002129
:102280001020FFF783FF08BD01212020FFF77EFF0C
:1022900000212020FFF77AFF08BD01210220FFF76F
:1022A00083FF00210220FFF77FFF08BD01214FF4CB
:1022B0008030FFF779FF00214FF48030FFF774FF83
:1022C00008BD01214FF40030FFF76EFF00214FF4ED
:1022D0000030FFF769FF08BD01214FF48020FFF7B0
:1022E00063FF00214FF48020FFF75EFF08BD01214E
:1022F0004020FFF74BFF00214020FFF747FF08BDBC
:1023000001218020FFF742FF00218020FFF73EFFE0
:1023100008BD01214FF48070FFF738FF00214FF412
:102320008070FFF733FF78E70000014000040040B1
:1023300000080040000C0040001000400014004065
:1023400000040140004001400044014000480140B9
:1023500000180040001C00400020004003889BB291
:102360001B4A904212D002F5806290420ED0B0F12A
:10237000804F0BD0A2F58032904207D002F58062E8
:10238000904203D002F58062904203D123F07003A3
:102390004A8813430F4A904208D002F58062904267
:1023A00004D023F440739BB20A89134303804B6823
:1023B000C3620B880385064B984206D003F5806301
:1023C000984202D00123838270478B7A0386F9E713
:1023D000000001400010004041627047406A7047B1
:1023E00031B903889BB223F001039BB2038070478D
:1023F00003889BB243F00103038070472AB98389A5
:10240000C94389B219408181704783899BB21943BE
:1024100081817047028A83890B40114202D01BB927
:10242000002070470020704701207047C94389B2DF
:102430000182704710B40489E4B21B029BB21343BB
:102440000B432343038110BC704710B50446FFF7CC
:10245000F1FF23899BB243F48043238110BD000028
:1024600030B585B004460D46038A9BB223F4405331
:10247000CA881343038283899BB223F4B05323F0A9
:102480000C03898828896A8901430A431343A3817D
:10249000A38A9BB223F44073AA891343A38268469C
:1024A000FFF7F0FD204B9C4228D003F580639C424F
:1024B00024D0029BA28912F4004F21D103EB8303A5
:1024C00003EB830329688900B3FBF1F1174BA3FBEE
:1024D000012358090501642300FB1313A28912F498
:1024E000004F16D11B013233104AA2FB0323C3F362
:1024F00043132B439BB2238105B030BD039BD9E727
:1025000003EB830303EB830329684900B3FBF1F179
:10251000DCE7D9003231054AA2FB0131C1F3421296
:1025200045EA0203E6E700BF001001401F85EB51BA
:1025300031B983899BB223F400539BB283817047E6
:1025400083899BB243F40053838170478088C0F332
:102550000800704710B4C1F3421401F01F010123B9
:1025600003FA01F19C4209D0022C09D014304AB977
:10257000036823EA0101016010BC70470C30F6E7E4
:102580001030F4E7036819430160F5E710B4C1F3B4
:10259000421201F01F040123A340012A0FD0022A96
:1025A00011D0828A92B21340090A012202FA01F183
:1025B000028892B2114053B161B9002008E08289CB
:1025C00092B21340F0E7028A92B21340ECE7002087
:1025D00010BC70470120FBE7002103E00B4B5B5868
:1025E000435004310A480B4B42189A42F6D30A4A28
:1025F00002E0002342F8043B084B9A42F9D3FFF76C
:10260000E5FAFDF717FEFFF75DFA7047F0260008C0
:10261000000000207400002074000020E001002071
:10262000FEE70000F8B500BFF8BC08BC9E46704746
:0C263000F8B500BFF8BC08BC9E4670471F
:10263C00040000200000000000000000000000006A
:10264C00000000000000000000000000000000007E
:10265C00000000000000000000000000000000006E
:10266C00000000000000000000000000000000005E
:10267C00000000000000000000000000000000004E
:10268C00000000000000000000000000000000003E
:10269C00000000000D0A256400000000430000004B
:1026AC00232D302B20000000686C4C0065666745BC
:1026BC0046470000303132333435363738394142F1
:1026CC004344454600000000303132333435363750
:0C26DC003839616263646566000000002C
:0426E800FD010008E8
:0426EC00D50100080C
:1026F000040000200000000080260008602600087A
:10270000402600080000000000000000000000005B
:1027100000000000A82600080000000000000000E3
:1027200000000000000000000000000000000000A9
:102730000000000000000000000000000000000099
:102740000000000000000000000000000000000089
:102750000000000000000000010203040102030465
:042760000607080957
:04000005080025D9F1
:00000001FF
