:020000040800F2
:1000000000C000202D3C0008EB1C0008ED1C00087F
:10001000EF1C0008F11C0008F31C000800000000A1
:10002000000000000000000000000000F51C0008B7
:10003000F71C000800000000F91C0008FB1C000869
:10004000753C0008753C0008753C0008753C0008CC
:10005000753C0008753C0008753C0008753C0008BC
:10006000753C0008753C0008753C0008753C0008AC
:10007000753C0008753C0008753C0008753C00089C
:10008000753C0008753C0008753C0008753C00088C
:10009000753C0008753C0008753C0008753C00087C
:1000A000753C0008753C0008753C0008753C00086C
:1000B000753C0008051D0008753C0008753C0008EB
:1000C000753C0008753C0008753C0008753C00084C
:1000D000753C0008753C0008753C0008753C00083C
:1000E000753C0008753C0008753C0008753C00082C
:1000F000753C0008753C0008753C0008753C00081C
:10010000753C0008753C0008753C0008753C00080B
:10011000753C0008753C0008753C0008753C0008FB
:10012000753C0008753C0008753C0008151D00086A
:1001300000000000000000000000000000000000BF
:1001400000000000000000000000000000000000AF
:10015000000000000000000000000000000000009F
:10016000000000000000000000000000000000008F
:10017000000000000000000000000000000000007F
:10018000000000000000000000000000000000006F
:10019000000000000000000000000000000000005F
:1001A000000000000000000000000000000000004F
:1001B000000000000000000000000000000000003F
:1001C000000000000000000000000000000000002F
:1001D000000000000000000000000000000000001F
:0401E0005FF8E0F1F3
:1001E8000348044B834202D0034B03B118477047BE
:1001F80010030020100300200000000005480649F5
:100208000B1AD90F01EBA301491002D0034B03B11C
:10021800184770471003002010030020000000005A
:1002280010B5064C237843B9FFF7DAFF044B13B136
:100238000448AFF300800123237010BD1003002091
:1002480000000000783C000808B5044B1BB10449C5
:100258000448AFF30080BDE80840CFE70000000085
:1002680014030020783C000870B50D4E0D4D761B28
:10027800B61006D00024013455F8043B9847A6422E
:10028800F9D1094E094D03F0F3FC761BB61006D0E0
:100298000024013455F8043B9847A642F9D170BDB3
:1002A8001C6700081C670008206700081C67000816
:1002B8000CB470B56FF000459CB020AC54F8042B1A
:1002C800094E02910691234602A901940795CDE9AA
:1002D800045600F0C3F90022029B1A701CB0BDE856
:1002E800704002B0704700BF0802FFFF0EB403461B
:1002F80030B56FF000449CB01FA951F8042B0A4890
:100308000A4D0293069301910B46006802A90794CF
:10031800CDE9044500F0A2F90022029B1A701CB036
:10032800BDE8304003B07047000000200802FFFF1E
:1003380000293AD038B551F8043C0C1F002BB8BF3F
:10034800E418054600F0D8FD224B1A682AB1A242EB
:100358000DD921686018824221D0626028461C604D
:10036800BDE8384000F0CABDA34203D81A46536816
:10037800002BF9D111685018A04217D022D8216853
:100388006018834203BFD3E900030918C4E90013C6
:10039800636054602846BDE8384000F0AFBDD2E93C
:1003A80000020144C4E90012D8E7704720680144FC
:1003B800501883421160EDD1D3E900030144C2E92A
:1003C8000013E7E70C2328462B60BDE8384000F00F
:1003D80095BD00BF2C030020F8B5CD1C25F0030502
:1003E80008350C2D38BF0C25002D064633DBA942F5
:1003F80031D82A4F00F080FD3A6852B113685B1B70
:1004080004D43FE023685B1B29D522465468002C9E
:10041800F8D1796800293BD02946304600F038FCED
:10042800431C28D0C41C24F00304A04205D0211A80
:10043800304600F02DFC01301DD02560304600F01C
:100448005DFD04F10B0020F00700231DC21A01D046
:100458001B1AA350F8BD0C2200203260F8BD0B2BEC
:1004680005D8A242636811D05360E7E714462360B9
:100478001C442560E2E70C233046336000F03EFD63
:100488000020F8BD0B2BF1D8144653683B60D5E724
:10049800304600F0FDFB7860BEE700BF2C0300206B
:1004A8002DE9F0478E6880469E420C461D46174649
:1004B800086836D8B1F80CC01CF4906F0DD13546D9
:1004C8002A46394600F0B2FC0020A2682368961B31
:1004D8002B44A6602360BDE8F087D1E9041606EB3B
:1004E800460606EBD676A0EB0109013376104B449D
:1004F800B342324684BF1E4632461CF4806F12D087
:1005080011464046FFF768FF824600B34A46216914
:1005180000F016FCA38923F4906343F08003A381C1
:1005280006E01E46CCE7404600F0EAFC824650B1A1
:10053800A6EB09030AEB09006661C4F810A0206065
:10054800A3602E46BCE721694046FFF7F1FE0C2365
:10055800C8F80030A3894FF0FF3043F04003A3816F
:10056800B9E700BF2DE9F04F936883B09046002BA0
:100578006DD0176882460C46086808378D6843E0D6
:10058800A38913F4906F2ED0D4E9041505EB450523
:10059800A0EB010B05EBD5750BEB06006D100130D8
:1005A800A8422A4684BF05462A465B0536D5114629
:1005B8005046FFF711FF00283AD05A4621690190AA
:1005C80000F0BEFBA289019B22F4906242F08002F7
:1005D800A281A5EB0B0203EB0B006561B346354620
:1005E80023612060A2605A46494600F01FFCD8F8F3
:1005F8000830A2682068551B58449E1BA5602060DF
:10060800C8F808601EB3083757E90296AB46002EB3
:10061800F9D0AE42B4D23546B346E4E7504600F0CE
:100628006FFC03460028D4D121695046FFF780FEAD
:100638000C2300224FF0FF30CAF80030A38943F0A2
:100648004003A381C8E9012203B0BDE8F08F002070
:10065800C8F8040003B0BDE8F08F00BF2DE9F04FE3
:100668008B4689899FB00C069046029004D5DBF82A
:100678001020002A00F00D8100202021302205934F
:1006880098F8003001270B908DF831108C4E8DF8BA
:100698003220002B00F08680252B00F0F88045469C
:1006A80003E0252B00F0888025466B786C1C002B16
:1006B800F7D1B4EB080A75D042465346594602981A
:1006C800FFF7EEFE01306DD00B9B6A7853440B9315
:1006D800002A67D000234FF0FF3201340693CDE99A
:1006E80008338DF85B301C93079206E02C46069B76
:1006F800801B07FA00F0184306902546052215F8D6
:10070800011B304600F0D6FAAA460028EED1069B17
:10071800D90644BF20228DF85B201A0748BF2B2238
:10072800217848BF8DF85B202A2949D1059A11689C
:100738000432002905927FDB09916178A51C2E29D6
:1007480057D0604C0322204600F0B4FA002869D044
:100758004022069B001B02FA00F00343069305F1B2
:1007680001082B780622194657488DF8303000F0DA
:10077800A1FA002866D0554B002B56D005AB009344
:100788005A46534B06A90298AFF300808146B9F147
:10079800FF3F07D00B9B4B440B9398F80030002B7E
:1007A8007FF47AAFBBF80C305B064CBF4FF0FF30DC
:1007B8000B981FB0BDE8F08FB4EB080A8AD07BE72E
:1007C800A1F13002092A88BFA246B8D8099B01E0E6
:1007D8002C460135297803EB830302EB4303A1F18F
:1007E8003002092AAA46F3D92E2904F102050993F1
:1007F800A7D19AF801102A292ED1059B0AF10200E7
:100808001A680433002A079205939AF802100AF12D
:10081800030537DB2B4C82460322204600F04AFAB8
:10082800002895D1A84655469BE7059B073323F03A
:10083800070308330593ADE7494243F002030991E2
:1008480006937AE705AB00935A46214B06A902980E
:1008580000F0D4F881469AE70023A1F13002092A72
:10086800079301D923E05546697803EB830302EB2C
:100878004303A1F13002092A05F1010AF3D902352F
:1008880007935EE74FF0FF338246079359E74446E4
:1008980020E740210393FFF79FFD039BCBF800005F
:1008A800CBF8100030B14022CBF81420E4E6AA4679
:1008B800013546E70C23029A4FF0FF30136078E7C2
:1008C800E0660008E8660008EC6600080000000022
:1008D800A90400082DE9F0470C460969A568914666
:1008E8008D42B8BF0D46156094F8431006461F4662
:1008F800DDF8208011B16A1CC9F800202368990628
:100908005CD5D9F800200232C9F80020236813F01A
:10091800060F19461DD1E1688A1A002AD8BF194660
:1009280017DD002504F1190A05E0E368D9F800206D
:100938009B1AAB420CDD0123524639463046C0476C
:10094800013005F10105F0D14FF0FF30BDE8F08727
:10095800216894F84330003318BF01238A060AD56A
:100968003021E21882F8431094F845105A1C2244AA
:1009780082F84310023304F1430239463046C04737
:100988000130E1D02368A26803F00603042B216933
:100998001DD08A4226DD4FF00009521A91440025E5
:1009A8001A3401E04D451DDA012322463946304606
:1009B800C047013005F10105F4D1C5E713F0060F72
:1009C80013D094F84330003318BF0123D3E7D9F884
:1009D8000000E3688A42A3EB000323EAE379DCDC46
:1009E800002BDCDC0020BDE8F087E168D9F80020A6
:1009F8008A1A002AD8BF194693DCAAE72DE9F043E2
:100A08000C46097E85B06E2906461746984604F1BD
:100A1800430C0C986DD039D9732900F0F48044D96F
:100A2800752900F00281782940F00F817823226827
:100A3800DFF854E284F845300168150651F8043BA4
:100A4800016040F1A180D10744BF42F0200222603A
:100A5800002B00F093801022002184F84310606876
:100A68000028A060C0F2C680216821F0040121603E
:100A7800002B40F0A280002840F0BE806546082A7E
:100A880000F0AB80ACEB0503236141E0632900F083
:100A9800E3801AD8002938D0582940F0D68084F845
:100AA80045102268DFF8E4E1C6E76F2900F0BD8051
:100AB800702940F0CA8078232268DFF8CCE142F040
:100AC8002002226084F84530B6E7642902D06929FB
:100AD80040F0BB8022680368110603F1040557D56E
:100AE800196805600B46002959DB0A22DFF89CE1EA
:100AF800B5E7036822681D1D6169056015061B6856
:100B080002D4500600F1BB801960002365462361BA
:100B1800CDF800803B4603AA21463046FFF7DAFEAF
:100B2800013020D02A46236939463046C047013073
:100B380019D0226803989207E36819D51A1A002A6F
:100B480016DD002504F1190904E0E36803981A1A70
:100B5800AA420DDD01234A4639463046C0470130D6
:100B680005F10105F1D14FF0FF3005B0BDE8F08384
:100B78009842B8BF184605B0BDE8F0832168102236
:100B880021F02001216067E7500648BF9BB25AE771
:100B98005106A5D5B3F9003005601946A3E72D2005
:100BA80061685B42002984F84300A16002DB22F0FF
:100BB800040222600A22DFF8D4E0654600E00B4612
:100BC800B3FBF2F102FB11301EF80000934205F866
:100BD800010DF4D2082A7FF455AF2368DB077FF5AF
:100BE80051AF626823699A423FF74CAF3023013D09
:100BF8002B7047E7002BE0D19EF8003004F1420546
:100C080084F842303BE703686268191D01601D687B
:100C18000021284600F04EF8002832D0401B6060C2
:100C28002061002384F8433072E72268036812F0D9
:100C3800800F03F104051AD01B6805606F290CBFEB
:100C480008220A22DFF844E006E7012384F842106C
:100C5800236104F14205E4E70122036804F1420537
:100C6800191D1B68016084F842302261D9E712F02F
:100C7800400F0DBF1B6805601B880560DEE7198003
:100C880043E76068CCE700BF08670008F46600081F
:100C980038B50023064C05460846236000F05EF987
:100CA800431C00D038BD2368002BFBD02B6038BD17
:100CB800A0040020830770B4CDB23DD0541E0AB3FF
:100CC8000378AB421FD0431C05E014F1FF3419D35D
:100CD8000278AA4217D013F0030F184603F1010354
:100CE800F3D1032C11D84CB30378AB420BD0044496
:100CF800431C02E00278AA4205D09C42184603F140
:100D08000103F7D1002070BC704702460E02B6B24C
:100D18002E4346EA0646136810467340A3F1013194
:100D280021EA030313F0803F02F10402DCD1043C02
:100D3800032C1046EFD8D6E71446D2E72046E2E760
:100D4800844641EA000313F0030349D1403A23D310
:100D58000B6803604B6843608B688360CB68C36033
:100D68000B6903614B6943618B698361CB69C3611B
:100D78000B6A03624B6A43628B6A8362CB6AC36203
:100D88000B6B03634B6B43638B6B8363CB6BC363EB
:100D980040304031403ADBD230320BD30B6803602D
:100DA8004B6843608B688360CB68C3601030103138
:100DB800103AF3D20C3205D351F8043B40F8043B07
:100DC800043AF9D2043208D0D2071CBF11F8013B0B
:100DD80000F8013B01D30B8803806046704700BFD1
:100DE800082A13D38B07B1D010F00303AED0C3F198
:100DF8000403D21ADB071CBF11F8013B00F8013BC2
:100E0800A4D331F8023B20F8023B9FE7043AD9D338
:100E1800013A11F8013B00F8013BF9D20B78037055
:100E28004B7843708B788370604670478842F0B483
:100E38000DD98B1883420AD9841832B1224613F887
:100E4800014D994202F8014DF9D1F0BC70470F2AC3
:100E58000ED80346541E002AF7D001340C44013B37
:100E680011F8012BA14203F8012FF9D1F0BC70470A
:100E780040EA01039B073AD1A2F110073F0901F1AB
:100E8800200606EB071601F1100300F1100453F8D1
:100E9800105C103344F8105C53F81C5C103444F8B0
:100EA8001C5C53F8185C44F8185C53F8145CB342A3
:100EB80044F8145CEBD17B1C1B0112F00C0F194495
:100EC80002F00F05034415D00E46043DAD0803EBB0
:100ED800850C1C1F56F8047B44F8047F6445F9D13F
:100EE8000135AD002B44294402F00302B2E7541E39
:100EF8000346B2E72A46ADE7704700BF704700BF18
:100F080009B3F8B51446CAB106460D4600F01EF8F6
:100F1800A04202D32F463846F8BD21463046FFF797
:100F28005BFA07460028F6D022462946FFF708FF55
:100F380030462946FFF7FCF93846F8BD2746FFF743
:100F4800F7F93846F8BD1146FFF746BA51F8043CA0
:100F5800181F002BBCBF0B58C0187047044A05491E
:100F68001368002B08BF0B461844106018467047DA
:100F780034030020A80400204FF0FF0C1CEAD052D4
:100F88001EBF1CEAD15392EA0C0F93EA0C0F6FD0E4
:100F98001A4480EA010C400218BF5FEA41211ED0C2
:100FA8004FF0006343EA501043EA5111A0FB0131AE
:100FB8000CF00040B1F5000F3EBF490041EAD37183
:100FC8005B0040EA010062F17F02FD2A1DD8B3F1FF
:100FD800004F40EBC25008BF20F00100704790F06E
:100FE800000F0CF0004C08BF49024CEA502040EAC0
:100FF80051207F3AC2BFD2F1FF0340EAC250704786
:1010080040F400004FF00003013A5DDC12F1190FC3
:10101800DCBF00F000407047C2F10002410021FA35
:1010280002F1C2F1200200FA02FC5FEA310040F14D
:10103800000053EA4C0308BF20EADC70704792F0C6
:10104800000F00F0004C02BF400010F4000F013AFE
:10105800F9D040EA0C0093F0000F01F0004C02BFF9
:10106800490011F4000F013BF9D041EA0C018FE768
:101078000CEAD15392EA0C0F18BF93EA0C0F0AD06E
:1010880030F0004C18BF31F0004CD8D180EA010094
:1010980000F00040704790F0000F17BF90F0004F2D
:1010A800084691F0000F91F0004F14D092EA0C0F0F
:1010B80001D142020FD193EA0C0F03D14B0218BFA2
:1010C800084608D180EA010000F0004040F0FE40E8
:1010D80040F40000704740F0FE4040F44000704784
:1010E80081F0004102E000BF83F0004330B54FEAD1
:1010F80041044FEA430594EA050F08BF90EA020F3E
:101108001FBF54EA000C55EA020C7FEA645C7FEAD0
:10111800655C00F0E2804FEA5454D4EB5555B8BFF3
:101128006D420CDD2C4480EA020281EA030382EA64
:10113800000083EA010180EA020281EA0303362DF6
:1011480088BF30BD11F0004F4FEA01314FF4801CC9
:101158004CEA113102D0404261EB410113F0004FDB
:101168004FEA03334CEA133302D0524263EB430392
:1011780094EA050F00F0A780A4F10104D5F1200E30
:101188000DDB02FA0EFC22FA05F2801841F100018B
:1011980003FA0EF2801843FA05F359410EE0A5F15F
:1011A80020050EF1200E012A03FA0EFC28BF4CF090
:1011B800020C43FA05F3C01851EBE37101F0004546
:1011C80007D54FF0000EDCF1000C7EEB00006EEB53
:1011D8000101B1F5801F1BD3B1F5001F0CD34908DD
:1011E8005FEA30004FEA3C0C04F101044FEA445234
:1011F80012F5800F80F09A80BCF1004F08BF5FEABB
:10120800500C50F1000041EB045141EA050130BD9A
:101218005FEA4C0C404141EB0101013C28BFB1F5AC
:10122800801FE9D291F0000F04BF01460020B1FAF7
:1012380081F308BF2033A3F10B03B3F120020CDACA
:101248000C3208DD02F1140CC2F10C0201FA0CF0A8
:1012580021FA02F10CE002F11402D8BFC2F1200C0D
:1012680001FA02F120FA0CFCDCBF41EA0C019040C3
:10127800E41AA2BF01EB0451294330BD6FEA04040C
:101288001F3C1CDA0C340EDC04F11404C4F12002F7
:1012980020FA04F001FA02F340EA030021FA04F309
:1012A80045EA030130BDC4F10C04C4F1200220FA60
:1012B80002F001FA04F340EA0300294630BD21FA9E
:1012C80004F0294630BD94F0000F83F4801306BF64
:1012D80081F480110134013D4EE77FEA645C18BF58
:1012E8007FEA655C29D094EA050F08BF90EA020FEF
:1012F80005D054EA000C04BF1946104630BD91EAE7
:10130800030F1EBF0021002030BD5FEA545C05D1E9
:101318004000494128BF41F0004130BD14F5800428
:101328003CBF01F5801130BD01F0004545F0FE419C
:1013380041F470014FF0000030BD7FEA645C1ABFD1
:10134800194610467FEA655C1CBF0B46024650EA08
:10135800013406BF52EA033591EA030F41F4002134
:1013680030BD00BF90F0000F04BF0021704730B5BA
:101378004FF4806404F132044FF000054FF000018F
:1013880050E700BF90F0000F04BF0021704730B550
:101398004FF4806404F1320410F0004548BF404225
:1013A8004FF000013EE700BF42004FEAE2014FEA7A
:1013B80031014FEA02701FBF12F07F4393F07F4F55
:1013C80081F06051704732F07F4208BF704793F058
:1013D8007F4F04BF41F40021704730B54FF460746B
:1013E80001F0004521F000411CE700BF50EA01026E
:1013F80008BF704730B54FF000050AE050EA010217
:1014080008BF704730B511F0004502D5404261EB86
:1014180041014FF4806404F132045FEA915C3FF4C7
:10142800D8AE4FF003025FEADC0C18BF03325FEA64
:10143800DC0C18BF033202EBDC02C2F1200300FA15
:1014480003FC20FA02F001FA03FE40EA0E0021FA3A
:1014580002F11444BDE600BF4FEA4102B2F1E04395
:1014680024BFB3F5001CDCF1FE5C0DD901F0004C83
:101478004FEAC0024CEA5070B2F1004F40EB8300D3
:1014880008BF20F00100704711F0804F21D113F1FF
:101498003872BCBF01F00040704741F480114FEA38
:1014A8005252C2F11802C2F1200C10FA0CF320FAC1
:1014B80002F018BF40F001004FEAC1234FEAD323DE
:1014C80003FA0CFC40EA0C0023FA02F34FEA430348
:1014D800CCE77FEA625307D150EA01331EBF4FF0D1
:1014E800FE4040F44000704701F0004040F0FE40EC
:1014F80040F40000704700BF80F0004002E000BFE9
:1015080081F0004142001FBF5FEA410392EA030FE6
:101518007FEA226C7FEA236C6AD04FEA1262D2EB30
:101528001363C1BFD218414048404140B8BF5B4235
:10153800192B88BF704710F0004F40F4000020F0CE
:101548007F4018BF404211F0004F41F4000121F0E4
:101558007F4118BF494292EA030F3FD0A2F101022E
:1015680041FA03FC10EB0C00C3F1200301FA03F16C
:1015780000F0004302D5494260EB4000B0F5000F8F
:1015880013D3B0F1807F06D340084FEA310102F14E
:101598000102FE2A51D2B1F1004F40EBC25008BF00
:1015A80020F0010040EA03007047490040EB0000CA
:1015B800013A28BFB0F5000FEDD2B0FA80FCACF1CB
:1015C800080CB2EB0C0200FA0CF0AABF00EBC250F8
:1015D80052421843BCBFD0401843704792F0000FE6
:1015E80081F4000106BF80F400000132013BB5E739
:1015F8004FEA41037FEA226C18BF7FEA236C21D0AF
:1016080092EA030F04D092F0000F08BF0846704713
:1016180090EA010F1CBF0020704712F07F4F04D1E1
:10162800400028BF40F00040704712F100723CBFF4
:1016380000F50000704700F0004343F0FE4040F41E
:10164800000070477FEA226216BF08467FEA2363DC
:101658000146420206BF5FEA412390EA010F40F4C7
:10166800800070474FF0000304E000BF10F0004313
:1016780048BF40425FEA000C08BF704743F09643FA
:1016880001464FF000001CE050EA010208BF704715
:101698004FF000030AE000BF50EA010208BF70479C
:1016A80011F0004302D5404261EB41015FEA010CB1
:1016B80002BF84460146002043F0B64308BFA3F1A9
:1016C8008053A3F50003BCFA8CF2083AA3EBC2538B
:1016D80010DB01FA02FC634400FA02FCC2F12002AA
:1016E800BCF1004F20FA02F243EB020008BF20F0E1
:1016F8000100704702F1200201FA02FCC2F1200247
:1017080050EA4C0021FA02F243EB020008BF20EA3B
:10171800DC7070474FF0FF3C06E000BF4FF0010C53
:1017280002E000BF4FF0010C4DF804CD4FEA400233
:101738004FEA41037FEA226C18BF7FEA236C11D07D
:1017480001B052EA530C18BF90EA010F58BFB2EB30
:10175800030088BFC81738BF6FEAE17018BF40F0B0
:10176800010070477FEA226C02D15FEA402C05D164
:101778007FEA236CE4D15FEA412CE1D05DF8040BE9
:10178800704700BF844608466146FFE70FB5FFF77C
:10179800C9FF002848BF10F1000F0FBD4DF808ED34
:1017A800FFF7F4FF0CBF012000205DF808FB00BF25
:1017B8004DF808EDFFF7EAFF34BF012000205DF87F
:1017C80008FB00BF4DF808EDFFF7E0FF94BF0120CC
:1017D80000205DF808FB00BF4DF808EDFFF7D2FFC9
:1017E80094BF012000205DF808FB00BF4DF808ED0C
:1017F800FFF7C8FF34BF012000205DF808FB00BFD9
:101808004FEA4002B2F1FE4F0FD34FF09E03B3EB05
:1018180012620DD94FEA002343F0004310F0004F45
:1018280023FA02F018BF404270474FF0000070479B
:1018380012F1610F01D1420205D110F0004008BF3A
:101848006FF0004070474FF00000704770B588B0E7
:10185800002404940594069407941C4B9A6942F05A
:1018680020029A619A6902F020020192019A9A690B
:1018780042F010029A619A6902F010020292029AEA
:101888009A6942F004029A619B6903F00403039386
:10189800039B0F4D22460C21284601F093FD04239B
:1018A80004930126059606940224079404A9284661
:1018B80001F06CFC0823049305960696079404A986
:1018C800284601F063FC08B070BD00BF001002405C
:1018D8000010014000B583B00A4B5A6942F0020279
:1018E8005A615B6903F002030193019B0122002105
:1018F8003B2001F099FF3B2001F0CAFF03B05DF8DF
:1019080004FB00BF0010024010B582B00023009312
:101918000193084C084B2360204602F003F8042387
:1019280000930223019310226946204602F09CF896
:1019380002B010BD840300200074004030B587B0A9
:1019480000240294039404940594009401940F4D88
:101958000F4B2B6041F61F436B60AC6042F20F7374
:10196800EB602C61AC61284600F0CAFF4FF480534D
:10197800029302A9284600F0E8FF00940194694602
:10198800284601F04FF807B030BD00BF44030020DF
:101998000004004030B583B00025009501950A4C3D
:1019A8000A4B23606560A5602723E360A561204694
:1019B80000F0A6FF2023009301956946204601F018
:1019C80031F803B030BD00BF98030020001000407C
:1019D80030B587B0002402940394049405940094CD
:1019E80001940F4D0F4B2B606C60AC60EC602C6168
:1019F8006C61AC61284600F083FF4FF400530293FA
:101A080003940494059402A9284600F09EFF0094CC
:101A180001946946284601F005F807B030BD00BFBB
:101A28001C040020002C014030B591B0002409941A
:101A38000B940C9401940294039404940594012249
:101A480006924FF48033079308940A9202250D9565
:101A58000E934FF4E0130F9306A801F07DF80F23BF
:101A68000193029503944FF48063049305942946E7
:101A780001A801F0AFFA11B030BD0000000000006D
:101A88002DE9F0419CB05C4C2378013323705B4E08
:101A98003068FFF789FC56A3D3E90023FFF726FB3C
:101AA800FFF7DAFC3060564800F0B8FC4FF6FF71DB
:101AB800002000F0BFFC534D534B1B882A8800219F
:101AC800084600F027FC2278504903A8FEF70EFCD0
:101AD80000F0AAFCC08800EB800080B200F0BAFCDD
:101AE80000F0A2FCC08800EB800003A980B200F0DF
:101AF80067FC474B1A68474903A8FEF7F7FB00F055
:101B080093FCC088C0EBC00080B200F0A3FC00F0DA
:101B18008BFCC088C0EBC00003A980B200F050FC69
:101B280037683846FFF76CFE06464FF47A7808FBAC
:101B380000F839493846FFF71FFA07464046FFF7CD
:101B480095FD01463846FFF7DBFCFFF759FE0346D3
:101B58003246324903A8FEF7C9FB00F065FCC0888D
:101B680000EB4000400080B200F074FC00F05CFC28
:101B7800C08800EB4000400080B203A900F020FCC0
:101B8800274800F04BFC1F2000F05EFC2D8800F079
:101B98004BFC8288B5FBF2F2023A224B00932023D9
:101BA8005208214903A8FEF7A1FB00F03DFCC088BC
:101BB80000EBC00080B200F04DFC00F035FCC0889E
:101BC80000EBC00003A980B200F0FAFB2378632B76
:101BD80001D9002222701549084B1868FFF7FCFD4F
:101BE80010B1064B00221A601CB0BDE8F08100BF9E
:101BF8007B14AE47E17A843F400300203C03002079
:101C0800FC020020EE020020F0020020F03C000858
:101C180038030020F83C000800007A44083D00081A
:101C2800F4020020203D0008183D00080000C842CA
:101C380000B583B000F042FF00F08EF800F02CFBF6
:101C4800FFF7F2FEFFF702FEFFF744FEFFF75CFE28
:101C5800FFF774FEFFF79EFEFFF7BAFE1A4800F082
:101C680008FD1A4C204600F004FD194800F001FD5B
:101C7800204600F027FD002300934FF4A073154A77
:101C88001021154801F060FEFFF7FAFE134C0421FD
:101C9800204601F09DFBC82000F034FF04212046B7
:101CA80001F096FBC82000F02DFF0821204601F026
:101CB8008FFBC82000F026FF0821204601F088FB92
:101CC800C82000F01FFFDFE71C04002044030020A9
:101CD80098030020640000208403002000100140C5
:101CE80070477047FEE7FEE7FEE7FEE7704770477C
:101CF800704708B500F0F4FE08BD000008B50248BA
:101D080000F0F5FC08BD00BF4403002008B50248F8
:101D180001F002FC08BD00BFD803002038B50B4D08
:101D2800284600F0B8FC0A4C204600F0B4FC2A68AB
:101D3800516A084B1960002353622268536228468F
:101D480000F097FC204600F094FC38BD1C040020ED
:101D5800440300203803002008B50848084B0360F6
:101D68004FF4E133436000238360C3600361836100
:101D78000C23436101F026FF08BD00BF5C0400206E
:101D88000038014010B588B01A4B9A6942F4804275
:101D98009A619A6902F480420192019A9A6942F022
:101DA80004029A619A6902F004020292029A9A69FC
:101DB80042F004029A619B6903F004030393039BB6
:101DC8004FF400730493022305930123069303231E
:101DD8000793094C04A9204601F0D8F94FF4806311
:101DE80004930023059304A9204601F0CFF908B015
:101DF80010BD00BF001002400008014082B00190F1
:101E0800019B1BB1019B013B0193F9E702B07047AD
:101E180010B588B02C4B9A6942F010029A619A6901
:101E280002F010020092009A9A6942F020029A6128
:101E38009A6902F020020192019A9A6942F0080216
:101E48009A619A6902F008020292029A9A6942F02B
:101E580001029A619B6903F001030393039B1B4AE8
:101E6800536823F0E06343F0007353600123059344
:101E78000693032307934FF6FF73049304A91448AA
:101E880001F084F920230493124C04A9204601F0A0
:101E98007DF94023049304A9204601F077F9102323
:101EA80004930DEB0301204601F070F9802304939D
:101EB80004A9204601F06AF90423049304A90648FA
:101EC80001F064F908B010BD0010024000000140A4
:101ED800000C01400010014000140140064B102284
:101EE8005A6180215961202119610449C860402143
:101EF800596119611A61704700100140000C0140D6
:101F0800064B10225A618021196120211961044968
:101F1800C8604021596119611A6170470010014079
:101F2800000C014008B54FF6FF70FFF767FFCF20A0
:101F3800FFF7D4FF0020FFF7E3FF8120FFF7E0FF62
:101F48003020FFF7DDFF4FF6FF70FFF757FFED205A
:101F5800FFF7C4FF6420FFF7D3FF0320FFF7D0FF8C
:101F68001220FFF7CDFF8120FFF7CAFF4FF6FF7061
:101F7800FFF744FFE820FFF7B1FF8520FFF7C0FF18
:101F88001020FFF7BDFF7820FFF7BAFF4FF6FF706C
:101F9800FFF734FFCB20FFF7A1FF3920FFF7B0FF91
:101FA8002C20FFF7ADFF0020FFF7AAFF3420FFF732
:101FB800A7FF0220FFF7A4FF4FF6FF70FFF71EFFF1
:101FC800F720FFF78BFF2020FFF79AFF4FF6FF70EF
:101FD800FFF714FFEA20FFF781FF0020FFF790FFCB
:101FE8000020FFF78DFF4FF6FF70FFF707FFB120C6
:101FF800FFF774FF0020FFF783FF1B20FFF780FF28
:102008004FF6FF70FFF7FAFEB620FFF767FF0A20CA
:10201800FFF776FFA220FFF773FF4FF6FF70FFF779
:10202800EDFEC020FFF75AFF3520FFF769FF4FF696
:10203800FF70FFF7E3FEC120FFF750FF1120FFF705
:102048005FFFC520FFF74AFF4520FFF759FF4520EE
:10205800FFF756FFC720FFF741FFA220FFF750FF09
:10206800F220FFF73BFF0020FFF74AFF2620FFF78B
:1020780035FF0120FFF744FF4FF6FF70FFF7BEFE64
:10208800E020FFF72BFF0F20FFF73AFF2620FFF78E
:1020980037FF2420FFF734FF0B20FFF731FF0E2016
:1020A800FFF72EFF0920FFF72BFF5420FFF728FF2B
:1020B800A820FFF725FF4620FFF722FF0C20FFF797
:1020C8001FFF1720FFF71CFF0920FFF719FF0F203C
:1020D800FFF716FF0720FFF713FF0020FFF710FF99
:1020E800E120FFF7FBFE0020FFF70AFF1920FFF7AA
:1020F80007FF1B20FFF704FF0420FFF701FF102054
:10210800FFF7FEFE0720FFF7FBFE2A20FFF7F8FE89
:102118004720FFF7F5FE3920FFF7F2FE0320FFF70F
:10212800EFFE0620FFF7ECFE0620FFF7E9FE302061
:10213800FFF7E6FE3820FFF7E3FE0F20FFF7E0FE8B
:102148004FF6FF70FFF75AFE3620FFF7C7FEC8208C
:10215800FFF7D6FE4FF6FF70FFF750FE2A20FFF775
:10216800BDFE0020FFF7CCFE0020FFF7C9FE0020CF
:10217800FFF7C6FEEF20FFF7C3FE4FF6FF70FFF72D
:102188003DFE2B20FFF7AAFE0020FFF7B9FE002036
:10219800FFF7B6FE0120FFF7B3FE3F20FFF7B0FEC2
:1021A8004FF6FF70FFF72AFE3A20FFF797FE5520FB
:1021B800FFF7A6FE1120FFF791FE0548FFF71EFE68
:1021C8004FF6FF70FFF71AFE2920FFF787FE08BDBC
:1021D800FCBF020020B1044B4FF480221A61704703
:1021E800014B04221A6170470014014007284BD89C
:1021F80010B50446254B187010F0010F3CD1244B44
:10220800F0221A80234B4FF4A0721A803620FFF771
:1022180065FE600140F00800FFF772FE2A20FFF714
:102228005DFE0020FFF76CFE0020FFF769FE184CEA
:1022380020880138C0F30720FFF762FE20880138A4
:10224800C0B2FFF75DFE2B20FFF748FE0020FFF726
:1022580057FE0020FFF754FE0E4C20880138C0F3CB
:102268000720FFF74DFE20880138C0B2FFF748FE6F
:102278002C20FFF733FE10BD054B4FF4A0721A80D7
:10228800044BF0221A80C1E7704700BFEC0200201F
:10229800EE020020F002002008B5FFF7B9FD01208A
:1022A800FFF798FFFFF73EFE024B1878FFF79EFFF7
:1022B80008BD00BFEC020020F8B505460C461746DD
:1022C8001E462A20FFF70AFE280AFFF719FEE8B281
:1022D800FFF716FE3D44681EC0F30F20FFF710FEFF
:1022E800ADB2681EC0B2FFF70BFE2B20FFF7F6FD5C
:1022F800200AFFF705FEE0B2FFF702FE3444601E35
:10230800C0F30F20FFF7FCFDA4B2601EC0B2FFF7B8
:10231800F7FDF8BD70B514461D46FFF7CDFF05FB68
:1023280004F5074B1E882C20FFF7D8FD0024A54292
:1023380004D93046FFF7E4FD0134F8E770BD00BF6B
:10234800E40200202DE9F041A2F12006B6B2194BB3
:102358001C68A288E38803FB02F8B8F1000F0BDBC6
:10236800C8F3C708276806FB08F6FFF7A5FF2C2067
:10237800FFF7B4FD002517E008F10708F0E70E4B5A
:102388001888FFF7BDFD0134E4B2072C0AD8BB1941
:102398005A5D802323411A42F1D0084B1888FFF771
:1023A800AFFDF0E70135EDB2454501D20024ECE779
:1023B800BDE8F081E8020020E4020020420300208A
:1023C80070B505460E46002411E0CB882B44104911
:1023D80009888B4201DD0024254629462046FFF75F
:1023E800B1FF01360B4B1B689B881C44A4B23278A2
:1023F80062B1084B19688B882344074800888342D8
:10240800E3DDC8880544ADB20024DEE770BD00BF37
:10241800F0020020E8020020EE020020014B1860C4
:10242800704700BFE8020020014B1868704700BFE2
:10243800E8020020024B1880024B1980704700BF49
:1024480042030020E4020020014B1880704700BFBF
:102458004203002038B50446054B1D88FFF7E4FF0A
:10246800C3882A4621460020FFF754FF38BD00BF25
:10247800EE02002000B583B00F4B9A6942F00102CA
:102488009A619A6902F001020092009ADA6942F0B0
:102498008052DA61DB6903F080530193019B0620C7
:1024A80001F0B0F9054A536823F0E06343F0007384
:1024B800536003B05DF804FB0010024000000140C7
:1024C80030B587B000230293039304930593026801
:1024D8001F4B9A4201D007B030BD044603F5CE33F6
:1024E800DA6942F00052DA61DA6902F000520092C9
:1024F800009A9A6942F004029A619B6903F0040306
:102508000193019B202502950323039302A91148F7
:1025180000F03CFE1048114B036010234360002379
:1025280083608023C3604FF4807303614FF480633A
:10253800436185614FF40053C36100F067FF18B928
:10254800054BE3605C62C6E7FFF7CAFBF8E700BF2C
:102558000074004000080140D803002044040240F1
:1025680000B589B000230493059306930793036885
:10257800244A934208D0244A934224D0234A9342BF
:1025880034D009B05DF804FB214B9A6942F400622B
:102598009A619A6902F400620092009A9A6942F07C
:1025A80004029A619B6903F004030193019B4FF4B1
:1025B80080530493002305930223069304A9154826
:1025C80000F0E4FDDDE7124BDA6942F00202DA615D
:1025D800DB6903F002030293029B032201211D2001
:1025E80001F022F91D2001F053F9CAE7084BDA6916
:1025F80042F01002DA61DB6903F010030393039BD6
:10260800BFE700BF002C014000040040001000405C
:10261800001002400008014030B4036A056A25F042
:1026280001050562846924F0F00444EA021423F0E9
:102638000A030B438461036230BC704730B4056AF7
:1026480025F0100505628469036A24F4704444EA9D
:10265800023423F0A00343EA01138461036230BC0F
:102668007047836823F070030B4343F007038360CC
:102678007047022380F83D300268936803F007032F
:10268800062B03D0136843F001031360012380F87D
:102698003D3000207047022380F83D300368196AF6
:1026A80041F21112114208D1196A40F24442114212
:1026B80003D11A6822F001021A60012380F83D3024
:1026C800002070470268D36843F00103D3600268B2
:1026D800936803F00703062B03D0136843F0010344
:1026E800136000207047704770477047704710B5F7
:1026F800044603681A6912F0020F11D0DA6812F062
:10270800020F0DD06FF002021A61012303770368EC
:102718009B6913F0030F70D0FFF7E6FF00232377C0
:1027280023681A6912F0040F12D0DA6812F0040F45
:102738000ED06FF004021A610223237723689B6985
:1027480013F4407F5FD02046FFF7CEFF00232377A6
:1027580023681A6912F0080F12D0DA6812F0080F0D
:102768000ED06FF008021A61042323772368DB690F
:1027780013F0030F4ED02046FFF7B6FF0023237750
:1027880023681A6912F0100F12D0DA6812F0100FCD
:102798000ED06FF010021A61082323772368DB69D3
:1027A80013F4407F3DD02046FFF79EFF0023237798
:1027B80023681A6912F0010F03D0DA6812F0010FCA
:1027C80036D123681A6912F0800F03D0DA6812F044
:1027D800800F34D123681A6912F0400F03D0DA68E9
:1027E80012F0400F32D123681A6912F0200F03D07B
:1027F800DA6812F0200F30D110BDFFF774FF2046C1
:10280800FFF773FF8AE72046FFF76DFF2046FFF7C3
:102818006CFF9BE72046FFF766FF2046FFF765FF42
:10282800ACE72046FFF75FFF2046FFF75EFFBDE7F6
:102838006FF001021A612046FFF770FAC1E76FF0E6
:1028480080021A61204600F011F9C3E76FF04002D8
:102858001A612046FFF74AFFC5E76FF020021A61A8
:10286800204600F002F9C7E70368244A904212D0D4
:1028780002F5006290420ED0B0F1804F0BD0A2F565
:102888009832904207D002F58062904203D002F558
:102898008062904203D123F070034A681343174AB9
:1028A800904212D002F5006290420ED0B0F1804FF3
:1028B8000BD0A2F59832904207D002F58062904280
:1028C80003D002F58062904203D123F44073CA68B2
:1028D800134323F080034A69134303608B68C36280
:1028E8000B688362054B984203D003F50063984256
:1028F80001D10B690363012343617047002C014038
:10290800B0B110B5044690F83D3063B1022384F8A5
:102918003D30214651F8040BFFF7A6FF012384F848
:102928003D30002010BD80F83C30FFF719FEEDE780
:102938000120704710B4846824F47F4442EA0322DB
:102948000A432243826010BC704790F83C30012B48
:1029580066D010B50446012380F83C30022380F885
:102968003D300268936823F47F4323F07703936034
:102978000B68602B40D022D8402B47D00BD9502B66
:102988000ED1CA6849680068FFF746FE50212068E2
:10299800FFF767FE04E0202B0CD008D9302B09D0B4
:1029A800012384F83D30002084F83C0010BD0BB1B1
:1029B800102BF5D119462068FFF753FEF0E7702B6E
:1029C8000ED0B3F5005FEBD1CB684A688968006820
:1029D800FFF7B0FF2268936843F480439360DFE712
:1029E800CB684A6889680068FFF7A4FF2268936883
:1029F80043F077039360D3E7CA6849680068FFF734
:102A08001DFE60212068FFF72CFEC9E7CA684968E7
:102A18000068FFF701FE40212068FFF722FEBFE7AC
:102A28000220704790F83C30012B1CD070B401266E
:102A380080F83C60022380F83D300268556893684E
:102A480025F070050C682C4323F080054B682B4358
:102A580054600268936080F83D60002380F83C3041
:102A6800184670BC704702207047704770470000D6
:102A780010B504460E4B18784FF47A73B3FBF0F395
:102A88000C4A1068B0FBF3F000F010FF68B90F2C87
:102A980001D901200AE0002221464FF0FF3000F062
:102AA800C3FE054B1C60002000E0012010BD00BFE4
:102AB800040300200C0300200803002008B5074A7F
:102AC800136843F010031360032000F09BFE0020FE
:102AD800FFF7CEFFFFF7CEFC002008BD0020024024
:102AE800034A1168034B1B780B441360704700BFFF
:102AF8009C04002004030020014B1868704700BFA5
:102B08009C04002038B50446FFF7F6FF0546B4F1EB
:102B1800FF3F02D0044B1B781C44FFF7EDFF401B1E
:102B2800A042FAD338BD00BF0403002082B0084B8E
:102B38001B68084AA2FB03235B0A00FB03F301930B
:102B480000BF019B5A1E0192002BF9D102B07047B9
:102B58000C030020D34D6210002800F0F18170B5FD
:102B680082B00446036813F0010F2CD0AA4B5B68AF
:102B780003F00C03042B1DD0A74B5B6803F00C0378
:102B8800082B12D06368B3F5803F41D0002B55D194
:102B980003F1804303F504331A6822F480321A6083
:102BA8001A6822F480221A6037E09B4B5B6813F4A2
:102BB800803FE7D0984B1B6813F4003F03D063684D
:102BC800002B00F0BF81236813F0020F75D0924BE1
:102BD8005B6813F00C0F5FD08F4B5B6803F00C033E
:102BE800082B54D02369002B00F089808B4B0122DD
:102BF8001A60FFF781FF0546874B1B6813F0020F29
:102C080074D1FFF779FF401B0228F5D903209EE114
:102C1800814A136843F480331360636843B3FFF752
:102C28006BFF05467C4B1B6813F4003FCBD1FFF7C5
:102C380063FF401B6428F5D9032088E1B3F5A02F72
:102C480009D0754B1A6822F480321A601A6822F487
:102C580080221A60E1E703F18043A3F53C331A6848
:102C680042F480221A601A6842F480321A60D4E76B
:102C7800FFF742FF0546684B1B6813F4003FA2D0DC
:102C8800FFF73AFF401B6428F5D903205FE1624B48
:102C98005B6813F4803FA5D15F4B1B6813F0020FEC
:102CA80003D02369012B40F04F815B4A136823F05E
:102CB800F803616943EAC1031360236813F0080F3E
:102CC80032D0A369002B45D0554B01221A60FFF77B
:102CD80013FF0546504B5B6A13F0020F21D1FFF733
:102CE8000BFF401B0228F5D9032030E14A4A13683C
:102CF80023F0F803616943EAC1031360DDE7474B3A
:102D080000221A60FFF7F8FE0546434B1B6813F0D4
:102D1800020FD2D0FFF7F0FE401B0228F5D903209E
:102D280015E10120FFF702FF236813F0040F00F0FC
:102D38009780394BDB6913F0805F1DD1364BDA6918
:102D480042F08052DA61DB6903F080530193019B02
:102D5800012512E0324B00221A60FFF7CDFE05462E
:102D68002D4B5B6A13F0020FDED0FFF7C5FE401B48
:102D78000228F5D90320EAE000252A4B1B6813F442
:102D8800807F11D0E368012B22D0002B38D103F1CA
:102D9800804303F504331A6A22F001021A621A6AA0
:102DA80022F004021A6218E01E4A136843F4807382
:102DB8001360FFF7A1FE06461A4B1B6813F4807FC9
:102DC800E0D1FFF799FE801B6428F5D90320BEE007
:102DD800114A136A43F001031362E36873B3FFF700
:102DE8008BFE06460C4B1B6A13F0020F37D1FFF718
:102DF80083FE801B41F288339842F3D90320A6E072
:102E0800052B11D0044B1A6A22F001021A621A6AC1
:102E180022F004021A62E0E7001002400000424279
:102E280080044242007000404D4B1A6A42F004028E
:102E38001A621A6A42F001021A62CEE7FFF75CFED4
:102E48000646474B1B6A13F0020F08D0FFF754FEE3
:102E5800801B41F288339842F3D9032077E0E5B923
:102E6800E369002B72D03E4A526802F00C02082A2D
:102E780056D0022B17D03B4B00221A60FFF73CFEBE
:102E88000446374B1B6813F0007F47D0FFF734FE2A
:102E9800001B0228F5D9032059E0314AD36923F0F1
:102EA8008053D361DCE72F4B00221A60FFF724FE22
:102EB80005462B4B1B6813F0007F06D0FFF71CFE5E
:102EC800401B0228F5D9032041E0236AB3F5803F6F
:102ED8001AD023494B6823F47413226A606A0243A8
:102EE80013434B601F4B01221A60FFF705FE04468F
:102EF8001B4B1B6813F0007F0ED1FFF7FDFD001B75
:102F08000228F5D9032022E0154A536823F4003338
:102F1800A1680B435360DCE7002018E0002016E0AE
:102F2800012B16D00E4B5B6803F48031226A914264
:102F380011D103F47013626A93420ED1002006E0A7
:102F480001207047012002E0012000E0002002B0CB
:102F580070BD0120FBE70120F9E70120F7E700BF7A
:102F6800001002406000424286B0164B0FCB0DF1B4
:102F7800180C0CE90F0040F20123ADF80430124B95
:102F88005B6803F00C02082A02D0104806B07047AC
:102F9800C3F38342624412F8102C13F4803F0CD020
:102FA800094B5B68C3F34043634413F8143C074878
:102FB80000FB02F0B0FBF3F0E8E7054800FB02F085
:102FC800E4E700BFB46600080010024000127A006F
:102FD80000093D00002800F0A08070B50D460446A9
:102FE800524B1B6803F007038B420BD24F4A1368FE
:102FF80023F007030B431360136803F007038B42A6
:1030080040F08D80236813F0020F17D013F0040FDF
:1030180004D0474A536843F4E0635360236813F0CD
:10302800080F04D0424A536843F460535360404A3F
:10303800536823F0F003A1680B435360236813F02F
:10304800010F31D06368012B20D0022B25D0384ADC
:10305800126812F0020F64D035494A6822F0030260
:1030680013434B60FFF748FD0646314B5B6803F09E
:103078000C036268B3EB820F16D0FFF73DFD801B8F
:1030880041F288339842F0D9032045E0284A126873
:1030980012F4003FE0D101203EE0254A126812F008
:1030A800007FD9D1012037E0204B1B6803F00703CC
:1030B800AB420AD91D4A136823F007032B43136058
:1030C800136803F00703AB422DD1236813F0040FF4
:1030D80006D0174A536823F4E063E1680B43536052
:1030E800236813F0080F07D0114A536823F460537C
:1030F800216943EAC1035360FFF736FF0C4B5B6855
:10310800C3F303130B4AD35CD8400B4B18600B4B2B
:103118001868FFF7ADFC002070BD01207047012042
:10312800FAE70120F8E70120F6E700BF0020024097
:1031380000100240C86600080C03002008030020A5
:10314800014B1868704700BF0C03002008B5FFF753
:10315800F7FF044B5B68C3F30223034AD35CD840F0
:1031680008BD00BF00100240D866000808B5FFF788
:10317800E7FF044B5B68C3F3C223034AD35CD84020
:1031880008BD00BF00100240D8660008F0B482B045
:1031980000252C46ABE0854FBB4210D007D9844FA1
:1031A800BB420CD007F58037BB4208D013E0A7F527
:1031B8008017BB4203D007F57027BB4207D18B6845
:1031C800002B60D0012B59D04261082503E0A7F5F8
:1031D8008017BB42F3D0FF2E57D88446FF2E57D80E
:1031E800A200DCF800300F27974023EA070305FA0E
:1031F80002F21343CCF800304B6813F0805F75D0AF
:103208006C4B9A6942F001029A619B6903F00103D1
:103218000193019BA208971C674B53F827C004F041
:1032280003039F000F23BB402CEA030C634B984217
:1032380034D003F58063984200F0948003F58063EE
:10324800984200F0918003F58063984200F08E80E8
:1032580003F58063984200F08B8003F58063984201
:103268001AD006231BE0CD68B5E7CD680435B2E770
:10327800CD680835AFE7CD680C35ACE702610825A5
:10328800A9E70025A7E70425A5E700F1040CA5E7B1
:10329800A4F108029200A4E7052300E00023BB4044
:1032A80043EA0C030232444F47F822304B6813F4C8
:1032B800803F5FD0424A1368334313604B6813F46E
:1032C800003F5DD03E4A5368334353604B6813F464
:1032D800801F5BD03A4A9368334393604B6813F47A
:1032E800001F59D0364AD3681E43D66001340B6894
:1032F80033FA04F256D00122A24003EA020632EA67
:103308000303F3D14B68122B3FF645AF122B3FF660
:1033180062AF01A757F823F0C73100086F320008E1
:10332800793200088B320008DF310008DF310008ED
:10333800DF310008DF310008DF310008DF31000825
:10334800DF310008DF310008DF310008DF31000815
:10335800DF310008DF310008DF3100087332000870
:103368007F32000801239AE7022398E7032396E7B0
:10337800042394E7124A136823EA060313609DE7BF
:103388000F4A536823EA060353609FE70C4A936881
:1033980023EA06039360A1E7094AD36823EA0606ED
:1033A800D660A3E702B0F0BC704700BF000022104F
:1033B80000003110001002400000014000080140E8
:1033C800000401400AB101617047090401617047B6
:1033D800C3680B4201D0416170470161704770B406
:1033E800066CC56B0124B4406C6004686360436874
:1033F800102B05D0036899600368DA6070BC7047C9
:1034080003689A600368D960F8E7000000283AD09A
:1034180010B4024600681D4B984229D81C4B03443F
:103428001C49A1FB03131B099B0013641A4BD363AC
:10343800022382F82130016821F47F5121F0300104
:10344800536894682343D468234314692343546915
:10345800234394692343D46923430B430360002027
:103468009063012382F8213082F8200010BC704755
:103478000A4B03440749A1FB03131B099B00136470
:10348800074BD363D4E70120704700BF070402400D
:10349800F8FFFDBFCDCCCCCC00000240F8FBFDBF4F
:1034A8000004024038B5044690F82000012831D0C5
:1034B800012084F8200094F82100012804D000237A
:1034C80084F82030022038BD022084F82100002032
:1034D800A0632568286820F0010028602046FFF7CF
:1034E8007EFFE36A5BB12268136843F00E03136042
:1034F8002268136843F0010313600020E3E72268A1
:10350800136823F0040313602268136843F00A0366
:103518001360EDE70220D6E738B5C36B1A68046874
:103528002568016C04238B40134200F09B8015F042
:10353800040F00F09780236813F0200F03D123684D
:1035480023F0040323600368AA4A934246D9783AD1
:10355800934224D01432934228D01432934227D075
:103568001432934227D01432934227D01432934214
:1035780027D01432934227D002F56272934226D0A4
:103588001432934225D01432934224D014329342F9
:1035980002D04FF4802203E04FF4804200E004227E
:1035A800954B5A60C36A03B1984738BD4022F7E784
:1035B8004FF48062F4E74FF48042F1E74FF4802241
:1035C800EEE74FF48002EBE74FF08062E8E7042271
:1035D800E6E74022E4E74FF48062E1E7874A934256
:1035E80024D01432934225D01432934224D014327A
:1035F800934224D01432934224D01432934224D0DC
:103608001432934224D002F56272934223D01432CA
:10361800934222D01432934221D01432934202D0E2
:103628004FF4802203E04FF4804200E00422744B00
:103638005A60B7E74022FAE74FF48062F7E74FF4A1
:103648008042F4E74FF48022F1E74FF48002EEE77E
:103658004FF08062EBE70422E9E74022E7E74FF406
:103668008062E4E702238B40134200F0A38015F048
:10367800020F00F09F80236813F0200F06D1236803
:1036880023F00A032360012380F821300368594A94
:1036980093424BD9783A934224D0143293422DD096
:1036A800143293422CD0143293422CD014329342C9
:1036B8002CD0143293422CD0143293422CD002F5E1
:1036C800627293422BD0143293422AD0143293421E
:1036D80029D01432934202D04FF4003203E04FF461
:1036E800005200E00222444B5A60002380F8203048
:1036F800836A002B3FF459AF984756E72022F2E738
:103708004FF40072EFE74FF40052ECE74FF4003249
:10371800E9E74FF40012E6E74FF00072E3E7022210
:10372800E1E72022DFE74FF40072DCE7334A9342F7
:1037380024D01432934225D01432934224D0143228
:10374800934224D01432934224D01432934224D08A
:103758001432934224D002F56272934223D0143279
:10376800934222D01432934221D01432934202D091
:103778004FF4003203E04FF4005200E00222204BE5
:103788005A60B2E72022FAE74FF40072F7E74FF4E5
:103798000052F4E74FF40032F1E74FF40012EEE77D
:1037A8004FF00072EBE70222E9E72022E7E74FF447
:1037B8000072E4E7082303FA01F111423FF4F5AE81
:1037C80015F0080F3FF4F1AE236823F00E032360D1
:1037D800026CC16B012303FA02F24A60836380F82A
:1037E8002130002380F82030036B002B3FF4DDAE3E
:1037F8009847DAE6800002400004024008000240D0
:1038080000000240074AD36823F4E0631B041B0C42
:10381800000200F4E060034343F0BF6343F4003365
:10382800D360704700ED00E030B4174BDB68C3F39A
:103838000223C3F10704042C28BF04241D1D062DF0
:1038480018D9033B4FF0FF3505FA04F421EA0401C7
:10385800994005FA03F322EA0303194300280BDB16
:103868000901C9B200F1604000F5614080F8001319
:1038780030BC70470023E5E700F00F000901C9B22A
:10388800024B1954F4E700BF00ED00E014ED00E02E
:10389800002807DB00F01F02400901239340024A79
:1038A80042F82030704700BF00E100E00138B0F175
:1038B800807F0AD2064B5860064AF02182F823100E
:1038C8000020986007221A6070470120704700BFE7
:1038D80010E000E000ED00E00F4B1A6842F0010232
:1038E8001A6059680D4A0A405A601A6822F08472B0
:1038F80022F480321A601A6822F480221A605A6808
:1039080022F4FE025A604FF41F029A60044B4FF0F3
:1039180000629A60704700BF001002400000FFF884
:1039280000ED00E070B110B50446037933B102230D
:103938002371002020610123237110BD4371FEF71C
:10394800BFFDF4E70120704770B504460D461146E7
:10395800049A407901285CD001206071022020710E
:10396800002D2FD1A0682C4E8662A0682B4EC6620F
:10397800A0682B4E06632668306840F4805030609B
:10398800042A19D0082A1AD09AB12A46002D37D10C
:10399800A068FFF787FD00236371002834D12268EF
:1039A800136805F01005012101FA05F51D4315609E
:1039B80070BD22680832E9E722680C32E6E722681F
:1039C8001032E3E7E068174E8662E068164EC6627A
:1039D800E068164E06632668306840F08050306014
:1039E800042A07D0082A08D00AB10022CEE72268A4
:1039F8001432CBE722681832C8E722681C32C5E7C0
:103A0800E068FFF74FFDC6E7236943F0040323612D
:103A1800CEE70220CCE700BF3B3A00084D3A000849
:103A2800593A0008CF3A0008DF3A0008E93A000896
:103A3800704710B5446A2046FFF7FAFF0123237147
:103A480010BD704708B5406AFFF7FBFF08BD704717
:103A580010B5446A236943F0040323612046FFF745
:103A6800F6FF0123237110BD4379012B26D070B4D2
:103A780001244471022303710668336802F01002BE
:103A880040F6FE75954023EA05050B6849680B4327
:103A980093402B43336005682968C02303FA02F278
:103AA80021EA0201296001680B6823EA02020A6020
:103AB800047100234371184670BC70470220704798
:103AC80070477047704710B5446A2046FFF7F8FF03
:103AD8000123237110BD08B5406AFFF7F2FF08BD46
:103AE80010B5446A236943F0040323612046FFF7B5
:103AF800E9FF0123237110BD38B504460268136934
:103B080023F44053C1680B4313618368026913436C
:103B180042691A430168CB6823F4B05323F00C03BD
:103B28001343CB600268536923F4407381690B43E4
:103B380053610268214B9A421FD0FFF707FB00EB45
:103B4800800000EB800063689B00B0FBF3F01C4D25
:103B5800A5FB00325109642303FB11031B01323317
:103B6800A5FB03235B0903F0F00202EB011203F04B
:103B78000F03216813448B6038BDFFF7F7FA00EB99
:103B8800800000EB800063689B00B0FBF3F00C4DF5
:103B9800A5FB00325109642303FB11031B013233D7
:103BA800A5FB03235B0903F0F00202EB011203F00B
:103BB8000F03216813448B60DEE700BF0038014023
:103BC8001F85EB5158B310B5044690F839300BB344
:103BD800242384F839302268D36823F40053D3604F
:103BE8002046FFF789FF2268136923F49043136185
:103BF8002268536923F02A0353612268D36843F487
:103C08000053D3600020E063202384F8393084F81F
:103C18003A3010BD80F83830FEF7B4F8D8E7012004
:103C280070470000002103E00B4B5B584350043100
:103C38000A480B4B42189A42F6D30A4A02E000237C
:103C480042F8043B084B9A42F9D3FFF745FEFCF7CC
:103C58000BFBFDF7EDFF704724670008000000200C
:103C68001003002010030020A4040020FEE7000039
:103C7800F8B500BFF8BC08BC9E467047F8B500BF51
:083C8800F8BC08BC9E46704721
:103C90000000000000000000000000000000000024
:103CA0000000000000000000000000000000000014
:103CB0000000000000000000000000000000000004
:103CC00000000000000000000000000000000000F4
:103CD00000000000000000000000000000000000E4
:103CE00000000000000000000000000000000000D4
:103CF000494E543A256400004672657175656E63DD
:103D0000793A256400000000464C4F41543A25643E
:103D10002E25303364000000252A6325730000003F
:103D200054540000000000000000000000000000EB
:103D30000000000000000000000000000000000083
:103D40000000000000000000000000000000000073
:103D50000000000000000000000000000000000063
:103D60000000000000000000000000000000000053
:103D70000000000000000000000000000000000043
:103D80000000000000000000000000000000000033
:103D9000000000000000003C00003C00003C00006F
:103DA0003C00003C00003C00003C00003C00003CAB
:103DB00000003C00003C00003C00003C00003C00D7
:103DC000000000000000003C00007E00003C0000FD
:103DD00000000000000000000000000000000000E3
:103DE00000000000000000000000000000000000D3
:103DF00000000000000003C3E003C3E003C3C003EE
:103E0000C3C003C3C003C3C003C1C000000000009F
:103E100000000000000000000000000000000000A2
:103E20000000000000000000000000000000000092
:103E30000000000000000000000000000000000082
:103E40000000000000000000000000000000000072
:103E500000000000000000000000000001E0E001A0
:103E6000C0E001C0E001C0E03FFFFE3FFFFE03C134
:103E7000C00381C00381C00381C07FFFFC7FFFFCC2
:103E800007838007038007038007038007078000FC
:103E90000000000000000000000000000000000022
:103EA0000000000000000000000000000000000012
:103EB000000000000700000F00000E0001FFF007E7
:103EC000FFF01F0E001E1E001E1C001E1C000FDC3B
:103ED0000007FC0000FF80003FF00038F800387851
:103EE00000783C0070783071F83FFFE01FFF000061
:103EF000E00000E00000E000000000000000000022
:103F000000000000000000000000000000000000B1
:103F10000000000000000F800F3FE01E78703C7032
:103F200070707070E07071C03FE3801FC700000EBA
:103F300000001C0000780000F0F001E7FC03CF0E49
:103F4000078E0E0F0E0E1E0E0E3C07BC7003F800FF
:103F50000000000000000000000000000000000061
:103F60000000000000000000000000000000000051
:103F700000000000000000000001FF0007FF800FAC
:103F800003C00F03C00F03C00F0780079F0003FE8D
:103F90000003F0000FF83C3E7C3C3C1F3C780FF8DF
:103FA0007807F87C01F03E03F81FFFFC07FE1F00B6
:103FB0000000000000000000000000000000000001
:103FC00000000000000000000000000000000000F1
:103FD000000000000000003E00003C00003C00002B
:103FE0003C00003C00003C00003C000000000000E1
:103FF00000000000000000000000000000000000C1
:1040000000000000000000000000000000000000B0
:1040100000000000000000000000000000000000A0
:104020000000000000000000000000000000000090
:104030000000000000800001C0000780000F0000A9
:104040001E00003C0000780000F00000E00001E0ED
:104050000001E00001C00003C00003C00001C00077
:1040600001E00001E00000F00000F0000078000036
:104070003C00001E00000F000007C00001C000004F
:104080000000000000000000000000000000000030
:1040900000000000000003C00001E00000F000008C
:1040A0007C00003E00001E00000F0000078000079B
:1040B000800003800003C00003C00003C00003C0F1
:1040C000000380000780000780000F00001E000032
:1040D0003C0000780000F00001E0000380000000D8
:1040E00000000000000000000000000000000000D0
:1040F000000000000000001C00001C000018000F61
:1041000018F007DBE0007F0000FF0007DBE00E187F
:1041100070001800001C00001C00000000000000DF
:10412000000000000000000000000000000000008F
:10413000000000000000000000000000000000007F
:10414000000000000000000000000000000000006F
:10415000000000000000000000000000000000005F
:104160000000000000003C00003C00003C00003C5F
:1041700000003C00003C003FFFFC3FFFFC003C0017
:10418000003C00003C00003C00003C00000000003F
:10419000000000000000000000000000000000001F
:1041A000000000000000000000000000000000000F
:1041B00000000000000000000000000000000000FF
:1041C00000000000000000000000000000000000EF
:1041D00000000000000000000000000000000000DF
:1041E000000000007C00007E00007E00003E000019
:1041F0001E00003C0000F80007E000040000000082
:1042000000000000000000000000000000000000AE
:10421000000000000000000000000000000000009E
:10422000000000000000000000000000000000008E
:104230000000000000000003FFE003FFE0000000BA
:10424000000000000000000000000000000000006E
:10425000000000000000000000000000000000005E
:10426000000000000000000000000000000000004E
:10427000000000000000000000000000000000003E
:10428000000000000000000000000000000000002E
:10429000000000000000000000000000000000001E
:1042A000000000007C0000FE0000FE00007E000018
:1042B00000000000000000000000000000000000FE
:1042C00000000000000000000000000000000000EE
:1042D0000000000000000000780000F00000E00096
:1042E00001E00003C0000380000780000F00000E03
:1042F00000001E00003C0000380000700000F000CC
:1043000000E00001C00003C0000780000700000FAC
:1043100000001E00001C0000000000000000000063
:10432000000000000000000000000000000000008D
:1043300000000000000000000000000001FFC007B6
:10434000FFE00F00F01E00781E003C3C00FC3C0724
:10435000FC3C1FBC3C7C1C3DF03C3FC03C3F003C57
:104360001E00381E00780F80F007FFE001FF80007C
:10437000000000000000000000000000000000003D
:10438000000000000000000000000000000000002D
:10439000000000000000000000000000007E00039C
:1043A000FE001FDE000E1E00001E00001E00001E8C
:1043B00000001E00001E00001E00001E00001E0067
:1043C000001E00001E00001E000FFFF80FFFF80087
:1043D00000000000000000000000000000000000DD
:1043E00000000000000000000000000000000000CD
:1043F00000000000000000000000000003FF800F2C
:10440000FFE00E01F00000F00000F00000F00000FE
:10441000F00001E00003C0000F80003E00007C00BF
:1044200001F00003C0000F80001FFFFC1FFFFC0015
:10443000000000000000000000000000000000007C
:10444000000000000000000000000000000000006C
:104450000000000000000000000000000FFF800FBF
:10446000FFE00001E00000F00000F00001E00003C8
:10447000C001FF0001FFC00003F0000078000078D9
:104480000000780000780001F00FFFC00FFF00006F
:10449000000000000000000000000000000000001C
:1044A000000000000000000000000000000000000C
:1044B000000000000000000000000000000FC0002D
:1044C0001FC0003FC0007BC000F3C001E3C003C3B6
:1044D000C00783C00F03C01C03C03803C07FFFFEAA
:1044E0007FFFFE0003C00003C00003C00003C00044
:1044F00000000000000000000000000000000000BC
:1045000000000000000000000000000000000000AB
:104510000000000000000000000000000FFFE00F9E
:10452000FFE00F00000F00000F00000F00000F0061
:10453000000FFF800FFFE00000F00000780000781F
:104540000000780000F00003E00FFFC00FFE000045
:10455000000000000000000000000000000000005B
:10456000000000000000000000000000000000004B
:10457000000000000000000000000000003FF0010B
:10458000FFF003E0000780000F00001E00001E1F68
:10459000001FFFE01FC1F81E00781E003C1E003CFB
:1045A0001E003C0F00780F80F807FFE001FF80003D
:1045B00000000000000000000000000000000000FB
:1045C00000000000000000000000000000000000EB
:1045D0000000000000000000000000001FFFFC1FA2
:1045E000FFFC0000780000F00000E00001E00003A4
:1045F000C0000780000F00000F00001E00003C00FC
:1046000000780000F00001F00001E00003C00000AD
:10461000000000000000000000000000000000009A
:10462000000000000000000000000000000000008A
:1046300000000000000000000000000003FFE00F89
:10464000E3F00F00781E00781E00780F00F007E3FB
:10465000E001FF8001FF8007E7E00F00F81E00780F
:104660001E003C1E007C1F00F80FFFF003FFC0007F
:10467000000000000000000000000000000000003A
:10468000000000000000000000000000000000002A
:1046900000000000000000000000000003FF800F89
:1046A000C7E01E00F01E00783C00783C00783C001B
:1046B000381E00780FEFF807FFB800007800007888
:1046C0000000F00001E0000FC00FFF000FF000003D
:1046D00000000000000000000000000000000000DA
:1046E00000000000000000000000000000000000CA
:1046F00000000000000000000000000000000000BA
:104700000000000000000000007E00007E00007E2F
:104710000000180000000000000000000000000081
:10472000000000003C00007E00007E00003E000013
:104730000000000000000000000000000000000079
:104740000000000000000000000000000000000069
:104750000000000000000000000000000000000059
:104760000000000000000000007E00007E00007ECF
:104770000000180000000000000000000000000021
:10478000000000003E00007E00007F00001F0000CF
:104790001E00001E0000FC0007F0000400000000E6
:1047A0000000000000000000000000000000000009
:1047B00000000000000000000000000000000000F9
:1047C00000000000400001E00007C0001F00007E64
:1047D0000001F80003E0000F80000F800003E000FC
:1047E00000F800003E00000F800003E00000E00041
:1047F00000000000000000000000000000000000B9
:1048000000000000000000000000000000000000A8
:104810000000000000000000000000000000000098
:104820000000000000000000000000000000000088
:10483000001FFFF80000000000000000001FFFF84C
:104840001FFFF80000000000000000000000000052
:104850000000000000000000000000000000000058
:104860000000000000000000000000000000000048
:104870000000000000000000000000000000000038
:10488000000000000007800003E00000F800003E88
:1048900000000F800003E00000F80001F00007C0F6
:1048A000001F00007C0001F00007C00003000000B2
:1048B00000000000000000000000000000000000F8
:1048C00000000000000000000000000000000000E8
:1048D00000000000000001C00001FE00007F800019
:1048E00007C00001E00000F00000F00001F000034C
:1048F000E0007FC0007E00007000007000007000CB
:1049000000000000000000F80000F80000F80000BF
:104910000000000000000000000000000000000097
:104920000000000000000000000000000000000087
:10493000000000000000001F8000FFF003C07807A7
:10494000801C0E000E1C000E3C000F383FC778FF85
:10495000C770E3C771C3C7F3C387E3C387E3878E19
:10496000E3878EE3CF8EE3FFFC71F9F070000070F7
:1049700000003800003C00000F01C007FFC000002D
:104980000000000000000000000000000000000027
:10499000000000000000000000000000007E000099
:1049A0007F0000FF0000E78001E78003C3C003C36E
:1049B000C00781E00781E00F00F00F00F81FFFF84B
:1049C0001FFFFC3C003C3C001E78001EF0000F0066
:1049D00000000000000000000000000000000000D7
:1049E00000000000000000000000000000000000C7
:1049F0000000000000000000000000001FFFC01FBA
:104A0000FFF01E00F01E00781E00781E00F01E0150
:104A1000F01FFFC01FFFE01E01F81E00781E003CC3
:104A20001E003C1E00781E00F81FFFE01FFF000064
:104A30000000000000000000000000000000000076
:104A40000000000000000000000000000000000066
:104A500000000000000000000000000000FFF8035C
:104A6000FFF807C0000F00001E00001E00003C0001
:104A7000003C00003C00003C00003C00003E000008
:104A80001E00000F00000FC00803FFF800FFF80031
:104A90000000000000000000000000000000000016
:104AA0000000000000000000000000000000000006
:104AB0000000000000000000000000003FFF003F79
:104AC000FFE03C01F03C00783C003C3C003C3C00FA
:104AD0003C3C001E3C001E3C001E3C003C3C003C9C
:104AE0003C00783C00F83C07E03FFFC03FFC000082
:104AF00000000000000000000000000000000000B6
:104B000000000000000000000000000000000000A5
:104B10000000000000000000000000000FFFF00F88
:104B2000FFF00F00000F00000F00000F00000F004B
:104B3000000FFFF00FFFF00F00000F00000F00004C
:104B40000F00000F00000F00000FFFF00FFFF0003C
:104B50000000000000000000000000000000000055
:104B60000000000000000000000000000000000045
:104B70000000000000000000000000000FFFF00F28
:104B8000FFF00F00000F00000F00000F00000F00EB
:104B9000000FFFF00FFFF00F00000F00000F0000EC
:104BA0000F00000F00000F00000F00000F000000BA
:104BB00000000000000000000000000000000000F5
:104BC00000000000000000000000000000000000E5
:104BD00000000000000000000000000000FFFC03D7
:104BE000FFFC0FC0041F00001E00003C00003C0042
:104BF00000780FFC780FFC78003C3C003C3C003C0B
:104C00003E003C1F003C0FC03C03FFFC00FFF800CF
:104C10000000000000000000000000000000000094
:104C20000000000000000000000000000000000084
:104C30000000000000000000000000003C003C3CC0
:104C4000003C3C003C3C003C3C003C3C003C3C000C
:104C50003C3FFFFC3FFFFC3C003C3C003C3C003C3C
:104C60003C003C3C003C3C003C3C003C3C003C00EC
:104C70000000000000000000000000000000000034
:104C80000000000000000000000000000000000024
:104C90000000000000000000000000000FFFF80FFF
:104CA000FFF8003C00003C00003C00003C00003CE1
:104CB00000003C00003C00003C00003C00003C00C8
:104CC000003C00003C00003C000FFFF80FFFF80024
:104CD00000000000000000000000000000000000D4
:104CE00000000000000000000000000000000000C4
:104CF0000000000000000000000000000FFFE00FB7
:104D0000FFE00001E00001E00001E00001E000013F
:104D1000E00001E00001E00001E00001E00001E04E
:104D20000001E00003C00C07C00FFF8007FE000079
:104D30000000000000000000000000000000000073
:104D40000000000000000000000000000000000063
:104D50000000000000000000000000001E00781E9F
:104D600001F01E03C01E07801E1F001E3C001E789F
:104D7000001EF0001FF0001EF8001E3C001E1E006A
:104D80001E0F801E07C01E01E01E00F81E007C00E2
:104D90000000000000000000000000000000000013
:104DA0000000000000000000000000000000000003
:104DB0000000000000000000000000000780000765
:104DC00080000780000780000780000780000780C0
:104DD0000007800007800007800007800007800030
:104DE00007800007800007800007FFF807FFF80032
:104DF00000000000000000000000000000000000B3
:104E000000000000000000000000000000000000A2
:104E10000000000000000000000000003E007C3F99
:104E200000FC3F81DC3B81DC3BC39C39C39C38E701
:104E30001C38EF1C387E1C387C1E383C1E78001E47
:104E400078001E78001E78001E78001E78001E0074
:104E50000000000000000000000000000000000052
:104E60000000000000000000000000000000000042
:104E70000000000000000000000000001F003C1FB8
:104E8000803C1FC03C1DC03C1DE03C1CF03C1C781D
:104E90003C1C783C1C3C3C1C1E3C1C0F3C1C0F3C2E
:104EA0001C07BC1C03FC1C01FC1C00FC1C00FC00BF
:104EB00000000000000000000000000000000000F2
:104EC00000000000000000000000000000000000E2
:104ED00000000000000000000000000001FFC0070B
:104EE000FFF00F00F81E007C3C003C3C001E7800E8
:104EF0001E78001E78001E78001E78001E3C003CC4
:104F00003C003C1E00781F00F007FFE001FF80001E
:104F10000000000000000000000000000000000091
:104F20000000000000000000000000000000000081
:104F30000000000000000000000000001FFF801FB4
:104F4000FFF01E00F81E007C1E003C1E003C1E00F0
:104F50003C1E00781E03F01FFFC01FFE001E000055
:104F60001E00001E00001E00001E00001E000000AB
:104F70000000000000000000000000000000000031
:104F80000000000000000000000000000000000021
:104F900000000000000000000000000001FFC0074A
:104FA000FFF00F00F81E007C3C003C3C001E780027
:104FB0001E78001E78001E78001E78001E3C003C03
:104FC0003C003C1E00781F80F007FFE001FF8000DE
:104FD0003C00003C00001F06000FFF0001F800002D
:104FE00000000000000000000000000000000000C1
:104FF0000000000000000000000000000FFF800F14
:10500000FFE00E01F00E00F00E00F00E00F00E01B9
:10501000F00FFFC00FFF000E1F000E07800E03C031
:105020000E01E00E00F00E00F80E00780E003C00BD
:105030000000000000000000000000000000000070
:105040000000000000000000000000000000000060
:1050500000000000000000000000000003FFF00F4F
:10506000FFF01F00001E00001E00001F00000FC008
:105070000007FC0000FF80000FF00001F80000783E
:105080000000780000782000F83FFFE03FFF80003C
:105090000000000000000000000000000000000010
:1050A0000000000000000000000000000000000000
:1050B0000000000000000000000000003FFFFC3F77
:1050C000FFFC003C00003C00003C00003C00003CB9
:1050D00000003C00003C00003C00003C00003C00A4
:1050E000003C00003C00003C00003C00003C000094
:1050F00000000000000000000000000000000000B0
:10510000000000000000000000000000000000009F
:105110000000000000000000000000003C003C3CDB
:10512000003C3C003C3C003C3C003C3C003C3C0027
:105130003C3C003C3C003C3C003C3C003C3C003CDB
:105140003C003C1E00781F00F80FFFE003FF8000CA
:10515000000000000000000000000000000000004F
:10516000000000000000000000000000000000003F
:10517000000000000000000000000000F8000F78B0
:10518000001E3C001E3C003C1E00381E00780F0034
:10519000700F00F00781E00781E003C3C003E3C0A4
:1051A00001E78000F78000FF00007E00007E000025
:1051B00000000000000000000000000000000000EF
:1051C00000000000000000000000000000000000DF
:1051D00000000000000000000000000078000E78D1
:1051E000000E78000E78001E38001E38001E383C75
:1051F0001C383C1C387E1C387F1C3CE71C3CE79C60
:105200003DC39C1DC3DC1F81DC1F80F81F00F8001C
:10521000000000000000000000000000000000008E
:10522000000000000000000000000000000000007E
:105230000000000000000000000000003C003C1ED8
:1052400000780F00F00781E003C3C001E78000FF92
:1052500000007E00007E0000FF0001FF8003E7C029
:1052600007C3E00F81F01F00F83E007C7C003E0089
:10527000000000000000000000000000000000002E
:10528000000000000000000000000000000000001E
:1052900000000000000000000000000078001F3C3B
:1052A000003E1E007C1F00780F80F007C1E003E382
:1052B000C001E78000FF00007E00003C00003C00D1
:1052C000003C00003C00003C00003C00003C0000B2
:1052D00000000000000000000000000000000000CE
:1052E00000000000000000000000000000000000BE
:1052F0000000000000000000000000001FFFFC1F75
:10530000FFFC0000F80001E00003C0000780000F70
:1053100000001E00003C0000780000F00003E000E8
:1053200007C0000F80001F00003FFFFC3FFFFC0094
:10533000000000000000000000000000000000006D
:10534000000000000000000000000000000000005D
:1053500000000000000001FFC001FFC001E00001EB
:10536000E00001E00001E00001E00001E00001E0F8
:105370000001E00001E00001E00001E00001E000C8
:1053800001E00001E00001E00001E00001E00001B7
:10539000E00001E00001E00001E00001FFC00000CA
:1053A00000000000000000000000000000000000FD
:1053B0000000000000000E00000F000007000003C6
:1053C000800003C00001E00000E00000F000007871
:1053D00000003800003C00001E00000E00000F001E
:1053E0000007800003800001C00001E00000E00031
:1053F000007000007800003C000000000000000089
:10540000000000000000000000000000000000009C
:1054100000000000000003FF8003FF800007800001
:1054200007800007800007800007800007800007D2
:105430008000078000078000078000078000078049
:1054400000078000078000078000078000078000B9
:10545000078000078000078000078003FF800000AE
:10546000000000000000000000000000000000003C
:10547000000000000000000000000000003C0000F0
:105480007E0000E70001C3800381C00700E00E003A
:10549000F01E007800000000000000000000000086
:1054A00000000000000000000000000000000000FC
:1054B00000000000000000000000000000000000EC
:1054C00000000000000000000000000000000000DC
:1054D00000000000000000000000000000000000CC
:1054E00000000000000000000000000000000000BC
:1054F00000000000000000000000000000000000AC
:10550000000000000000000000000000000000009B
:105510000000000000000000FFFFFFFFFFFF000091
:10552000000000000000000000000000000000007B
:105530000000000000000F800003E00000F8000001
:105540003C0000000000000000000000000000001F
:10555000000000000000000000000000000000004B
:10556000000000000000000000000000000000003B
:10557000000000000000000000000000000000002B
:10558000000000000000000000000000000000001B
:10559000000000000000000000000000000000000B
:1055A000000000000000000007FFC007E7F0000057
:1055B000F000007800007800FFF807FFF80F00788F
:1055C0001E00781E00781E03F80FFFF807FC780015
:1055D00000000000000000000000000000000000CB
:1055E00000000000000000000000000000000000BB
:1055F0000000000000001E00001E00001E00001E33
:1056000000001E00001E00001E7FE01EFFF01FC0F5
:10561000781F00781E003C1E003C1E003C1E003C13
:105620001E00381E00781E00F01FFFE007FF00007C
:10563000000000000000000000000000000000006A
:10564000000000000000000000000000000000005A
:10565000000000000000000000000000000000004A
:10566000000000000000000000FFF003FFF007C092
:10567000000F80000F00001E00001E00001E000032
:105680000F00000F800007C00003FFF000FFF000D4
:10569000000000000000000000000000000000000A
:1056A00000000000000000000000000000000000FA
:1056B0000000000000000000780000780000780082
:1056C000007800007800007801FFF807FFF80F006D
:1056D000781E00781E00783C00783C00783C00780A
:1056E0001C00781E01F81F03F80FFF7803FC7800F8
:1056F00000000000000000000000000000000000AA
:105700000000000000000000000000000000000099
:105710000000000000000000000000000000000089
:10572000000000000000000001FFC007E3F00F00D0
:10573000F81E00781E003C1FFFFC1FFFFC1C000031
:105740001E00001E00000F800007FFF801FFF80098
:105750000000000000000000000000000000000049
:105760000000000000000000000000000000000039
:105770000000000000000003FC001FFE003E0000CF
:1057800078000078000070000070000070003FFF9B
:10579000FC3FFFFC00700000700000700000700013
:1057A00000700000700000700000700000700000C9
:1057B00000000000000000000000000000000000E9
:1057C00000000000000000000000000000000000D9
:1057D00000000000000000000000000000000000C9
:1057E000000000000000000003FFFC07C3FC0F00E6
:1057F000F01E00F01E00F00F00F00F83E00FFFC05E
:105800001E7C001C00001F00000FFFF00FFFFC1E9D
:10581000003C3C003C3C003C1F81F80FFFE000389E
:105820000000000000000000000000000000000078
:105830000000000000001E00001E00001E00001EF0
:1058400000001E00001E00001E7FE01EFFF01FC0B3
:10585000F01F00781E00781E00781E00781E007869
:105860001E00781E00781E00781E00781E0078004A
:105870000000000000000000000000000000000028
:105880000000000000000000000000000000000018
:10589000000000000000003C00007E00007E0000D0
:1058A0003C000000000000000FFE000FFE00001E84
:1058B00000001E00001E00001E00001E00001E0052
:1058C000001E00001E00001E000FFFF80FFFF80072
:1058D00000000000000000000000000000000000C8
:1058E00000000000000000000000000000000000B8
:1058F0000000000000000003800007E00007E00057
:1059000003800000000000000FFFC00FFFC0000375
:10591000C00003C00003C00003C00003C00003C0F8
:105920000003C00003C00003C00003C00003C000A8
:1059300003C00003C00007801E3F001FFE0001C01F
:105940000000000000000000000000000000000057
:105950000000000000000F00000F00000F00000F0B
:1059600000000F00000F00000F00F80F01E00F070C
:10597000C00F1F000F3C000FF8000FF8000F3E0093
:105980000F1F000F07C00F03E00F00F80F007C008F
:105990000000000000000000000000000000000007
:1059A00000000000000000000000000000000000F7
:1059B0000000000000000FFE000FFE00001E0000AF
:1059C0001E00001E00001E00001E00001E00001E23
:1059D00000001E00001E00001E00001E00001E0031
:1059E000001E00001E00001E000FFFF80FFFF80051
:1059F00000000000000000000000000000000000A7
:105A00000000000000000000000000000000000096
:105A10000000000000000000000000000000000086
:105A2000000000000000000039F9F83BBBBC3E3E1E
:105A30001C3C3E1C383C1C383C1C383C1C383C1C74
:105A4000383C1C383C1C383C1C383C1C383C1C0086
:105A50000000000000000000000000000000000046
:105A60000000000000000000000000000000000036
:105A70000000000000000000000000000000000026
:105A800000000000000000001E7FE01EFFF01FC0AD
:105A9000F01F00781E00781E00781E00781E007827
:105AA0001E00781E00781E00781E00781E00780008
:105AB00000000000000000000000000000000000E6
:105AC00000000000000000000000000000000000D6
:105AD00000000000000000000000000000000000C6
