:020000040800F2
:1000000000C00020913D0008A31E0008A51E0008A6
:10001000A71E0008A91E0008AB1E00080000000073
:10002000000000000000000000000000AD1E0008FD
:10003000AF1E000800000000B11E0008B31E00083B
:10004000D93D0008D93D0008D93D0008D93D000838
:10005000D93D0008D93D0008D93D0008D93D000828
:10006000D93D0008D93D0008D93D0008D93D000818
:10007000D93D0008D93D0008D93D0008D93D000808
:10008000D93D0008D93D0008D93D0008D93D0008F8
:10009000D93D0008D93D0008D93D0008D93D0008E8
:1000A000D93D0008D93D0008D93D0008D93D0008D8
:1000B000D93D0008BD1E0008D93D0008D93D000803
:1000C000D93D0008D93D0008D93D0008D93D0008B8
:1000D000D93D0008D93D0008D93D0008D93D0008A8
:1000E000D93D0008D93D0008D93D0008D93D000898
:1000F000D93D0008D93D0008D93D0008D93D000888
:10010000D93D0008D93D0008D93D0008D93D000877
:10011000D93D0008D93D0008D93D0008D93D000867
:10012000D93D0008D93D0008D93D0008CD1E000882
:1001300000000000000000000000000000000000BF
:1001400000000000000000000000000000000000AF
:10015000000000000000000000000000000000009F
:10016000000000000000000000000000000000008F
:10017000000000000000000000000000000000007F
:10018000000000000000000000000000000000006F
:10019000000000000000000000000000000000005F
:1001A000000000000000000000000000000000004F
:1001B000000000000000000000000000000000003F
:1001C000000000000000000000000000000000002F
:1001D000000000000000000000000000000000001F
:0401E0005FF8E0F1F3
:1001E800044B05481B1A062B02D9044B03B11847C8
:1001F800704700BF13030020100300200000000018
:1002080005490648091A891001EBD171491002D035
:10021800034B03B118477047100300201003002058
:100228000000000010B5064C237843B9FFF7D8FF4B
:10023800044B13B10448AFF300800123237010BDB1
:100248001003002000000000DC3D000808B5084B42
:100258001BB108490848AFF300800848036813B980
:10026800BDE80840CCE7064B002BF9D09847F7E7E4
:100278000000000014030020DC3D000810030020EB
:100288000000000070B50F4E0F4D761BB61018BF5A
:10029800002405D0013455F8043B9847A642F9D10B
:1002A8000A4E0B4D03F096FD761BB61018BF0024BE
:1002B80006D0013455F8043B9847A642F9D170BDE1
:1002C80070BD00BF8468000884680008886800085A
:1002D8008468000870B4860746D0541E002A41D0AE
:1002E800CAB2034602E014F1FF343BD303F8012BF2
:1002F8009D07F8D1032C2ED9CDB245EA05250F2C40
:1003080045EA054519D9264603F11002103E0F2E7D
:1003180042F8105C42F80C5C42F8085C42F8045C55
:1003280002F11002F2D8A4F1100222F00F0204F038
:100338000F041032032C13440DD91E462246043AEA
:10034800032A46F8045BFAD8221F22F0030204327B
:10035800134404F003042CB1C9B21C4403F8011B74
:100368009C42FBD170BC704714460346C2E700BFED
:100378000CB40B46F0B56FF000454FF402774FF61A
:10038800FF769DB022AC54F8042B0293069302A981
:1003980023460194ADF8147004950795ADF81660DE
:1003A80000F0B4F90022029B1A701DB0BDE8F040BD
:1003B80002B070470EB40146F0B56FF000454FF437
:1003C80002774FF6FF769CB021AC54F8042B0B4B08
:1003D80002910691186802A923460194ADF8147099
:1003E80004950795ADF8166000F090F90022029B7D
:1003F8001A701CB0BDE8F04003B070470000002040
:1004080091B151F8043C0439002BB8BFC9181F4BEF
:100418001A68FAB18A4230B40AD908680C18A2429C
:1004280026D04A60196030BC70478B4203D81A4600
:100438005368002BF9D1146815198D420DD006D8D0
:1004480008680C189C4219D04B605160EBE70C23EC
:100458000360E8E74A601960704709680C4411199D
:1004680099421460DFD10ACB0C4414605360DAE778
:1004780014685268204481E80500D3E71C685B686B
:10048800204481E809005160CDE700BF2C0300201B
:1004980070B5CC1C24F0030408340C2C38BF0C2491
:1004A800002C06463BDBA14239D8274D296851B1BB
:1004B8000B681B1B04D436E013681B1B1AD51146A6
:1004C8004A68002AF8D16968002937D021463046A1
:1004D80000F026FC431C22D0C51C25F00305A842C9
:1004E80005D0291A304600F01BFC013017D02A46E7
:1004F8002C6004E00B2B0DD913601A44146002F130
:100508000B0020F00700131DC31A02D05942D15026
:1005180070BD70BD8A420ED053684B60EFE70C2364
:100528000020336070BD0B2B03D80A464B682B6044
:10053800E5E70A46E0E70B460A46F8E7304600F0EA
:10054800EFFB6860C2E700BF2C0300202DE9F047ED
:100558008E680C469E421D46174628D880468889D4
:1005680010F4906F32D04E692368096906EB46068D
:10057800A3EB010906EBD6766B1C76104B44B3420D
:10058800324684BF1E463246430522D511464046B0
:10059800FFF77EFF824680B34A46216900F018FCC7
:1005A800A38923F4906343F08003A38116E01E46D9
:1005B80008682A46394600F081FCA2682368961B21
:1005C8002B44A66023600020BDE8F0870868354604
:1005D800EFE7404600F0D6FC824650B1A6EB09038F
:1005E8000AEB09006661C4F810A02060A3602E46DB
:1005F800DFE721694046FFF703FF0C23C8F8003006
:10060800A3894FF0FF3043F04003A381BDE8F08792
:100618002DE9F04F936883B09046002B70D0824646
:100628000C4617688D68086842E0A38913F4906F38
:100638002ED06569216905EB4505A0EB010B05EB9B
:10064800D5750BF101006D103044A8422A4684BFCD
:1006580005462A465B0538D511465046FFF718FF70
:1006680000283CD05A462169019000F0B1FBA289CC
:10067800019B22F4906242F08002A281A5EB0B025A
:1006880003EB0B006561B346354623612060A26029
:100698005A46494600F012FCD8F80830A26820688B
:1006A800551B58449E1BA5602060C8F808603EB3DF
:1006B8007E683B460837002EFAD0AE42D3F8009049
:1006C800AB46B2D23546B346E2E7504600F05AFC94
:1006D80003460028D2D121695046FFF791FE0C232A
:1006E80000224FF0FF30CAF80030A38943F04003DE
:1006F800A381C8F80820C8F8042003B0BDE8F08F2B
:100708000020C8F8040003B0BDE8F08F2DE9F04FD1
:100718000F4689899DB00C0691460393804603D500
:100728003B69002B00F0FC803023002020218DF84D
:100738002A3099F800300125814C09908DF829104C
:10074800002B00F09180252BCA4603D119E0252BF8
:1007580000F093801AF8013F002BF8D1BAEB090B8F
:1007680000F082804A465B4639464046FFF7EEFE77
:10077800013079D0099B9AF800205B440993002A3C
:1007880072D000234FF0FF320AF1010A0493079355
:1007980006938DF853301A93059205E0049B001BCD
:1007A80005FA00F0184304909AF800100522204634
:1007B80000F0C8FAD1460AF1010A0028EED1049BDC
:1007C800D80644BF20228DF85320190748BF2B2292
:1007D80099F8001048BF8DF853202A2971D0A1F14B
:1007E8003002092A0BD8079B19F8011F03EB830372
:1007F80002EB4303A1F13002092AF5D907932E2908
:1008080046D0DFF84CA10322504600F09BFA48B1CD
:100818004022049BA0EB0A0002FA00F0034309F10E
:100828000109049399F800300622194645488DF8C5
:10083800283009F1010900F085FA00284DD0424B13
:10084800FBB103AB00933A46404B04A94046AFF3D3
:1008580000800646721C07D0099B3344099399F817
:100868000030002B7FF46FAFBB895B064CBF4FF0A5
:10087800FF3009981DB0BDE8F08FBAEB090B80D0A6
:1008880070E7039B073323F0070308330393E3E779
:1008980099F8011009F101002A2928D00023A1F1B3
:1008A8003002092A05938146ABD819F8011F03EBDA
:1008B800830302EB4303A1F13002092AF5D905931A
:1008C8009FE7039A116804320029039222DB0791FB
:1008D80099F8011009F1010991E703AB00933A4631
:1008E8001A4B04A9404600F0CDF80646B2E7039B30
:1008F80009F102001A680433002A0393B8BF4FF0C5
:10090800FF330592AEBF99F8021099F802100593CB
:10091800814676E7494243F0020307910493D7E7FB
:100928004021FFF7B5FD3860386110B140237B6185
:10093800FAE60C234FF0FF30C8F800309AE700BF02
:1009480048680008546800080000000055050008C1
:10095800506800082DE9F0470C460969A5689146DA
:100968008D42B8BF0D46156094F8431006461F46E1
:10097800DDF8208011B16A1CC9F8002023689906A7
:100988005DD5D9F800200232C9F80020236813F099
:10099800060F19461DD1E1688A1A002AD8BF1946E0
:1009A80017DD002504F1190A05E0E368D9F80020ED
:1009B8009B1AAB420CDD0123524639463046C047EC
:1009C800013005F10105F0D14FF0FF30BDE8F087A7
:1009D800216894F84330003318BF01238A060AD5EA
:1009E8003021E21882F8431094F845105A1C22442A
:1009F80082F84310023304F1430239463046C047B7
:100A08000130E1D0236803F00603042B29D0A36842
:100A180022699342C8BF4FF0000930DD9B1A994400
:100A280000251A3401E04D4529D0012322463946D4
:100A38003046C047013005F10105F4D1C4E713F091
:100A4800060F08D1E168D9F800208A1A002AD8BF11
:100A58001946A6DCBDE794F84330003318BF0123DC
:100A6800C9E7D9F80010E068A3682269A0EB01097A
:100A7800934229EAE979D1DCB9F1000FD0D10020FD
:100A8800BDE8F0872DE9F0430C46097E85B06E2954
:100A980006461746984604F1430C0C9855D00FD8D3
:100AA800632900F0198100F2D48000295CD058290C
:100AB80040F0E68084F845102268DFF85CE213E035
:100AC800732900F0FB8000F289806F2900F0E28032
:100AD800702940F0D580226842F0200222607823F5
:100AE800DFF838E284F845300368150603F104019D
:100AF80000F1FD8055064BBF1B881B680160016033
:100B0800D00744BF42F020022260002B40F09380BF
:100B18001021226822F020022260002284F843205B
:100B280060680028A060C0F28B80226822F004026E
:100B38002260002B66D1002840F084806546082991
:100B48006ED0ACEB0503236111E023681A0600F1AF
:100B5800D18013F0400F0368626903F1040101605A
:100B68001B6814BF1A801A60002365462361CDF8FC
:100B780000803B4603AA21463046FFF7EBFE0130D2
:100B880021D02A46236939463046C04701301AD059
:100B98002368E06813F0020F039B19D0C21A002AD9
:100BA80016DD002504F1190904E0E068039BC21A68
:100BB800AA420DDD01234A4639463046C047013076
:100BC80005F10105F1D14FF0FF3005B0BDE8F08324
:100BD8009842B8BF184605B0BDE8F083752959D0CA
:100BE80078294DD122687AE72D2061685B42002977
:100BF80084F84300A16020DB0A2122F00402DFF818
:100C080018E122606546B3FBF1F201FB12331EF8CE
:100C18000300134605F8010D002AF4D1082990D1E4
:100C28002368D9078DD5626823699A4289DC302305
:100C3800013D2B7085E710216FE70A21DFF8D8E026
:100C4800002BDFD19EF8003004F1420584F84230D1
:100C580075E7642901D0692912D12268036815064D
:100C680003F1040152D455064BBFB3F900301B6899
:100C780001600160002BB7DB0A21DFF89CE04FE739
:100C8800012384F84210236104F14205002384F80B
:100C980043306CE723681A0633D413F0400F036817
:100CA80003F1040215BF1B881B68026002606F29EC
:100CB80014BF0A210821DFF860E02EE703686268A4
:100CC800191D01601D680021284600F03BF800B39B
:100CD800401B60602061D9E70122036804F14205E6
:100CE800191D1B68016084F842302261CEE701605B
:100CF8001B6805E703686269191D01601B681A60B3
:100D080032E703681A1D02601B68D0E701601B68A0
:100D1800B0E76068DEE700BF5C680008706800083C
:100D280038B50023064C05460846236000F05CF9F8
:100D3800431C00D038BD2368002BFBD02B6038BD86
:100D4800A0040020830770B4CDB23DD0541E0AB36E
:100D58000378AB421FD0431C05E014F1FF3419D3CC
:100D68000278AA4217D013F0030F184603F10103C3
:100D7800F3D1032C11D84CB30378AB420BD0044405
:100D8800431C02E00278AA4205D09C42184603F1AF
:100D98000103F7D1002070BC7047090289B22943CA
:100DA80041EA0141036806464B40A3F1013222EAB9
:100DB800030313F0803F00F1040003D1043C032C2B
:100DC800F0D8D8E73046D7E71446D2E72046E2E71E
:100DD800844641EA000313F0030349D1403A23D380
:100DE8000B6803604B6843608B688360CB68C360A3
:100DF8000B6903614B6943618B698361CB69C3618B
:100E08000B6A03624B6A43628B6A8362CB6AC36272
:100E18000B6B03634B6B43638B6B8363CB6BC3635A
:100E280040304031403ADBD230320BD30B6803609C
:100E38004B6843608B688360CB68C36010301031A7
:100E4800103AF3D20C3205D351F8043B40F8043B76
:100E5800043AF9D2043208D0D2071CBF11F8013B7A
:100E680000F8013B01D30B8803806046704700BF40
:100E7800082A13D38B07B1D010F00303AED0C3F107
:100E88000403D21ADB071CBF11F8013B00F8013B31
:100E9800A4D331F8023B20F8023B9FE7043AD9D3A8
:100EA800013A11F8013B00F8013BF9D20B780370C5
:100EB8004B7843708B788370604670478842F0B5F2
:100EC8000DD98B1898420AD28418002A51D022468C
:100ED80013F8014D994202F8014DF9D1F0BD0F2ADE
:100EE80048D941EA00039B0746D1154600F1100492
:100EF80001F1100353F8106C103D44F8106C53F8CE
:100F08000C6C0F2D44F80C6C53F8086C04F11004A9
:100F180044F8186C53F8046C03F1100344F8146C8B
:100F2800E8D8A2F1100323F00F0302F00F0E1033DC
:100F3800BEF1030F1944034421D90E4674461D1F00
:100F480056F8047B043C032C45F8047FF8D8AEF12E
:100F5800040424F0030404342144234402F003026B
:100F680062B1013B0A4411F8014B8A4203F8014F70
:100F7800F9D1F0BD0346F3E70346F2E7F0BD724648
:100F8800EEE700BFF8B51446F9B1C2B106460D4602
:100F980000F020F8844201D82846F8BD21463046A2
:100FA800FFF776FA074670B122462946FFF710FF89
:100FB80029463D463046FFF723FA2846F8BDFFF795
:100FC8001FFA2546E8E70546E6E71146BDE8F8407A
:100FD800FFF75EBA51F8040C0028A0F10400BCBF6A
:100FE8000B58C018704700BF044A05491368002B06
:100FF80008BF0B4618441060184670473403002099
:10100800A804002081F0004102E000BF83F0004303
:1010180030B54FEA41044FEA430594EA050F08BF8B
:1010280090EA020F1FBF54EA000C55EA020C7FEA4F
:10103800645C7FEA655C00F0E2804FEA5454D4EBCC
:101048005555B8BF6D420CDD2C4480EA020281EA96
:10105800030382EA000083EA010180EA020281EACE
:101068000303362D88BF30BD11F0004F4FEA013120
:101078004FF4801C4CEA113102D0404261EB41012F
:1010880013F0004F4FEA03334CEA133302D05242B5
:1010980063EB430394EA050F00F0A780A4F1010471
:1010A800D5F1200E0DDB02FA0EFC22FA05F28018AB
:1010B80041F1000103FA0EF2801843FA05F3594191
:1010C8000EE0A5F120050EF1200E012A03FA0EFC10
:1010D80028BF4CF0020C43FA05F3C01851EBE3713A
:1010E80001F0004507D54FF0000EDCF1000C7EEB57
:1010F80000006EEB0101B1F5801F1BD3B1F5001F95
:101108000CD349085FEA30004FEA3C0C04F10104B3
:101118004FEA445212F5800F80F09A80BCF1004FDC
:1011280008BF5FEA500C50F1000041EB045141EA5E
:10113800050130BD5FEA4C0C404141EB010111F45F
:10114800801FA4F10104E9D191F0000F04BF01460A
:101158000020B1FA81F308BF2033A3F10B03B3F1E8
:1011680020020CDA0C3208DD02F1140CC2F10C0278
:1011780001FA0CF021FA02F10CE002F11402D8BFD6
:10118800C2F1200C01FA02F120FA0CFCDCBF41EAA2
:101198000C019040E41AA2BF01EB0451294330BD71
:1011A8006FEA04041F3C1CDA0C340EDC04F114044E
:1011B800C4F1200220FA04F001FA02F340EA030025
:1011C80021FA04F345EA030130BDC4F10C04C4F16B
:1011D800200220FA02F001FA04F340EA030029464B
:1011E80030BD21FA04F0294630BD94F0000F83F495
:1011F800801306BF81F480110134013D4EE77FEA78
:10120800645C18BF7FEA655C29D094EA050F08BFC3
:1012180090EA020F05D054EA000C04BF19461046A4
:1012280030BD91EA030F1EBF0021002030BD5FEAE8
:10123800545C05D14000494128BF41F0004130BD10
:1012480014F580043CBF01F5801130BD01F0004564
:1012580045F0FE4141F470014FF0000030BD7FEAD7
:10126800645C1ABF194610467FEA655C1CBF0B46D2
:10127800024650EA013406BF52EA033591EA030FE9
:1012880041F4002130BD00BF90F0000F04BF0021E1
:10129800704730B54FF4806404F132044FF0000514
:1012A8004FF0000150E700BF90F0000F04BF00218D
:1012B800704730B54FF4806404F1320410F00045F3
:1012C80048BF40424FF000013EE700BF42004FEAEE
:1012D800E2014FEA31014FEA02701FBF12F07F436B
:1012E80093F07F4F81F06051704792F0000F14BF68
:1012F80093F07F4F704730B54FF4607401F00045AC
:1013080021F0004120E700BF50EA010208BF704702
:1013180030B54FF000050AE050EA010208BF7047F7
:1013280030B511F0004502D5404261EB41014FF460
:10133800806404F132045FEA915C3FF4DCAE4FF064
:1013480003025FEADC0C18BF03325FEADC0C18BF4B
:10135800033202EBDC02C2F1200300FA03FC20FA9C
:1013680002F001FA03FE40EA0E0021FA02F11444E9
:10137800C1E600BF4FEA4102B2F1E04324BFB3F532
:10138800001CDCF1FE5C0DD901F0004C4FEAC002F4
:101398004CEA5070B2F1004F40EB830008BF20F0D8
:1013A8000100704711F0804F21D113F13872BCBF92
:1013B80001F00040704741F480114FEA5252C2F1E7
:1013C8001802C2F1200C10FA0CF320FA02F018BF30
:1013D80040F001004FEAC1234FEAD32303FA0CFC83
:1013E80040EA0C0023FA02F34FEA4303CCE77FEA12
:1013F800625307D150EA01331EBF4FF0FE4040F45C
:101408004000704701F0004040F0FE4040F400000A
:10141800704700BF80F0004002E000BF81F000414B
:1014280042001FBF5FEA410392EA030F7FEA226C82
:101438007FEA236C6AD04FEA1262D2EB1363C1BF12
:10144800D218414048404140B8BF5B42192B88BF81
:10145800704710F0004F40F4000020F07F4018BFA4
:10146800404211F0004F41F4000121F07F4118BFC4
:10147800494292EA030F3FD0A2F1010241FA03FC6C
:1014880010EB0C00C3F1200301FA03F100F0004354
:1014980002D5494260EB4000B0F5000F13D3B0F11C
:1014A800807F06D340084FEA310102F10102FE2A8B
:1014B80051D2B1F1004F40EBC25008BF20F00100FB
:1014C80040EA03007047490040EB000010F4000FA9
:1014D800A2F10102EDD1B0FA80FCACF1080CB2EB3C
:1014E8000C0200FA0CF0AABF00EBC250524218439B
:1014F800BCBFD0401843704792F0000F81F4000140
:1015080006BF80F400000132013BB5E74FEA410312
:101518007FEA226C18BF7FEA236C21D092EA030F7E
:1015280004D092F0000F08BF0846704790EA010FF8
:101538001CBF0020704712F07F4F04D1400028BF25
:1015480040F00040704712F100723CBF00F5000007
:10155800704700F0004343F0FE4040F4000070473D
:101568007FEA226216BF08467FEA236301464202E9
:1015780006BF5FEA412390EA010F40F480007047FC
:101588004FF0000304E000BF10F0004348BF4042A2
:101598005FEA000C08BF704743F0964301464FF0DE
:1015A80000001CE050EA010208BF70474FF000033A
:1015B8000AE000BF50EA010208BF704711F000437B
:1015C80002D5404261EB41015FEA010C02BF84464B
:1015D8000146002043F0B64308BFA3F18053A3F5AA
:1015E8000003BCFA8CF2083AA3EBC25310DB01FAF1
:1015F80002FC634400FA02FCC2F12002BCF1004F75
:1016080020FA02F243EB020008BF20F00100704705
:1016180002F1200201FA02FCC2F1200250EA4C0059
:1016280021FA02F243EB020008BF20EADC7070479F
:101638004FF0FF0C1CEAD0521EBF1CEAD15392EAAD
:101648000C0F93EA0C0F6FD01A4480EA010C400289
:1016580018BF5FEA41211ED04FF0006343EA5010E3
:1016680043EA5111A0FB01310CF00040B1F5000F25
:101678003EBF490041EAD3715B0040EA010062F1D4
:101688007F02FD2A1DD8B3F1004F40EBC25008BFBE
:1016980020F00100704790F0000F0CF0004C08BFDC
:1016A80049024CEA502040EA51207F3AC2BFD2F1A9
:1016B800FF0340EAC250704740F400004FF00003B7
:1016C800013A5DDC12F1190FDCBF00F000407047F1
:1016D800C2F10002410021FA02F1C2F1200200FA2F
:1016E80002FC5FEA310040F1000053EA4C0308BFF6
:1016F80020EADC70704792F0000F00F0004C02BF47
:10170800400010F4000F013AF9D040EA0C0093F0C1
:10171800000F01F0004C02BF490011F4000F013B1B
:10172800F9D041EA0C018FE70CEAD15392EA0C0F89
:1017380018BF93EA0C0F0AD030F0004C18BF31F0F4
:10174800004CD8D180EA010000F00040704790F0CA
:10175800000F17BF90F0004F084691F0000F91F06E
:10176800004F14D092EA0C0F01D142020FD193EA34
:101778000C0F03D14B0218BF084608D180EA0100BC
:1017880000F0004040F0FE4040F40000704740F098
:10179800FE4040F4400070474FF0FF0C1CEAD05266
:1017A8001EBF1CEAD15392EA0C0F93EA0C0F69D0C2
:1017B800A2EB030280EA010C49024FEA402037D02D
:1017C8004FF0805343EA111143EA10130CF0004024
:1017D8008B4238BF5B0042F17D024FF4000C8B4214
:1017E80024BF5B1A40EA0C00B3EB510F24BFA3EBF4
:1017F800510340EA5C00B3EB910F24BFA3EB9103C4
:1018080040EA9C00B3EBD10F24BFA3EBD10340EA1D
:10181800DC001B0118BF5FEA1C1CE0D1FD2A3FF663
:1018280050AF8B4240EBC25008BF20F00100704718
:101838000CF0004C4CEA50207F32C2BFD2F1FF03BB
:1018480040EAC250704740F400004FF00003013AEC
:1018580037E792F0000F00F0004C02BF400010F490
:10186800000F013AF9D040EA0C0093F0000F01F0A4
:10187800004C02BF490011F4000F013BF9D041EAC6
:101888000C0195E70CEAD15392EA0C0F08D14202F9
:101898007FF47DAF93EA0C0F7FF470AF084676E7CC
:1018A80093EA0C0F04D14B023FF44CAF08466EE7A5
:1018B80030F0004C18BF31F0004CCAD130F0004273
:1018C8007FF45CAF31F000437FF43CAF5FE700BFCB
:1018D8004FF0FF3C06E000BF4FF0010C02E000BFF4
:1018E8004FF0010C4DF804CD4FEA40024FEA410396
:1018F8007FEA226C18BF7FEA236C11D001B052EA4C
:10190800530C18BF90EA010F58BFB2EB030088BF11
:10191800C81738BF6FEAE17018BF40F00100704780
:101928007FEA226C02D15FEA402C05D17FEA236C62
:10193800E4D15FEA412CE1D05DF8040B704700BFA9
:10194800844608466146FFE70FB5FFF7C9FF002840
:1019580048BF10F1000F0FBD4DF808EDFFF7F4FF79
:101968000CBF012000205DF808FB00BF4DF808ED12
:10197800FFF7EAFF34BF012000205DF808FB00BF35
:101988004DF808EDFFF7E0FF94BF012000205DF857
:1019980008FB00BF4DF808EDFFF7D2FF94BF012008
:1019A80000205DF808FB00BF4DF808EDFFF7C8FF01
:1019B80034BF012000205DF808FB00BF4FEA400259
:1019C800B2F1FE4F0FD34FF09E03B3EB12620DD965
:1019D8004FEA002343F0004310F0004F23FA02F0CF
:1019E80018BF404270474FF00000704712F1610F76
:1019F80001D1420205D110F0004008BF6FF000404D
:101A080070474FF00000704770B588B00024049408
:101A18000594069407941C4B9A6942F020029A6137
:101A28009A6902F020020192019A9A6942F0100222
:101A38009A619A6902F010020292029A9A6942F037
:101A480004029A619B6903F004030393039B0F4DFF
:101A580022460C21284601F075FD04230493012633
:101A6800059606940224079404A9284601F06AFC06
:101A78000823049305960696079404A9284601F0BE
:101A880061FC08B070BD00BF0010024000100140AA
:101A980000B583B00A4B5A6942F002025A615B6989
:101AA80003F002030193019B012200213B2001F076
:101AB8006DFF3B2001F09CFF03B05DF804FB00BF05
:101AC8000010024010B582B0002300930193084C27
:101AD800084B2360204601F0D5FF0423009302231E
:101AE800019310226946204602F072F802B010BD38
:101AF800840300200074004030B587B000240294AD
:101B0800039404940594009401940F4D0F4B2B609B
:101B180041F61F436B60AC6042F20F73EB602C61BF
:101B2800AC61284600F0CCFF4FF48053029302A921
:101B3800284600F0E9FF009401946946284601F020
:101B480050F807B030BD00BF440300200004004037
:101B580030B583B00025009501950A4C0A4B2360E7
:101B68006560A5602723E360A561204600F0A8FF13
:101B78002023009301956946204601F032F803B00E
:101B880030BD00BF980300200010004030B587B07A
:101B980000240294039404940594009401940F4D36
:101BA8000F4B2B606C60AC60EC602C616C61AC61BD
:101BB800284600F085FF4FF40053029303940494E1
:101BC800059402A9284600F09FFF009401946946F5
:101BD800284601F006F807B030BD00BF1C040020FD
:101BE800002C014030B591B02822002106A8FEF74C
:101BF80071FB002401940294039404940594012237
:101C080006924FF4803307930A9202250D950E939E
:101C18004FF4E0130F9306A801F07CF80F2301930B
:101C2800029503944FF4806304930594294601A810
:101C380001F0AEFA11B030BD2DE9F0419CB05C4D19
:101C48002B7801332B705B4E3068FFF73FFB56A3B0
:101C5800D3E90023FFF7DCF9FFF78CFB3060564827
:101C680000F0BCFC4FF6FF71002000F0C3FC534CA1
:101C7800534B1B8822880021084600F02BFC2A7849
:101C8800504903A8FEF796FB00F0AEFCC08800EBB5
:101C9800800080B200F0BEFC00F0A6FCC08800EB1B
:101CA800800003A980B200F06BFC474B1A684749D3
:101CB80003A8FEF77FFB00F097FCC088C0EBC000CC
:101CC80080B200F0A7FC00F08FFCC088C0EBC00019
:101CD80003A980B200F054FCD6F800804046FFF714
:101CE8006DFE07464FF47A7606FB00F63849404603
:101CF800FFF79EFC80463046FFF746FC014640460B
:101D0800FFF78CFBFFF75AFE03463A46314903A812
:101D1800FEF750FB00F068FCC38803EB4303580050
:101D280080B200F077FC00F05FFCC38803EB43034C
:101D3800580080B203A900F023FC274800F04EFCAD
:101D48001F2000F061FC248800F04EFC8288B4FB60
:101D5800F2F2023A214B009320235208204903A8AB
:101D6800FEF728FB00F040FCC08800EBC00080B202
:101D780000F050FC00F038FCC08800EBC00003A95C
:101D880080B200F0FDFB2B78632B01D900222A706A
:101D98001449084B1868FFF7FDFD10B10022054BE8
:101DA8001A601CB0BDE8F0817B14AE47E17A843F2D
:101DB800400300203C030020FC020020EE0200202B
:101DC800F0020020683E000838030020703E00083A
:101DD80000007A44803E0008F4020020983E000883
:101DE800903E00080000C84200B583B000F044FFF0
:101DF80000F08EF800F030FBFFF7F4FEFFF704FE6A
:101E0800FFF746FEFFF75EFEFFF776FEFFF7A0FE40
:101E1800FFF7BCFE1A4800F00AFD1A4C204600F0F5
:101E280006FD194800F003FD204600F029FD0023B7
:101E380000934FF4A073154A1021154801F034FEA1
:101E4800FFF7FAFE134C0421204601F081FBC8205D
:101E580000F036FF0421204601F07AFBC82000F08C
:101E68002FFF0821204601F073FBC82000F028FF4F
:101E78000821204601F06CFBC82000F021FFDFE7B5
:101E88001C04002044030020980300206400002064
:101E9800840300200010014070477047FEE7FEE70A
:101EA800FEE7FEE770477047704708B500F0F6FE9A
:101EB80008BD000008B5024800F0F7FC08BD00BFE7
:101EC8004403002008B5024801F0E6FB08BD00BF46
:101ED800D803002038B50B4D284600F0BAFC0A4C50
:101EE800204600F0B6FC2A68516A084B19600023A6
:101EF800536222685362284600F099FC204600F09D
:101F080096FC38BD1C040020440300203803002040
:101F180008B50848084B03604FF4E13343600023D9
:101F28008360C360036183610C23436101F0FCFE9D
:101F380008BD00BF5C0400200038014010B588B01F
:101F48001A4B9A6942F480429A619A6902F4804273
:101F58000192019A9A6942F004029A619A6902F020
:101F680004020292029A9A6942F004029A619B69F9
:101F780003F004030393039B4FF4007304930223B9
:101F880005930123069303230793094C04A92046CC
:101F980001F0D8F94FF4806304930023059304A952
:101FA800204601F0CFF908B010BD00BF0010024074
:101FB8000008014082B0019002E0019B013B0193BF
:101FC800019B002BF9D102B07047000030B589B0F1
:101FD8002D4B9A6942F010029A619A6902F0100238
:101FE8000092009A9A6942F020029A619A6902F076
:101FF80020020192019A9A6942F008029A619A694C
:1020080002F008020292029A9A6942F001029A6169
:102018009B6903F001030393039B1C4A536823F055
:10202800E06343F000735360012305930693032391
:10203800079308AC4FF6FF7344F8103D2146144847
:1020480001F080F920230493124D2146284601F01F
:1020580079F9402304932146284601F073F91023A7
:1020680004932146284601F06DF980230493214604
:10207800284601F067F9042304932146064801F035
:1020880061F909B030BD00BF0010024000000140F6
:10209800000C01400010014000140140064B1022C2
:1020A8005A6180215961202119610449C860402181
:1020B800596119611A61704700100140000C014014
:1020C800064B10225A6180211961202119610449A7
:1020D800C8604021596119611A61704700100140B8
:1020E800000C014008B54FF6FF70FFF763FFCF20E3
:1020F800FFF7D4FF0020FFF7E3FF8120FFF7E0FFA1
:102108003020FFF7DDFF4FF6FF70FFF753FFED209C
:10211800FFF7C4FF6420FFF7D3FF0320FFF7D0FFCA
:102128001220FFF7CDFF8120FFF7CAFF4FF6FF709F
:10213800FFF740FFE820FFF7B1FF8520FFF7C0FF5A
:102148001020FFF7BDFF7820FFF7BAFF4FF6FF70AA
:10215800FFF730FFCB20FFF7A1FF3920FFF7B0FFD3
:102168002C20FFF7ADFF0020FFF7AAFF3420FFF770
:10217800A7FF0220FFF7A4FF4FF6FF70FFF71AFF33
:10218800F720FFF78BFF2020FFF79AFF4FF6FF702D
:10219800FFF710FFEA20FFF781FF0020FFF790FF0D
:1021A8000020FFF78DFF4FF6FF70FFF703FFB12008
:1021B800FFF774FF0020FFF783FF1B20FFF780FF66
:1021C8004FF6FF70FFF7F6FEB620FFF767FF0A200D
:1021D800FFF776FFA220FFF773FF4FF6FF70FFF7B8
:1021E800E9FEC020FFF75AFF3520FFF769FF4FF6D9
:1021F800FF70FFF7DFFEC120FFF750FF1120FFF748
:102208005FFFC520FFF74AFF4520FFF759FF45202C
:10221800FFF756FFC720FFF741FFA220FFF750FF47
:10222800F220FFF73BFF0020FFF74AFF2620FFF7C9
:1022380035FF0120FFF744FF4FF6FF70FFF7BAFEA6
:10224800E020FFF72BFF0F20FFF73AFF2620FFF7CC
:1022580037FF2420FFF734FF0B20FFF731FF0E2054
:10226800FFF72EFF0920FFF72BFF5420FFF728FF69
:10227800A820FFF725FF4620FFF722FF0C20FFF7D5
:102288001FFF1720FFF71CFF0920FFF719FF0F207A
:10229800FFF716FF0720FFF713FF0020FFF710FFD7
:1022A800E120FFF7FBFE0020FFF70AFF1920FFF7E8
:1022B80007FF1B20FFF704FF0420FFF701FF102092
:1022C800FFF7FEFE0720FFF7FBFE2A20FFF7F8FEC8
:1022D8004720FFF7F5FE3920FFF7F2FE0320FFF74E
:1022E800EFFE0620FFF7ECFE0620FFF7E9FE3020A0
:1022F800FFF7E6FE3820FFF7E3FE0F20FFF7E0FECA
:102308004FF6FF70FFF756FE3620FFF7C7FEC820CE
:10231800FFF7D6FE4FF6FF70FFF74CFE2A20FFF7B7
:10232800BDFE0020FFF7CCFE0020FFF7C9FE00200D
:10233800FFF7C6FEEF20FFF7C3FE4FF6FF70FFF76B
:1023480039FE2B20FFF7AAFE0020FFF7B9FE002078
:10235800FFF7B6FE0120FFF7B3FE3F20FFF7B0FE00
:102368004FF6FF70FFF726FE3A20FFF797FE55203D
:10237800FFF7A6FE1120FFF791FE0548FFF71AFEAA
:102388004FF6FF70FFF716FE2920FFF787FE08BDFE
:10239800FCBF020018B90422034B1A6170474FF4BE
:1023A8008022014B1A6170470014014007284BD85E
:1023B80010B5264B187010F0010F3DD1F022244BB8
:1023C8001A804FF4A072234B1A8004463620FFF778
:1023D80065FE600140F00800FFF772FE2A20FFF753
:1023E8005DFE0020FFF76CFE0020FFF769FE184C29
:1023F80020880138C0F30720FFF762FE20880138E3
:10240800C0B2FFF75DFE2B20FFF748FE0020FFF764
:1024180057FE0020FFF754FE0E4C20880138C0F309
:102428000720FFF74DFE20880138C0B2FFF748FEAD
:102438002C20FFF733FE10BD4FF4A072044B1A8016
:10244800F022044B1A80C0E7704700BFEC0200205E
:10245800EE020020F002002008B5FFF7B7FD0120CA
:10246800FFF798FFFFF73EFE024B1878FFF79EFF35
:1024780008BD00BFEC020020F8B505460C4617461B
:102488001E462A20FFF70AFE280AFFF719FEE8B2BF
:10249800FFF716FE3D44681EC0F30F20FFF710FE3D
:1024A800ADB2681EC0B2FFF70BFE2B20FFF7F6FD9A
:1024B800200AFFF705FEE0B2FFF702FE3444601E73
:1024C800C0F30F20FFF7FCFDA4B2601EC0B2FFF7F7
:1024D800F7FDF8BD70B514461D46FFF7CDFF05FBA7
:1024E80004F5074B1E882C20FFF7D8FD002403E0D5
:1024F8003046FFF7E5FD0134A542F9D870BD00BFAD
:10250800E40200202DE9F041A2F12006B6B2194BF1
:102518001C68A288E38803FB02F8B8F1000F0BDB04
:10252800C8F3C708276806FB08F6FFF7A5FF2C20A5
:10253800FFF7B4FD002517E008F10708F0E70E4B98
:102548001888FFF7BDFD0134E4B2072C0AD8BB197F
:102558005A5D802323411A42F1D0084B1888FFF7AF
:10256800AFFDF0E70135EDB2454501D20024ECE7B7
:10257800BDE8F081E8020020E402002042030020C8
:1025880070B505460E46002409E029462046FFF7A7
:10259800B9FF01360E4B1B689B881C44A4B23278E5
:1025A800A2B10B4B19688B8823440A4800888342E0
:1025B80003DDCB881D44ADB20024CB882B440649EB
:1025C80009888B42E1DD00242546DEE770BD00BFA7
:1025D800E8020020EE020020F0020020014B186003
:1025E800704700BFE8020020014B1868704700BF21
:1025F800E8020020024B1880024B1980704700BF88
:1026080042030020E4020020014B1880704700BFFD
:102618004203002038B50446054B1D88FFF7E4FF48
:10262800C3882A4621460020FFF754FF38BD00BF63
:10263800EE02002000B583B00F4B9A6942F0010208
:102648009A619A6902F001020092009ADA6942F0EE
:102658008052DA61DB6903F080530193019B062005
:1026680001F082F9054A536823F0E06343F00073F0
:10267800536003B05DF804FB001002400000014005
:1026880030B587B00023029303930493059302683F
:102698001F4B9A4201D007B030BD044603F5CE3334
:1026A800DA6942F00052DA61DA6902F00052009207
:1026B800009A9A6942F004029A619B6903F0040344
:1026C8000193019B202502950323039302A9114836
:1026D80000F038FE1048114B0360102343600023BC
:1026E80083608023C3604FF4807303614FF4806379
:1026F800436185614FF40053C36100F047FF18B987
:10270800054BE3605C62C6E7FFF7C6FBF8E700BF6E
:102718000074004000080140D8030020440402402F
:1027280000B589B0002304930593069307930368C3
:10273800234A934208D0234A934222D0224A934202
:1027480032D009B05DF804FB204B9A6942F400626C
:102758009A619A6902F400620092009A9A6942F0BA
:1027680004029A619B6903F004030193019B4FF4EF
:10277800805304930223069304A9154800F0E2FD50
:10278800DFE7124BDA6942F00202DA61DB6903F033
:1027980002030293029B032201211D2001F0F6F897
:1027A8001D2001F025F9CCE7084BDA6942F0100248
:1027B800DA61DB6903F010030393039BC1E700BFF1
:1027C800002C0140000400400010004000100240AE
:1027D8000008014010B4036A046A24F0010404628A
:1027E800846924F0F00444EA021223F00A030B433C
:1027F8008261036210BC704710B4036A23F01003AF
:1028080003628469036A24F4704444EA023223F0C0
:10281800A00343EA01138261036210BC7047836816
:1028280023F07003194341F00701816070470223C8
:1028380080F83D300268936803F00703062B03D045
:10284800136843F001031360012380F83D30002032
:102858007047022380F83D300368196A41F211126B
:10286800114208D1196A40F24442114203D11A6850
:1028780022F001021A60012380F83D3000207047E1
:102888000268D36843F00103D3600268936803F0D9
:102898000703062B03D0136843F0010313600020DD
:1028A8007047704770477047704710B50446036813
:1028B8001A6912F0020F11D0DA6812F0020F0DD067
:1028C8006FF002021A610123037703689B6913F012
:1028D800030F70D0FFF7E6FF0023237723681A69F8
:1028E80012F0040F12D0DA6812F0040F0ED06FF055
:1028F80004021A610223237723689B6913F4407F3B
:102908005FD02046FFF7CEFF0023237723681A699C
:1029180012F0080F12D0DA6812F0080F0ED06FF01C
:1029280008021A61042323772368DB6913F0030F75
:102938004ED02046FFF7B6FF0023237723681A6995
:1029480012F0100F12D0DA6812F0100F0ED06FF0DC
:1029580010021A61082323772368DB6913F4407F88
:102968003DD02046FFF79EFF0023237723681A698E
:1029780012F0010F03D0DA6812F0010F36D1236884
:102988001A6912F0800F03D0DA6812F0800F34D180
:1029980023681A6912F0400F03D0DA6812F0400F6A
:1029A80032D123681A6912F0200F03D0DA6812F0C6
:1029B800200F30D110BDFFF774FF2046FFF773FFDB
:1029C8008AE72046FFF76DFF2046FFF76CFF9BE77D
:1029D8002046FFF766FF2046FFF765FFACE7204675
:1029E800FFF75FFF2046FFF75EFFBDE76FF00102CC
:1029F8001A612046FFF76EFAC1E76FF080021A618C
:102A0800204600F012F9C3E76FF040021A61204631
:102A1800FFF74AFFC5E76FF020021A61204600F071
:102A280003F9C7E70368254A904212D002F500620D
:102A380090420ED0B0F1804F0BD0A2F59832904260
:102A480007D002F58062904203D002F5806290427E
:102A580003D123F070034A681343184A904212D0F6
:102A680002F5006290420ED0B0F1804F0BD0A2F573
:102A78009832904207D002F58062904203D002F566
:102A88008062904203D123F44073CA68134323F051
:102A980080034A69134303608B68C3620B688362CF
:102AA800064B984206D003F50063984202D00123F2
:102AB800436170470B690363F9E700BF002C0140CD
:102AC800A8B110B5044690F83D305BB1022384F8F4
:102AD8003D30211D2068FFF7A5FF012384F83D3014
:102AE800002010BD80F83C30FFF71AFEEEE7012009
:102AF800704710B4846824F47F4442EA03231943DE
:102B08000C43846010BC704790F83C30012B66D0B1
:102B180010B50446012380F83C30022380F83D308C
:102B28000268936823F47F4323F0770393600B686C
:102B3800402B4AD013D9602B3DD01ED9702B28D0FA
:102B4800B3F5005F30D1CB684A6889680068FFF741
:102B5800D0FF2268936843F48043936024E0102BED
:102B680006D004D9202B03D0302B01D01CE0DBB9D0
:102B780019462068FFF753FE16E0502B14D1CA6897
:102B880049680068FFF726FE50212068FFF747FED6
:102B98000AE0CB684A6889680068FFF7AAFF2268DC
:102BA800936843F077039360012384F83D30002055
:102BB80084F83C0010BDCA6849680068FFF71CFE2D
:102BC80060212068FFF72BFEEEE7CA6849680068B5
:102BD800FFF700FE40212068FFF721FEE4E702200E
:102BE800704790F83C30012B1CD070B4012580F858
:102BF8003C50022380F83D3004686268A36822F0E4
:102C080070020E68324323F0800349680B43626008
:102C18000268936080F83D50002380F83C301846E5
:102C280070BC7047022070477047704710B5044663
:102C38000E4B18784FF47A73B3FBF0F30C4A106814
:102C4800B0FBF3F000F0E2FE68B90F2C01D90120C7
:102C580010BD002221464FF0FF3000F097FE054BD3
:102C68001C60002010BD012010BD00BF040300201F
:102C78000C0300200803002008B5074A136843F036
:102C880010031360032000F06FFE0020FFF7CEFF53
:102C9800FFF7D0FC002008BD00200240034A11685D
:102CA800034B1B780B441360704700BF9C04002043
:102CB80004030020014B1868704700BF9C040020E3
:102CC80038B50446FFF7F6FF0546B4F1FF3F02D0DA
:102CD800044B1B781C44FFF7EDFF401B8442FAD8D5
:102CE80038BD00BF0403002082B0084B1B68084AA7
:102CF800A2FB03235B0A00FB03F0019000BF019BCA
:102D08005A1E0192002BF9D102B070470C03002023
:102D1800D34D6210002800F0F58170B582B00446EA
:102D2800036813F0010F3DD0AB4B5B6803F00C0355
:102D3800042B2ED0A84B5B6803F00C03082B23D080
:102D48006368B3F5803F51D0002B55D103F1804320
:102D580003F504331A6822F480321A601A6822F4E0
:102D680080221A606368002B60D0FFF7A3FF054636
:102D7800994B1B6813F4003F14D1FFF79BFF401BCE
:102D88006428F5D90320C2E1934B5B6813F4803FB4
:102D9800D6D0914B1B6813F4003F03D06368002B17
:102DA80000F0B281236813F0020F65D08A4B5B688C
:102DB80013F00C0F4ED0884B5B6803F00C03082B04
:102DC80043D02369002B79D00122844B1A60FFF786
:102DD80071FF0546804B1B6813F0020F65D1FFF7A2
:102DE80069FF401B0228F5D9032090E17A4A13684D
:102DF80043F480331360B5E7B3F5A02F09D0764BC1
:102E08001A6822F480321A601A6822F480221A6042
:102E1800A8E703F18043A3F53C331A6842F4802203
:102E28001A601A6842F480321A609BE7FFF742FF83
:102E38000546694B1B6813F4003FB3D0FFF73AFF10
:102E4800401B6428F5D9032061E1634B5B6813F4E8
:102E5800803FB6D1604B1B6813F0020F04D0236982
:102E6800012B01D0012052E15B4A136823F0F803DB
:102E7800616943EAC1031360236813F0080F32D075
:102E8800A369002B6ED00122554B1A60FFF712FF81
:102E98000546514B5B6A13F0020F21D1FFF70AFF79
:102EA800401B0228F5D9032031E14B4A136823F06F
:102EB800F803616943EAC1031360DDE70022474B69
:102EC8001A60FFF7F7FE0546434B1B6813F0020F25
:102ED800D2D0FFF7EFFE401B0228F5D9032016E1F8
:102EE8000120FFF701FF236813F0040F00F098801A
:102EF800394BDB6913F0805F46D1374BDA6942F012
:102F08008052DA61DB6903F080530193019B01254C
:102F1800344B1B6813F4807F38D0E368012B49D009
:102F2800002B4DD103F1804303F504331A6A22F0D4
:102F380001021A621A6A22F004021A62E368002B7C
:102F48005CD0FFF7B7FE0646234B1B6A13F0020F4F
:102F580065D1FFF7AFFE801B41F288339842F3D961
:102F68000320D4E000221E4B1A60FFF7A3FE05469B
:102F7800194B5B6A13F0020FB5D0FFF79BFE401B9D
:102F88000228F5D90320C2E00025C1E7154A1368D5
:102F980043F480731360FFF78DFE0646114B1B68E0
:102FA80013F4807FB9D1FFF785FE801B6428F5D91B
:102FB8000320ACE0084A136A43F001031362BDE73B
:102FC800052B11D0044B1A6A22F001021A621A6A00
:102FD80022F004021A62B1E70010024000004242E7
:102FE80080044242007000404C4B1A6A42F00402CE
:102FF8001A621A6A42F001021A629FE7FFF75AFE44
:103008000646464B1B6A13F0020F08D0FFF752FE24
:10301800801B41F288339842F3D9032077E0E5B961
:10302800E369002B72D03D4A526802F00C02082A6C
:1030380056D0022B17D00022394B1A60FFF73AFE00
:103048000446364B1B6813F0007F47D0FFF732FE6B
:10305800001B0228F5D9032059E0304AD36923F030
:103068008053D361DCE700222D4B1A60FFF722FE64
:1030780005462A4B1B6813F0007F06D0FFF71AFE9F
:10308800401B0228F5D9032041E0236AB3F5803FAD
:103098001AD022494B6823F47413226A606A0243E7
:1030A80013434B6001221E4B1A60FFF703FE0446D0
:1030B8001A4B1B6813F0007F0ED1FFF7FBFD001BB6
:1030C8000228F5D9032022E0144A536823F4003378
:1030D800A1680B435360DCE7002018E0002016E0ED
:1030E800012B16D00D4B5B6803F48031226A9142A4
:1030F80001D001200BE003F47013626A93420AD0F6
:10310800012004E001207047012000E0002002B007
:1031180070BD0120FBE70020F9E700BF0010024066
:103128006000424210B586B0154C94E80F000DF1CE
:10313800180E0EE90F00238AADF80430114B5B68B6
:1031480003F00C02082A18D1C3F38342724412F820
:10315800102C13F4803F03D10B4800FB02F00DE064
:10316800084B5B68C3F34043734413F8143C0748A7
:1031780000FB02F0B0FBF3F000E0044806B010BD1D
:10318800F43D00080010024000093D0000127A00DA
:10319800002800F0A38070B50446524B1B6803F06A
:1031A80007038B420CD24F4A136823F007030B43E3
:1031B8001360136803F00703994201D0012070BD22
:1031C800236813F0020F17D013F0040F04D0464AF7
:1031D800536843F4E0635360236813F0080F04D086
:1031E800414A536843F4605353603F4A536823F09D
:1031F800F003A068034353600D46236813F0010FE2
:1032080031D06368012B20D0022B25D0364A1268B2
:1032180012F0020F64D034494A6822F003021343C3
:103228004B60FFF747FD06462F4B5B6803F00C0326
:103238006268B3EB820F16D0FFF73CFD801B41F2AA
:1032480088339842F0D9032070BD274A126812F4D7
:10325800003FE0D1012070BD234A126812F0007FC0
:10326800D9D1012070BD1F4B1B6803F007039D4295
:103278000CD21C4A136823F007032B43136013680E
:1032880003F007039D4201D0012070BD236813F0AD
:10329800040F06D0144A536823F4E063E1680B4333
:1032A8005360236813F0080F07D00F4A536823F4BC
:1032B8006053216943EAC1035360FFF733FF0A4BA8
:1032C8005B68C3F30313094AD35CD840084B186002
:1032D800084B1868FFF7AAFC002070BD0120704752
:1032E800012070BD00200240001002402C68000838
:1032F8000C03002008030020014B1868704700BF2A
:103308000C03002008B5FFF7F7FF044B5B68C3F315
:103318000223034AD35CD84008BD00BF0010024016
:103328003C68000808B5FFF7E7FF044B5B68C3F388
:10333800C223034AD35CD84008BD00BF0010024036
:103348003C680008F0B583B00026344679E0002DCB
:1033580000F0AA80012D00D1CE68FF2B00F2B880C2
:103368008646FF2B00F2B780A500DEF800200F2765
:10337800AF4022EA070206FA05F52A43CEF80020F4
:103388004A6812F0805F5BD0684A956945F001058C
:103398009561926902F001020192019AA208971CB4
:1033A800634D55F8275004F003074FEA870E0F279F
:1033B80007FA0EF725EA07055E4FB84200F091803C
:1033C80007F58067B84200F08E8007F58067B8423D
:1033D80000F08B8007F58067B84200F0888007F519
:1033E8008067B84200F0858007F58067B84276D0DC
:1033F800062707FA0EF73D4302324D4F47F8225091
:103408004A6812F4803F76D04B4D2A681A432A60E6
:103418004A6812F4003F74D0474D6A681A436A60DC
:103428004A6812F4801F72D0434DAA681A43AA60F2
:103438004A6812F4001F70D03F4DEA681343EB60EE
:1034480001340B6833FA04F26DD00122A240134014
:103458009A42F5D14D68122D30D00BD8022D2AD0C2
:103468007FF675AF032D2FD0112D7FF476AFCE6880
:10347800043672E7314FBD4216D00CD9304FBD42E9
:1034880012D007F58037BD420ED0A7F58017BD4290
:103498007FF463AF08E0A7F58017BD4204D007F5B5
:1034A8008037BD427FF459AF8D687DB1012D08D0BA
:1034B8004261082651E7CE6808364EE7CE680C36DA
:1034C8004BE70261082648E7002646E7042644E75A
:1034D80000F1040E45E7A4F10805AD0045E705270E
:1034E80087E7002785E7012783E7022781E7032786
:1034F8007FE704277DE7104D2A6822EA03022A6045
:1035080086E70D4D6A6822EA03026A6088E70A4D79
:10351800AA6822EA0302AA608AE7074DEA6822EA53
:103528000303EB608CE703B0F0BD00BF001002405E
:103538000000014000080140000401400000211083
:103548000000311012B90904016170470161704728
:10355800C3680B4201D1016170474161704770B483
:10356800C56B066C0124B4406C60046863604368F2
:10357800102B05D0036899600368DA6070BC704747
:1035880003689A600368D960F8E7000000283BD018
:1035980010B4034601681D4A91422AD81C4A0A44BD
:1035A8001C49A1FB02121209920002641A4AC26362
:1035B800022283F821201868016821F47F5121F044
:1035C80030015A689C682243DC6822431C69224304
:1035D8005C6922439C692243DC6922430A430260F6
:1035E80000209863012283F8212083F8200010BC72
:1035F80070470A4A0A440749A1FB021212099200BD
:103608000264074AC263D3E70120704707040240F7
:10361800F8FFFDBFCDCCCCCC00000240F8FBFDBFCD
:103628000004024038B590F82040012C32D0012423
:1036380080F8204090F82140012C04D0002380F825
:103648002030022038BD0446022084F821000020E2
:10365800A0632568286820F0010028602046FFF74D
:103668007EFFE36A5BB12268136843F00E031360C0
:103678002268136843F001031360002038BD2268F4
:10368800136823F0040313602268136843F00A03E5
:103698001360EDE7022038BD38B5C36B1A680468BB
:1036A8002568016C04238B401A4200F0978015F0BE
:1036B800040F00F09380236813F0200F03D12368D0
:1036C80023F0040323600368A34A934242D9783A5B
:1036D800934221D01432934227D01432934226D0F9
:1036E8001432934226D01432934226D01432934295
:1036F80026D002F56772934225D01432934224D023
:103708001432934223D01432934202D04FF48022D1
:1037180003E04FF4804200E00422904B5A60C36AF1
:10372800002B00F01781984738BD4022F5E74FF489
:103738008062F2E74FF48042EFE74FF48022ECE733
:103748004FF48002E9E70422E7E74022E5E74FF477
:103758008062E2E7824A934224D01432934225D011
:103768001432934224D01432934224D01432934218
:1037780024D01432934224D01432934224D002F538
:103788006272934223D01432934222D0143293426D
:1037980021D01432934202D04FF4802203E04FF438
:1037A800804200E004226F4B5A60B8E74022FAE7F3
:1037B8004FF48062F7E74FF48042F4E74FF4802239
:1037C800F1E74FF48002EEE74FF08062EBE7042266
:1037D800E9E74022E7E74FF48062E4E702238B4001
:1037E8001A4200F09C8015F0020F00F098802368C0
:1037F80013F0200F06D1236823F00A032360012366
:1038080080F821300368544A934244D9783A934265
:1038180021D01432934229D01432934228D0143242
:10382800934228D01432934228D01432934228D09D
:1038380002F56772934227D01432934226D014328D
:10384800934225D01432934202D04FF4003203E061
:103858004FF4005200E00222404B5A60002380F8E7
:103868002030836A002B75D0984738BD2022F3E7B3
:103878004FF40072F0E74FF40052EDE74FF40032D6
:10388800EAE74FF40012E7E70222E5E72022E3E740
:103898004FF40072E0E7324A934224D01432934244
:1038A80025D01432934224D01432934224D01432B7
:1038B800934224D01432934224D01432934224D019
:1038C80002F56272934223D01432934222D014320A
:1038D800934221D01432934202D04FF4003203E0D5
:1038E8004FF4005200E002221E4B5A60B6E7202235
:1038F800FAE74FF40072F7E74FF40052F4E74FF499
:103908000032F1E74FF40012EEE74FF00072EBE7F8
:103918000222E9E72022E7E74FF40072E4E70823F0
:1039280003FA01F10A4215D015F0080F12D02368E6
:1039380023F00E032360C16B026C012303FA02F229
:103948004A60836380F82130002380F82030036BBD
:1039580003B1984738BD00BF800002400004024010
:103968000800024000000240074AD36823F4E063DD
:103978001B041B0C000200F4E060184340F0BF6019
:1039880040F40030D060704700ED00E030B4164BD2
:10399800DB68C3F30223C3F10704042C28BF042403
:1039A8001D1D062D17D9033B012505FA04F4013C1A
:1039B8002140994005FA03F3013B134019430028BD
:1039C8000BDB0901C9B200F1604000F5614080F8E5
:1039D800001330BC70470023E6E700F00F00090130
:1039E800C9B2024B1954F4E700ED00E014ED00E011
:1039F800002808DB420900F01F00012303FA00F049
:103A0800014B43F82200704700E100E00138B0F1B3
:103A1800807F0AD2064B5860F021064A82F82310AC
:103A28000020986007221A6070470120704700BF85
:103A380010E000E000ED00E00F4B1A6842F00102D0
:103A48001A6059680D4A0A405A601A6822F084724E
:103A580022F480321A601A6822F480221A605A68A6
:103A680022F4FE025A604FF41F029A604FF000627F
:103A7800034B9A60704700BF001002400000FFF837
:103A880000ED00E070B110B50446037933B10223AC
:103A98002371002020610123237110BD4371FEF7BB
:103AA800EFFDF4E701207047F8B5069C4579012D34
:103AB80063D0012545710225057100292FD185683C
:103AC8002F4EAE6285682F4EEE6285682E4E2E63AD
:103AD8000668356845F480553560042C19D0082CE3
:103AE8001AD09CB10E4614460F460546002934D11B
:103AF800324621468068FFF795FD00236B71002848
:103B080031D02B6943F004032B61F8BD06680836F1
:103B1800E9E706680C36E6E706681036E3E7C568A5
:103B28001A4EAE62C5681A4EEE62C568194E2E630B
:103B38000668356845F080553560042C07D0082C98
:103B480008D00CB10026CEE706681436CBE7066825
:103B58001836C8E706681C36C5E732462146C068ED
:103B6800FFF760FDC9E72A68136807F0100101270D
:103B780007FA01F119431160F8BD0220F8BD00BF32
:103B8800A33B0008B53B0008C13B0008333C0008D4
:103B9800433C00084D3C0008704710B5446A204675
:103BA800FFF7FAFF0123237110BD704708B5406A7B
:103BB800FFF7FBFF08BD704710B5446A236943F05F
:103BC800040323612046FFF7F6FF0123237110BD8C
:103BD80070B44479012C23D0012545710223037167
:103BE8000668346802F0100340F6FE729A4024EA30
:103BF80002020C684968214399400A43326004680C
:103C08002168C0229A40D243114021600368196894
:103C18000A401A60057100234371184670BC70474A
:103C28000220FBE770477047704710B5446A20468A
:103C3800FFF7F8FF0123237110BD08B5406AFFF7AD
:103C4800F2FF08BD10B5446A236943F004032361F9
:103C58002046FFF7E9FF0123237110BD38B504465C
:103C68000268136923F44053C1680B4313618368E6
:103C780002691343426913430168CA6822F4B052C7
:103C880022F00C021343CB600268536923F440739B
:103C980081690B4353610268214B9A421FD0FFF799
:103CA80031FB216800EB800000EB800063689B001B
:103CB800B0FBF3F01B4DA5FB00325409642202FB54
:103CC800140213013233A5FB03235B0903F0F0024E
:103CD80002EB041203F00F0313448B6038BDFFF7A7
:103CE80021FB216800EB800000EB800063689B00EB
:103CF800B0FBF3F00B4DA5FB00325409642202FB24
:103D0800140213013233A5FB03235B0903F0F0020D
:103D180002EB041203F00F0313448B6038BD00BF9D
:103D2800003801401F85EB5158B310B5044690F890
:103D380039300BB3242384F839302268D36823F44C
:103D48000053D3602046FFF789FF2268136923F4E4
:103D5800904313612268536923F02A035361226850
:103D6800D36843F40053D3600020E063202384F831
:103D7800393084F83A3010BD80F83830FEF7DEF874
:103D8800D8E7012070470000002103E00B4B5B5887
:103D9800435004310A480B4B42189A42F6D30A4A58
:103DA80002E0002342F8043B084B9A42F9D3FFF79C
:103DB80043FEFCF767FAFEF717F870478C680008AF
:103DC800000000201003002010030020A40400209D
:103DD800FEE70000F8B500BFF8BC08BC9E46704777
:0C3DE800F8B500BFF8BC08BC9E46704750
:103DF40002030405060708090A0B0C0D0E0F101028
:103E040001020000000000000000000000000000AB
:103E1400000000000000000000000000000000009E
:103E2400000000000000000000000000000000008E
:103E3400000000000000000000000000000000007E
:103E4400000000000000000000000000000000006E
:103E5400000000000000000000000000000000005E
:103E640000000000494E543A256400004672657112
:103E740075656E63793A256400000000464C4F4135
:103E8400543A25642E25303364000000252A632526
:103E94007300000054540000000000000000000003
:103EA400000000000000000000000000000000000E
:103EB40000000000000000000000000000000000FE
:103EC40000000000000000000000000000000000EE
:103ED40000000000000000000000000000000000DE
:103EE40000000000000000000000000000000000CE
:103EF40000000000000000000000000000000000BE
:103F040000000000000000000000003C00003C0035
:103F1400003C00003C00003C00003C00003C000071
:103F24003C00003C00003C00003C00003C00003C25
:103F340000003C00000000000000003C00007E0087
:103F4400003C000000000000000000000000000031
:103F5400000000000000000000000000000000005D
:103F64000000000000000000000003C3E003C3E001
:103F740003C3C003C3C003C3C003C3C003C1C000A1
:103F8400000000000000000000000000000000002D
:103F9400000000000000000000000000000000001D
:103FA400000000000000000000000000000000000D
:103FB40000000000000000000000000000000000FD
:103FC40000000000000000000000000000000000ED
:103FD40001E0E001C0E001C0E001C0E03FFFFE3FBE
:103FE400FFFE03C1C00381C00381C00381C07FFF02
:103FF400FC7FFFFC0783800703800703800703809F
:10400400070780000000000000000000000000001E
:10401400000000000000000000000000000000009C
:1040240000000000000000000700000F00000E0068
:1040340001FFF007FFF01F0E001E1E001E1C001ED5
:104044001C000FDC0007FC0000FF80003FF000387C
:10405400F800387800783C0070783071F83FFFE061
:104064001FFF0000E00000E00000E000000000008E
:10407400000000000000000000000000000000003C
:10408400000000000000000000000F800F3FE01E51
:1040940078703C7070707070E07071C03FE3801F86
:1040A400C700000E00001C0000780000F0F001E7DB
:1040B400FC03CF0E078E0E0F0E0E1E0E0E3C07BC19
:1040C4007003F80000000000000000000000000081
:1040D40000000000000000000000000000000000DC
:1040E4000000000000000000000000000001FF00CC
:1040F40007FF800F03C00F03C00F03C00F07800723
:104104009F0003FE0003F0000FF83C3E7C3C3C1F84
:104114003C780FF87807F87C01F03E03F81FFFFCA9
:1041240007FE1F0000000000000000000000000067
:10413400000000000000000000000000000000007B
:1041440000000000000000000000003E00003C00F1
:10415400003C00003C00003C00003C00003C00002F
:10416400000000000000000000000000000000004B
:10417400000000000000000000000000000000003B
:10418400000000000000000000000000000000002B
:10419400000000000000000000000000000000001B
:1041A400000000000000000000800001C000078043
:1041B400000F00001E00003C0000780000F000002A
:1041C400E00001E00001E00001C00003C00003C002
:1041D4000001C00001E00001E00000F00000F00078
:1041E400007800003C00001E00000F000007C00023
:1041F40001C00000000000000000000000000000FA
:104204000000000000000000000003C00001E00006
:1042140000F000007C00003E00001E00000F0000C3
:1042240007800007800003800003C00003C0000370
:10423400C00003C0000380000780000780000F0057
:10424400001E00003C0000780000F00001E00003C4
:1042540080000000000000000000000000000000DA
:1042640000000000000000000000001C00001C0012
:104274000018000F18F007DBE0007F0000FF0007C4
:10428400DBE00E1870001800001C00001C00000089
:10429400000000000000000000000000000000001A
:1042A400000000000000000000000000000000000A
:1042B40000000000000000000000000000000000FA
:1042C40000000000000000000000000000000000EA
:1042D400000000000000000000003C00003C000062
:1042E4003C00003C00003C00003C003FFFFC3FFF62
:1042F400FC003C00003C00003C00003C00003C0092
:1043040000000000000000000000000000000000A9
:104314000000000000000000000000000000000099
:104324000000000000000000000000000000000089
:104334000000000000000000000000000000000079
:104344000000000000000000000000000000000069
:1043540000000000000000007C00007E00007E00E1
:10436400003E00001E00003C0000F80007E00004CE
:104374000000000000000000000000000000000039
:104384000000000000000000000000000000000029
:104394000000000000000000000000000000000019
:1043A400000000000000000000000003FFE003FF25
:1043B400E000000000000000000000000000000019
:1043C40000000000000000000000000000000000E9
:1043D40000000000000000000000000000000000D9
:1043E40000000000000000000000000000000000C9
:1043F40000000000000000000000000000000000B9
:1044040000000000000000000000000000000000A8
:1044140000000000000000007C0000FE0000FE0020
:10442400007E00000000000000000000000000000A
:104434000000000000000000000000000000000078
:10444400000000000000000000000000780000F000
:104454000000E00001E00003C000038000078000CA
:104464000F00000E00001E00003C00003800007029
:104474000000F00000E00001C00003C0000780005D
:104484000700000F00001E00001C000000000000D8
:104494000000000000000000000000000000000018
:1044A4000000000000000000000000000000000008
:1044B40001FFC007FFE00F00F01E00781E003C3C27
:1044C40000FC3C07FC3C1FBC3C7C1C3DF03C3FC05A
:1044D4003C3F003C1E00381E00780F80F007FFE0D0
:1044E40001FF800000000000000000000000000048
:1044F40000000000000000000000000000000000B8
:1045040000000000000000000000000000000000A7
:10451400007E0003FE001FDE000E1E00001E0000D1
:104524001E00001E00001E00001E00001E00001ED3
:1045340000001E00001E00001E00001E000FFFF8F9
:104544000FFFF80000000000000000000000000061
:104554000000000000000000000000000000000057
:104564000000000000000000000000000000000047
:1045740003FF800FFFE00E01F00000F00000F000E8
:1045840000F00000F00001E00003C0000F80003ED6
:1045940000007C0001F00003C0000F80001FFFFC3E
:1045A4001FFFFC00000000000000000000000000ED
:1045B40000000000000000000000000000000000F7
:1045C40000000000000000000000000000000000E7
:1045D4000FFF800FFFE00001E00000F00000F0009A
:1045E40001E00003C001FF0001FFC00003F0000070
:1045F400780000780000780000780001F00FFFC018
:104604000FFF000000000000000000000000000098
:104614000000000000000000000000000000000096
:104624000000000000000000000000000000000086
:10463400000FC0001FC0003FC0007BC000F3C001DA
:10464400E3C003C3C00783C00F03C01C03C0380307
:10465400C07FFFFE7FFFFE0003C00003C00003C055
:104664000003C00000000000000000000000000083
:104674000000000000000000000000000000000036
:104684000000000000000000000000000000000026
:104694000FFFE00FFFE00F00000F00000F00000FFE
:1046A40000000F00000FFF800FFFE00000F000008B
:1046B400780000780000780000F00003E00FFFC0ED
:1046C4000FFE0000000000000000000000000000D9
:1046D40000000000000000000000000000000000D6
:1046E40000000000000000000000000000000000C6
:1046F400003FF001FFF003E0000780000F00001E00
:1047040000001E1F001FFFE01FC1F81E00781E00DE
:104714003C1E003C1E003C0F00780F80F807FFE0B1
:1047240001FF800000000000000000000000000005
:104734000000000000000000000000000000000075
:104744000000000000000000000000000000000065
:104754001FFFFC1FFFFC0000780000F00000E000D9
:1047640001E00003C0000780000F00000F00001EDE
:1047740000003C0000780000F00001F00001E000BF
:1047840003C0000000000000000000000000000062
:104794000000000000000000000000000000000015
:1047A4000000000000000000000000000000000005
:1047B40003FFE00FE3F00F00781E00781E00780F6F
:1047C40000F007E3E001FF8001FF8007E7E00F004E
:1047D400F81E00781E003C1E007C1F00F80FFFF03E
:1047E40003FFC00000000000000000000000000003
:1047F40000000000000000000000000000000000B5
:1048040000000000000000000000000000000000A4
:1048140003FF800FC7E01E00F01E00783C00783CC8
:1048240000783C00381E00780FEFF807FFB800004E
:10483400780000780000F00001E0000FC00FFF00D6
:104844000FF0000000000000000000000000000065
:104854000000000000000000000000000000000054
:104864000000000000000000000000000000000044
:10487400000000000000000000000000007E0000B6
:104884007E00007E00001800000000000000000010
:1048940000000000000000003C00007E00007E00DC
:1048A400003E0000000000000000000000000000C6
:1048B40000000000000000000000000000000000F4
:1048C40000000000000000000000000000000000E4
:1048D400000000000000000000000000007E000056
:1048E4007E00007E000018000000000000000000B0
:1048F40000000000000000003E00007E00007F0079
:10490400001F00001E00001E0000FC0007F0000451
:104914000000000000000000000000000000000093
:104924000000000000000000000000000000000083
:104934000000000000000000400001E00007C0008B
:104944001F00007E0001F80003E0000F80000F80CC
:104954000003E00000F800003E00000F800003E0C8
:104964000000E00000000000000000000000000063
:104974000000000000000000000000000000000033
:104984000000000000000000000000000000000023
:104994000000000000000000000000000000000013
:1049A40000000000001FFFF80000000000000000ED
:1049B400001FFFF81FFFF8000000000000000000C7
:1049C40000000000000000000000000000000000E3
:1049D40000000000000000000000000000000000D3
:1049E40000000000000000000000000000000000C3
:1049F40000000000000000000007800003E0000049
:104A0400F800003E00000F800003E00000F8000101
:104A1400F00007C0001F00007C0001F00007C00088
:104A2400030000000000000000000000000000007F
:104A34000000000000000000000000000000000072
:104A44000000000000000000000001C00001FE00A2
:104A5400007F800007C00001E00000F00000F000CB
:104A640001F00003E0007FC0007E000070000070D1
:104A74000000700000000000000000F80000F800D2
:104A840000F800000000000000000000000000002A
:104A94000000000000000000000000000000000012
:104AA40000000000000000000000001F8000FFF074
:104AB40003C07807801C0E000E1C000E3C000F384B
:104AC4003FC778FFC770E3C771C3C7F3C387E3C3A6
:104AD40087E3878EE3878EE3CF8EE3FFFC71F9F0E3
:104AE4007000007000003800003C00000F01C00797
:104AF400FFC00000000000000000000000000000F3
:104B040000000000000000000000000000000000A1
:104B1400007E00007F0000FF0000E78001E78003C3
:104B2400C3C003C3C00781E00781E00F00F00F009A
:104B3400F81FFFF81FFFFC3C003C3C001E78001EE1
:104B4400F0000F0000000000000000000000000062
:104B54000000000000000000000000000000000051
:104B64000000000000000000000000000000000041
:104B74001FFFC01FFFF01E00F01E00781E00781EED
:104B840000F01E01F01FFFC01FFFE01E01F81E0011
:104B9400781E003C1E003C1E00781E00F81FFFE03B
:104BA4001FFF0000000000000000000000000000E3
:104BB40000000000000000000000000000000000F1
:104BC40000000000000000000000000000000000E1
:104BD40000FFF803FFF807C0000F00001E00001ECE
:104BE40000003C00003C00003C00003C00003C0095
:104BF400003E00001E00000F00000FC00803FFF875
:104C040000FFF800000000000000000000000000A9
:104C14000000000000000000000000000000000090
:104C24000000000000000000000000000000000080
:104C34003FFF003FFFE03C01F03C00783C003C3C7F
:104C4400003C3C003C3C001E3C001E3C001E3C0062
:104C54003C3C003C3C00783C00F83C07E03FFFC093
:104C64003FFC000000000000000000000000000005
:104C74000000000000000000000000000000000030
:104C84000000000000000000000000000000000020
:104C94000FFFF00FFFF00F00000F00000F00000FD8
:104CA40000000F00000FFFF00FFFF00F00000F00D7
:104CB400000F00000F00000F00000F00000FFFF0B6
:104CC4000FFFF000000000000000000000000000E2
:104CD40000000000000000000000000000000000D0
:104CE40000000000000000000000000000000000C0
:104CF4000FFFF00FFFF00F00000F00000F00000F78
:104D040000000F00000FFFF00FFFF00F00000F0076
:104D1400000F00000F00000F00000F00000F000044
:104D24000F00000000000000000000000000000070
:104D3400000000000000000000000000000000006F
:104D4400000000000000000000000000000000005F
:104D540000FFFC03FFFC0FC0041F00001E00003C0A
:104D640000003C0000780FFC780FFC78003C3C000D
:104D74003C3C003C3E003C1F003C0FC03C03FFFC9D
:104D840000FFF80000000000000000000000000028
:104D9400000000000000000000000000000000000F
:104DA40000000000000000000000000000000000FF
:104DB4003C003C3C003C3C003C3C003C3C003C3C5B
:104DC400003C3C003C3FFFFC3FFFFC3C003C3C0003
:104DD4003C3C003C3C003C3C003C3C003C3C003C3B
:104DE4003C003C0000000000000000000000000047
:104DF40000000000000000000000000000000000AF
:104E0400000000000000000000000000000000009E
:104E14000FFFF80FFFF8003C00003C00003C0000CE
:104E24003C00003C00003C00003C00003C00003C16
:104E340000003C00003C00003C00003C000FFFF878
:104E44000FFFF80000000000000000000000000058
:104E5400000000000000000000000000000000004E
:104E6400000000000000000000000000000000003E
:104E74000FFFE00FFFE00001E00001E00001E000AF
:104E840001E00001E00001E00001E00001E00001B8
:104E9400E00001E00001E00003C00C07C00FFF8048
:104EA40007FE0000000000000000000000000000F9
:104EB40000000000000000000000000000000000EE
:104EC40000000000000000000000000000000000DE
:104ED4001E00781E01F01E03C01E07801E1F001E48
:104EE4003C001E78001EF0001FF0001EF8001E3C5F
:104EF400001E1E001E0F801E07C01E01E01E00F8CB
:104F04001E007C0000000000000000000000000003
:104F1400000000000000000000000000000000008D
:104F2400000000000000000000000000000000007D
:104F340007800007800007800007800007800007C3
:104F4400800007800007800007800007800007803A
:104F54000007800007800007800007800007FFF833
:104F640007FFF8000000000000000000000000003F
:104F7400000000000000000000000000000000002D
:104F8400000000000000000000000000000000001D
:104F94003E007C3F00FC3F81DC3B81DC3BC39C3911
:104FA400C39C38E71C38EF1C387E1C387C1E383C08
:104FB4001E78001E78001E78001E78001E78001EE1
:104FC40078001E0000000000000000000000000047
:104FD40000000000000000000000000000000000CD
:104FE40000000000000000000000000000000000BD
:104FF4001F003C1F803C1FC03C1DC03C1DE03C1CEE
:10500400F03C1C783C1C783C1C3C3C1C1E3C1C0F9B
:105014003C1C0F3C1C07BC1C03FC1C01FC1C00FCBE
:105024001C00FC0000000000000000000000000064
:10503400000000000000000000000000000000006C
:10504400000000000000000000000000000000005C
:1050540001FFC007FFF00F00F81E007C3C003C3C41
:10506400001E78001E78001E78001E78001E78004E
:105074001E3C003C3C003C1E00781F00F007FFE093
:1050840001FF80000000000000000000000000009C
:10509400000000000000000000000000000000000C
:1050A40000000000000000000000000000000000FC
:1050B4001FFF801FFFF01E00F81E007C1E003C1E18
:1050C400003C1E003C1E00781E03F01FFFC01FFEA4
:1050D400001E00001E00001E00001E00001E000036
:1050E4001E0000000000000000000000000000009E
:1050F40000000000000000000000000000000000AC
:10510400000000000000000000000000000000009B
:1051140001FFC007FFF00F00F81E007C3C003C3C80
:10512400001E78001E78001E78001E78001E78008D
:105134001E3C003C3C003C1E00781F80F007FFE052
:1051440001FF80003C00003C00001F06000FFF0030
:1051540001F8000000000000000000000000000052
:10516400000000000000000000000000000000003B
:105174000FFF800FFFE00E01F00E00F00E00F00EA6
:1051840000F00E01F00FFFC00FFF000E1F000E070E
:10519400800E03C00E01E00E00F00E00F80E007841
:1051A4000E003C00000000000000000000000000B1
:1051B40000000000000000000000000000000000EB
:1051C40000000000000000000000000000000000DB
:1051D40003FFF00FFFF01F00001E00001E00001F61
:1051E40000000FC00007FC0000FF80000FF000016A
:1051F400F80000780000780000782000F83FFFE015
:105204003FFF8000000000000000000000000000DC
:10521400000000000000000000000000000000008A
:10522400000000000000000000000000000000007A
:105234003FFFFC3FFFFC003C00003C00003C000042
:105244003C00003C00003C00003C00003C00003CF2
:1052540000003C00003C00003C00003C00003C001E
:10526400003C0000000000000000000000000000FE
:10527400000000000000000000000000000000002A
:10528400000000000000000000000000000000001A
:105294003C003C3C003C3C003C3C003C3C003C3C76
:1052A400003C3C003C3C003C3C003C3C003C3C00A2
:1052B4003C3C003C3C003C1E00781F00F80FFFE023
:1052C40003FF800000000000000000000000000058
:1052D40000000000000000000000000000000000CA
:1052E40000000000000000000000000000000000BA
:1052F400F8000F78001E3C001E3C003C1E00381EC7
:1053040000780F00700F00F00781E00781E003C30D
:10531400C003E3C001E78000F78000FF00007E00C7
:10532400007E0000000000000000000000000000FB
:105334000000000000000000000000000000000069
:105344000000000000000000000000000000000059
:1053540078000E78000E78000E78001E38001E3893
:10536400001E383C1C383C1C387E1C387F1C3CE733
:105374001C3CE79C3DC39C1DC3DC1F81DC1F80F8E3
:105384001F00F80000000000000000000000000002
:105394000000000000000000000000000000000009
:1053A40000000000000000000000000000000000F9
:1053B4003C003C1E00780F00F00781E003C3C001ED
:1053C400E78000FF00007E00007E0000FF0001FF78
:1053D4008003E7C007C3E00F81F01F00F83E007CA4
:1053E4007C003E00000000000000000000000000FF
:1053F40000000000000000000000000000000000A9
:105404000000000000000000000000000000000098
:1054140078001F3C003E1E007C1F00780F80F007C0
:10542400C1E003E3C001E78000FF00007E00003C10
:1054340000003C00003C00003C00003C00003C003C
:10544400003C00000000000000000000000000001C
:105454000000000000000000000000000000000048
:105464000000000000000000000000000000000038
:105474001FFFFC1FFFFC0000F80001E00003C00058
:105484000780000F00001E00003C0000780000F0C0
:105494000003E00007C0000F80001F00003FFFFC76
:1054A4003FFFFC00000000000000000000000000BE
:1054B40000000000000000000000000000000000E8
:1054C4000000000000000000000001FFC001FFC058
:1054D40001E00001E00001E00001E00001E0000162
:1054E400E00001E00001E00001E00001E00001E073
:1054F4000001E00001E00001E00001E00001E00043
:1055040001E00001E00001E00001E00001E0000131
:10551400FFC00000000000000000000000000000C8
:10552400000000000000000000000E00000F00005A
:1055340007000003800003C00001E00000E0000059
:10554400F000007800003800003C00001E00000E4F
:1055540000000F000007800003800001C00001E08C
:105564000000E000007000007800003C0000000033
:105574000000000000000000000000000000000027
:105584000000000000000000000003FF8003FF8013
:105594000007800007800007800007800007800064
:1055A400078000078000078000078000078000074D
:1055B40080000780000780000780000780000780C4
:1055C4000007800007800007800007800007800331
:1055D400FF80000000000000000000000000000048
:1055E40000000000000000000000000000000000B7
:1055F400003C00007E0000E70001C3800381C00777
:1056040000E00E00F01E0078000000000000000022
:105614000000000000000000000000000000000086
:105624000000000000000000000000000000000076
:105634000000000000000000000000000000000066
:105644000000000000000000000000000000000056
:105654000000000000000000000000000000000046
:105664000000000000000000000000000000000036
:105674000000000000000000000000000000000026
:10568400000000000000000000000000FFFFFFFF1A
:10569400FFFF000000000000000000000000000008
:1056A400000000000000000000000F800003E00084
:1056B40000F800003C0000000000000000000000B2
:1056C40000000000000000000000000000000000D6
:1056D40000000000000000000000000000000000C6
:1056E40000000000000000000000000000000000B6
:1056F40000000000000000000000000000000000A6
:105704000000000000000000000000000000000095
:1057140000000000000000000000000007FFC007B8
:10572400E7F00000F000007800007800FFF807FFC1
:10573400F80F00781E00781E00781E03F80FFFF89B
:1057440007FC7800000000000000000000000000DA
:105754000000000000000000000000000000000045
:10576400000000000000000000001E00001E0000F9
:105774001E00001E00001E00001E00001E7FE01E12
:10578400FFF01FC0781F00781E003C1E003C1E0066
:105794003C1E003C1E00381E00781E00F01FFFE077
:1057A40007FF0000000000000000000000000000EF
:1057B40000000000000000000000000000000000E5
:1057C40000000000000000000000000000000000D5
:1057D40000000000000000000000000000FFF003D3
:1057E400FFF007C0000F80000F00001E00001E0025
:1057F400001E00000F00000F800007C00003FFF030
:1058040000FFF000000000000000000000000000A5
:105814000000000000000000000000000000000084
:105824000000000000000000000000007800007884
:1058340000007800007800007800007801FFF80785
:10584400FFF80F00781E00781E00783C00783C00BA
:10585400783C00781C00781E01F81F03F80FFF78CD
:1058640003FC7800000000000000000000000000BD
:105874000000000000000000000000000000000024
:105884000000000000000000000000000000000014
:1058940000000000000000000000000001FFC0073D
:1058A400E3F00F00F81E00781E003C1FFFFC1FFFF2
:1058B400FC1C00001E00001E00000F800007FFF803
:1058C40001FFF800000000000000000000000000DC
:1058D40000000000000000000000000000000000C4
:1058E400000000000000000000000003FC001FFE98
:1058F400003E000078000078000070000070000096
:1059040070003FFFFC3FFFFC00700000700000705F
:105914000000700000700000700000700000700053
:105924000070000000000000000000000000000003
:105934000000000000000000000000000000000063
:105944000000000000000000000000000000000053
:1059540000000000000000000000000003FFFC073E
:10596400C3FC0F00F01E00F01E00F00F00F00F83C8
:10597400E00FFFC01E7C001C00001F00000FFFF0A2
:105984000FFFFC1E003C3C003C3C003C1F81F80F18
:10599400FFE00038000000000000000000000000EC
:1059A400000000000000000000001E00001E0000B7
:1059B4001E00001E00001E00001E00001E7FE01ED0
:1059C400FFF01FC0F01F00781E00781E00781E0034
:1059D400781E00781E00781E00781E00781E00785D
:1059E4001E0078000000000000000000000000001D
:1059F40000000000000000000000000000000000A3
:105A040000000000000000000000003C00007E00D8
:105A1400007E00003C000000000000000FFE000FAC
:105A2400FE00001E00001E00001E00001E00001EDE
:105A340000001E00001E00001E00001E000FFFF8E4
:105A44000FFFF8000000000000000000000000004C
:105A54000000000000000000000000000000000042
:105A6400000000000000000000000003800007E0C8
:105A74000007E00003800000000000000FFFC00FDB
:105A8400FFC00003C00003C00003C00003C0000344
:105A9400C00003C00003C00003C00003C00003C073
:105AA4000003C00003C00003C00007801E3F001FA6
:105AB400FE0001C000000000000000000000000023
:105AC400000000000000000000000F00000F0000B4
