:020000040800F2
:10000000000002201D81000841240008432400084C
:100010004524000847240008492400080000000087
:100020000000000000000000000000004B24000859
:100030004D240008000000004F240008512400084F
:100040006D8100086D8100086D8100086D810008D8
:100050006D8100086D8100086D8100086D810008C8
:100060006D8100086D8100086D8100086D810008B8
:100070006D8100086D8100086D8100086D810008A8
:100080006D8100086D8100086D8100086D81000898
:100090006D8100086D8100086D8100086D81000888
:1000A0006D8100086D8100086D8100086D81000878
:1000B0006D8100086D8100086D8100086D81000868
:1000C0006D8100086D8100086D8100086D81000858
:1000D0006D8100086D8100086D8100086D81000848
:1000E0006D8100086D810008000000006D8100082E
:1000F0006D8100086D8100086D8100086D81000828
:100100006D8100086D8100086D8100086D81000817
:100110006D8100086D8100086D8100086D81000807
:100120006D8100086D8100086D8100086D810008F7
:100130006D8100086D8100086D8100086D810008E7
:1001400000000000000000000000000000000000AF
:100150006D8100086D8100086D8100086D810008C7
:100160006D8100086D8100086D8100086D810008B7
:100170006D8100086D8100086D810008000000009D
:100180006D8100086D8100086D8100086D81000897
:100190006D8100086D8100086D8100086D81000887
:1001A0006D8100086D8100086D8100086D81000877
:1001B0006D8100086D8100086D8100086D81000867
:1001C0006D8100086D8100086D8100086D81000857
:1001D0006D8100086D8100086D8100086D81000847
:1001E0006D8100086D8100086D8100086D81000837
:1001F0006D8100086D8100086D8100086D81000827
:100200006D8100086D8100086D8100086D81000816
:100210006D8100086D8100086D8100086D81000806
:100220006D8100086D8100086D81000800000000EC
:100230006D8100086D810008000000006D810008DC
:100240006D8100086D8100086D8100086D810008D6
:100250006D8100086D8100086D8100086D810008C6
:100260006D8100086D8100086D8100086D810008B6
:100270006D8100086D8100086D810008000000009C
:100280006D8100086D8100086D810008000000008C
:08029000000000006D81000870
:1002A000044B05481B1A062B02D9044B03B118470F
:1002B000704700BF7F0000207C000020000000008D
:1002C00005490648091A891001EBD171491002D07D
:1002D000034B03B1184770477C0000207C000020CE
:1002E0000000000010B5064C237843B9FFF7D8FF93
:1002F000044B13B10448AFF300800123237010BDF9
:100300007C000020000000007081000808B5084B48
:100310001BB108490848AFF300800848036813B9C7
:10032000BDE80840CCE7064B002BF9D09847F7E72B
:100330000000000080000020708100087C00002088
:100340000000000070B50F4E0F4D761BB61018BFA1
:10035000002405D0013455F8043B9847A642F9D152
:100360000A4E0B4D761B07F003FFB61018BF002492
:1003700006D0013455F8043B9847A642F9D170BD28
:1003800070BD00BFA89E0008A89E0008AC9E000893
:10039000A89E000870B4860746D0541E002A41D09B
:1003A000CAB2034602E014F1FF343BD303F8012B39
:1003B0009D07F8D1032C2ED9CDB245EA05250F2C87
:1003C00045EA054519D903F110022646103E0F2EC5
:1003D00042F8105C42F80C5C42F8085C42F8045C9D
:1003E00002F11002F2D8A4F1100222F00F0204F080
:1003F0000F041032032C13440DD91E462246043A32
:10040000032A46F8045BFAD8221F22F003020432C2
:10041000134404F003042CB1C9B21C4403F8011BBB
:100420009C42FBD170BC704714460346C2E700BF34
:100430002DE9F0410E46804600283ED08369002B0E
:1004400039D084682F4B9C4243D02F4B9C4256D0CE
:100450002E4B9C4208BFD8F80C40A3891B073DD502
:100460002369002B3AD0013EA36816F8015F013BD7
:10047000A360B5B1002B04DB23685A1C22601D70F9
:10048000F2E7A769BB4222462946404601DB0A2D16
:10049000F2D100F08DF80130E6D14FF0FF30BDE829
:1004A000F081002B21DB23680A22591C21601A707D
:1004B0001046BDE8F08100F027FBD8F81830D8F8D6
:1004C0000840002BBED1404600F01EFB0D4B9C4265
:1004D000BBD1D8F80440A3891B07C1D421464046AC
:1004E00000F0C8F80028BED0D7E7224640460A21CF
:1004F00000F05EF80130D0D00A20BDE8F081D8F8D5
:100500000840AAE7CC810008AC8100088C81000873
:10051000024B01461868FFF78BBF00BF00000020A8
:100520000CB4F0B59DB022AC029154F8042B0691A6
:1005300023466FF000454FF402774FF6FF7602A98D
:100540000194ADF8147004950795ADF8166000F0AD
:1005500043FD029B00221A701DB0BDE8F04002B0BE
:10056000704700BF0EB4F0B59CB021AB0F4953F8F3
:10057000042B019305466FF00044086802954FF480
:1005800002774FF6FF7602A90695ADF81470049431
:100590000794ADF8166000F01FFD029B00221A7050
:1005A0001CB0BDE8F04003B0704700BF0000002061
:1005B000F8B50D461446064610B18369002B42D0AB
:1005C000254B9C4244D0254B9C4243D0244B9C421B
:1005D00008BFF468A389A269A2601A0722D523691B
:1005E00003B322686169D31AEDB28B422F4621DA38
:1005F0000133A168501C0139A16020601570626947
:100600009A4206D0A389DB0701D50A2D01D03846CE
:10061000F8BD2146304600F03BF90028F7D04FF0F6
:10062000FF37F4E72146304600F024F80028F6D1E1
:100630002369D6E72146304600F02AF90028EED19A
:1006400022680123D5E700F05FFA034B9C42BAD140
:100650007468BFE7B468BDE7CC810008AC810008CE
:100660008C810008024B0A4601461868FFF7A0BFBC
:1006700000000020384B70B51D6806460C4615B1C9
:10068000AB69002B42D0354B9C4245D0344B9C4249
:1006900058D0344B9C4208BFEC68B4F90C2093B29C
:1006A00019070CD52069A8B113F001021ED06369A7
:1006B00000225B42A361A260F0B1002070BDDD06A4
:1006C00042D558072AD4206942F00803A3819BB27F
:1006D0000028E9D103F42072B2F5007FE4D030465F
:1006E000214600F0AFFAA3892069DDE7990758BFDA
:1006F0006269A2600028E0D1B4F90C301A06DDD599
:1007000043F04003A3814FF0FF3070BD284600F056
:10071000FBF9124B9C42B9D16C68BEE7616B51B1D9
:1007200004F14403994204D0304600F0CFFAB4F902
:100730000C200023636300232069636022F02402FD
:100740002060C1E7AC68A8E742F0400209233360AB
:100750004FF0FF30A28170BD00000020CC81000866
:10076000AC8100088C8100088B891A072DE9F041C3
:100770000D46804633D44A68002A67DDEC6A002CB7
:1007800045D00022D8F80060C8F8002013F4805249
:1007900060D06A6D5F0705D569686B6B521A0BB143
:1007A0002B6CD21A0023296A4046A047441C39D03A
:1007B000AB892A692A60DB044FF000026A6043D4E7
:1007C000696BC8F8006011B305F14403994202D087
:1007D000404600F07BFA00206863BDE8F0810E69B6
:1007E000AEB10C680E6098070CBF4B690023A41BC8
:1007F0008B600AE023463246AF6A296A4046B84712
:100800000028A4EB0004064404DD002CF2DC0020E8
:10081000BDE8F081AB8943F04003AB814FF0FF307E
:10082000BDE8F081D8F800201D2AF3D8174BD3403B
:10083000DB4313F00103EDD1A9892C696B60C90476
:100840002C60BDD5002ABBD16865B9E70A6C002AC7
:1008500094DCDCE70123296A4046A047431C02469A
:1008600002D0AB89EC6A95E7D8F80030002BF8D0BD
:100870001D2B01D0162B02D1C8F80060C7E7AB8949
:1008800043F04003AB81BDE8F08100BF0100402090
:100890000B6933B310B5044682B008B18369ABB1BC
:1008A000114B994219D0114B994218D0104B9942D3
:1008B00008BFE168B1F90C3013B9002002B010BDD7
:1008C000204602B0BDE81040FFF74EBF019100F096
:1008D0001BF90199044B9942E5D16168EAE7A168E7
:1008E000E8E70020704700BFCC810008AC81000819
:1008F0008C81000820B1054B01461868FFF7C8BF7E
:10090000034B0449186800F045B900BF00000020FF
:10091000888100089108000800207047014900F014
:1009200039B900BF910800080020704770B54A1E11
:10093000682505FB02F50E4605F1740100F00EFA7C
:10094000044640B100210C30666005F16802216068
:10095000A060FFF71FFD204670BD00BF204B70B5A3
:100960001D68AB6906465BB348356B68AC68013BF4
:1009700005D521E0013B5A1C04F168041CD0B4F9F0
:100980000C20002AF6D100254FF6FF720123E281E8
:10099000A38165662560A560656025616561A561C7
:1009A0002946082204F15C00FFF7F4FC6563A563A7
:1009B000A564E564204670BD286828B10546D4E7E3
:1009C000284600F00FF8CFE704213046FFF7AEFFCE
:1009D00028600028F2D10C2304463360EAE700BF08
:1009E000888100083D4B3E491A682DE9F04F90423E
:1009F0004FF000038364C364036508BF012383B021
:100A000008BF836181620746FFF7A8FF7860384618
:100A1000FFF7A4FFB8603846FFF7A0FF7D68F860D5
:100A200000240423AB812C606C60AC606C66EC81AC
:100A30002C616C61AC61214605F15C000822FFF776
:100A4000A9FCBE68DFF89CB0DFF89CA0DFF89C90A2
:100A5000DFF89C80C5F824B001230922C5F828A03E
:100A6000C5F82C90C5F830802D622146F381B28103
:100A700034607460B460746634617461B46106F1AA
:100A80005C0008220193FFF785FCFD6836621220A6
:100A90000222C6F824B0C6F828A0C6F82C90C6F8E2
:100AA00030802146A881EA812C606C60AC606C6665
:100AB0002C616C61AC6105F15C000822FFF76AFCF7
:100AC000019B2D62C5F824B0C5F828A0C5F82C906C
:100AD000C5F83080BB6103B0BDE8F08F88810008A5
:100AE0001D090008FD1500082516000861160008FC
:100AF00081160008024B0349186800F04BB800BF8C
:100B00008881000891080008836903B96AE7704783
:100B1000704700BF704700BF704700BF704700BFFD
:100B2000024B0349186800F00FB800BF0000002016
:100B300029090008024B0349186800F005B800BFF6
:100B400000000020190900082DE9F04110F14807C4
:100B50001BD0884600267D68BC68013D0FD4A38960
:100B6000012B05F1FF3506D9B4F90E3001332046CB
:100B700001D0C04706436B1C04F16804EFD13F6805
:100B8000002FE8D13046BDE8F0813E463046BDE852
:100B9000F08100BF2DE9F84310F148071FD08846C7
:100BA00006464FF000097D68BC68013D11D4A38959
:100BB000012B05F1FF3508D9B4F90E300133214678
:100BC000304602D0C04749EA00096B1C04F16804B2
:100BD000EDD13F68002FE6D14846BDE8F883B9461D
:100BE0004846BDE8F88300BF70B50C46B1F90E1059
:100BF000002990B015461E4613DB01AA00F06CFDDB
:100C000000280EDB029A02F47042A2F50052B2FAFA
:100C100082F252094FF48063002032602B6010B0E2
:100C200070BDA38900221B06326004D5402300203A
:100C30002B6010B070BD4FF4806300202B6010B0AB
:100C400070BD00BF8A8992070B4606D501F14702A5
:100C500001211A601A6159617047F0B583B001AB88
:100C60006A460C460546FFF7BFFF00990646284630
:100C700000F074F8B4F90C30D0B1019A124F009919
:100C8000AF6243F08003A3812060206161611AB9E3
:100C90003343A38103B0F0BD2846B4F90E1000F031
:100CA0002FFDB4F90C300028F2D043F00103EFE738
:100CB0009A05EFD404F1470243F002030121A38116
:100CC000226022616161E5E71D09000891B151F8D8
:100CD000043C0439002BB8BFC9181F4B1A68FAB17D
:100CE0008A4230B40AD908680C18A24226D04A6059
:100CF000196030BC70478B4203D81A465368002BEA
:100D0000F9D1146815198D420DD006D808680C1851
:100D10009C4219D04B605160EBE70C230360E8E77D
:100D20004A601960704709680C44111999421460AF
:100D3000DFD10ACB0C4453601460DAE714685268C0
:100D40004A6020440860D3E71C685B684B6020441D
:100D500008605160CDE700BF9800002070B5CC1C42
:100D600024F0030408340C2C38BF0C24002C064655
:100D70003BDBA14239D8274D296851B10A68121BC3
:100D800004D436E01A68121B1AD519464B68002B9A
:100D9000F8D16968002937D02146304600F01CFCA4
:100DA000431C22D0C31C23F00305A84205D0291AF6
:100DB000304600F011FC013017D02C602B4604E0C7
:100DC0000B2A0DD91A6013441C6003F10B0020F0AC
:100DD00007001A1D821A02D05142995070BD70BD91
:100DE0008B420ED05A684A60EFE70C233360002034
:100DF00070BD0B2A03D84A680B462A60E5E70B460C
:100E0000E0E70A460B46F8E7304600F0E5FB68608D
:100E1000C2E700BF980000202DE9F0478E689E428F
:100E20000C461D46174628D88046888910F4906FD6
:100E300032D04E692368096906EB4606A3EB010927
:100E400006EBD6766B1C76104B44B342324684BF19
:100E50001E463246430522D511464046FFF77EFF27
:100E6000824680B34A46216900F0C2FCA38923F47C
:100E7000906343F08003A38116E008681E462A466B
:100E8000394600F04FFDA2682368961B2B44A660EC
:100E900023600020BDE8F08708683546EFE740464C
:100EA00000F0A4FD824650B1A6EB09030AEB09004D
:100EB0006661C4F810A02060A3602E46DFE72169B8
:100EC0004046FFF703FF0C23C8F80030A38943F026
:100ED0004003A3814FF0FF30BDE8F0872DE9F04FCC
:100EE000936883B09046002B70D082460C461768FA
:100EF0008D68086842E0A38913F4906F2ED065696D
:100F0000216905EB4505A0EB010B05EBD5750BF150
:100F100001006D103044A8422A4684BF05462A4687
:100F20005B0538D511465046FFF718FF00283CD026
:100F30005A462169019000F05BFCA289019B22F4D2
:100F4000906242F08002A281A5EB0B0203EB0B0042
:100F5000656123612060A2603546B3465A46494622
:100F600000F0E0FCD8F80830A2682068551B58440F
:100F70009E1BA5602060C8F808603EB37E683B46B3
:100F80000837002EFAD0AE42D3F80090AB46B2D26A
:100F90003546B346E2E7504600F028FD03460028F8
:100FA000D2D121695046FFF791FE0C23CAF80030D8
:100FB000A389002243F040034FF0FF30A381C8F81B
:100FC0000820C8F8042003B0BDE8F08F0020C8F85E
:100FD000040003B0BDE8F08F2DE9F04F14468A8974
:100FE0009DB0150689460393824603D50B69002BF5
:100FF00000F0EB8030238DF82A3023787C4E0022DD
:10100000202109928DF829100127002B00F08480FF
:10101000252B254603D117E0252B00F0878015F8F6
:10102000013F002BF8D1B5EB040B75D022465B468F
:1010300049465046FFF7F0FE01306DD0099B2A78F3
:101040005B440993002A67D000234FF0FF3201353B
:101050000493079306938DF853301A93059204E096
:10106000049A07FA03F313430493297805223046C0
:1010700000F06EFB2C46831B01350028F0D1049B49
:10108000D90644BF20228DF8532021781A0744BF87
:101090002B228DF853202A296BD0A1F13002092A86
:1010A0000BD8079B14F8011F03EB830302EB4303E8
:1010B000A1F13002092AF5D907932E2941D04D4DCF
:1010C0000322284600F044FB38B1049B401B402219
:1010D00002FA00F0034301340493217846488DF866
:1010E00028100622013400F033FB00284BD0434B7C
:1010F00003B303AB00934A46414B04A95046AFF3F8
:1011000000808046B8F1FF3F06D0099B4344099315
:101110002378002B7FF47CAFB9F80C305B0654BF0A
:1011200009984FF0FF301DB0BDE8F08FB5EB040B10
:101130008AD07BE7039B073323F00703083303932D
:10114000E3E761782A2904F1010026D0A1F13002F9
:101150000023092A05930446B1D814F8011F03EBB4
:10116000830302EB4303A1F13002092AF5D9059369
:10117000A5E7039A11680432002903921FDB079147
:101180006178013499E703AB00934A461C4B04A9EC
:10119000504600F0D1F88046B4E7039B1A680592E8
:1011A000002A03F104030393B8BF4FF0FF3204F1A8
:1011B0000203AEBFA178A17805921C467FE74942A1
:1011C00043F0020307910493DAE74021FFF7C6FDDD
:1011D000C9F80000C9F8100018B14023C9F814304C
:1011E00008E70C23CAF800304FF0FF309BE700BF40
:1011F000649E00086C9E0008709E000800000000BD
:10120000190E00082DE9F0470C4691460A698968D5
:10121000DDF820808A42B8BF0A46C9F8002094F859
:10122000431006461F4611B10132C9F80020236859
:1012300099065DD5D9F800200232C9F8002023684C
:1012400013F0060F19461DD1E1688A1A002AD8BF8B
:10125000194617DD04F1190A002505E0E368D9F8FD
:1012600000209B1AAB420CDD012352463946304622
:10127000C047013005F10105F0D14FF0FF30BDE866
:10128000F087216894F84330003318BF01238A06A1
:101290000AD5E1185A1C302081F84300224494F802
:1012A000451082F84310023304F1430239463046B8
:1012B000C0470130E1D0236803F00603042B29D096
:1012C000A36822699342C8BF4FF0000930DD9B1A22
:1012D00099441A34002501E04D4529D001232246C6
:1012E00039463046C047013005F10105F4D1C4E765
:1012F00013F0060F08D1E168D9F800208A1A002AF5
:10130000D8BF1946A6DCBDE794F84330003318BFB8
:101310000123C9E7D9F80010E068A3682269A0EBAF
:101320000109934229EAE979D1DCB9F1000FD0D162
:101330000020BDE8F08700BF2DE9F0430C46097E90
:1013400085B06E29064617460C98984604F1430C62
:1013500055D00FD8632900F01B8100F2D6800029F8
:101360005CD0582940F0E88084F845102268DFF806
:1013700060E213E0732900F0FD8000F289806F299C
:1013800000F0E480702940F0D780226842F020020B
:1013900022607823DFF83CE284F8453003681506C4
:1013A00003F1040100F1FF8055064BBF1B881B6849
:1013B00001600160D00744BF42F020022260002B90
:1013C00040F09580226822F0200222601021002245
:1013D00084F843206068A0600028C0F28D802268F5
:1013E00022F004022260002B67D1002840F08680A2
:1013F000654608296FD0ACEB0503236111E0236833
:101400001A0600F1D38013F0400F0368626903F1FC
:10141000040101601B6814BF1A801A60002365462E
:101420002361CDF800803B4603AA21463046FFF7F2
:10143000E9FE013021D02A46236939463046C047AB
:1014400001301AD02368E06813F0020F039B19D013
:10145000C21A002A16DD04F11909002504E0E0682B
:10146000039BC21AAA420DDD01234A463946304683
:10147000C047013005F10105F1D14FF0FF3005B053
:10148000BDE8F0839842B8BF184605B0BDE8F083C8
:1014900075295BD078294FD122687AE76168A1600D
:1014A0002D200029C3F1000384F8430021DB22F042
:1014B0000402DFF81CE122600A216546B3FBF1F269
:1014C00001FB123013461EF8002005F8012D002BF9
:1014D000F4D108298FD12368D9078CD56268236994
:1014E0009A4288DC302305F8013C013D83E7102156
:1014F0006DE7DFF8DCE00A21002BDED19EF800303A
:1015000084F8423004F1420573E7642901D0692967
:1015100012D122680368150603F1040152D455065E
:101520004BBFB3F900301B6801600160002BB5DBD5
:10153000DFF89CE00A214DE7012384F84210236183
:1015400004F14205002384F843306AE723681A0651
:1015500033D413F0400F036803F1040215BF1B8856
:101560001B68026002606F2914BF0A210821DFF89E
:1015700060E02CE703686268191D01601D680021A6
:10158000284600F0E5F800B3401B60602061D9E711
:1015900003681A68191D0123016004F1420584F8EB
:1015A00042202361CEE701601B6803E7036862699C
:1015B000191D01601B681A6030E703681A1D02607C
:1015C0001B68D0E701601B68B0E76068DEE700BF1A
:1015D000789E00088C9E000838B5074C002305460D
:1015E0000846236000F072FA431C00D038BD23681F
:1015F000002BFBD02B6038BD5803002010B50C46E3
:10160000B1F90E1000F01AFA002803DB636D0344F1
:10161000636510BDA38923F48053A38110BD00BF6F
:10162000002070472DE9F0411646B1F90C201F4605
:10163000D3050C46054607D500220223B1F90E104A
:1016400000F070F8B4F90C20B4F90E1022F48052B6
:10165000A2813B4632462846BDE8F04100F014B86E
:1016600010B50C46B1F90E1000F05CF8A389421CCD
:101670000EBF23F4805343F480536065A38110BDF3
:10168000B1F90E1000F016B870B50D46084C1146B1
:1016900006461A4628460023236000F025FA431C1C
:1016A00000D070BD2368002BFBD0336070BD00BF3D
:1016B0005803002038B5074C002305460846236030
:1016C00000F0DCF9431C00D038BD2368002BFBD0B0
:1016D0002B6038BD5803002038B50B46074C054633
:1016E000114618460023236000F0D0F9431C00D0B7
:1016F00038BD2368002BFBD02B6038BD5803002079
:1017000038B5074C002305460846236000F0C6F9AB
:10171000431C00D038BD2368002BFBD02B6038BDA4
:101720005803002070B50D46084C114606461A466F
:1017300028460023236000F0B9F9431C00D070BD97
:101740002368002BFBD0336070BD00BF580300201E
:1017500001F0FF01102A2BDB10F0070F08D010F862
:10176000013B013A8B422DD010F0070F42B3F6D166
:10177000F0B441EA012141EA014122F007047FF07F
:1017800000070023F0E80256083C85EA010586EAD6
:10179000010685FA47F5A3FA87F586FA47F6A5FA12
:1017A00087F68EB9EED1F0BC01F0FF0102F007021E
:1017B00032B110F8013B013A83EA010313B1F8D1C9
:1017C0000020704701387047002D06BF35460338AA
:1017D000073815F0010F07D1013015F4807F02BFE3
:1017E000013015F4C03F0130F0BC0138704700BF34
:1017F000844641EA000313F003036DD1403A41D31C
:1018000051F8043B40F8043B51F8043B40F8043BDA
:1018100051F8043B40F8043B51F8043B40F8043BCA
:1018200051F8043B40F8043B51F8043B40F8043BBA
:1018300051F8043B40F8043B51F8043B40F8043BAA
:1018400051F8043B40F8043B51F8043B40F8043B9A
:1018500051F8043B40F8043B51F8043B40F8043B8A
:1018600051F8043B40F8043B51F8043B40F8043B7A
:1018700051F8043B40F8043B51F8043B40F8043B6A
:10188000403ABDD2303211D351F8043B40F8043B0A
:1018900051F8043B40F8043B51F8043B40F8043B4A
:1018A00051F8043B40F8043B103AEDD20C3205D31A
:1018B00051F8043B40F8043B043AF9D2043208D012
:1018C000D2071CBF11F8013B00F8013B01D30B8884
:1018D00003806046704700BF082A13D38B078DD062
:1018E00010F003038AD0C3F10403D21ADB071CBF34
:1018F00011F8013B00F8013B80D331F8023B20F89E
:10190000023B7BE7043AD9D3013A11F8013B00F8D6
:10191000013BF9D20B7803704B7843708B7883705E
:10192000604670478842F0B50DD98B1898420AD2AC
:101930008418002A51D0224613F8014D02F8014DB7
:101940009942F9D1F0BD0F2A48D941EA00039B071B
:1019500046D100F1100401F11003154653F8106C44
:1019600044F8106C53F80C6C44F80C6C53F8086C89
:1019700044F8086C103D53F8046C44F8046C0F2DC7
:1019800003F1100304F11004E8D8A2F1100323F0CE
:101990000F0302F00F0E1033BEF1030F194403447E
:1019A00021D91E1F0D467446043C55F8047B46F8A9
:1019B000047F032CF8D8AEF1040424F003040434AB
:1019C0002144234402F0030262B1013B0A4411F8AE
:1019D000014B03F8014F8A42F9D1F0BD0346F3E70A
:1019E0000346F2E7F0BD7246EEE700BFF8B51446D5
:1019F000F9B1C2B106460D4600F036F8844201D86E
:101A00002846F8BD21463046FFF7A8F9074670B1D1
:101A100022462946FFF7ECFE294630463D46FFF7B1
:101A200055F92846F8BDFFF751F92546E8E7054680
:101A3000E6E71146BDE8F840FFF790B970B50D46EE
:101A4000084C114606461A4628460023236000F03B
:101A500035F8431C00D070BD2368002BFBD03360E9
:101A600070BD00BF5803002051F8040C0028A0F1FD
:101A70000400BCBF0B58C018704700BF024B58226F
:101A80001A604FF0FF30704758030020024B582275
:101A90001A604FF0FF30704758030020024B582265
:101AA0001A600020704700BF58030020024B5822E4
:101AB0001A604FF0FF30704758030020024B582245
:101AC0001A604FF0FF30704758030020044A054960
:101AD0001368002B08BF0B46184410601846704767
:101AE000A000002060030020024B58221A604FF033
:101AF000FF3070475803002053B94AB9002908BF86
:101B000000281CBF4FF0FF314FF0FF3000F07AB9D2
:101B1000ADF1080C6DE904CE00F006F8DDF804E044
:101B2000DDE9022304B070472DE9F0478C460D46ED
:101B30000446089E002B51D18A4217466DD9B2FA4D
:101B400082FEBEF1000F0BD0CEF1200C01FA0EF593
:101B500020FA0CFC02FA0EF74CEA050C00FA0EF41F
:101B60004FEA174A250CBCFBFAF81FFA87F90AFB63
:101B700018CC45EA0C4508FB09F3AB420AD9ED192C
:101B800008F1FF3280F02381AB4240F22081A8F1BE
:101B900002083D44ED1AA4B2B5FBFAF00AFB105559
:101BA00044EA054400FB09F9A14509D9E41900F10B
:101BB000FF3380F00A81A14540F2078102383C449E
:101BC000A4EB090440EA08400021002E61D024FA69
:101BD0000EF4002334607360BDE8F0878B4207D9B0
:101BE000002E54D0002186E821000846BDE8F08789
:101BF000B3FA83F1002940F08E80AB4202D38242D7
:101C000000F2FA80841A65EB03050120AC46002E31
:101C10003FD086E81010BDE8F08712B90127B7FB66
:101C2000F2F7B7FA87FEBEF1000F34D1EB1B3A0C86
:101C30001FFA87FC0121B3FBF2F8250C02FB1833D5
:101C400045EA03450CFB08F3AB4207D9ED1908F14F
:101C5000FF3002D2AB4200F2D1808046ED1AA3B22F
:101C6000B5FBF2F002FB105543EA05440CFB00FC07
:101C7000A44507D9E41900F1FF3302D2A44500F2CC
:101C8000B8801846A4EB0C0440EA08409DE73146B2
:101C90003046BDE8F087CEF1200405FA0EF307FACE
:101CA0000EF720FA04F83A0C25FA04F448EA03087F
:101CB000B4FBF2F14FEA184502FB11441FFA87FC0E
:101CC00045EA044501FB0CF3AB4200FA0EF409D9D6
:101CD000ED1901F1FF3080F08A80AB4240F287803D
:101CE00002393D44EB1A1FFA88F5B3FBF2F002FB10
:101CF000103345EA034500FB0CF3AB4207D9ED195D
:101D000000F1FF386FD2AB426DD902383D44EB1A77
:101D100040EA01418FE7C1F1200722FA07F88B4022
:101D200005FA01F448EA030320FA07FE4FEA134CD0
:101D3000FD404EEA040EB5FBFCF94FEA1E440CFBD5
:101D400019551FFA83F844EA054509FB08F4AC422B
:101D500002FA01F200FA01FA08D9ED1809F1FF3090
:101D600043D2AC4241D9A9F102091D442D1B1FFAEF
:101D70008EFEB5FBFCF00CFB10554EEA054400FB53
:101D800008F8A04507D9E41800F1FF3529D2A0458D
:101D900027D902381C4440EA0940A4EB0804A0FB00
:101DA00002894C45C6464D4615D312D056B1BAEB02
:101DB0000E0364EB050404FA07F7CB401F43CC4045
:101DC000376074600021BDE8F0871846F8E6904659
:101DD000E0E6C245EAD2B8EB020E69EB0305013832
:101DE000E4E72846D7E7404691E78146BEE701464B
:101DF00078E702383C4445E7084608E7A8F10208BE
:101E00003D442BE7704700BF00B59DB04C22002138
:101E100009A8FEF7BFFA2022002101A8FEF7BAFAAE
:101E2000022004F055F800230093254B9A6942F4F0
:101E300040429A619B6903F440430093214BDA6A64
:101E400042F00102DA62DB6A03F001030093009BB7
:101E50001B4B9B6913F4005FFAD0012309934FF4E5
:101E600080330A9302231293139305221492C02203
:101E700015921693179318930823199300231A9316
:101E80001B9309A802F036FA00B1FEE73F23019345
:101E90000323029300230393082304934023059311
:101EA00006934FF480620792089304210DEB010022
:101EB00002F0F0FD00B1FEE71DB05DF804FB00BFCD
:101EC000004802580004005882B0019002E0019BD3
:101ED000013B0193019B002BF9D102B07047000038
:101EE00070B59AB0E848FEF713FB002000F030FE12
:101EF0004FF0FF3000F0D0FE4FF0FF314FF07F4049
:101F000000F04EFEE14800F053FEE149012001F0EF
:101F100017F9E049022001F013F9DF49032001F02D
:101F20000FF9DE49042001F00BF9DD49052001F02D
:101F300007F9DC49062001F003F9DB4B1C7801347A
:101F4000E4B21C7064263246002101A8FEF722FA92
:101F50002246D64901A8FEF705FB072001F080FACA
:101F60004FF0FF314FF07F4000F01AFE01A907202B
:101F700001F0E6F8CE4C204600F0F8FD082001F014
:101F80006FFACC49082001F0DBF8CB4D4FF07F41D0
:101F9000284600F005FEFA2340F2EE2219463220D0
:101FA00001F0DEF84FF4967340F2EE22194632202B
:101FB00001F0D6F84FF07F414FF0FF2000F0F0FD28
:101FC0004FF4C8731A46FA214FF4967001F0C8F81E
:101FD0004FF4C8734FF41672FA21104601F0C0F89E
:101FE0006FF07E40FFF770FF4FF0FF31084600F0C2
:101FF000D7FD4FF48C734FF44872C821002001F0D4
:10200000C3F9204600F0B2FD082001F029FAAB49DF
:10201000082001F095F84FF07F41284600F0C0FD00
:102020003346C822FA21104600F00EFF4FF07F41E0
:102030004FF0FF2000F0B4FD3223C822FA214FF404
:10204000AF7000F001FF4FF07F41204600F0A8FD87
:10205000C82332224FF4AF71184600F0F5FE6FF03E
:102060007E40FFF731FF4FF0FF31084600F098FD4A
:102070004FF48C734FF44872C821002001F084F9AA
:10208000204600F073FD082001F0EAF98C49082091
:1020900001F056F84FF07F41284600F081FD3346AD
:1020A000C822FA21104601F06FF94FF07F414FF03E
:1020B000FF2000F075FD3223C822FA214FF4AF70E3
:1020C00001F062F94FF07F41204600F069FDC8231E
:1020D00032224FF4AF71184601F056F96FF07E408E
:1020E000FFF7F2FE4FF0FF31084600F059FD4FF4C4
:1020F0008C734FF44872C821002001F045F9204646
:1021000000F034FD082001F0ABF9082001F0A8F937
:102110006C49082001F014F82946284600F040FDDB
:1021200032224FF4AF71C82001F098F84FF0FF2130
:10213000084600F035FD4B224FF4AF71084601F020
:102140008DF86FF07E40FFF7BFFE4FF0FF3108467D
:1021500000F026FD4FF48C734FF44872C821002024
:1021600001F012F9204600F001FD082001F078F995
:102170005549082000F0E4FF4FF07F41284600F069
:102180000FFD32224FF4AF714FF4967001F094F9C5
:102190004FF07F414FF0FF2000F002FD4B224FF443
:1021A000AF714FF4E17001F087F96FF07E40FFF7F7
:1021B0008BFE4FF0FF31084600F0F2FC4FF48C73B9
:1021C0004FF44872C821002001F0DEF8082001F029
:1021D00047F9204600F0CAFC082001F041F93B49CC
:1021E000082000F0ADFF3146012000F0B7FC0120CF
:1021F00000F0AEFC4FF0FF3000F04EFD4FF07F419D
:10220000284600F0CDFC4B224FF4AF714FF4C8705C
:1022100001F052F96FF07E40FFF756FE002000F00B
:1022200097FC4FF0FF3000F037FD0021012000F057
:1022300095FC4FF07F414FF0FF2000F0B1FC4B22A6
:102240004FF4AF714FF4E17001F036F94FF07F4178
:10225000204600F0A5FC4B224FF4AF71084601F078
:102260002BF96FF07E40FFF72FFE4FF0FF3108464D
:1022700000F096FC4FF48C734FF44872C821002094
:1022800001F082F81AB070BDEC8100086C000020EB
:10229000F0810008088200082482000848820008B3
:1022A0006882000898820008A4000020BC82000810
:1022B000FF0000FFE08200080000FFFFEC82000842
:1022C000F882000808830008188300082C8300089F
:1022D00038B5FFF799FD18234FF050420221002036
:1022E00001F0E5F912234FF010520221012001F014
:1022F000DEF9BFF34F8FBFF36F8F4C4B0021C3F854
:102300005012BFF34F8FBFF36F8F5A6942F4003200
:102310005A61BFF34F8FBFF36F8FC3F88410BFF3C1
:102320004F8FD3F88040C4F34E300FE01A4643F687
:10233000E07303EA401343EA82733C49C1F8603218
:10234000531E002AF2D1431E18B11846C4F3C90225
:10235000EDE7BFF34F8F4B6943F480334B61BFF31D
:102360004F8FBFF36F8F00214FF0807003F0F2FDAD
:1023700001F020F901F0C2FE2D48FEF7C9F82D4802
:10238000FEF7C6F82C4B01249C6102229A614FF49F
:102390000022A3F580639A6100F018FC00224FF040
:1023A0005241104600F08EFB00F074FB054600F031
:1023B0007DFB00FB05F101F152510022890020460E
:1023C00000F080FB01F0E4F8002000F0C1FB4FF0CA
:1023D000FF3000F061FC204600F0BAFB4FF0FF3008
:1023E00000F05AFCFF21002000F0B8FB002120463D
:1023F00000F0B4FB002000F0ABFB4FF0FF314FF0DA
:102400007F4000F0CDFB0D4D284600F0D1FB20466B
:1024100000F09EFB4FF0FF314FF07F4000F0C0FB1B
:10242000284600F0C5FBFFF75BFDFCE700ED00E090
:10243000448300086C830008000402586C000020EC
:102440007047FEE7FEE7FEE7FEE77047704770471C
:1024500008B501F04AFF08BD184AD2F8883043F4A5
:102460007003C2F88830164B1A6842F001021A60F5
:1024700000221A6118681349014019609A61DA61F3
:102480001A629A62DA621A635A639A63DA631A64A6
:102490005A64196821F4802119601A660A4B1A6877
:1024A0000A4B1340B3F1005F02D20122084B1A60BD
:1024B0004FF00062014B9A60704700BF00ED00E0F2
:1024C000004402587FEDF6EA0010005C0000FFFFB8
:1024D00008810051064A136843F08073136000209E
:1024E000044B1860044A136843F0010313607047FB
:1024F000FCED00E0041000E0001000E0054B1B685C
:10250000DB0A0548A0FB0323DB094FF47A7000FBCC
:1025100003F07047041000E099CA23002DE9F04F42
:10252000A3B0D14BD3F8E02042F48072C3F8E0208E
:10253000D3F8E02002F480720092009AD3F8E020F1
:1025400042F40072C3F8E020D3F8E02002F40072F5
:102550000192019AD3F8E02042F40072C3F8E0201F
:10256000D3F8E02002F400720292029AD3F8E0203D
:1025700042F40072C3F8E020D3F8E02002F40072C5
:102580000392039AD3F8E02042F40072C3F8E020EB
:10259000D3F8E02002F400720492049AD3F8E02009
:1025A00042F40072C3F8E020D3F8E02002F4007295
:1025B0000592059AD3F8E02042F40072C3F8E020B7
:1025C000D3F8E02002F400720692069AD3F8E020D5
:1025D00042F40072C3F8E020D3F8E02002F4007265
:1025E0000792079AD3F8E02042F40072C3F8E02083
:1025F000D3F8E02002F400720892089AD3F8E020A1
:1026000042F40072C3F8E020D3F8E02002F4007234
:102610000992099AD3F8E02042F40072C3F8E0204E
:10262000D3F8E02002F400720A920A9AD3F8E0206C
:1026300042F40072C3F8E020D3F8E02002F4007204
:102640000B920B9AD3F8E02042F40072C3F8E0201A
:10265000D3F8E02002F400720C920C9AD3F8E02038
:1026600042F48062C3F8E020D3F8E02002F48062F4
:102670000D920D9AD3F8E02042F48062C3F8E02076
:10268000D3F8E02002F480620E920E9AD3F8E02094
:1026900042F48062C3F8E020D3F8E02002F48062C4
:1026A0000F920F9AD3F8E02042F40072C3F8E020B2
:1026B000D3F8E02002F400721092109AD3F8E020D0
:1026C00042F40072C3F8E020D3F8E02002F4007274
:1026D0001192119AD3F8E02042F40072C3F8E0207E
:1026E000D3F8E02002F400721292129AD3F8E0209C
:1026F00042F40072C3F8E020D3F8E02002F4007244
:102700001392139AD3F8E02042F48062C3F8E020D9
:10271000D3F8E02002F480621492149AD3F8E020F7
:1027200042F48062C3F8E020D3F8E02002F4806233
:102730001592159AD3F8E02042F48062C3F8E020A5
:10274000D3F8E02002F480621692169AD3F8E020C3
:1027500042F48062C3F8E020D3F8E02002F4806203
:102760001792179AD3F8E02042F48072C3F8E02061
:10277000D3F8E02002F480721892189AD3F8E0207F
:1027800042F48072C3F8E020D3F8E02002F48072B3
:102790001992199AD3F8E02042F48072C3F8E0202D
:1027A000D3F8E02002F480721A921A9AD3F8E0204B
:1027B00042F48062C3F8E020D3F8E02002F48062A3
:1027C0001B921B9AD3F8E02042F00802C3F8E020E5
:1027D000D3F8E03003F008031C931C9B4FF0020871
:1027E000CDF88080CDF8788001271F974FF4004303
:1027F0001D930E2421941DA91C4803F06FFA1D9708
:1028000021941DA91A4803F069FACDF87480219427
:102810001DA9174803F062FA4FF00409CDF874902F
:1028200021941DA9124803F059FA08231D932194FD
:102830001DA90F4803F052FA10231D9321941DA9DE
:102840000B4803F04BFA20231D9321941DA908483F
:1028500003F044FA40251D9521941DA9044803F076
:102860003DFA802606E000BF0044025800200258CE
:10287000002402581D9621941DA94E4803F02EFAFB
:102880004FF480731D9321941DA94A4803F026FA42
:102890004FF400731D9321941DA9464803F01EFABE
:1028A0004FF480631D9321941DA9424803F016FA4A
:1028B0004FF400631D9321941DA93E4803F00EFAC6
:1028C0001D9721941DA93C4803F008FACDF87480A7
:1028D00021941DA9384803F001FACDF87490219491
:1028E0001DA9354803F0FAF94FF4805ACDF874A0C9
:1028F00021941DA92F4803F0F1F94FF40059CDF8A8
:10290000749021941DA92B4803F0E8F94FF4804BF3
:10291000CDF874B021941DA9264803F0DFF94FF4D7
:1029200000431D9321941DA9224803F0D7F90823E1
:102930001D9321941DA9204803F0D0F910231D9365
:1029400021941DA91C4803F0C9F920231D9321944B
:102950001DA9194803F0C2F91D9521941DA9164817
:1029600003F0BCF9CDF874B021941DA9134803F00D
:10297000B5F9CDF874A021941DA9104803F0AEF963
:10298000CDF8749021941DA90C4803F0A7F91D9669
:1029900021941DA9084803F0A1F9CDF87490CDF851
:1029A00080801E971F971DA9054803F097F923B053
:1029B000BDE8F08F00240258002802580020025879
:1029C000000C0258F0B583B004460D4616461F466B
:1029D0004FF44032214B5A60214B1B683421214A6D
:1029E00001FB03239B6C022B0DD083B900221B4BF0
:1029F0009A601A48089BC3601B4B036003F0FCFA03
:102A0000B8B103B0F0BD0222144B9A60F1E7012B7C
:102A100007D0032B09D0042BEBD104220F4B9A6073
:102A2000E7E701220D4B9A60E3E703220B4B9A6024
:102A3000DFE72146094803F0D5FB0028E1D10097E4
:102A400033462A460999054803F010FB0028D8D1DF
:102A50000A21024803F026FBD3E700BFAC000020A8
:102A6000A8000020240100200010005208B50848EA
:102A70004FF000530360192343624FF4877383625E
:102A80000223C36203630A23436302F085FA08BD8D
:102A9000CC010020034B1B683421034A01FB0323B4
:102AA000186E7047A800002024010020034B1B680B
:102AB0003421034A01FB0323586E7047A80000200D
:102AC00024010020F0B58FB005460E4617460024BD
:102AD0000194FFF7DFFF02900394FFF7E7FF0490F4
:102AE00005970A96FF23069307948DF834408DF8D6
:102AF00035408DF836404FF4C0630893072309939F
:102B0000FFF7C8FF0B90FFF7D1FF0C900D4C2A4642
:102B100001A9204603F036FE0B4A680041198B00DC
:102B200013444FF0FF3159600849996028448300ED
:102B30004FF07F41D1502268536A43F00103536242
:102B40000FB0F0BD240100200C0100206C0000201B
:102B5000014B1860704700BFA800002008B502466E
:102B6000014803F03DFE08BD24010020034B1B6813
:102B700003EB43039A00024B98507047A8000020D3
:102B80000C010020044B1B6803EB43039A00034B2A
:102B900013445860704700BFA80000200C010020BB
:102BA00010B50C46FFF7E2FF2046FFF7EBFF10BD24
:102BB000044B1B6803EB43039A00034B13449860D8
:102BC000704700BFA80000200C01002000B583B0B2
:102BD000264BD3F8E42042F00802C3F8E420D3F8EF
:102BE000E42002F008020092009AD3F8D42042F0C8
:102BF0001002C3F8D420D3F8D43003F010030193AB
:102C0000019BFFF733FFFFF789FC01F01DFA18481D
:102C1000184B03600023436183612E22C261172297
:102C2000026240F24E32426240F2F71282624FF488
:102C30005672C26240F20D2202634FF4487202667D
:102C40004FF4F072426680F8363080F8353080F804
:102C5000343043608360C360036103F019FD0648AC
:102C6000FFF7A6FF03B05DF804FB00BF0044025865
:102C700024010020001000506C000020044B1B6851
:102C800003EB43039A00034B13449868704700BF5B
:102C9000A80000200C010020F0B583B007460B4BC4
:102CA0001C6834230A4A03FB0423DD6DFFF7F2FEA0
:102CB0000646FFF7FBFE01970023009303463246CA
:102CC00029462046FFF77EFE03B0F0BDA800002095
:102CD000240100202DE9F04182B0064688461746BF
:102CE000274B1C683423274A03FB04239B6C9BB1AE
:102CF000012B2BD0042B18BF022B34D0072B32D042
:102D00003423204A03FB0423DD6DFFF7C3FE00FBE1
:102D1000086005EB400109E0342303FB0423DD6D6B
:102D2000FFF7B8FE00FB086005EB800104EB4402EE
:102D30009300154AD35801930023009301233A4688
:102D40002046FFF73FFE02B0BDE8F08134230D4A74
:102D500003FB0423DD6DFFF79DFE00FB086000EB25
:102D600040002918E2E73423064A03FB0423DD6D03
:102D7000FFF790FE00FB086005EB4001D6E700BFBF
:102D8000A8000020240100200C0100202DE9D043E0
:102D900082B0074689469046284B1C683423284A4F
:102DA00003FB04239B6C9BB1012B2ED0042B18BF7B
:102DB000022B37D0072B35D03423214A03FB0423C1
:102DC000DE6DFFF767FE00FB097006EB400609E0C9
:102DD000342303FB0423DE6DFFF75CFE00FB097068
:102DE00006EB8006FFF756FE04EB44029300154AFB
:102DF000D3580193013800904346012231462046C2
:102E0000FFF7E0FD02B0BDE8D08334230C4A03FB9A
:102E10000423DE6DFFF73EFE00FB097000EB40006F
:102E20000644DFE73423064A03FB0423DE6DFFF785
:102E300031FE00FB097006EB4006D3E7A800002036
:102E4000240100200C010020F8B504460D46174669
:102E50001E46FFF73FFFA9193A4689B22046FFF701
:102E600039FF324629462046FFF790FFE0193246E7
:102E7000294680B2FFF78AFFF8BD00002DE9F04136
:102E800004460F4616462F4B1A6834232E4903FB7F
:102E900002139B6CABB1012B1FD0042B18BF022B6C
:102EA00042D0072B40D03421274B01FB0232D56D95
:102EB000FFF7F0FD00FB0740B6B225F81060BDE853
:102EC000F081342303FB0212D56DFFF7E3FD00FB15
:102ED000074045F82060BDE8F08134231A4D03FB1C
:102EE0000255D5F85C80FFF7D5FD00FB074000EBED
:102EF00040004044C6F307438370D5F85C80FFF779
:102F0000C9FD00FB074000EB40004044C6F3072327
:102F10004370ED6DFFF7BEFD00FB074000EB400086
:102F2000F6B22E54BDE8F0813423074903FB0212A8
:102F3000D56DFFF7AFFD00FB0740B6B225F8106076
:102F4000BDE8F081A8000020240100202DE9F04F09
:102F500083B081460F460092344B1B6803EB43035A
:102F60009A00334B13449B68DA8801929D8805F1DF
:102F7000070B4FEAEB0B4FEACB085FFA88F8EBB28E
:102F8000A8EB03085FFA88F84FF0000A34E0009AD3
:102F9000D65C002414E00099CB5C567846EA032600
:102FA000F7E7224B1B6803EB43039A00204B1344C3
:102FB00009EB04005A68394680B2FFF75FFF01341D
:102FC000AC4215D22B1B4344013B012202FA03F30E
:102FD0001E42E6D0154B1B6803EB43039A0009EB36
:102FE0000400134B9A58394680B2FFF747FFE6E7D3
:102FF0000137BFB20AF1010A019B9A4512D20BFBBD
:103000000AF3009A1A44BBF1010FC0D0BBF1020FC2
:10301000C1D00099CB5C5678360246EA03469378D5
:103020001E43B6E703B0BDE8F08F00BFA800002044
:103030000C01002038B50B4B1B6803EB43039C00CD
:10304000094B23449B681C68A2F12005DA8802FB27
:1030500005F29B880733DB1003FB0242FFF776FF84
:1030600038BD00BFA80000200C0100202DE9F04170
:1030700005460F46164698461346002401E00134E3
:1030800013465A1C1B78002BF9D1FFF703FD2A4B7E
:103090001B6803EB43039A00284B13449B689A88F0
:1030A000B0FBF2F0B8F1010F07D0B8F1020F0CD06D
:1030B0002BB2002B10DD002423E0031B03FB02F3E3
:1030C000C3F34F031D44ADB2F2E7031B13FB02F33E
:1030D0009BB25D1BADB2EBE70125ECE742463946FA
:1030E0002846FFF7A7FF144B1B6803EB43039A0026
:1030F000124B13449B689B881D44ADB201360134CA
:10310000A4B296F80080FFF7C5FC0B4B1B6803EBDD
:1031100043039A00094B13449B689B8803FB1400EC
:1031200080B218F1000218BF0122984238BF002275
:10313000002AD3D1BDE8F081A80000200C010020B6
:1031400038B505460C46FFF799FDC18811FB05F11E
:103150000323224689B20020FFF788FF38BD000014
:103160002DE9F04F85B0A2EB000ABAF1000FB8BF0D
:10317000CAF1000A0FFA8AFAA3EB010BBBF1000FA8
:10318000B8BFCBF1000B0FFA8BFB05B20FB2824236
:1031900015D3012202928B4215D301230393DA4502
:1031A00018DB5446BAF1000F11DB44F34F04029BC5
:1031B00000930023029301934FF0000926E04FF0A3
:1031C000FF320292E7E74FF0FF330393E7E70AF19C
:1031D0000104EAE75C46BBF1000F0ADB44F34F044D
:1031E0005346DA469B46039B0193002303930093C7
:1031F000E2E70BF10104F1E7009B1D442DB2019BB6
:103200001F443FB209F101090FFA89F9CA451DDBD4
:103210001FFA85F8BEB20F4B1B6803EB43039A00FD
:103220000D4B9A5831464046FFF728FE5C44A3B246
:103230001CB2A245E0DCA3EB0A0424B2029B08EB1B
:1032400003052DB2039BF7183FB2D5E705B0BDE8E3
:10325000F08F00BFA80000200C0100202DE9F04FE6
:1032600087B082468B465300C3F103030293019259
:103270004FF0000905E003EB89030633029309F1DF
:103280000109019B994577D81FFA89F404EB0A03D9
:103290009BB21846BDF80450ABEB05081FFA88F83E
:1032A000374E384F3B6803EB43039A00B258414610
:1032B0000390FFF7E3FDAAEB04039AB210463B68C4
:1032C00003EB43039A00B25841460490FFF7D6FD42
:1032D0000AEB050399B20846ABEB04081FFA88F81D
:1032E0003B6803EB43039A00B25841460590FFF751
:1032F000C5FDAAEB05039BB218463B6803EB4303ED
:103300009A00B25841468046FFF7B8FD5D44ADB221
:103310003B6803EB43039A00B25829460398FFF732
:10332000ADFD3B6803EB43039A00B258294604986D
:10333000FFF7A4FD5C44A4B23B6803EB43039A008F
:10334000B25821460598FFF799FD3B6803EB43030C
:103350009A00B25821464046FFF790FD029B002B91
:1033600089DB019AA9EB0203029901EB83030A337B
:103370000293531E019382E707B0BDE8F08F00BFB0
:103380000C010020A80000202DE9F04383B0054681
:103390000F46164698462F4C236803EB43039A00CA
:1033A0002D4B9858FFF7E2FB246834232B4A03FB8C
:1033B00004239B6CA3B1012B30D0042B18BF022B2C
:1033C0003AD0072B38D03423244A03FB0423D3F804
:1033D0005C90FFF75FFB00FB075009EB40090AE038
:1033E000342303FB0423D3F85C90FFF753FB00FB6B
:1033F000075009EB8009FFF74DFB04EB44029300F3
:10340000154AD3580193801B0090434632464946E3
:103410002046FFF7D7FA03B0BDE8F08334230F4A04
:1034200003FB0423D3F85C90FFF734FB00FB075049
:1034300000EB40008144DEE73423084A03FB042309
:10344000D3F85C90FFF726FB00FB075009EB40091F
:10345000D1E700BFA80000200C01002024010020BB
:103460002DE9F041124E3168124C4B005D18AA0054
:10347000A718A5587F68A75022449368B3F8068020
:1034800010FB08F087B2FFF705FB434682B23946CE
:103490000020FFF779FF336803EB43039A00A55040
:1034A0002846FFF763FB012002F03AFDBDE8F081FA
:1034B000A80000200C0100202DE9F04F83B08246C7
:1034C000894601925600C6F1030615462E4B1B682D
:1034D00003EB43039A002D4B9858FFF747FB00245A
:1034E0001FE0AFB2AAEB070B1FFA8BFB1FFA84F8A1
:1034F0007F00BFB208EB09013A4689B25846FFF790
:10350000E9FBA9EB08013A4689B25846FFF7E2FB0E
:103510000BE0002E23DB631B06EB83060A36013D1E
:103520000134AC421FD8002DDBD1002CF1D0A7B262
:10353000AAEB070B1FFA8BFB1FFA85F87F00BFB2BF
:10354000A9EB08013A4689B25846FFF7C3FB09EBDD
:1035500008013A4689B25846FFF7BCFBD9E706EBAB
:1035600084060636DCE7084B1B6803EB43039A002E
:10357000064B9858FFF7FAFA019A49465046FFF76A
:103580006DFE03B0BDE8F08FA80000200C01002004
:1035900008B5064B1A68936943F001039361012251
:1035A0004FF40051024802F08DFC08BD24010020B8
:1035B000000C02582DE9F04188B0224BD3F8E020EE
:1035C00042F00202C3F8E020D3F8E02002F0020249
:1035D0000092009AD3F8E02042F00202C3F8E02003
:1035E000D3F8E02002F002020192019AD3F8E02021
:1035F00042F00102C3F8E020D3F8E03003F0010309
:103600000293029B012503950495059502260696D3
:103610000D4C03A9204602F061FB039603A9204646
:1036200002F05CFB4FF00808CDF80C80074F03A9AF
:10363000384602F053FBA561A661C7F8188008B0B0
:10364000BDE8F0810044025800040258000002580E
:10365000F0B585B006460C4617461D4600F0F8FD4D
:1036600001238DF800300A9B01930B9B8DF80830E5
:103670008DF80B709DF838308DF80F309DF8343090
:103680008DF80E309DF830308DF80D308DF80160DA
:103690008DF80A5000238DF809308DF80C406846EB
:1036A00000F0F8FD042000F0E3FD05B0F0BD10B51A
:1036B00086B004290FD8DFE801F003101C2833007E
:1036C00001210491039100210291019300920B4684
:1036D0000322FFF7BDFF06B010BD0124049403943C
:1036E000002102910193009223460322FFF7B0FFCD
:1036F000F1E70021049101240394029101930092C7
:103700000B460322FFF7A4FFE5E700210491039194
:1037100002910193009201230322FFF799FFDAE758
:10372000002104910391029101930092022303224C
:10373000FFF78EFFCFE7000084B0019000230393D2
:10374000019A064B03FB02F30393039B0BB904B0EE
:103750007047039B013B0393F7E700BFA08601007E
:103760002DE9F04FBFB0DA4BD3F8E02042F0200251
:10377000C3F8E020D3F8E02002F020020092009A83
:10378000D3F8E02042F02002C3F8E020D3F8E02094
:1037900002F020020192019AD3F8E02042F02002C8
:1037A000C3F8E020D3F8E02002F020020292029A4F
:1037B000D3F8E02042F02002C3F8E020D3F8E02064
:1037C00002F020020392039AD3F8E02042F0200294
:1037D000C3F8E020D3F8E02002F020020492049A1B
:1037E000D3F8E02042F02002C3F8E020D3F8E02034
:1037F00002F020020592059AD3F8E02042F0200260
:10380000C3F8E020D3F8E02002F020020692069AE6
:10381000D3F8E02042F02002C3F8E020D3F8E02003
:1038200002F020020792079AD3F8E02042F020022B
:10383000C3F8E020D3F8E02002F020020892089AB2
:10384000D3F8E02042F02002C3F8E020D3F8E020D3
:1038500002F020020992099AD3F8E02042F04002D7
:10386000C3F8E020D3F8E02002F040020A920A9A5E
:10387000D3F8E02042F04002C3F8E020D3F8E02083
:1038800002F040020B920B9AD3F8E02042F0400283
:10389000C3F8E020D3F8E02002F040020C920C9A2A
:1038A000D3F8E02042F00802C3F8E020D3F8E0208B
:1038B00002F008020D920D9AD3F8E02042F00802BF
:1038C000C3F8E020D3F8E02002F008020E920E9A2E
:1038D000D3F8E02042F00802C3F8E020D3F8E0205B
:1038E00002F008020F920F9AD3F8E02042F008028B
:1038F000C3F8E020D3F8E02002F008021092109AFA
:10390000D3F8E02042F01002C3F8E020D3F8E02022
:1039100002F010021192119AD3F8E02042F0100246
:10392000C3F8E020D3F8E02002F010021292129ABD
:10393000D3F8E02042F01002C3F8E020D3F8E020F2
:1039400002F010021392139AD3F8E02042F0100212
:10395000C3F8E020D3F8E02002F010021492149A89
:10396000D3F8E02042F01002C3F8E020D3F8E020C2
:1039700002F010021592159AD3F8E02042F01002DE
:10398000C3F8E020D3F8E02002F010021692169A55
:10399000D3F8E02042F01002C3F8E020D3F8E02092
:1039A00002F010021792179AD3F8E02042F01002AA
:1039B000C3F8E020D3F8E02002F010021892189A21
:1039C000D3F8E02042F01002C3F8E020D3F8E02062
:1039D00002F010021992199AD3F8E02042F008027E
:1039E000C3F8E020D3F8E02002F008021A921A9AF5
:1039F000D3F8E02042F00802C3F8E020D3F8E0203A
:103A000002F008021B921B9AD3F8E02042F0080251
:103A1000C3F8E020D3F8E02002F008021C921C9AC0
:103A2000D3F8E02042F08002C3F8E020D3F8E02091
:103A300002F080021D921D9AD3F8E02042F080022D
:103A4000C3F8E020D3F8E02002F080021E921E9A14
:103A5000D3F8E02042F08002C3F8E020D3F8E02061
:103A600002F080021F921F9AD3F8E02042F08002F9
:103A7000C3F8E020D3F8E02002F080022092209AE0
:103A8000D3F8E02042F08002C3F8E020D3F8E02031
:103A900002F080022192219AD3F8E02042F08002C5
:103AA000C3F8E020D3F8E02002F080022292229AAC
:103AB000D3F8E02042F08002C3F8E020D3F8E02001
:103AC00002F080022392239AD3F8E02002E000BFA4
:103AD0000044025842F08002C3F8E020D3F8E0200E
:103AE00002F080022492249AD3F8E02042F48072FB
:103AF000C3F8E020D3F8E02002F480722592259AE2
:103B0000D3F8E02042F48072C3F8E020D3F8E0203C
:103B100002F480722692269AD3F8E02042F4807252
:103B2000C3F8E020D3F8E02002F480722792279AAD
:103B3000D3F8E02042F48072C3F8E020D3F8E0200C
:103B400002F480722892289AD3F8E02042F480721E
:103B5000C3F8E020D3F8E02002F480722992299A79
:103B6000D3F8E02042F48072C3F8E020D3F8E020DC
:103B700002F480722A922A9AD3F8E02042F48072EA
:103B8000C3F8E020D3F8E02002F480722B922B9A45
:103B9000D3F8E02042F48072C3F8E020D3F8E020AC
:103BA00002F480722C922C9AD3F8E02042F080022A
:103BB000C3F8E020D3F8E02002F080022D922D9A85
:103BC000D3F8E02042F04002C3F8E020D3F8E02030
:103BD00002F040022E922E9AD3F8E02042F04002EA
:103BE000C3F8E020D3F8E02002F040022F922F9A91
:103BF000D3F8E02042F00402C3F8E020D3F8E0203C
:103C000002F004023092309AD3F8E02042F0200211
:103C1000C3F8E020D3F8E02002F020023192319A7C
:103C2000D3F8E02042F04002C3F8E020D3F8E020CF
:103C300002F040023292329AD3F8E02042F0400281
:103C4000C3F8E020D3F8E02002F040023392339A28
:103C5000D3F8E02042F08002C3F8E020D3F8E0205F
:103C600002F080023492349AD3F8E02042F010023D
:103C7000C3F8E020D3F8E02002F010023592359A24
:103C8000D3F8E02042F01002C3F8E020D3F8E0209F
:103C900002F010023692369AD3F8E02042F4807295
:103CA000C3F8E020D3F8E02002F480723792379A0C
:103CB000D3F8E02042F48072C3F8E020D3F8E0307B
:103CC00003F480733893389B02273A9701263B967A
:103CD00003233C930C233D933EAC44F8146D2146E2
:103CE000AF4801F0FBFF39972146AD4801F0F6FFE0
:103CF000042339932146AA4801F0F0FF08233993A1
:103D00002146A74801F0EAFF102339932146A44831
:103D100001F0E4FF202339932146A14801F0DEFFA2
:103D20004FF4805BCDF8E4B021469D4801F0D6FF0A
:103D30004FF4005339932146994801F0CFFF4FF4D7
:103D4000804ACDF8E4A02146954801F0C7FF4FF422
:103D5000004539952146924801F0C0FF3996214629
:103D6000904801F0BBFF399721468E4801F0B6FF1D
:103D70000423399321468B4801F0B0FFCDF8E4A02D
:103D80002146894801F0AAFF39952146864801F06D
:103D9000A5FF39962146844801F0A0FF39972146B6
:103DA000814801F09BFF8023399321467F4801F031
:103DB00095FF4FF48073399321467C4801F08EFFC4
:103DC0004FF40079CDF8E4902146784801F086FF61
:103DD0004FF48068CDF8E4802146744801F07EFFFE
:103DE0004FF4006339932146704801F077FFCDF816
:103DF000E4B021466D4801F071FF4FF40053399350
:103E000021466A4801F06AFFCDF8E4A021466748E0
:103E100001F064FF39952146644801F05FFF4FF4DB
:103E2000807339932146604801F058FFCDF8E49043
:103E300021465D4801F052FFCDF8E48021465A4802
:103E400001F04CFF4FF4807339932146584801F03C
:103E500045FFCDF8E4902146554801F03FFFCDF8ED
:103E6000E4802146524801F039FF4FF40063399352
:103E700021464F4801F032FFCDF8E4B021464C48CE
:103E800001F02CFF4FF4005339932146484801F0CC
:103E900025FFCDF8E4A02146454801F01FFF3995E4
:103EA0002146434801F01AFF3996DFF80CA121465C
:103EB000504601F013FF39972146504601F00EFF9E
:103EC000042339932146504601F008FF0823399313
:103ED0002146504601F002FF4FF0400BCDF8E4B010
:103EE0002146504601F0FAFE802339932146504680
:103EF00001F0F4FECDF8E4902146504601F0EEFECC
:103F0000CDF8E4802146504601F0E8FECDF8E4B05B
:103F10002146274801F0E2FE10233993214621482B
:103F200001F0DCFE2023399321461E4801F0D6FE25
:103F3000399621461F4801F0D1FE4FF400633993B2
:103F40002146174801F0CAFE39952146154801F06F
:103F5000C5FE4FF4807339932146124801F0BEFE2E
:103F6000802339932146124801F0B8FE3997214643
:103F70000E4801F0B3FE399621460C4801F0AEFE22
:103F8000202339932146504601F0A8FE102339938F
:103F90002146504601F0A2FE3FB0BDE8F08F00BFC1
:103FA0000014025800180258000C02580010025861
:103FB000001C025800080258002002582DE9F04168
:103FC0001F4C0126266008276760A6604FF0000896
:103FD000C4F80C801B4D4FF6FF722146284602F0B4
:103FE0004FFA3046FFF7A8FB022323606760A66004
:103FF000C4F80C804FF6FF722146284602F040FAC2
:10400000032323606760A760C4F80C804FF6FF723B
:104010002146284602F034FA042323606760A66034
:104020004FF40C73E3604FF6FF722146284602F00E
:1040300027FA4FF44E71284602F045FABDE8F081A8
:10404000880200209802002000B5B9B0FFF788FB75
:104050004FF080730293052303939023049302236C
:104060000593069303220792802208920022099268
:104070000A92139302A800F08FFF00B1FEE71C4BD9
:10408000D3F8D42042F48052C3F8D420D3F8D430EB
:1040900003F480530193019B1648174B03600123DF
:1040A000436083600822C260202303614023436190
:1040B0004FF4C07383610023C3614FF40063036254
:1040C0004FF4805343624FF40053836202233193D1
:1040D000329205213391349235933693379331A937
:1040E00002F0A6F9FFF76AFF39B05DF804FB00BFE4
:1040F00000440258980200204041005270B5B8B008
:10410000314CD4F8E03043F00103C4F8E030D4F887
:10411000E03003F001030193019BD4F8E03043F059
:104120000103C4F8E030D4F8E03003F00103029357
:10413000029B012604960025229504A800F02CFF7E
:10414000D4F8F03043F01003C4F8F030D4F8F03075
:1041500003F010030393039B4FF400733393022384
:1041600034933596369307263796A4F5884433A9B9
:10417000204601F0B3FD4FF480633393379633A9A3
:10418000204601F0ABFD114C114B23604FF4E1339D
:104190006360A560E56025610C236361A561E5614D
:1041A0002562A562204603F084FF2A462946252081
:1041B00000F010F8252000F03DF82268136843F065
:1041C0002003136038B070BD00440258CC020020B8
:1041D0000010014030B4144BDB68C3F30223C3F179
:1041E0000704042C28BF04241D1D062D13D9033BEE
:1041F000012505FA04F4013C2140994005FA03F336
:10420000013B13401943002807DB0901C9B2074BE2
:10421000195430BC70470023EAE700F00F00090191
:10422000C9B2034B1954F4E700ED00E000E400E0EC
:1042300014ED00E0002808DB420900F01F00012314
:1042400003FA00F0014B43F82200704700E100E060
:10425000BFF35F8F044A536A23F480335362002212
:10426000024B5A60704700BF00ED00E090ED00E0A7
:1042700040F00100054B5860054A536A43F480330F
:104280005362BFF34F8FBFF36F8F704790ED00E025
:1042900000ED00E04278134B9A60037823B9114B8C
:1042A0000022DA601A61704743680E4AD360017BCE
:1042B000C37A1B0643EA0173817A43EAC143417B17
:1042C00043EA8143817B43EA4143C17B43EA0143A3
:1042D000417A43EA0123017A43EA410301780B431F
:1042E0001361704790ED00E0704708B5FFF7FCFFE1
:1042F00008BD0000002800F0CB8238B504460368F2
:1043000013F0010F36D0A94A136903F03803926AFB
:10431000102B26D0182B20D06368B3F5803F4FD0E8
:10432000002B53D1A14B1A6822F480321A601A680C
:1043300022F480221A606368002B5ED0FEF7DEF85C
:1043400005469A4B1B6813F4003F13D1FEF7D6F8CD
:10435000401B6428F5D9032038BD02F00302022A6D
:10436000DAD1924B1B6813F4003F03D06368002B33
:1043700000F09082236813F0020F7DD08B4A1369FE
:10438000926A13F038034AD0182B45D0E368002B0B
:1043900000F0B88085490A6822F0190213430B60C7
:1043A000FEF7ACF80546814B1B6813F0040F40F094
:1043B0009180FEF7A3F8401B0228F4D9032038BDF2
:1043C0007A4A136843F480331360B4E7B3F5A02F3F
:1043D00009D0764B1A6822F480321A601A6822F4E7
:1043E00080221A60A7E7714B1A6842F480221A6093
:1043F0001A6842F480321A609DE7FEF77FF805469E
:104400006A4B1B6813F4003FB4D0FEF777F8401BEB
:104410006428F5D9032038BD12F0030FB6D1634BE1
:104420001B6813F0040F03D0E368002B00F0348204
:104430005E4A136823F01903E1680B431360FEF72B
:104440005DF80546594B1B6813F0040F06D1FEF7C3
:1044500055F8401B0228F5D9032038BD01F074FD42
:1044600041F2030398422CD8504A536823F47C331A
:10447000216943EA01335360236813F0100F71D0B0
:104480004A4A136903F03803926A082B52D0182B5A
:104490004CD0E369002B00F0A380444A136843F03A
:1044A00080031360FEF72AF80546404B1B6813F49F
:1044B000807F7DD1FEF722F8401B0228F5D903202A
:1044C00038BD3A4A536823F0FE43216943EA016349
:1044D0005360D1E701F038FD41F20303984208D858
:1044E000324A536823F47C33216943EA0133536031
:1044F000C2E72E4A536823F0FE43216943EA016371
:104500005360B9E7294A136823F001031360FDF7EC
:10451000F5FF0546254B1B6813F0040FACD0FDF7E3
:10452000EDFF401B0228F5D9032038BD02F003023D
:10453000012AAED11D4B1B6813F4807F04D0E369C0
:10454000802B01D0012038BD01F0FEFC41F20303B5
:10455000984222D8154A536823F0F843216A43EA67
:1045600081635360236813F0080F61D06369002BE7
:104570004AD00E4A536F43F001035367FDF7BEFF65
:1045800005460A4B5B6F13F0020F51D1FDF7B6FFE2
:10459000401B0228F5D9032038BD044AD36823F014
:1045A0007C53216A43EA0163D360DBE7004402588D
:1045B00001F0CAFC41F20303984208D8AE4A53689E
:1045C00023F0F843216A43EA81635360CAE7AA4AA9
:1045D000D36823F07C53216A43EA0163D360C1E7C7
:1045E000A54A136823F080031360FDF787FF054693
:1045F000A14B1B6813F4807FB4D0FDF77FFF401BF5
:104600000228F5D9032038BD9B4A536F23F00103DC
:104610005367FDF773FF0546974B5B6F13F0020F6F
:1046200006D0FDF76BFF401B0228F5D9032038BDEB
:10463000236813F0200F29D0A3699BB18E4A136819
:1046400043F480531360FDF759FF05468A4B1B68FE
:1046500013F4005F1AD1FDF751FF401B0228F5D972
:10466000032038BD844A136823F480531360FDF798
:1046700045FF0546804B1B6813F4005F06D0FDF72D
:104680003DFF401B0228F5D9032038BD236813F0F5
:10469000040F21D1636A002B00F00081764A126971
:1046A00002F03802182A00F0FB80022B75D0724A03
:1046B000136823F080731360FDF720FF04466E4BF0
:1046C0001B6813F0007F00F0E180FDF717FF001B6F
:1046D0000228F4D9032038BD684A136843F4807374
:1046E0001360FDF70BFF0546644B1B6813F4807FD6
:1046F00006D1FDF703FF401B6428F5D9032038BD20
:10470000A368012B1CD00BBB5B4B1A6F22F001027C
:104710001A671A6F22F004021A67A36863B3FDF7E1
:10472000EDFE0546544B1B6F13F0020FB2D1FDF79F
:10473000E5FE401B41F288339842F3D9032038BD8F
:104740004D4A136F43F001031367E6E7052B09D0C9
:10475000494B1A6F22F001021A671A6F22F0040205
:104760001A67DAE7444B1A6F42F004021A671A6FAD
:1047700042F001021A67D0E7FDF7C0FE05463E4B46
:104780001B6F13F0020F85D0FDF7B8FE401B41F2FE
:1047900088339842F3D9032038BD374A136823F091
:1047A00080731360FDF7AAFE0546334B1B6813F0B8
:1047B000007F06D0FDF7A2FE401B0228F5D903209A
:1047C00038BD2D4B996A2E4A0A40A16AE06A41EA37
:1047D00000110A439A62226B013AC2F30802616B2C
:1047E0000139490289B20A43A16B0139090401F474
:1047F000FE010A43E16B0139090601F0FE410A435B
:104800001A63DA6A22F00102DA62596B1D4A0A4021
:10481000A16C42EAC1025A63DA6A22F00C02216CEE
:104820000A43DA62DA6A22F00202616C0A43DA624F
:10483000DA6A42F48032DA62DA6A42F40032DA6228
:10484000DA6A42F48022DA62DA6A42F00102DA625B
:104850001A6842F080721A60FDF750FE0446064B5B
:104860001B6813F0007F0FD1FDF748FE001B0228E4
:10487000F5D9032038BD00BF004402580048025853
:104880000CFCFFFF0700FFFF002038BD002038BDF3
:1048900001207047012038BD012038BD002038BDFF
:1048A000012038BD734B1B6903F03803102B00F057
:1048B000DF80182B11D00BB16F4870476D4B1B6810
:1048C00013F0200F01D16D4870476A4B1868C0F390
:1048D000C1006A4B23FA00F0704710B4654A916A30
:1048E00001F00301906AC0F30510D46A04F00104DA
:1048F000536BC3F3CC0303FB04F307EE903AF8EEDB
:10490000677A002800F09480012966D0F9B1022965
:1049100000F0918007EE100AF8EE476A9FED586AA2
:1049200086EE267A534B1B6BC3F3080306EE903AD0
:10493000F8EE666A9FED536A67EE867A76EEA77A9E
:10494000F7EE006A77EEA67A27EE277A61E0494B08
:104950001B6813F0200F23D046490A68C2F3C10236
:10496000464BD34007EE103AF8EE476A07EE100ABE
:10497000B8EE476A86EE867A0B6BC3F3080306EE41
:10498000903AF8EE666A9FED3F6A67EE867A76EEB9
:10499000A77AF7EE006A77EEA67A27EE277A38E054
:1049A00007EE100AF8EE476A9FED376A86EE267A20
:1049B000304B1B6BC3F3080306EE903AF8EE666AC1
:1049C0009FED306A67EE867A76EEA77AF7EE006A98
:1049D00077EEA67A27EE277A1BE007EE100AF8EEAC
:1049E000476A9FED276A86EE267A224B1B6BC3F33C
:1049F000080306EE903AF8EE666A9FED226A67EECB
:104A0000867A76EEA77AF7EE006A77EEA67A27EE38
:104A1000277A184B1B6BC3F34623013307EE903AFA
:104A2000F8EE677AC7EE276AFCEEE67A17EE900A90
:104A30005DF8044B704707EE100AF8EE476A9FEDE9
:104A4000136A86EE267A0B4B1B6BC3F3080306EE44
:104A5000903AF8EE666A9FED0B6A67EE867A76EE1C
:104A6000A77AF7EE006A77EEA67A27EE277AD0E7E4
:104A7000074870470044025800093D000090D003E9
:104A80000024744A000000390024744C20BCBE4B42
:104A900040787D01002800F02B8170B50446964BCC
:104AA0001B6803F00F038B420CD2934A136823F068
:104AB0000F030B431360136803F00F03994201D0F7
:104AC000012070BD236813F0040F0CD022698B4BBA
:104AD0009B6903F070039A4205D98848836923F0E3
:104AE00070031A438261236813F0080F0CD06269C7
:104AF000824BDB6903F070039A4205D97F48C36992
:104B000023F070031A43C261236813F0100F0CD016
:104B1000A2697A4BDB6903F4E0639A4205D97748CE
:104B2000C36923F4E0631A43C261236813F0200FC2
:104B30000CD0E269714B1B6A03F070039A4205D9ED
:104B40006E48036A23F070031A430262236813F06D
:104B5000020F0CD0E268694B9B6903F00F039A4285
:104B600005D96648836923F00F031A4382610D4615
:104B7000236813F0010F41D0604A936923F47063F6
:104B8000A1680B4393616368022B23D0032B27D0CA
:104B9000012B2CD0594A126812F0040F00F0AA80A1
:104BA00056490A6922F0070213430B61FDF7A6FC80
:104BB0000646524B1B6903F038036268B3EBC20F21
:104BC0001CD0FDF79BFC801B41F288339842F0D942
:104BD000032070BD126812F4003FE1D1012070BDC6
:104BE000464A126812F0007FDAD1012070BD434AB4
:104BF000126812F4807FD3D1012070BD236813F0B6
:104C0000020F0CD0E2683D4B9B6903F00F039A4200
:104C100005D23A498B6923F00F031A438A61364B58
:104C20001B6803F00F039D420CD2334A136823F034
:104C30000F032B431360136803F00F039D4201D051
:104C4000012070BD236813F0040F0CD022692B4B98
:104C50009B6903F070039A4205D228498B6923F0BF
:104C600070031A438A61236813F0080F0CD062693D
:104C7000224BDB6903F070039A4205D21F49CB69CE
:104C800023F070031A43CA61236813F0100F0CD08D
:104C9000A2691A4BDB6903F4E0639A4205D2174913
:104CA000CB6923F4E0631A43CA61236813F0200F31
:104CB0000CD0E269114B1B6A03F070039A4205D2D3
:104CC0000E490B6A23F070031A430A62FFF7EAFDEC
:104CD0000A4B9B69C3F30323094AD35C03F01F0308
:104CE000D840084B1860084B1868FDF7F3FB70BDFF
:104CF00001207047012070BD00200052004402587E
:104D000098830008640000207800002008B500F0B7
:104D1000CFFF064B9B6903F00F03054AD35C03F0FA
:104D20001F03D840034B186008BD00BF0044025861
:104D3000988300086800002008B5FFF7E7FF054BDF
:104D4000DB69C3F30213044AD35C03F01F03D840AA
:104D500008BD00BF004402589883000808B5FFF75B
:104D6000D5FF054BDB69C3F30223044AD35C03F090
:104D70001F03D84008BD00BF0044025898830008B4
:104D8000404B9B6A03F00303032B79D070B50E46AA
:104D900005463C4A136823F080631360FDF7AEFBC1
:104DA0000446384B1B6813F0006F06D0FDF7A6FBD6
:104DB000001B0228F5D9032070BD324B9A6A22F4F9
:104DC0007C32296842EA01329A626A68013AC2F387
:104DD0000802A9680139490289B20A43E968013920
:104DE000090401F4FE010A4329690139090601F0A9
:104DF000FE410A439A63DA6A22F0C00269690A43F3
:104E0000DA62DA6A22F02002A9690A43DA62DA6A0F
:104E100022F01002DA62D96B1B4A0A40E96942EAC1
:104E2000C102DA63DA6A42F01002DA62C6B91A46DF
:104E3000DB6A43F40023D362124A136843F08063B1
:104E40001360FDF75BFB04460E4B1B6813F0006F0D
:104E500014D1FDF753FB001B0228F5D9032070BDC8
:104E6000012E05D0074AD36A43F40013D362E3E767
:104E7000044AD36A43F48013D362DDE7002070BD97
:104E800001207047004402580700FFFF404B9B6A17
:104E900003F00303032B79D070B50E4605463C4A58
:104EA000136823F080531360FDF728FB0446384B4A
:104EB0001B6813F0005F06D0FDF720FB001B0228E3
:104EC000F5D9032070BD324B9A6A22F07C722968B2
:104ED00042EA01529A626A68013AC2F30802A9687A
:104EE0000139490289B20A43E9680139090401F428
:104EF000FE010A4329690139090601F0FE410A430E
:104F00001A64DA6A22F4406269690A43DA62DA6A88
:104F100022F40072A9690A43DA62DA6A22F4807222
:104F2000DA62596C1B4A0A40E96942EAC1025A64D2
:104F3000DA6A42F48072DA62C6B91A46DB6A43F46E
:104F40008003D362124A136843F080531360FDF765
:104F5000D5FA04460E4B1B6813F0005F14D1FDF721
:104F6000CDFA001B0228F5D9032070BD012E05D013
:104F7000074AD36A43F08073D362E3E7044AD36AF3
:104F800043F40003D362DDE7002070BD01207047C9
:104F9000004402580700FFFFF8B50446036813F009
:104FA000006F2BD0436EB3F5801F19D010D9B3F525
:104FB000001F1BD0B3F5401F1ED1002565BB9B4AC7
:104FC000136D23F44013616E0B4313652E4617E0F7
:104FD00093B9964AD36A43F40033D3620025EDE7D0
:104FE00002210430FFF7CCFE0546E7E7022124301A
:104FF000FFF74CFF0546E1E70125DFE700263546D0
:10500000236813F4807F27D0636D042B21D8DFE859
:1050100003F00513190A0A002E46F1E7834AD36A02
:1050200043F40033D362B5B9804A136D23F007030C
:10503000616D0B4313650FE00021201DFFF7A0FEFB
:105040000546F0E7002104F12400FFF71FFF0546A5
:10505000E9E70125E7E72E46236813F4007F29D00E
:10506000A36D802B1ED008D873B1402B0AD100212C
:10507000201DFFF785FE05460BE0C02B09D0B3F5D8
:10508000807F06D0012504E0684AD36A43F40033E8
:10509000D36275B9654A136D23F4E073A16D0B43B8
:1050A000136507E0002104F12400FFF7EFFE054639
:1050B000EFE72E46236813F4806F2ED0D4F8A43087
:1050C000B3F5800F21D009D883B1B3F5001F0BD100
:1050D0000021201DFFF754FE05460CE0B3F5C00F7C
:1050E00009D0B3F5000F06D0012504E04F4AD36A7A
:1050F00043F40033D3627DB94C4A936D23F46003CB
:10510000D4F8A4100B43936507E0002104F12400B8
:10511000FFF7BCFE0546EEE72E46236813F4006F4A
:105120002ED0D4F8A830B3F1007F21D009D883B1B4
:10513000B3F1807F0BD10021201DFFF721FE054632
:105140000CE0B3F1407F09D0B3F1806F06D00125A8
:1051500004E0364AD36A43F40033D3627DB9334A5C
:10516000936D23F0E063D4F8A8100B43936507E038
:10517000002104F12400FFF789FE0546EEE72E46E4
:10518000236813F0007F20D0A36C102B08D004D923
:10519000202B13D0302B08D000E033B1012504E0E0
:1051A000224AD36A43F40033D3626DB91F4AD36CE9
:1051B00023F03003A16C0B43D36406E00221201DD1
:1051C000FFF7DEFD0546F0E72E46236813F4805F07
:1051D0002FD0E36DB3F5005F20D009D883B1B3F5CC
:1051E000805F0BD10021201DFFF7CAFD05460CE0B2
:1051F000B3F5405F09D0B3F5804F06D0012504E038
:105200000A4AD36A43F40033D3628DB9074A136D57
:1052100023F4E043E16D0B4313650AE0002104F140
:105220002400FFF733FE0546EFE700BF00440258B5
:105230002E46236813F4005F29D0236EB3F5003F98
:105240001DD011D83BB1B3F5803F16D10121201DEF
:10525000FFF796FD0546CDB9974A136D23F4E02379
:10526000216E0B43136512E0B3F5802FF3D0B3F535
:10527000A02FF0D0B3F5403FEDD00125EBE70121A1
:1052800004F12400FFF702FE0546E4E72E462368FA
:1052900013F4804F2BD0D4F8AC30B3F1005F1ED0A4
:1052A00012D83BB1B3F1805F17D10121201DFFF768
:1052B00067FD0546D5B9804A936D23F0E043D4F8E5
:1052C000AC100B43936512E0B3F1804FF2D0B3F111
:1052D000A04FEFD0B3F1405FECD00125EAE7012108
:1052E00004F12400FFF7D2FD0546E3E72E462368CC
:1052F00013F4004F1ED0E36EB3F1805F05D0B3F11D
:10530000005F10D033B1012504E06B4AD36A43F447
:105310000033D3626DB9684A136D23F04053E16ED8
:105320000B43136506E00121201DFFF729FD05460B
:10533000F0E72E46236813F0807F1DD0636C032BAB
:1053400017D8DFE803F0070210075B4AD36A43F47B
:105350000033D3627DB9584AD36C23F00303616CE8
:105360000B43D36408E00221201DFFF709FD054629
:10537000F0E70125EEE72E46236813F4800F1FD1D6
:10538000236813F0010F00F09E80A36F282B00F21A
:105390009080DFE803F07E8E8E8E8E8E8E8E798EDC
:1053A0008E8E8E8E8E8E878E8E8E8E8E8E8E7E8E34
:1053B0008E8E8E8E8E8E7E8E8E8E8E8E8E8E7E00BB
:1053C0003E4A136843F480731360FDF797F807466D
:1053D0003A4B1B6813F4807F05D1FDF78FF8C01B93
:1053E0006428F5D90325002D4AD1334B1B6FD4F81F
:1053F000B020534013F4407F0CD02F4B1A6F22F48F
:105400004072196F41F480311967196F21F48031AE
:1054100019671A67D4F8B030B3F5807F15D08DBB0B
:10542000D4F8B03003F44072B2F5407F1ED0224A67
:10543000136923F47C5313611F490B6FD4F8B02018
:10544000C2F30B0213430B679AE7FDF757F80746C1
:10545000194B1B6F13F0020FE1D1FDF74FF8C01B82
:1054600041F288339842F3D90325D8E712480269FC
:1054700022F47C52124901EA131313430361DBE760
:105480002E467DE72E467BE70121201DFFF778FCA5
:105490000546BDB9084A536D23F03803A16F0B438D
:1054A000536510E0012104F12400FFF7EFFC0546ED
:1054B000EFE70125EDE700BF00440258004802581D
:1054C000CFFFFF002E46236813F0020F1FD0636F3B
:1054D000052B19D8DFE803F008031108080801219B
:1054E000201DFFF74DFC054685B9A84A536D23F0F2
:1054F0000703616F0B43536509E0012104F12400A8
:10550000FFF7C4FC0546EFE70125EDE72E462368CB
:1055100013F0040F21D0D4F89030052B1AD8DFE80F
:1055200003F00803120808080121201DFFF728FCDA
:1055300005468DB9954A936D23F00703D4F8901072
:105540000B43936509E0012104F12400FFF79EFC61
:105550000546EEE70125ECE72E46236813F0200F01
:105560002BD0D4F88C30B3F1005F1ED012D83BB1F1
:10557000B3F1805F17D10021201DFFF701FC054624
:10558000D5B9824A536D23F0E043D4F88C100B4315
:10559000536512E0B3F1804FF2D0B3F1A04FEFD0DA
:1055A000B3F1405FECD00125EAE7022104F12400C9
:1055B000FFF76CFC0546E3E72E46236813F0400F27
:1055C0002BD0D4F89830B3F5006F1ED012D83BB171
:1055D000B3F5806F17D10021201DFFF7D1FB0546E1
:1055E000D5B96A4A936D23F4E053D4F898100B436D
:1055F000936512E0B3F5805FF2D0B3F5A05FEFD012
:10560000B3F5406FECD00125EAE7022104F1240054
:10561000FFF73CFC0546E3E72E46236813F0800FB6
:105620002BD0D4F89C30B3F5804F1ED012D83BB1AC
:10563000B3F5005F17D10021201DFFF7A1FB054640
:10564000D5B9524A936D23F46043D4F89C100B43B0
:10565000936512E0B3F5004FF2D0B3F5204FEFD0D1
:10566000B3F5C04FECD00125EAE7022104F1240094
:10567000FFF70CFC0546E3E72E46236813F0080FFE
:105680000AD0D4F88030B3F5805F23D03F494A6D0B
:1056900022F4405213434B65236813F0100F0AD0D5
:1056A000D4F89430B3F5807F1DD038498A6D22F448
:1056B000407213438B65236813F4002F33D0D4F862
:1056C000A030B3F5803F26D0B3F5003F19D09BB191
:1056D000012516E0022104F12400FFF7D7FB002882
:1056E000DAD00126D8E7022104F12400FFF7CEFB2F
:1056F0000028E0D00126DEE70021201DFFF740FB57
:1057000005467DB9214A936D23F44033D4F8A010A7
:105710000B43936507E0022104F12400FFF7B6FB79
:105720000546EEE72E46236813F4802F23D0D4F8E5
:105730008430B3F5001F16D0B3F5401F09D0B3F580
:10574000801F01D0012504E0104AD36A43F40033DE
:10575000D3627DB90D4A536D23F44013D4F88410FD
:105760000B43536507E0012104F12400FFF78EFB92
:105770000546EEE72E46236813F4803F1DD0E36C08
:1057800033B1B3F5803F11D0012506E00044025843
:10579000414AD36A43F40033D3626DB93E4AD36CB5
:1057A00023F48033E16C0B43D36406E00221201D17
:1057B000FFF7E6FA0546F0E72E46236813F0005F90
:1057C0000FD1236813F4003F26D0E36FB3F5807F39
:1057D00013D00FD9B3F5007F14D0B3F5407F0AD1B1
:1057E00010E0022104F12400FFF750FB0028E8D06C
:1057F0000126E6E733B1012504E0274AD36A43F4E2
:105800000033D3623DB9244A536D23F44073E16FF2
:105810000B43536500E02E46236813F4801F06D027
:105820001D4A136D23F00043216F0B43136523685A
:1058300013F0805F07D0184A136923F48043D4F82B
:10584000B4100B431361236813F4001F06D0124AEF
:10585000136D23F08073A16E0B431365236813F05F
:10586000804F09D00C4B1A6922F400421A611A6960
:10587000D4F8B8100A431A612368002B03DB06B181
:1058800001263046F8BD044AD36C23F04053216D05
:105890000B43D364F3E700BF0044025808B5FFF799
:1058A00035FA054B1B6AC3F30213044AD35C03F0B9
:1058B0001F03D84008BD00BF004402589883000869
:1058C00030B477498C6A8A6AC2F30532CD6A05F032
:1058D0001005CB6BC3F3CC0303FB05F3002A00F0E8
:1058E000DA8004F0030407EE903AF8EE677A012CB0
:1058F00066D0FCB1022C00F0B18007EE102AB8EEA1
:10590000477A9FED686AC6EE076A654B9B6BC3F3E7
:10591000080307EE103AB8EE477A9FED636A67EE28
:10592000867A77EE277AB7EE007A77EE877A66EE98
:10593000A76A61E05A4B1B6813F0200F23D0584C24
:105940002168C1F3C101594BCB4007EE103AB8EEC4
:10595000477A06EE902AB8EE666AC7EE066AA36B2F
:10596000C3F3080307EE103AB8EE477A9FED4E6A8C
:1059700067EE867A77EE277AB7EE007A77EE877A47
:1059800066EEA76A38E007EE102AB8EE477A9FED78
:10599000486AC6EE076A424B9B6BC3F3080307EEE7
:1059A000103AB8EE477A9FED406A67EE867A77EE56
:1059B000277AB7EE007A77EE877A66EEA76A1BE061
:1059C00007EE102AB8EE477A9FED366AC6EE076AF0
:1059D000334B9B6BC3F3080307EE103AB8EE477ADC
:1059E0009FED316A67EE867A77EE277AB7EE007A16
:1059F00077EE877A66EEA76A294A936BC3F346234C
:105A000007EE103AB8EE477AB7EE006A37EE067A3C
:105A1000C6EE877AFCEEE77AC0ED007A936BC3F3AB
:105A2000064307EE103AB8EE477A37EE067AC6EE2E
:105A3000877AFCEEE77AC0ED017A936BC3F30663D5
:105A400007EE903AF8EE677A77EE867A86EEA77AD6
:105A5000BCEEC77A80ED027A30BC704707EE102AA0
:105A6000B8EE477A9FED136AC6EE076A0C4B9B6B44
:105A7000C3F3080307EE103AB8EE477A9FED0A6ABF
:105A800067EE867A77EE277AB7EE007A77EE877A36
:105A900066EEA76AB0E70023036043608360DBE73C
:105AA000004402580024744A000000390090D003DA
:105AB0000024744C20BCBE4B30B477498C6A8A6A8F
:105AC000C2F30552CD6A05F480754B6CC3F3CC0369
:105AD00003FB05F3002A00F0DA8004F0030407EE6C
