:020000040800F2
:1000000000C000207D110008A1040008A30400081E
:10001000A5040008A7040008A904000800000000C7
:10002000000000000000000000000000AB04000819
:10003000AD04000800000000AF040008B10400088F
:10004000C5110008C5110008C5110008C511000838
:10005000C5110008C5110008C5110008C511000828
:10006000C5110008C5110008C5110008C511000818
:10007000C5110008C5110008C5110008C511000808
:10008000C5110008C5110008C5110008C5110008F8
:10009000C5110008C5110008C5110008C5110008E8
:1000A000C5110008C5110008C5110008C5110008D8
:1000B000C5110008C5110008C5110008C5110008C8
:1000C000C5110008C5110008C5110008C5110008B8
:1000D000C5110008C5110008C5110008C5110008A8
:1000E000C5110008C5110008C5110008C511000898
:1000F000C5110008C5110008C5110008C511000888
:10010000C5110008C5110008C5110008C511000877
:10011000C5110008C5110008C5110008C511000867
:10012000C5110008C5110008C5110008C511000857
:1001300000000000000000000000000000000000BF
:1001400000000000000000000000000000000000AF
:10015000000000000000000000000000000000009F
:10016000000000000000000000000000000000008F
:10017000000000000000000000000000000000007F
:10018000000000000000000000000000000000006F
:10019000000000000000000000000000000000005F
:1001A000000000000000000000000000000000004F
:1001B000000000000000000000000000000000003F
:1001C000000000000000000000000000000000002F
:1001D000000000000000000000000000000000001F
:0401E0005FF8E0F1F3
:1001E400044B05481B1A062B02D9044B03B11847CC
:1001F400704700BF0F0000200C000020000000002A
:1002040005490648091A891001EBD171491002D039
:10021400034B03B1184770470C0000200C0000206A
:100224000000000010B5064C237843B9FFF7D8FF4F
:10023400044B13B10448AFF300800123237010BDB5
:100244000C00002000000000C811000808B5084B8D
:100254001BB108490848AFF300800848036813B984
:10026400BDE80840CCE7064B002BF9D09847F7E7E8
:100274000000000010000020C81100080C0000203D
:100284000000000070B50F4E0F4D761BB61018BF5E
:10029400002405D0013455F8043B9847A642F9D10F
:1002A4000A4E0B4D00F08EFF761BB61018BF0024CB
:1002B40006D0013455F8043B9847A642F9D170BDE5
:1002C40070BD00BF041200080412000808120008E0
:1002D4000412000870B4860746D0541E002A41D088
:1002E400CAB2034602E014F1FF343BD303F8012BF6
:1002F4009D07F8D1032C2ED9CDB245EA05250F2C44
:1003040045EA054519D9264603F11002103E0F2E81
:1003140042F8105C42F80C5C42F8085C42F8045C59
:1003240002F11002F2D8A4F1100222F00F0204F03C
:100334000F041032032C13440DD91E462246043AEE
:10034400032A46F8045BFAD8221F22F0030204327F
:10035400134404F003042CB1C9B21C4403F8011B78
:100364009C42FBD170BC704714460346C2E700BFF1
:1003740082B00A4B9A6942F020029A619A6902F0AB
:1003840020020092009A9A6942F004029A619B69E1
:1003940003F004030193019B02B070470010024074
:1003A40030B583B00025009501950B4C0B4B2360B1
:1003B400204600F0E7F804230093019510226946D3
:1003C400204600F023F94FF430621021204600F05B
:1003D40047F903B030BD00BF28000020007400407E
:1003E40030B583B0002500950195094C094B236075
:1003F4006560A560E560A561204600F05BFE2023F2
:10040400009301956946204600F06DFE03B030BDAF
:100414003C0000200010004030B591B0282200219B
:1004240006A8FFF757FF0024019402940394049450
:100434000594012206924FF4803307930A92022511
:100444000D950E934FF4E0130F9306A800F086F970
:100454000F230193029503944FF48063049305944E
:10046400294601A800F0B8FB11B030BD08B500F072
:100474003BF9FFF7D1FFFFF77BFFFFF791FFFFF792
:10048400AFFF044800F0B6FD1021034800F08CF8DB
:10049400FEE700BF3C000020280000207047FEE774
:1004A400FEE7FEE7FEE770477047704708B500F0C7
:1004B4002DF908BD82B00E4B9A6942F001029A618F
:1004C4009A6902F001020092009ADA6942F08052BD
:1004D400DA61DB6903F080530193019B054A536899
:1004E40023F0E06343F00073536002B0704700BF31
:1004F400001002400000014000B587B000230293C1
:100504000393049305930268114B9A4202D007B0F7
:100514005DF804FB03F5CE33DA6942F00052DA6188
:10052400DA6902F000520092009A9A6942F00402D9
:100534009A619B6903F004030193019B20230293B6
:100544000323039302A9034800F0FAFBDFE700BF8B
:1005540000740040000801400268094B9A4200D030
:10056400704782B003F50033DA6942F01002DA61B1
:10057400DB6903F010030193019B02B0F0E700BFB5
:100584000010004070B110B50446037933B1022362
:100594002371002020610123237110BD4371FFF7F3
:1005A400ABFFF4E7012070474379012B2CD030B422
:1005B40001234371022202710468226801F01005CC
:1005C400AB401343236089B90268136803F03C030A
:1005D4003C2B06D00123037100234371184630BC21
:1005E4007047536843F001035360F3E701680A68F6
:1005F40002F470123C2303FA05F5AA42EAD14B68CF
:1006040043F002034B60E5E70220704770B444797D
:10061400012C23D001254571022303710668346837
:1006240002F0100340F6FE729A4024EA02020C68BB
:100634004968214399400A43326004682168C02212
:100644009A40D24311402160036819680A401A6035
:10065400057100234371184670BC70470220FBE704
:100664004379012B18D070B401254571022303711D
:100674000668336801F010014FF47C648C4023EA6F
:10068400040342F080028A401A4332600571002359
:100694004371184670BC70470220704710B5044679
:1006A4000E4B18784FF47A73B3FBF0F30C4A1068CE
:1006B400B0FBF3F000F088FC68B90F2C01D90120DD
:1006C40010BD002221464FF0FF3000F04BFC054BDB
:1006D4001C60002010BD012010BD00BF00000020E0
:1006E400080000200400002008B5074A136843F0FE
:1006F40010031360032000F023FC0020FFF7CEFF5B
:10070400FFF7D8FE002008BD00200240034A11680C
:10071400034B1B780B441360704700BF7C00002020
:1007240000000020014B1868704700BF7C000020C7
:1007340082B0084B1B68084AA2FB03235B0A00FB38
:1007440003F0019000BF019B5A1E0192002BF9D1C6
:1007540002B0704708000020D34D6210002800F05A
:10076400F58170B582B00446036813F0010F3DD0E3
:10077400AB4B5B6803F00C03042B2ED0A84B5B68D7
:1007840003F00C03082B23D06368B3F5803F51D0EA
:10079400002B55D103F1804303F504331A6822F486
:1007A40080321A601A6822F480221A606368002B6F
:1007B40060D0FFF7B7FF0546994B1B6813F4003F61
:1007C40014D1FFF7AFFF401B6428F5D90320C2E121
:1007D400934B5B6813F4803FD6D0914B1B6813F4A2
:1007E400003F03D06368002B00F0B281236813F04C
:1007F400020F65D08A4B5B6813F00C0F4ED0884B08
:100804005B6803F00C03082B43D02369002B79D0D9
:100814000122844B1A60FFF785FF0546804B1B6855
:1008240013F0020F65D1FFF77DFF401B0228F5D9B5
:10083400032090E17A4A136843F480331360B5E7E8
:10084400B3F5A02F09D0764B1A6822F480321A60CF
:100854001A6822F480221A60A8E703F18043A3F502
:100864003C331A6842F480221A601A6842F48032D7
:100874001A609BE7FFF756FF0546694B1B6813F4A4
:10088400003FB3D0FFF74EFF401B6428F5D9032087
:1008940061E1634B5B6813F4803FB6D1604B1B6826
:1008A40013F0020F04D02369012B01D0012052E17F
:1008B4005B4A136823F0F803616943EAC1031360D8
:1008C400236813F0080F32D0A369002B6ED00122E5
:1008D400554B1A60FFF726FF0546514B5B6A13F030
:1008E400020F21D1FFF71EFF401B0228F5D9032078
:1008F40031E14B4A136823F0F803616943EAC10309
:100904001360DDE70022474B1A60FFF70BFF054633
:10091400434B1B6813F0020FD2D0FFF703FF401BB9
:100924000228F5D9032016E10120FFF701FF23680F
:1009340013F0040F00F09880394BDB6913F0805FEB
:1009440046D1374BDA6942F08052DA61DB6903F051
:1009540080530193019B0125344B1B6813F4807F62
:1009640038D0E368012B49D0002B4DD103F18043EB
:1009740003F504331A6A22F001021A621A6A22F099
:1009840004021A62E368002B5CD0FFF7CBFE064634
:10099400234B1B6A13F0020F65D1FFF7C3FE801BC4
:1009A40041F288339842F3D90320D4E000221E4B4D
:1009B4001A60FFF7B7FE0546194B5B6A13F0020F86
:1009C400B5D0FFF7AFFE401B0228F5D90320C2E0E3
:1009D4000025C1E7154A136843F480731360FFF7D9
:1009E400A1FE0646114B1B6813F4807FB9D1FFF7B3
:1009F40099FE801B6428F5D90320ACE0084A136AE9
:100A040043F001031362BDE7052B11D0044B1A6AAE
:100A140022F001021A621A6A22F004021A62B1E791
:100A24000010024000004242800442420070004034
:100A34004C4B1A6A42F004021A621A6A42F001022A
:100A44001A629FE7FFF76EFE0646464B1B6A13F0D9
:100A5400020F08D0FFF766FE801B41F288339842EC
:100A6400F3D9032077E0E5B9E369002B72D03D4A5E
:100A7400526802F00C02082A56D0022B17D000222A
:100A8400394B1A60FFF74EFE0446364B1B6813F0D1
:100A9400007F47D0FFF746FE001B0228F5D903204C
:100AA40059E0304AD36923F08053D361DCE7002254
:100AB4002D4B1A60FFF736FE05462A4B1B6813F0D0
:100AC400007F06D0FFF72EFE401B0228F5D9032035
:100AD40041E0236AB3F5803F1AD022494B6823F4DE
:100AE4007413226A606A024313434B6001221E4B53
:100AF4001A60FFF717FE04461A4B1B6813F0007FB9
:100B04000ED1FFF70FFE001B0228F5D9032022E0C7
:100B1400144A536823F40033A1680B435360DCE7A1
:100B2400002018E0002016E0012B16D00D4B5B6866
:100B340003F48031226A914201D001200BE003F4D6
:100B44007013626A93420AD0012004E001207047C6
:100B5400012000E0002002B070BD0120FBE700206E
:100B6400F9E700BF001002406000424210B586B0B1
:100B7400154C94E80F000DF1180E0EE90F00238AAE
:100B8400ADF80430114B5B6803F00C02082A18D14D
:100B9400C3F38342724412F8102C13F4803F03D140
:100BA4000B4800FB02F00DE0084B5B68C3F34043C5
:100BB400734413F8143C074800FB02F0B0FBF3F055
:100BC40000E0044806B010BDE01100080010024027
:100BD40000093D0000127A00002800F0A38070B5DF
:100BE4000446524B1B6803F007038B420CD24F4A56
:100BF400136823F007030B431360136803F0070320
:100C0400994201D0012070BD236813F0020F17D060
:100C140013F0040F04D0464A536843F4E06353606E
:100C2400236813F0080F04D0414A536843F4605317
:100C340053603F4A536823F0F003A06803435360B2
:100C44000D46236813F0010F31D06368012B20D0C7
:100C5400022B25D0364A126812F0020F64D03449B0
:100C64004A6822F0030213434B60FFF75BFD06461C
:100C74002F4B5B6803F00C036268B3EB820F16D052
:100C8400FFF750FD801B41F288339842F0D90320CE
:100C940070BD274A126812F4003FE0D1012070BDF4
:100CA400234A126812F0007FD9D1012070BD1F4B76
:100CB4001B6803F007039D420CD21C4A136823F0FF
:100CC40007032B431360136803F007039D4201D00D
:100CD400012070BD236813F0040F06D0144A536832
:100CE40023F4E063E1680B435360236813F0080FB7
:100CF40007D00F4A536823F46053216943EAC103C0
:100D04005360FFF733FF0A4B5B68C3F30313094ACD
:100D1400D35CD840084B1860084B1868FFF7BEFC3A
:100D2400002070BD01207047012070BD00200240EA
:100D340000100240F4110008080000200400002004
:100D4400F0B583B00026344679E0002D00F0AA8087
:100D5400012D00D1CE68FF2B00F2B8808646FF2B10
:100D640000F2B780A500DEF800200F27AF4022EA8A
:100D7400070206FA05F52A43CEF800204A6812F065
:100D8400805F5BD0684A956945F001059561926979
:100D940002F001020192019AA208971C634D55F8D2
:100DA400275004F003074FEA870E0F2707FA0EF7C0
:100DB40025EA07055E4FB84200F0918007F5806789
:100DC400B84200F08E8007F58067B84200F08B804F
:100DD40007F58067B84200F0888007F58067B8425D
:100DE40000F0858007F58067B84276D0062707FAB9
:100DF4000EF73D4302324D4F47F822504A6812F431
:100E0400803F76D04B4D2A681A432A604A6812F410
:100E1400003F74D0474D6A681A436A604A6812F406
:100E2400801F72D0434DAA681A43AA604A6812F41C
:100E3400001F70D03F4DEA681343EB6001340B6828
:100E440033FA04F26DD00122A24013409A42F5D144
:100E54004D68122D30D00BD8022D2AD07FF675AFF5
:100E6400032D2FD0112D7FF476AFCE68043672E7B0
:100E7400314FBD4216D00CD9304FBD4212D007F5C8
:100E84008037BD420ED0A7F58017BD427FF463AF13
:100E940008E0A7F58017BD4204D007F58037BD42AE
:100EA4007FF459AF8D687DB1012D08D042610826C9
:100EB40051E7CE6808364EE7CE680C364BE7026140
:100EC400082648E7002646E7042644E700F1040E16
:100ED40045E7A4F10805AD0045E7052787E70027A6
:100EE40085E7012783E7022781E703277FE70427B4
:100EF4007DE7104D2A6822EA03022A6086E70D4D39
:100F04006A6822EA03026A6088E70A4DAA6822EA4C
:100F14000302AA608AE7074DEA6822EA0303EB604A
:100F24008CE703B0F0BD00BF001002400000014098
:100F340000080140000401400000211000003110AD
:100F4400074AD36823F4E0631B041B0C000200F47B
:100F5400E060184340F0BF6040F40030D060704758
:100F640000ED00E030B4164BDB68C3F30223C3F199
:100F74000704042C28BF04241D1D062D17D9033B88
:100F8400012505FA04F4013C2140994005FA03F3D4
:100F9400013B1340194300280BDB0901C9B200F1DE
:100FA400604000F5614080F8001330BC70470023B6
:100FB400E6E700F00F000901C9B2024B1954F4E747
:100FC40000ED00E014ED00E00138B0F1807F0AD2BA
:100FD400064B5860F021064A82F8231000209860DE
:100FE40007221A6070470120704700BF10E000E03C
:100FF40000ED00E0022380F83D300268936803F0BE
:101004000703062B03D0136843F001031360012385
:1010140080F83D30002070470368254A904212D082
:1010240002F5006290420ED0B0F1804F0BD0A2F5D1
:101034009832904207D002F58062904203D002F5C4
:101044008062904203D123F070034A681343184A24
:10105400904212D002F5006290420ED0B0F1804F5F
:101064000BD0A2F59832904207D002F580629042EC
:1010740003D002F58062904203D123F44073CA681E
:10108400134323F080034A69134303608B68C362EC
:101094000B688362064B984206D003F500639842BE
:1010A40002D00123436170470B690363F9E700BF72
:1010B400002C0140A8B110B5044690F83D305BB156
:1010C400022384F83D30211D2068FFF7A5FF01238A
:1010D40084F83D30002010BD80F83C30FFF73CFA26
:1010E400EEE70120704790F83C30012B1CD070B41F
:1010F400012580F83C50022380F83D300468626882
:10110400A36822F070020E68324323F0800349681A
:101114000B4362600268936080F83D50002380F8BE
:101124003C30184670BC7047022070470F4B1A6859
:1011340042F001021A6059680D4A0A405A601A685E
:1011440022F0847222F480321A601A6822F4802217
:101154001A605A6822F4FE025A604FF41F029A6021
:101164004FF00062034B9A60704700BF00100240CA
:101174000000FFF800ED00E0002103E00B4B5B589A
:10118400435004310A480B4B42189A42F6D30A4A98
:1011940002E0002342F8043B084B9A42F9D3FFF7DC
:1011A400C5FFFFF76FF8FFF761F970470C120008ED
:1011B400000000200C0000200C0000208000002013
:1011C400FEE70000F8B500BFF8BC08BC9E467047B7
:0C11D400F8B500BFF8BC08BC9E46704790
:1011E00002030405060708090A0B0C0D0E0F101068
:1011F00001020000000000000000000001020304E2
:0412000006070809CC
:04120400510200088B
:0412080029020008AF
:0C120C0001000000100000000024F400AD
:040000050800117D61
:00000001FF
