:020000040800F2
:1000000000C00020113D000875280008772800086E
:10001000792800087B2800087D28000800000000DF
:100020000000000000000000000000007F28000821
:1000300081280008000000008328000885280008A7
:10004000593D0008593D0008593D0008593D000838
:10005000593D0008593D0008593D0008593D000828
:10006000593D0008593D0008593D0008593D000818
:10007000593D0008593D0008593D0008593D000808
:10008000593D0008593D0008593D0008593D0008F8
:10009000593D0008593D0008593D0008593D0008E8
:1000A000593D0008593D0008593D0008593D0008D8
:1000B000593D0008593D0008593D0008593D0008C8
:1000C000593D0008593D0008593D0008593D0008B8
:1000D000593D0008593D0008593D0008593D0008A8
:1000E000593D0008593D0008593D0008593D000898
:1000F000593D0008593D0008593D0008593D000888
:10010000593D0008593D0008593D0008593D000877
:10011000593D0008593D0008593D0008593D000867
:10012000593D0008593D0008593D0008593D000857
:1001300000000000000000000000000000000000BF
:1001400000000000000000000000000000000000AF
:10015000000000000000000000000000000000009F
:10016000000000000000000000000000000000008F
:10017000000000000000000000000000000000007F
:10018000000000000000000000000000000000006F
:10019000000000000000000000000000000000005F
:1001A000000000000000000000000000000000004F
:1001B000000000000000000000000000000000003F
:1001C000000000000000000000000000000000002F
:1001D000000000000000000000000000000000001F
:0401E0005FF8E0F1F3
:1001E800044B05481B1A062B02D9044B03B11847C8
:1001F800704700BFBF000020BC00002000000000C6
:1002080005490648091A891001EBD171491002D035
:10021800034B03B118477047BC000020BC00002006
:100228000000000010B5064C237843B9FFF7D8FF4B
:10023800044B13B10448AFF300800123237010BDB1
:10024800BC000020000000005C3D000808B5084B19
:100258001BB108490848AFF300800848036813B980
:10026800BDE80840CCE7064B002BF9D09847F7E7E4
:1002780000000000C00000205C3D0008BC00002019
:100288000000000070B50F4E0F4D761BB61018BF5A
:10029800002405D0013455F8043B9847A642F9D10B
:1002A8000A4E0B4D03F056FD761BB61018BF0024FE
:1002B80006D0013455F8043B9847A642F9D170BDE1
:1002C80070BD00BF1C6900081C690008206900088F
:1002D8001C69000870B4860746D0541E002A41D015
:1002E800CAB2034602E014F1FF343BD303F8012BF2
:1002F8009D07F8D1032C2ED9CDB245EA05250F2C40
:1003080045EA054519D9264603F11002103E0F2E7D
:1003180042F8105C42F80C5C42F8085C42F8045C55
:1003280002F11002F2D8A4F1100222F00F0204F038
:100338000F041032032C13440DD91E462246043AEA
:10034800032A46F8045BFAD8221F22F0030204327B
:10035800134404F003042CB1C9B21C4403F8011B74
:100368009C42FBD170BC704714460346C2E700BFED
:100378000EB430B5044682B018B183690BB900F0E9
:10038800A9FB06AD2B46059AA1682046019500F009
:1003980065FF02B0BDE8304003B070470FB430B518
:1003A8000A4B83B01C6824B1A36913B9204600F036
:1003B80091FB07AD2B46069AA1682046019500F0EF
:1003C8004DFF03B0BDE8304004B070470000002086
:1003D80010B5044682B028B183691BB9019100F0B9
:1003E80079FB01992046A26802B0BDE8104001F0EF
:1003F80069BA00BF38B5084B05461C6824B1A36923
:1004080013B9204600F066FB2946A2682046BDE8DD
:10041800384001F057BA00BF0000002070B50D4603
:10042800064600283AD08369002B35D084682B4BC8
:100438009C423DD02A4B9C424ED02A4B9C4208BF3E
:10044800F468A3891B0737D52369002B34D0013DF5
:10045800A36815F8011F013BA360A1B1002B04DBC1
:1004680023685A1C22601970F2E7A269934201DBE3
:100478000A29F5D12246304600F086F80130E7D146
:100488004FF0FF3070BD002B1DDB0A222368104699
:10049800591C21601A7070BD00F01CFBB369B46868
:1004A800002BC4D1304600F015FB0C4B9C42C1D147
:1004B8007468A3891B07C7D42146304600F0C6F8E4
:1004C8000028C4D0DCE7224630460A2100F05CF858
:1004D8000130D5D00A2070BDB468B2E7B83D000835
:1004E800983D0008783D0008024B01461868FFF760
:1004F80095BF00BF000000200CB40B46F0B56FF0AC
:1005080000454FF402774FF6FF769DB022AC54F8C1
:10051800042B0293069302A923460194ADF81470A4
:1005280004950795ADF8166000F038FD0022029B8F
:100538001A701DB0BDE8F04002B070470EB4014615
:10054800F0B56FF000454FF402774FF6FF769CB098
:1005580021AC54F8042B0B4B02910691186802A9A0
:1005680023460194ADF8147004950795ADF816600C
:1005780000F014FD0022029B1A701CB0BDE8F04088
:1005880003B0704700000020F8B50D461446064633
:1005980010B18369002B42D0254B9C4244D0254B97
:1005A8009C4243D0244B9C4208BFF468A269A389AB
:1005B800A2601A0722D5236903B322686169D31A96
:1005C800EDB28B422F4621DA0133A168501C013964
:1005D800A1602060157062699A4206D0A389DB0782
:1005E80001D50A2D01D03846F8BD2146304600F025
:1005F80035F90028F7D04FF0FF37F4E721463046A9
:1006080000F024F80028F6D12369D6E721463046C1
:1006180000F024F90028EED101232268D5E700F084
:1006280059FA034B9C42BAD17468BFE7B468BDE776
:10063800B83D0008983D0008783D0008024B0A467E
:1006480001461868FFF7A0BF00000020384B70B5BE
:100658001D6806460C4615B1AB69002B42D0354BD8
:100668009C4245D0344B9C4258D0344B9C4208BFE6
:10067800EC68B4F90C2093B219070CD52069A8B11D
:1006880013F001021ED000226369A2605B42A361DD
:10069800F0B1002070BDDD0642D558072AD4206984
:1006A80042F00803A3819BB20028E9D103F4207229
:1006B800B2F5007FE4D03046214600F0A5FAA389C0
:1006C8002069DDE7990758BF6269A2600028E0D178
:1006D800B4F90C301A06DDD543F04003A3814FF07E
:1006E800FF3070BD284600F0F5F9124B9C42B9D195
:1006F8006C68BEE7616B51B104F14403994204D0C0
:10070800304600F0C5FAB4F90C20002363630023D7
:10071800206922F0240284E80900C1E7AC68A8E750
:10072800092342F0400233604FF0FF30A28170BDD0
:1007380000000020B83D0008983D0008783D0008FA
:100748008B892DE9F0411A070D46804632D44A6854
:10075800002A67DDEC6A002C45D00022D8F800603A
:10076800C8F8002013F4805260D06A6D5F0705D581
:1007780069686B6B521A0BB12B6CD21A0023296A69
:100788004046A047441C39D00021AB892A69DB04C4
:1007980069602A6044D4696BC8F8006019B305F130
:1007A8004403994202D0404600F072FA0020686380
:1007B800BDE8F0810E69B6B1980718BF00230C6830
:1007C80008BF4B690E60A41B8B600AE023463246C3
:1007D800AF6A296A4046B8470028A4EB00040644DB
:1007E80004DD002CF2DC0020BDE8F081AB894FF07D
:1007F800FF3043F04003AB81BDE8F081D8F800201A
:100808001D2AF3D8144BD340DB4313F00103EDD179
:10081800A9892C69C9046B602C60BCD5002ABAD19F
:100828006865B8E70A6C002A94DCDCE70123296ACA
:100838004046A047431C024602D0AB89EC6A95E7C4
:10084800D8F80030002BF8D01D2B01D0162BCDD1B5
:10085800C8F80060C7E700BF010040200B6933B348
:1008680010B5044682B008B18369ABB1114B994207
:1008780019D0114B994218D0104B994208BFE16822
:10088800B1F90C3013B9002002B010BD204602B0F7
:10089800BDE81040FFF754BF019100F01BF9019922
:1008A800044B9942E5D16168EAE7A168E8E70020CE
:1008B800704700BFB83D0008983D0008783D000823
:1008C80020B1054B01461868FFF7C8BF034B044920
:1008D800186800F043B900BF00000020743D00080C
:1008E8006508000800207047014900F037B900BFCB
:1008F800650800080020704770B568254A1E05FB8A
:1009080002F50E4605F1740100F00AFA044640B1FA
:1009180000210C30666005F168022160A060FFF7D5
:10092800D9FC204670BD00BF204B70B51D68064637
:10093800AB695BB348356B68AC68013B05D521E012
:10094800013B5A1C04F168041CD0B4F90C20002A9D
:10095800F6D100254FF6FF720123E281A381656677
:100968002560A560656025616561A5612946082245
:1009780004F15C00FFF7AEFC6563A563A564E5645C
:10098800204670BD286828B10546D4E7284600F0FF
:100998000FF8CFE704213046FFF7AEFF28600028A4
:1009A800F2D10C2304463360EAE700BF743D000827
:1009B80000233D4A2DE9F04F126883649042C364D6
:1009C800036508BF0123394983B008BF8361816289
:1009D8000746FFF7A9FF78603846FFF7A5FFB8601C
:1009E80038460024FFF7A0FF04237D68F8602146FD
:1009F8002C606C60AC606C66EC812C616C61AC61E5
:100A0800AB8105F15C000822FFF764FC0123092291
:100A1800BE68DFF89CB0DFF89CA0DFF89C90DFF898
:100A28009C80C5F824B0C5F828A0C5F82C90C5F856
:100A380030802D622146F381B28134607460B460E5
:100A4800746634617461B46106F15C000822019334
:100A5800FFF740FC12200222FD6821463662C6F8E4
:100A680024B0C6F828A0C6F82C90C6F83080A88113
:100A7800EA812C606C60AC606C662C616C61AC6166
:100A880005F15C000822FFF725FC019B2D62C5F8E3
:100A980024B0C5F828A0C5F82C90C5F83080BB61F3
:100AA80003B0BDE8F08F00BF743D0008F1080008EE
:100AB800D9190008011A00083D1A00085D1A000833
:100AC800024B0349186800F049B800BF743D00089C
:100AD80065080008836903B96AE77047704700BF73
:100AE800704700BF704700BF704700BF024B034903
:100AF800186800F00FB800BF00000020FD080008CB
:100B0800024B0349186800F005B800BF0000002038
:100B1800ED0800082DE9F04110F148071AD0884681
:100B280000267D68BC68013D0ED4A389013D012BD8
:100B380006D9B4F90E30013302D02046C047064327
:100B48006B1C04F16804F0D13F68002FE9D13046EE
:100B5800BDE8F0813E463046BDE8F0812DE9F84316
:100B680010F148061ED0884607464FF00009756800
:100B7800B468013D10D4A389013D012B08D9B4F90B
:100B88000E30013304D021463846C04749EA0009EF
:100B98006B1C04F16804EED13668002EE7D1484694
:100BA800BDE8F883B1464846BDE8F88370B50C4601
:100BB800B1F90E1090B0002915461E4613DB01AAA4
:100BC80000F074FF00280EDB029A4FF4806302F4F1
:100BD8007042A2F50052B2FA82F200205209326045
:100BE8002B6010B070BD0022A38932601B0604D5AB
:100BF800402300202B6010B070BD4FF480630020AC
:100C08002B6010B070BD00BF8A890B46920706D5CD
:100C1800012103F1470259611A601A617047F0B562
:100C280083B001AB6A460C460546FFF7BFFF009943
:100C38000646284600F074F8B4F90C30D0B19DE8A7
:100C48000600124F43F08003AF62A3812060206149
:100C580061611AB93343A38103B0F0BD2846B4F9E2
:100C68000E1001F0B1F8B4F90C300028F2D043F0BE
:100C78000103EFE79A05EFD4012104F1470243F09D
:100C88000203A381616122602261E5E7F10800089F
:100C980091B151F8043C0439002BB8BFC9181F4B57
:100CA8001A68FAB18A4230B40AD908680C18A24204
:100CB80026D04A60196030BC70478B4203D81A4668
:100CC8005368002BF9D1146815198D420DD006D838
:100CD80008680C189C4219D04B605160EBE70C2354
:100CE8000360E8E74A601960704709680C44111905
:100CF80099421460DFD10ACB0C4414605360DAE7E0
:100D080014685268204481E80500D3E71C685B68D2
:100D1800204481E809005160CDE700BFD8000020D9
:100D280070B5CC1C24F0030408340C2C38BF0C24F8
:100D3800002C06463BDBA14239D8274D296851B122
:100D48000B681B1B04D436E013681B1B1AD511460D
:100D58004A68002AF8D16968002937D02146304608
:100D680000F024FE431C22D0C51C25F00305A84230
:100D780005D0291A304600F019FE013017D02A464E
:100D88002C6004E00B2B0DD913601A44146002F197
:100D98000B0020F00700131DC31A02D05942D1508E
:100DA80070BD70BD8A420ED053684B60EFE70C23CC
:100DB8000020336070BD0B2B03D80A464B682B60AC
:100DC800E5E70A46E0E70B460A46F8E7304600F052
:100DD800EDFD6860C2E700BFD80000202DE9F047AC
:100DE8008E680C469E421D46174628D8804688893C
:100DF80010F4906F32D04E692368096906EB4606F5
:100E0800A3EB010906EBD6766B1C76104B44B34274
:100E1800324684BF1E463246430522D51146404617
:100E2800FFF77EFF824680B34A46216901F03AF80F
:100E3800A38923F4906343F08003A38116E01E4640
:100E480008682A46394601F0A3F8A2682368961B69
:100E58002B44A66023600020BDE8F087086835466B
:100E6800EFE7404601F0F8F8824650B1A6EB0903D7
:100E78000AEB09006661C4F810A02060A3602E4642
:100E8800DFE721694046FFF703FF0C23C8F800306D
:100E9800A3894FF0FF3043F04003A381BDE8F087FA
:100EA8002DE9F04F936883B09046002B70D08246AE
:100EB8000C4617688D68086842E0A38913F4906FA0
:100EC8002ED06569216905EB4505A0EB010B05EB03
:100ED800D5750BF101006D103044A8422A4684BF35
:100EE80005462A465B0538D511465046FFF718FFD8
:100EF80000283CD05A462169019000F0D3FFA2890E
:100F0800019B22F4906242F08002A281A5EB0B02C1
:100F180003EB0B006561B346354623612060A26090
:100F28005A46494601F034F8D8F80830A2682068D3
:100F3800551B58449E1BA5602060C8F808603EB346
:100F48007E683B460837002EFAD0AE42D3F80090B0
:100F5800AB46B2D23546B346E2E7504601F07CF8DC
:100F680003460028D2D121695046FFF791FE0C2391
:100F780000224FF0FF30CAF80030A38943F0400345
:100F8800A381C8F80820C8F8042003B0BDE8F08F92
:100F98000020C8F8040003B0BDE8F08F2DE9F04F39
:100FA8000F4689899DB00C0691460393804603D568
:100FB8003B69002B00F0FC803023002020218DF8B5
:100FC8002A3099F800300125814C09908DF82910B4
:100FD800002B00F09180252BCA4603D119E0252B60
:100FE80000F093801AF8013F002BF8D1BAEB090BF7
:100FF80000F082804A465B4639464046FFF7EEFEDF
:10100800013079D0099B9AF800205B440993002AA3
:1010180072D000234FF0FF320AF1010A04930793BC
:1010280006938DF853301A93059205E0049B001B34
:1010380005FA00F0184304909AF80010052220469B
:1010480000F0EAFED1460AF1010A0028EED1049B1D
:10105800D80644BF20228DF85320190748BF2B22F9
:1010680099F8001048BF8DF853202A2971D0A1F1B2
:101078003002092A0BD8079B19F8011F03EB8303D9
:1010880002EB4303A1F13002092AF5D907932E296F
:1010980046D0DFF84CA10322504600F0BDFE48B10F
:1010A8004022049BA0EB0A0002FA00F0034309F176
:1010B8000109049399F800300622194645488DF82D
:1010C800283009F1010900F0A7FE00284DD0424B55
:1010D800FBB103AB00933A46404B04A94046AFF33B
:1010E80000800646721C07D0099B3344099399F87F
:1010F8000030002B7FF46FAFBB895B064CBF4FF00D
:10110800FF3009981DB0BDE8F08FBAEB090B80D00D
:1011180070E7039B073323F0070308330393E3E7E0
:1011280099F8011009F101002A2928D00023A1F11A
:101138003002092A05938146ABD819F8011F03EB41
:10114800830302EB4303A1F13002092AF5D9059381
:101158009FE7039A116804320029039222DB079162
:1011680099F8011009F1010991E703AB00933A4698
:101178001A4B04A9404600F057FA0646B2E7039B0B
:1011880009F102001A680433002A0393B8BF4FF02C
:10119800FF330592AEBF99F8021099F80210059333
:1011A800814676E7494243F0020307910493D7E763
:1011B8004021FFF7B5FD3860386110B140237B61ED
:1011C800FAE60C234FF0FF30C8F800309AE700BF6A
:1011D800E0680008EC68000800000000E50D000861
:1011E800E8680008936810B4013B002B936007DBA4
:1011F800CCB21368581C10601970204610BC704798
:101208009469A34202DBCCB20A2CF2D110BCFFF7DE
:10121800BBB900BF93B1F8B514460F460646D518BA
:1012280001E0AC4208D03A4614F8011B3046FFF7FB
:10123800D9FF431CF5D1F8BD0020F8BD0020704748
:10124800936810B5144613B95360184610BD00F0E2
:1012580041FC0023A360636010BD00BF2DE9F04F7F
:101268009DB00F4691460393804618B18369002BC1
:1012780000F01981924B9F4200F01B81914B9F42D5
:1012880000F01A81904B9F4208BFD8F80C70BB89B8
:101298001C0740F1FE803B69002B00F0FA803023E8
:1012A800002120228DF82A3099F8003009918DF814
:1012B8002920864C0125002B00F09180252BCA4659
:1012C80003D119E0252B00F091801AF8013F002B7B
:1012D800F8D1BAEB090B00F082804A465B463946E2
:1012E8004046FFF797FF013079D0099B9AF8002014
:1012F8005B440993002A72D000234FF0FF320AF1B1
:10130800010A0493079306938DF853301A930592B4
:1013180005E0049B001B05FA00F0184304909AF8B6
:1013280000100522204600F077FDD1460AF1010A97
:101338000028EED1049BD80644BF20228DF8532004
:10134800190748BF2B2299F8001048BF8DF8532081
:101358002A296FD0A1F13002092A0BD8079B19F866
:10136800011F03EB830302EB4303A1F13002092AB7
:10137800F5D907932E2944D0DFF860A103225046FF
:1013880000F04AFD48B14022049BA0EB0A0002FA93
:1013980000F0034309F10109049399F8003006228B
:1013A80019464B488DF8283009F1010900F034FD41
:1013B80000284BD0474BEBB103AB00933A46464B62
:1013C80004A94046AFF300800646721C07D0099B6B
:1013D8003344099399F80030002B7FF46FAFBB8931
:1013E8005B065DD409981DB0BDE8F08FBAEB090B18
:1013F80082D072E7039B073323F007030833039374
:10140800E5E799F8011009F101002A2928D00023FD
:10141800A1F13002092A05938146ADD819F8011FB8
:1014280003EB830302EB4303A1F13002092AF5D948
:101438000593A1E7039A116804320029039222DB7D
:10144800079199F8011009F1010993E703AB00939B
:101458003A46214B04A9404600F0E6F80646B4E7B0
:10146800039B09F102001A680433002A0393B8BFEA
:101478004FF0FF330592AEBF99F8021099F80210A9
:101488000593814678E7494243F0020307910493A4
:10149800D7E739464046FFF7D9F800283FF4FFAEB2
:1014A8004FF0FF309FE7FFF715FB054B9F427FF496
:1014B800E5AED8F80470EAE6D8F80870E7E600BFA9
:1014C800B83D0008983D0008783D0008E06800082D
:1014D800EC680008000000001D120008E868000819
:1014E80010B4044C13460A460146206810BCFFF7A6
:1014F800B5BE00BF000000202DE9F0470C46096981
:10150800A56891468D42B8BF0D46156094F8431002
:1015180006461F46DDF8208011B16A1CC9F8002074
:10152800236899065DD5D9F800200232C9F8002051
:10153800236813F0060F19461DD1E1688A1A002A9C
:10154800D8BF194617DD002504F1190A05E0E3683C
:10155800D9F800209B1AAB420CDD012352463946CC
:101568003046C047013005F10105F0D14FF0FF309A
:10157800BDE8F087216894F84330003318BF012391
:101588008A060AD53021E21882F8431094F84510EB
:101598005A1C224482F84310023304F143023946AC
:1015A8003046C0470130E1D0236803F00603042B1E
:1015B80029D0A36822699342C8BF4FF0000930DDE3
:1015C8009B1A994400251A3401E04D4529D001237E
:1015D800224639463046C047013005F10105F4D1AD
:1015E800C4E713F0060F08D1E168D9F800208A1A79
:1015F800002AD8BF1946A6DCBDE794F8433000336B
:1016080018BF0123C9E7D9F80010E068A368226968
:10161800A0EB0109934229EAE979D1DCB9F1000F7D
:10162800D0D10020BDE8F0872DE9F0430C46097EB3
:1016380085B06E2906461746984604F1430C0C9867
:1016480055D00FD8632900F0198100F2D480002901
:101658005CD0582940F0E68084F845102268DFF80D
:101668005CE213E0732900F0FB8000F289806F29A7
:1016780000F0E280702940F0D580226842F0200214
:1016880022607823DFF838E284F8453003681506CD
:1016980003F1040100F1FD8055064BBF1B881B6850
:1016A80001600160D00744BF42F020022260002B95
:1016B80040F093801021226822F02002226000224C
:1016C80084F8432060680028A060C0F28B802268FC
:1016D80022F004022260002B66D1002840F08480AA
:1016E800654608296ED0ACEB0503236111E0236839
:1016F8001A0600F1D18013F0400F0368626903F104
:10170800040101601B6814BF1A801A600023654633
:101718002361CDF800803B4603AA21463046FFF7F7
:10172800EBFE013021D02A46236939463046C047AE
:1017380001301AD02368E06813F0020F039B19D018
:10174800C21A002A16DD002504F1190904E0E06830
:10175800039BC21AAA420DDD01234A463946304688
:10176800C047013005F10105F1D14FF0FF3005B058
:10177800BDE8F0839842B8BF184605B0BDE8F083CD
:10178800752959D078294DD122687AE72D206168CA
:101798005B42002984F84300A16020DB0A2122F083
:1017A8000402DFF818E122606546B3FBF1F201FBA1
:1017B80012331EF80300134605F8010D002AF4D170
:1017C800082990D12368D9078DD5626823699A4280
:1017D80089DC3023013D2B7085E710216FE70A2152
:1017E800DFF8D8E0002BDFD19EF8003004F1420585
:1017F80084F8423075E7642901D0692912D122683A
:101808000368150603F1040152D455064BBFB3F91A
:1018180000301B6801600160002BB7DB0A21DFF88C
:101828009CE04FE7012384F84210236104F142054C
:10183800002384F843306CE723681A0633D413F086
:10184800400F036803F1040215BF1B881B68026080
:1018580002606F2914BF0A210821DFF860E02EE733
:1018680003686268191D01601D680021284600F0A0
:10187800D3FA00B3401B60602061D9E701220368F6
:1018880004F14205191D1B68016084F84230226189
:10189800CEE701601B6805E703686269191D0160EE
:1018A8001B681A6032E703681A1D02601B68D0E7DC
:1018B80001601B68B0E76068DEE700BFF4680008F5
:1018C8000869000870B50D461446064608B18369D4
:1018D8000BB3154B9C4223D0144B9C4222D0144B83
:1018E8009C4208BFF468A368013B002BA36005DB9A
:1018F800E8B223685A1C22601D7070BDA269934229
:1019080002DBE8B20A28F4D1224629463046BDE86F
:101918007040FEF739BEFFF7DDF8034B9C42DBD180
:101928007468E0E7B468DEE7B83D0008983D000851
:10193800783D0008194B70B51D6806460C460DB178
:10194800AB690BB3164B9C4224D0164B9C4223D058
:10195800154B9C4208BFEC68A368013B002BA360B1
:1019680005DBF0B223685A1C22601E7070BDA269A4
:10197800934202DBF0B20A28F4D1224631462846C7
:10198800BDE87040FEF700BE2846FFF7A3F8044BF9
:101998009C42DAD16C68DFE7AC68DDE70000002024
:1019A800B83D0008983D0008783D000838B5002388
:1019B800064C05460846236000F0BEFB431C00D0D9
:1019C80038BD2368002BFBD02B6038BDEC0000200D
:1019D80010B50C46B1F90E1000F066FB002803DBC9
:1019E800636D0344636510BDA38923F48053A38109
:1019F80010BD00BF002070472DE9F0410C46B1F939
:101A08000C101F46CB051646054607D5B4F90E102F
:101A18000223002200F0EAF9B4F90C1021F48051F5
:101A2800A1813B463246B4F90E102846BDE8F04184
:101A380000F014B810B50C46B1F90E1000F0D6F944
:101A4800A389421C0EBF23F4805343F4805360657E
:101A5800A38110BDB1F90E1000F016B8F8B50E4606
:101A68000025084C114607461A463046256000F006
:101A780071FB431C00D0F8BD2368002BFBD03B60F2
:101A8800F8BD00BFEC00002038B50023064C054621
:101A98000846236000F028FB431C00D038BD2368AB
:101AA800002BFBD02B6038BDEC00002070B50D4634
:101AB8000023074C064611462846236000F01CFB0D
:101AC800431C00D070BD2368002BFBD0336070BD71
:101AD800EC0000209368002B71D02DE9F04F8B8922
:101AE80083B00C4619070090164625D522691AB30B
:101AF80013F0020035682BD04FF00009B0464F466E
:101B0800DFF8C0A2002F55D057453B464A4628BFAC
:101B18005346216A0098A66AB047002856DDD8F8CF
:101B2800083081441B1A3F1AC8F80830002BE9D145
:101B3800002003B0BDE8F08F21460098FEF786FD2F
:101B4800002840F03581A389356813F00200D3D10D
:101B580013F0010944D14F46019637B39A05D4F8DA
:101B6800088040F185804745C346C0F0AD8013F436
:101B7800906F40F0AE80BA4620685A46494600F059
:101B880007FAA2682368A2EB08025B44A2602360FC
:101B9800019AD1449368A7EB0A07A3EB0A03936061
:101BA800002BC5D0A389002FD8D1D5F800906F6835
:101BB8000835D2E7D5F800906F680835A2E700200D
:101BC800704721460098FEF749FE78B3B4F90C3007
:101BD8004FF0FF3043F04003A38103B0BDE8F08F1E
:101BE800814633464E46A8469A464D4656B3002887
:101BF80032D0B145CB4628BFB346206823695F463B
:101C08009842626904D9A36813449B4500F3A880ED
:101C180093454DDB1346A76A2A46216A0098B847C0
:101C2800071ED3DDB9EB0709CBD00120DAF808305D
:101C38003D44DB1BF61BCAF80830002B3FF478AF95
:101C4800002ED4D108F1080353F8046C984653F8D1
:101C5800085C0833002EF7D032460A21284600F0E7
:101C6800DBF8002800F0A1800130A0EB0509C0E7EF
:101C780020682369984202D863699F425DD2B845BB
:101C880028BFB8464946424600F082F9A368226850
:101C9800A3EB08034244A36022600BB1C24677E776
:101CA80021460098FEF7DAFD00288FD1C2466FE77B
:101CB8005A46294600F06CF9A2682368A2EB0B0289
:101CC8005B44A2602360ADE7B846BA46BB462068CD
:101CD80053E762692068216902EB4208A0EB010A18
:101CE80008EBD8780AF101004FEA68083844404503
:101CF800424684BF804642465B0544D5114600985B
:101D0800FFF70EF88346002855D05246216900F0A7
:101D1800C9F8A38923F4906343F08003A3810BEBF4
:101D28000A00A8EB0A03C4F810B0C4F814802060B5
:101D3800A360B846BA46BB461FE76FF00042BA42F6
:101D480028BF3A4692FBF3F2216A03FB02F300989C
:101D58004A46A66AB047B0F1000A3FF719AF35E71F
:101D68001A462946019300F013F92268019B21467F
:101D78001A4422600098FEF771FD019B00287FF449
:101D880025AF1F464EE7009800F066F98346002805
:101D9800C5D1009D21692846FEF77AFF0C22B4F9C7
:101DA8000C302A6023F0800312E706F1010920E7CE
:101DB8004FF0FF30BDE60C220099B4F90C300A60F0
:101DC80006E700BF00FCFF7F38B50023064C054638
:101DD8000846236000F098F9431C00D038BD2368FA
:101DE800002BFBD02B6038BDEC000020F8B50E4668
:101DF8000025084C114607461A463046256000F073
:101E08008BF9431C00D0F8BD2368002BFBD03B6046
:101E1800F8BD00BFEC000020830770B4CDB23DD000
:101E2800541E0AB30378AB421FD0431C05E014F1DB
:101E3800FF3419D30278AA4217D013F0030F1846BB
:101E480003F10103F3D1032C11D84CB30378AB424F
:101E58000BD00444431C02E00278AA4205D09C42FD
:101E6800184603F10103F7D1002070BC704709023E
:101E780089B2294341EA0141036806464B40A3F170
:101E8800013222EA030313F0803F00F1040003D17A
:101E9800043C032CF0D8D8E73046D7E71446D2E7FD
:101EA8002046E2E7844641EA000313F0030349D1E0
:101EB800403A23D30B6803604B6843608B688360A8
:101EC800CB68C3600B6903614B6943618B698361AC
:101ED800CB69C3610B6A03624B6A43628B6A836294
:101EE800CB6AC3620B6B03634B6B43638B6B83637C
:101EF800CB6BC36340304031403ADBD230320BD336
:101F08000B6803604B6843608B688360CB68C36071
:101F180010301031103AF3D20C3205D351F8043B8B
:101F280040F8043B043AF9D2043208D0D2071CBF67
:101F380011F8013B00F8013B01D30B880380604690
:101F4800704700BF082A13D38B07B1D010F00303E2
:101F5800AED0C3F10403D21ADB071CBF11F8013B52
:101F680000F8013BA4D331F8023B20F8023B9FE77D
:101F7800043AD9D3013A11F8013B00F8013BF9D2F0
:101F88000B7803704B7843708B788370604670478A
:101F98008842F0B50DD98B1898420AD28418002AC5
:101FA80051D0224613F8014D994202F8014DF9D15A
:101FB800F0BD0F2A48D941EA00039B0746D11546D0
:101FC80000F1100401F1100353F8106C103D44F8AF
:101FD800106C53F80C6C0F2D44F80C6C53F8086C0B
:101FE80004F1100444F8186C53F8046C03F110035E
:101FF80044F8146CE8D8A2F1100323F00F0302F0A0
:102008000F0E1033BEF1030F1944034421D90E46B5
:1020180074461D1F56F8047B043C032C45F8047FC6
:10202800F8D8AEF1040424F0030404342144234412
:1020380002F0030262B1013B0A4411F8014B8A42E3
:1020480003F8014FF9D1F0BD0346F3E70346F2E781
:10205800F0BD7246EEE700BFF8B51446F9B1C2B15B
:1020680006460D4600F036F8844201D82846F8BDE9
:1020780021463046FEF754FE074670B122462946EF
:10208800FFF710FF29463D463046FEF701FE284679
:10209800F8BDFEF7FDFD2546E8E70546E6E71146EB
:1020A800BDE8F840FEF73CBEF8B50E460025084CE2
:1020B800114607461A463046256000F035F8431C9D
:1020C80000D0F8BD2368002BFBD03B60F8BD00BFF3
:1020D800EC00002051F8040C0028A0F10400BCBF5B
:1020E8000B58C018704700BF5822024B4FF0FF3002
:1020F8001A607047EC0000205822024B4FF0FF3066
:102108001A607047EC0000205822024B00201A6029
:10211800704700BFEC0000205822024B4FF0FF3000
:102128001A607047EC0000205822024B4FF0FF3035
:102138001A607047EC000020044A05491368002B18
:1021480008BF0B461844106018467047E00000208E
:10215800F00000205822024B4FF0FF301A60704701
:10216800EC00002081F0004102E000BF83F0004352
:1021780030B54FEA41044FEA430594EA050F08BF1A
:1021880090EA020F1FBF54EA000C55EA020C7FEADE
:10219800645C7FEA655C00F0E2804FEA5454D4EB5B
:1021A8005555B8BF6D420CDD2C4480EA020281EA25
:1021B800030382EA000083EA010180EA020281EA5D
:1021C8000303362D88BF30BD11F0004F4FEA0131AF
:1021D8004FF4801C4CEA113102D0404261EB4101BE
:1021E80013F0004F4FEA03334CEA133302D0524244
:1021F80063EB430394EA050F00F0A780A4F1010400
:10220800D5F1200E0DDB02FA0EFC22FA05F2801839
:1022180041F1000103FA0EF2801843FA05F359411F
:102228000EE0A5F120050EF1200E012A03FA0EFC9E
:1022380028BF4CF0020C43FA05F3C01851EBE371C8
:1022480001F0004507D54FF0000EDCF1000C7EEBE5
:1022580000006EEB0101B1F5801F1BD3B1F5001F23
:102268000CD349085FEA30004FEA3C0C04F1010442
:102278004FEA445212F5800F80F09A80BCF1004F6B
:1022880008BF5FEA500C50F1000041EB045141EAED
:10229800050130BD5FEA4C0C404141EB010111F4EE
:1022A800801FA4F10104E9D191F0000F04BF014699
:1022B8000020B1FA81F308BF2033A3F10B03B3F177
:1022C80020020CDA0C3208DD02F1140CC2F10C0207
:1022D80001FA0CF021FA02F10CE002F11402D8BF65
:1022E800C2F1200C01FA02F120FA0CFCDCBF41EA31
:1022F8000C019040E41AA2BF01EB0451294330BD00
:102308006FEA04041F3C1CDA0C340EDC04F11404DC
:10231800C4F1200220FA04F001FA02F340EA0300B3
:1023280021FA04F345EA030130BDC4F10C04C4F1F9
:10233800200220FA02F001FA04F340EA03002946D9
:1023480030BD21FA04F0294630BD94F0000F83F423
:10235800801306BF81F480110134013D4EE77FEA06
:10236800645C18BF7FEA655C29D094EA050F08BF52
:1023780090EA020F05D054EA000C04BF1946104633
:1023880030BD91EA030F1EBF0021002030BD5FEA77
:10239800545C05D14000494128BF41F0004130BD9F
:1023A80014F580043CBF01F5801130BD01F00045F3
:1023B80045F0FE4141F470014FF0000030BD7FEA66
:1023C800645C1ABF194610467FEA655C1CBF0B4661
:1023D800024650EA013406BF52EA033591EA030F78
:1023E80041F4002130BD00BF90F0000F04BF002170
:1023F800704730B54FF4806404F132044FF00005A3
:102408004FF0000150E700BF90F0000F04BF00211B
:10241800704730B54FF4806404F1320410F0004581
:1024280048BF40424FF000013EE700BF42004FEA7C
:10243800E2014FEA31014FEA02701FBF12F07F43F9
:1024480093F07F4F81F06051704792F0000F14BFF6
:1024580093F07F4F704730B54FF4607401F000453A
:1024680021F0004120E700BF50EA010208BF704791
:1024780030B54FF000050AE050EA010208BF704786
:1024880030B511F0004502D5404261EB41014FF4EF
:10249800806404F132045FEA915C3FF4DCAE4FF0F3
:1024A80003025FEADC0C18BF03325FEADC0C18BFDA
:1024B800033202EBDC02C2F1200300FA03FC20FA2B
:1024C80002F001FA03FE40EA0E0021FA02F1144478
:1024D800C1E600BF4FEA4102B2F1E04324BFB3F5C1
:1024E800001CDCF1FE5C0DD901F0004C4FEAC00283
:1024F8004CEA5070B2F1004F40EB830008BF20F067
:102508000100704711F0804F21D113F13872BCBF20
:1025180001F00040704741F480114FEA5252C2F175
:102528001802C2F1200C10FA0CF320FA02F018BFBE
:1025380040F001004FEAC1234FEAD32303FA0CFC11
:1025480040EA0C0023FA02F34FEA4303CCE77FEAA0
:10255800625307D150EA01331EBF4FF0FE4040F4EA
:102568004000704701F0004040F0FE4040F4000099
:10257800704700BF82B0019002E0019B013B0193CC
:10258800019B002BF9D102B0704700000000000049
:10259800F0B59DB07E4E3378013333707D4C2068A2
:1025A800FFF744FF78A3D3E90023FFF7E1FDFFF726
:1025B80091FF2060784F384601F0FEF800214FF473
:1025C800784001F005F9754D754B1B882A88002164
:1025D800084600F0B1FF3278724903A8FDF7AEFF54
:1025E80001F0F0F8C08800EB800080B201F000F93B
:1025F80001F0E8F8C08800EB800003A980B201F080
:102608008FF82068FFF712FF02460B46664903A8B9
:10261800FDF794FF01F0D6F8C38803EB4303580095
:1026280080B201F0E5F801F0CDF8C38803EB43036D
:10263800580080B203A901F073F82068FFF7F6FE8E
:1026480002460B46594903A8FDF778FF01F0BAF88E
:10265800C088C0EBC00080B201F0CAF801F0B2F83F
:10266800C088C0EBC00003A980B201F059F84FF44C
:10267800FC6001F0B7F84E4C4E4B00932023022229
:10268800214603A8FDF75AFF01F09CF8C08800EB2B
:10269800C00080B201F0ACF801F094F8C08800EBFB
:1026A800C00003A980B201F03BF801F08BF8C088A4
:1026B80000EB800300EB43003F4980B201F030F8A3
:1026C8003E4801F079F82E8801F07CF88288B6FB44
:1026D800F2F2063A3A4B009320235208214603A807
:1026E800FDF72CFF01F06EF8C38803EB4303580095
:1026F80080B201F07DF801F065F8C38803EB43036D
:10270800580080B203A901F00BF8384601F054F8DC
:102718002A88D2080C3A2B4B0093202352082146D2
:1027280003A8FDF70BFF01F04DF8C088C0EB0010BF
:1027380080B201F05DF801F045F8C088C0EB0010E8
:1027480003A980B200F0ECFF2A88D208153A1E4B84
:10275800009320235208214603A8FDF7EFFE01F05D
:1027680031F8C088000180B201F042F801F02AF87F
:10277800C088000180B203A900F0D2FF6FF07F404B
:10278800FFF7F8FE1DB0F0BD9A9999999999B93F4C
:10279800E8000020E400002090000020A2000020B3
:1027A800A4000020D83D0008EC3D0008043E0008C5
:1027B800203E0008283E00083C3E00088800002013
:1027C800543E00085C3E00086C3E000838B5002501
:1027D80028E02A20FDF70EFE0134072C0ADC154BF1
:1027E80013F81530A34013F0800FF2D12020FDF725
:1027F80001FEF1E7002403E02A20FDF7FBFD013488
:10280800072C0BDC6B0001330A4AD35CA34013F09E
:10281800800FF1D12020FDF7EDFDF0E70A20FDF74C
:10282800E9FD01350F2D01DC0024D6E70248FDF74C
:102838005BFE38BD64000020843E000808B500F047
:10284800E9FD00F0E5FF0748FDF74EFE0648FDF7F5
:102858004BFE062000F044FDFFF7B8FFFFF798FE97
:10286800FCE700BF883E0008C83E00087047FEE746
:10287800FEE7FEE7FEE770477047704770470000C5
:1028880008B501460248FDF789FD002008BD00BFD4
:102898001C3F000830B587B001214FF4805001F08B
:1028A80073F90121C42001F06FF91025ADF800502B
:1028B80003238DF802308DF80350244C69462046D6
:1028C80001F076F82023ADF8003018238DF8033096
:1028D8006946204601F06CF84023ADF8003069469F
:1028E800204601F065F88023ADF80030694620469F
:1028F80001F05EF82946204601F0A9F80023ADF85A
:1029080004304FF48272ADF80620ADF80830022288
:10291800ADF80A200125ADF80C504FF40072ADF85F
:102928000E200822ADF81020ADF812300723ADF8BC
:10293800143004F5205401A9204601F033F9294642
:10294800204601F055F907B030BD00BF000801402E
:1029580010B504464FF48052174B1A6002211748ED
:1029680001F059F950B9144A1368591E1160002B27
:10297800F4D10020FFF784FFC0B210BD21460F48F4
:1029880001F044F94FF480520B4B1A6001210B48B7
:1029980001F041F950B9084A1368591E1160002B1B
:1029A800F4D10120FFF76CFFC0B210BD034801F05D
:1029B8002FF9C0B210BD00BF8400002000300140D4
:1029C80070B506460C4615461021104801F041F82E
:1029D8000320FFF7BDFFC4F30740FFF7B9FFC4F3B7
:1029E8000720FFF7B5FFE0B2FFF7B2FF05E0FF20D1
:1029F800FFF7AEFF06F8010B25466B1E9CB2002DB3
:102A0800F5D11021014801F022F870BD00080140FD
:102A180038B505460C460E4B1B788BB1210AE4B23B
:102A2800A1395E2303FB0141A13909020ED4C91063
:102A3800202201F5CB112846FFF7C2FF002038BD40
:102A4800FFF728FF0122024B1A70E7E70731EEE78C
:102A5800E900002082B0019002E0019B013B019354
:102A6800019B002BF9D102B0704700002DE9F84F07
:102A78004FF6FF70FFF7EEFFAF4C102565614FF082
:102A88008009C4F8149020272761DFF8B082CF238B
:102A9800C8F80C3040266661266125616561C4F876
:102AA800109027614FF0000AC8F80CA066612661F3
:102AB80025616561C4F8109027614FF0810BC8F853
:102AC8000CB06661266125616561C4F810902761C4
:102AD8003023C8F80C306661266125614FF6FF7017
:102AE800FFF7B8FF6561C4F814902761ED23C8F8B3
:102AF8000C306661266125616561C4F81090276114
:102B08006423C8F80C306661266125616561C4F8E4
:102B1800109027610323C8F80C306661266125618F
:102B28006561C4F8109027611223C8F80C306661FB
:102B3800266125616561C4F810902761C8F80CB05A
:102B48006661266125614FF6FF70FFF783FF6561B7
:102B5800C4F814902761E823C8F80C306661266130
:102B680025616561C4F8109027618523C8F80C3089
:102B78006661266125616561C4F810902761C8F80F
:102B88000C506661266125616561C4F81090276163
:102B98007823C8F80C306661266125614FF6FF700E
:102BA800FFF758FF6561C4F814902761CB23C8F874
:102BB8000C306661266125616561C4F81090276153
:102BC8003923C8F80C306661266125616561C4F84F
:102BD800109027612C23C8F80C30666126612561A6
:102BE8006561C4F810902761C8F80CA06661266179
:102BF80025616561C4F8109027613423C8F80C304A
:102C08006661266125616561C4F810902761022319
:102C1800C8F80C306661266125614FF6FF70FFF732
:102C280019FF6561C4F814902761F723C8F80C30C0
:102C38006661266125616561C4F810902761C8F84E
:102C48000C706661266125614FF6FF70FFF702FF81
:102C58006561C4F814902761EA23C8F80C306661EE
:102C6800266125616561C4F810902761C8F80CA039
:102C78006661266125616561C4F810902761C8F80E
:102C88000CA06661266125614FF6FF70FFF7E2FE32
:102C98006561C4F814902761B123C8F80C306661E7
:102CA800266125616561C4F810902761C8F80CA0F9
:102CB8006661266125616561C4F8109027611B2350
:102CC800C8F80C306661266125614FF6FF70FFF782
:102CD800C1FE6561C4F814902761B623C8F80C30AA
:102CE8006661266125616561C4F8109027610A2331
:102CF800C8F80C306661266125616561C4F81090DA
:102D080027614FF0A20BC8F80CB0666126612561F7
:102D18004FF6FF70FFF79EFE6561C4F814902761B7
:102D2800C023C8F80C306661266125616561C4F866
:102D38001090276104E000BF00100140000C014022
:102D48003523C8F80C306661266125614FF6FF709F
:102D5800FFF780FE6561C4F814902761C123C8F8A5
:102D68000C306661266125616561C4F810902761A1
:102D78001123C8F80C306661266125616561C4F8C5
:102D880014902761C523C8F80C3066612661256157
:102D98006561C4F8109027614523C8F80C30666156
:102DA800266125616561C4F810902761C8F80C3068
:102DB8006661266125616561C4F814902761C7239F
:102DC800C8F80C306661266125616561C4F8109009
:102DD8002761C8F80CB06661266125616561C4F891
:102DE80014902761F223C8F80C30666126612561CA
:102DF8006561C4F810902761C8F80CA06661266167
:102E080025616561C4F8149027614FF0260AC8F857
:102E18000CA06661266125616561C4F81090276180
:102E28000123C8F80C306661266125614FF6FF70F2
:102E3800FFF710FE6561C4F814902761E023C8F815
:102E48000C306661266125616561C4F810902761C0
:102E58000F23C8F80C306661266125616561C4F8E6
:102E680010902761C8F80CA066612661256165612C
:102E7800C4F8109027612423C8F80C3066612661D5
:102E880025616561C4F81090B8462761AC4F0B23E3
:102E9800FB606661266125616561C4F81090C4F81D
:102EA80010800E23FB606661266125616561C4F8A8
:102EB8001090C4F810800923FB60666126612561C3
:102EC8006561C4F81090C4F810805422FA606661F5
:102ED800266125616561C4F81090C4F81080A822A5
:102EE800FA606661266125616561C4F81090C4F8CE
:102EF80010804622FA606661266125616561C4F822
:102F08001090C4F810800C22FA6066612661256171
:102F18006561C4F81090C4F810801722FA606661E1
:102F2800266125616561C4F81090C4F81080FB60C3
:102F38006661266125616561C4F81090C4F8108047
:102F48000F23FB606661266125616561C4F81090F6
:102F5800C4F810800722FA60666126612561656100
:102F6800C4F81090C4F810804FF0000AC7F80CA0FD
:102F78006661266125616561C4F81490C4F8108003
:102F8800E121F9606661266125616561C4F81090E8
:102F9800C4F81080C7F80CA06661266125616561D8
:102FA800C4F81090C4F810801921F9606661266190
:102FB80025616561C4F81090C4F810801B21F96080
:102FC8006661266125616561C4F81090C4F81080B7
:102FD8000421F9606661266125616561C4F8109075
:102FE800C4F81080FD606661266125616561C4F8DA
:102FF8001090C4F81080FA606661266125616561E9
:10300800C4F81090C4F810804FF02A0BC7F80CB021
:103018006661266125616561C4F81090C4F8108066
:103028004722FA606661266125616561C4F81090DF
:10303800C4F810803922FA606661266125616561ED
:10304800C4F81090C4F810800322FA606661266103
:1030580025616561C4F81090C4F810800622FA60F2
:103068006661266125616561C4F81090C4F8108016
:10307800FA606661266125616561C4F81090C4F83C
:1030880010803022FA606661266125616561C4F8A6
:103098001090C4F810803822FA60666126612561B4
:1030A8006561C4F81090C4F81080FB606661266101
:1030B80025614FF6FF70FFF7CDFC6561C4F81490E9
:1030C800C4F810803623FB6066612661256165615E
:1030D800C4F81090C4F81080C823FB6066612661AC
:1030E80025614FF6FF70FFF7B5FC6561C4F81490D1
:1030F800C4F81080C7F80CB0666126612561656167
:10310800C4F81090C4F81080C7F80CA06661266156
:1031180025616561C4F81090C4F81080C7F80CA048
:103128006661266125616561C4F81090C4F8108055
:10313800C7F80CA0666126612561656102E000BFE1
:10314800000C0140C4F81090C4F81080EF23FB6015
:103158006661266125614FF6FF70FFF77BFC6561AC
:10316800C4F81490C4F810802B23FB6066612661B4
:1031780025616561C4F81090C4F81080C7F80CA0E8
:103188006661266125616561C4F81090C4F81080F5
:10319800C7F80CA06661266125616561C4F81090C6
:1031A800C4F810800123FB606661266125616561B2
:1031B800C4F81090C4F810803F23FB606661266154
:1031C80025614FF6FF70FFF745FC6561C4F8149060
:1031D800C4F810803A23FB60666126612561656149
:1031E800C4F81090C4F810805523FB60666126610E
:1031F80025616561C4F81490C4F810801123FB6040
:103208006661266125610948FFF724FC4FF6FF70C7
:10321800FFF720FC6561C4F81490C4F810802923D6
:10322800FB60666126612561BDE8F88FFCBF02007E
:1032380070B582B00121084600F0A6FC01213820B3
:1032480000F0A2FC01211B4800F006FC03238DF8C6
:10325800063010268DF8076002AC4FF6FF7324F88D
:10326800043D2146144800F0A3FB2023ADF80430A8
:10327800124D2146284600F09BFB4023ADF8043050
:103288002146284600F094FBADF804602146284604
:1032980000F08EFB8023ADF804302146284600F06C
:1032A80087FB0423ADF804302146054800F080FB75
:1032B80002B070BD00023000000C01400010014057
:1032C8000014014008B520B90421044800F0BFFBF0
:1032D80008BD0421014800F0BCFB08BD00140140F2
:1032E800072800F28C80F0B5454B187010F0010FDC
:1032F8007DD1F022434B1A804FF4A072424B1A80C2
:10330800424B10225A6180265E6120251D61404C87
:103318003621E1604021596119611A61400140F08C
:1033280008005A611E611D61E060596119611A61E6
:103338005A615E611D612A20E060596119611A6154
:103348005A611E611D610027E760596119611A61A0
:103358005A611E611D61E760596119611A61294846
:1033680000880138C0F3072E5A611E611D61C4F838
:103378000CE0596119611A61C0B25A611E611D6180
:10338800E060596119611A615A615E611D612B2003
:10339800E060596119611A615A611E611D61E76037
:1033A800596119611A615A611E611D61E7605961AD
:1033B80019611A61144800880138C0F307275A6157
:1033C8001E611D61E760596119611A61C0B25A61D5
:1033D8001E611D61E060596119611A615A615E617F
:1033E8001D612C20E060596119611A61F0BD4FF42C
:1033F800A072044B1A80F022034B1A8080E77047B2
:10340800A0000020A2000020A4000020001001401D
:10341800000C014008B5FFF70BFF0120FFF752FF32
:10342800FFF724FB024B1878FFF75AFF08BD00BFCF
:10343800A00000202DE9F0413D4C102565614FF0BA
:10344800800CC4F814C04FF0200EC4F810E0394FB7
:103458002A26FE6040266661266125614FEA10280B
:103468006561C4F810C0C4F810E0C7F80C80666144
:10347800266125615FFA80F86561C4F810C0C4F858
:1034880010E0C7F80C806661266125611044421E71
:103498006561C4F810C0C4F810E0C2F30F22FA60E6
:1034A80066612661256180B20138C0B26561C4F8E1
:1034B80010C0C4F810E0F860666126612561656196
:1034C800C4F814C0C4F810E02B22FA6066612661C3
:1034D80025610A0A6561C4F810C0C4F810E0FA60F2
:1034E800666126612561CAB26561C4F810C0C4F876
:1034F80010E0FA6066612661256119444B1E65611A
:10350800C4F810C0C4F810E0C3F30F23FB60666171
:103518002661256189B20139C9B26561C4F810C054
:10352800C4F810E0F960666126612561BDE8F081A4
:1035380000100140000C014038B514461D46FFF745
:1035480079FF05FB04F3114A1288114910204861DC
:1035580080244C6120240C612C250E4CE56040240D
:103568004C610C61086100200DE0094910244C6190
:1035780080250D6120250D61064DEA6040254D61CD
:103588000D610C6101308342EFD838BD98000020EE
:1035980000100140000C0140F8B5A2F12004A4B2CB
:1035A8002A4B1D68AA88EB8803FB02F6002E16DB5F
:1035B800C6F3C7062D6804FB06F4FFF73BFF244B50
:1035C80010225A6180215961202119612C2021493A
:1035D800C8604021596119611A61002030E007363E
:1035E800E6E71D4AB2F800E0194A10215161802728
:1035F800176120271761174FC7F80CE0402757615C
:10360800176111610133DBB2072B17D82A19115C36
:1036180080221A411142E4D0104AB2F800E00C4A64
:10362800102151618027176120271761094FC7F8BA
:103638000CE04027576117611161E3E70130C0B220
:10364800B04201D20023DFE7F8BD00BF9C00002094
:1036580000100140000C014098000020EA00002002
:1036680070B588B0144610231A46FFF7E3FE284BBE
:1036780010225A6180215961202119612C20254985
:10368800C8604021596119611A6121466846FFF7EF
:10369800BFF9002629E0204A15881D4A10215161EA
:1036A80080201061202010611A48C56040205061B8
:1036B800106111610133DBB20F2B14D84FF40042B3
:1036C8001A411442E7D0154A1588114A1021516150
:1036D80080201061202010610E48C5604020506194
:1036E80010611161E6E70136F6B20F2E0DD87300AE
:1036F80008AA1A4412F8202C013308A90B4413F81D
:10370800204C44EA02240023D6E708B070BD00BF6D
:1037180000100140000C014098000020EA00002041
:1037280070B505460E46002409E029462046FFF7F5
:1037380033FF1E4B1B689B881C44A4B201363278A9
:10374800002A32D07E2A14D8184B19688B88234453
:1037580017480088834203DDCB881D44ADB200249E
:10376800CB882B44134909888B42DEDD002425468B
:10377800DBE704F110030E4A1288934202DD10358C
:10378800ADB2002405F110030A4A1288934201DD04
:103798000024254636F8022B52BA92B22946204612
:1037A800FFF75EFF1034A4B2C9E770BD9C0000208B
:1037B800A2000020A4000020014B1860704700BF41
:1037C8009C000020014B1868704700BF9C00002037
:1037D800024B1880024B1980704700BFEA00002096
:1037E80098000020014B1880704700BFEA000020B5
:1037F80038B50446054B1D88FFF7E4FFC3882A4601
:1038080021460020FFF798FE38BD00BFA200002027
:1038180010B586B00121042000F0B6F901214FF45B
:10382800804000F0B1F94FF40073ADF8143018235C
:103838008DF8173003238DF81630154C05A920464E
:1038480000F0B6F84FF48063ADF8143004238DF817
:10385800173005A9204600F0ABF84FF4E133019387
:103868000023ADF80830ADF80A30ADF80C30ADF8EB
:1038780010300C23ADF80E3004F5405401A9204651
:1038880000F0D0F90121204600F030FA06B010BD52
:103898000008014082B00023019300932C4A13686A
:1038A80043F4803313602A4B1B6803F400330093FE
:1038B800019B01330193009B1BB9019BB3F5A06FDA
:1038C800F1D1234B1B6813F4003F06D0012300936A
:1038D800009B012B04D002B0704700230093F7E748
:1038E8001C4B1A6842F010021A601A6822F0030290
:1038F8001A601A6842F002021A60A3F580535A68E7
:103908005A605A685A605A6842F480625A605A6823
:1039180022F47C125A605A6842F4E8125A601A6813
:1039280042F080721A600A4B1B6813F0007FFAD0CD
:10393800074B5A6822F003025A605A6842F00202A2
:103948005A60034B5B6803F00C03082BF9D1C2E7FC
:10395800001002400020024008B5FFF79BFF08BD99
:1039680008B5104B1A6842F001021A6059680E4AED
:103978000A405A601A6822F0847222F480321A606F
:103988001A6822F480221A605A6822F4FE025A60E9
:103998004FF41F029A60FFF7DFFF4FF00062034BFE
:1039A8009A6008BD001002400000FFF800ED00E03A
:1039B800F0B4CB7803F00F02154613F0100F01D0C6
:1039C8008D7815430B78E3B10668002301E0426166
:1039D8000133072B14D801229A400C8832EA0404D8
:1039E800F6D19C000F27A74026EA070605FA04F43B
:1039F8002643CC78282CEAD0482CE9D10261E7E7A5
:103A080006600B88FF2B20D94668002302E042613C
:103A180015E00133072B17D803F108040122A2404F
:103A28000C8832EA0404F4D19C000F27A74026EA48
:103A3800070605FA04F42643CC78282CE7D0CC787E
:103A4800482CE6D10261E4E74660F0BC70470161AA
:103A5800704741617047000030B400281DDB1A4BE5
:103A68005B68C0F3034582B200F44014B4F5401F0C
:103A780016D010F4801F1BD00324AC4023EA0403A3
:103A880043F0706319B1410D09018A4013430028BE
:103A980017DB0D4A536030BC70470B4BDB69E0E71E
:103AA80023F07063084D6C6824F070646C60E9E77B
:103AB800440D240102FA04F423EA040343F070637A
:103AC800E0E7014AD361E6E70000014010B4294B62
:103AD8005B6803F00C03042B2BD0082B2CD013B1FC
:103AE800254B036001E0244B036022494B68C3F374
:103AF8000313224CE35CDAB20368D34043604A689C
:103B0800C2F30222A25CD2B223FA02F282604A68AD
:103B1800C2F3C222A25CD2B2D340C3604A68C2F3E5
:103B2800813217498A5CD2B2B3FBF2F3036110BC4D
:103B38007047114B0360D8E70E4A53685268C3F3C5
:103B48008343023312F4803F09D00A4A526812F4C0
:103B5800003F09D00B4A02FB03F30360C5E7094A9B
:103B680002FB03F30360C0E7034A02FB03F30360AD
:103B7800BBE700BF0010024000127A00AC00002032
:103B8800A800002000093D0029B9054A936923EAE5
:103B9800000090617047024A93691843906170472A
:103BA800001002402DE9F041038803F44153B1F8B5
:103BB80000C0B1F80280B1F804E0CF880E894D89C1
:103BC8008C89CA894CEA080C4EEA0C0E47EA0E07A3
:103BD8003E4335432C43224313430380838B9BB2DC
:103BE80023F400639BB283830B8A0382BDE8F081D0
:103BF80031B903889BB223F040039BB2038070471E
:103C080003889BB243F0400303807047818170476B
:103C1800808980B270470389194201D1002070471A
:103C28000120704730B587B004460D46038A9BB221
:103C3800CA8823F440531343038283899BB289883B
:103C480028896A8901430A4323F4B05323F00C03FB
:103C58001343A381A38A9BB2AA8923F44073134315
:103C6800A38201A8FFF732FF1E4B9C4224D0039B7E
:103C7800A28912F4004F21D103EB830303EB8303E2
:103C880029688900B3FBF1F1174BA3FB01235809FD
:103C98000501642300FB1313A28912F4004F16D107
:103CA8001B013233104AA2FB0323C3F343132B43F4
:103CB8009BB2238107B030BD049BD9E703EB830394
:103CC80003EB830329684900B3FBF1F1DCE7D90072
:103CD8003231054AA2FB0131C1F3421245EA02031F
:103CE800E6E700BF003801401F85EB5131B98389F1
:103CF8009BB223F400539BB28381704783899BB2A4
:103D080043F4005383817047002103E00B4B5B5859
:103D1800435004310A480B4B42189A42F6D30A4AD8
:103D280002E0002342F8043B084B9A42F9D3FFF71C
:103D380017FEFCF7A7FAFEF781FD70472469000813
:103D480000000020BC000020BC000020F000002083
:103D5800FEE70000F8B500BFF8BC08BC9E467047F7
:0C3D6800F8B500BFF8BC08BC9E467047D0
:103D7400040000200000000000000000000000001B
:103D8400000000000000000000000000000000002F
:103D9400000000000000000000000000000000001F
:103DA400000000000000000000000000000000000F
:103DB40000000000000000000000000000000000FF
:103DC40000000000000000000000000000000000EF
:103DD40000000000CFD4CABED5FBD0CDB1E4C1BF32
:103DE400A3BA202564200000CFD4CABEB8A1B5E38D
:103DF400D0CDB1E4C1BFA3BA2025662000000000E5
:103E0400B8A1B5E3D0CD28B1A3C1F432CEBBD0A1C3
:103E1400CAFD29A3BA20252E32662000252A63254F
:103E240073000000B2E5C8EB32B8F6D3A2CEC4BF2B
:103E3400D5B8F1CABEC0FD00B4BFD3A2CEC43234DB
:103E4400783332BED3D6D0CABEC0FDA3BA000000B8
:103E54004142434445460000D6D0CEC4BED3D6D05A
:103E6400CABEC0FD00000000BAACD3A2CEC4BED30B
:103E7400D6D0CABEC0FD4142434445464700000077
:103E84000A0000000D0A202A2A2A2A2A2A2A2A2A73
:103E94002A20D2BABEA7CFD4CABEB1E4C1BFCABE1B
:103EA400C0FDA3A8D5FBCAFD5FB8A1B5E3CAFDB5A3
:103EB400C8A3A92A2A2A2A2A2A2A2A2A2A2A200DEF
:103EC400000000000D0A20C8F4BABAD7D6CFD4CA6D
:103ED400BEB2BBD5FDB3A3A3ACC7EBD4C4B6C1B9C2
:103EE400A4B3CCD6D0B5C4726561646D652E747804
:103EF40074CEC4BCFECBB5C3F7A3ACB8F9BEDDD257
:103F0400AAC7F3B8F8464C415348D6D8CBA2D7D663
:103F1400C4A3CAFDBEDD0D003C3C2D464C415348B4
:103F24002D4552524F522D3E3E2053504920B5C884
:103F3400B4FDB3ACCAB1216572726F72436F64652C
:103F4400203D2025640A000000000000000000005D
:103F5400000000000000000000000000000000005D
:103F6400000000000000000000000000000000004D
:103F7400000000000000000000000000000000003D
:103F8400000000000000000000000000000000002D
:103F9400000000000000000000000000000000001D
:103FA400000000000000000000000000000000000D
:103FB40000000000000000000000003C00003C0085
:103FC400003C00003C00003C00003C00003C0000C1
:103FD4003C00003C00003C00003C00003C00003C75
:103FE40000003C00000000000000003C00007E00D7
:103FF400003C000000000000000000000000000081
:1040040000000000000000000000000000000000AC
:104014000000000000000000000003C3E003C3E050
:1040240003C3C003C3C003C3C003C3C003C1C000F0
:10403400000000000000000000000000000000007C
:10404400000000000000000000000000000000006C
:10405400000000000000000000000000000000005C
:10406400000000000000000000000000000000004C
:10407400000000000000000000000000000000003C
:1040840001E0E001C0E001C0E001C0E03FFFFE3F0D
:10409400FFFE03C1C00381C00381C00381C07FFF51
:1040A400FC7FFFFC078380070380070380070380EE
:1040B400070780000000000000000000000000006E
:1040C40000000000000000000000000000000000EC
:1040D40000000000000000000700000F00000E00B8
:1040E40001FFF007FFF01F0E001E1E001E1C001E25
:1040F4001C000FDC0007FC0000FF80003FF00038CC
:10410400F800387800783C0070783071F83FFFE0B0
:104114001FFF0000E00000E00000E00000000000DD
:10412400000000000000000000000000000000008B
:10413400000000000000000000000F800F3FE01EA0
:1041440078703C7070707070E07071C03FE3801FD5
:10415400C700000E00001C0000780000F0F001E72A
:10416400FC03CF0E078E0E0F0E0E1E0E0E3C07BC68
:104174007003F800000000000000000000000000D0
:10418400000000000000000000000000000000002B
:104194000000000000000000000000000001FF001B
:1041A40007FF800F03C00F03C00F03C00F07800772
:1041B4009F0003FE0003F0000FF83C3E7C3C3C1FD4
:1041C4003C780FF87807F87C01F03E03F81FFFFCF9
:1041D40007FE1F00000000000000000000000000B7
:1041E40000000000000000000000000000000000CB
:1041F40000000000000000000000003E00003C0041
:10420400003C00003C00003C00003C00003C00007E
:10421400000000000000000000000000000000009A
:10422400000000000000000000000000000000008A
:10423400000000000000000000000000000000007A
:10424400000000000000000000000000000000006A
:10425400000000000000000000800001C000078092
:10426400000F00001E00003C0000780000F0000079
:10427400E00001E00001E00001C00003C00003C051
:104284000001C00001E00001E00000F00000F000C7
:10429400007800003C00001E00000F000007C00072
:1042A40001C0000000000000000000000000000049
:1042B4000000000000000000000003C00001E00056
:1042C40000F000007C00003E00001E00000F000013
:1042D40007800007800003800003C00003C00003C0
:1042E400C00003C0000380000780000780000F00A7
:1042F400001E00003C0000780000F00001E0000314
:104304008000000000000000000000000000000029
:1043140000000000000000000000001C00001C0061
:104324000018000F18F007DBE0007F0000FF000713
:10433400DBE00E1870001800001C00001C000000D8
:104344000000000000000000000000000000000069
:104354000000000000000000000000000000000059
:104364000000000000000000000000000000000049
:104374000000000000000000000000000000000039
:10438400000000000000000000003C00003C0000B1
:104394003C00003C00003C00003C003FFFFC3FFFB1
:1043A400FC003C00003C00003C00003C00003C00E1
:1043B40000000000000000000000000000000000F9
:1043C40000000000000000000000000000000000E9
:1043D40000000000000000000000000000000000D9
:1043E40000000000000000000000000000000000C9
:1043F40000000000000000000000000000000000B9
:1044040000000000000000007C00007E00007E0030
:10441400003E00001E00003C0000F80007E000041D
:104424000000000000000000000000000000000088
:104434000000000000000000000000000000000078
:104444000000000000000000000000000000000068
:10445400000000000000000000000003FFE003FF74
:10446400E000000000000000000000000000000068
:104474000000000000000000000000000000000038
:104484000000000000000000000000000000000028
:104494000000000000000000000000000000000018
:1044A4000000000000000000000000000000000008
:1044B40000000000000000000000000000000000F8
:1044C40000000000000000007C0000FE0000FE0070
:1044D400007E00000000000000000000000000005A
:1044E40000000000000000000000000000000000C8
:1044F400000000000000000000000000780000F050
:104504000000E00001E00003C00003800007800019
:104514000F00000E00001E00003C00003800007078
:104524000000F00000E00001C00003C000078000AC
:104534000700000F00001E00001C00000000000027
:104544000000000000000000000000000000000067
:104554000000000000000000000000000000000057
:1045640001FFC007FFE00F00F01E00781E003C3C76
:1045740000FC3C07FC3C1FBC3C7C1C3DF03C3FC0A9
:104584003C3F003C1E00381E00780F80F007FFE01F
:1045940001FF800000000000000000000000000097
:1045A4000000000000000000000000000000000007
:1045B40000000000000000000000000000000000F7
:1045C400007E0003FE001FDE000E1E00001E000021
:1045D4001E00001E00001E00001E00001E00001E23
:1045E40000001E00001E00001E00001E000FFFF849
:1045F4000FFFF800000000000000000000000000B1
:1046040000000000000000000000000000000000A6
:104614000000000000000000000000000000000096
:1046240003FF800FFFE00E01F00000F00000F00037
:1046340000F00000F00001E00003C0000F80003E25
:1046440000007C0001F00003C0000F80001FFFFC8D
:104654001FFFFC000000000000000000000000003C
:104664000000000000000000000000000000000046
:104674000000000000000000000000000000000036
:104684000FFF800FFFE00001E00000F00000F000E9
:1046940001E00003C001FF0001FFC00003F00000BF
:1046A400780000780000780000780001F00FFFC067
:1046B4000FFF0000000000000000000000000000E8
:1046C40000000000000000000000000000000000E6
:1046D40000000000000000000000000000000000D6
:1046E400000FC0001FC0003FC0007BC000F3C0012A
:1046F400E3C003C3C00783C00F03C01C03C0380357
:10470400C07FFFFE7FFFFE0003C00003C00003C0A4
:104714000003C000000000000000000000000000D2
:104724000000000000000000000000000000000085
:104734000000000000000000000000000000000075
:104744000FFFE00FFFE00F00000F00000F00000F4D
:1047540000000F00000FFF800FFFE00000F00000DA
:10476400780000780000780000F00003E00FFFC03C
:104774000FFE000000000000000000000000000028
:104784000000000000000000000000000000000025
:104794000000000000000000000000000000000015
:1047A400003FF001FFF003E0000780000F00001E4F
:1047B40000001E1F001FFFE01FC1F81E00781E002E
:1047C4003C1E003C1E003C0F00780F80F807FFE001
:1047D40001FF800000000000000000000000000055
:1047E40000000000000000000000000000000000C5
:1047F40000000000000000000000000000000000B5
:104804001FFFFC1FFFFC0000780000F00000E00028
:1048140001E00003C0000780000F00000F00001E2D
:1048240000003C0000780000F00001F00001E0000E
:1048340003C00000000000000000000000000000B1
:104844000000000000000000000000000000000064
:104854000000000000000000000000000000000054
:1048640003FFE00FE3F00F00781E00781E00780FBE
:1048740000F007E3E001FF8001FF8007E7E00F009D
:10488400F81E00781E003C1E007C1F00F80FFFF08D
:1048940003FFC00000000000000000000000000052
:1048A4000000000000000000000000000000000004
:1048B40000000000000000000000000000000000F4
:1048C40003FF800FC7E01E00F01E00783C00783C18
:1048D40000783C00381E00780FEFF807FFB800009E
:1048E400780000780000F00001E0000FC00FFF0026
:1048F4000FF00000000000000000000000000000B5
:1049040000000000000000000000000000000000A3
:104914000000000000000000000000000000000093
:10492400000000000000000000000000007E000005
:104934007E00007E0000180000000000000000005F
:1049440000000000000000003C00007E00007E002B
:10495400003E000000000000000000000000000015
:104964000000000000000000000000000000000043
:104974000000000000000000000000000000000033
:10498400000000000000000000000000007E0000A5
:104994007E00007E000018000000000000000000FF
:1049A40000000000000000003E00007E00007F00C8
:1049B400001F00001E00001E0000FC0007F00004A1
:1049C40000000000000000000000000000000000E3
:1049D40000000000000000000000000000000000D3
:1049E4000000000000000000400001E00007C000DB
:1049F4001F00007E0001F80003E0000F80000F801C
:104A04000003E00000F800003E00000F800003E017
:104A14000000E000000000000000000000000000B2
:104A24000000000000000000000000000000000082
:104A34000000000000000000000000000000000072
:104A44000000000000000000000000000000000062
:104A540000000000001FFFF800000000000000003C
:104A6400001FFFF81FFFF800000000000000000016
:104A74000000000000000000000000000000000032
:104A84000000000000000000000000000000000022
:104A94000000000000000000000000000000000012
:104AA40000000000000000000007800003E0000098
:104AB400F800003E00000F800003E00000F8000151
:104AC400F00007C0001F00007C0001F00007C000D8
:104AD40003000000000000000000000000000000CF
:104AE40000000000000000000000000000000000C2
:104AF4000000000000000000000001C00001FE00F2
:104B0400007F800007C00001E00000F00000F0001A
:104B140001F00003E0007FC0007E00007000007020
:104B24000000700000000000000000F80000F80021
:104B340000F8000000000000000000000000000079
:104B44000000000000000000000000000000000061
:104B540000000000000000000000001F8000FFF0C3
:104B640003C07807801C0E000E1C000E3C000F389A
:104B74003FC778FFC770E3C771C3C7F3C387E3C3F5
:104B840087E3878EE3878EE3CF8EE3FFFC71F9F032
:104B94007000007000003800003C00000F01C007E6
:104BA400FFC0000000000000000000000000000042
:104BB40000000000000000000000000000000000F1
:104BC400007E00007F0000FF0000E78001E7800313
:104BD400C3C003C3C00781E00781E00F00F00F00EA
:104BE400F81FFFF81FFFFC3C003C3C001E78001E31
:104BF400F0000F00000000000000000000000000B2
:104C040000000000000000000000000000000000A0
:104C14000000000000000000000000000000000090
:104C24001FFFC01FFFF01E00F01E00781E00781E3C
:104C340000F01E01F01FFFC01FFFE01E01F81E0060
:104C4400781E003C1E003C1E00781E00F81FFFE08A
:104C54001FFF000000000000000000000000000032
:104C64000000000000000000000000000000000040
:104C74000000000000000000000000000000000030
:104C840000FFF803FFF807C0000F00001E00001E1D
:104C940000003C00003C00003C00003C00003C00E4
:104CA400003E00001E00000F00000FC00803FFF8C4
:104CB40000FFF800000000000000000000000000F9
:104CC40000000000000000000000000000000000E0
:104CD40000000000000000000000000000000000D0
:104CE4003FFF003FFFE03C01F03C00783C003C3CCF
:104CF400003C3C003C3C001E3C001E3C001E3C00B2
:104D04003C3C003C3C00783C00F83C07E03FFFC0E2
:104D14003FFC000000000000000000000000000054
:104D2400000000000000000000000000000000007F
:104D3400000000000000000000000000000000006F
:104D44000FFFF00FFFF00F00000F00000F00000F27
:104D540000000F00000FFFF00FFFF00F00000F0026
:104D6400000F00000F00000F00000F00000FFFF005
:104D74000FFFF00000000000000000000000000031
:104D8400000000000000000000000000000000001F
:104D9400000000000000000000000000000000000F
:104DA4000FFFF00FFFF00F00000F00000F00000FC7
:104DB40000000F00000FFFF00FFFF00F00000F00C6
:104DC400000F00000F00000F00000F00000F000094
:104DD4000F000000000000000000000000000000C0
:104DE40000000000000000000000000000000000BF
:104DF40000000000000000000000000000000000AF
:104E040000FFFC03FFFC0FC0041F00001E00003C59
:104E140000003C0000780FFC780FFC78003C3C005C
:104E24003C3C003C3E003C1F003C0FC03C03FFFCEC
:104E340000FFF80000000000000000000000000077
:104E4400000000000000000000000000000000005E
:104E5400000000000000000000000000000000004E
:104E64003C003C3C003C3C003C3C003C3C003C3CAA
:104E7400003C3C003C3FFFFC3FFFFC3C003C3C0052
:104E84003C3C003C3C003C3C003C3C003C3C003C8A
:104E94003C003C0000000000000000000000000096
:104EA40000000000000000000000000000000000FE
:104EB40000000000000000000000000000000000EE
:104EC4000FFFF80FFFF8003C00003C00003C00001E
:104ED4003C00003C00003C00003C00003C00003C66
:104EE40000003C00003C00003C00003C000FFFF8C8
:104EF4000FFFF800000000000000000000000000A8
:104F0400000000000000000000000000000000009D
:104F1400000000000000000000000000000000008D
:104F24000FFFE00FFFE00001E00001E00001E000FE
:104F340001E00001E00001E00001E00001E0000107
:104F4400E00001E00001E00003C00C07C00FFF8097
:104F540007FE000000000000000000000000000048
:104F6400000000000000000000000000000000003D
:104F7400000000000000000000000000000000002D
:104F84001E00781E01F01E03C01E07801E1F001E97
:104F94003C001E78001EF0001FF0001EF8001E3CAE
:104FA400001E1E001E0F801E07C01E01E01E00F81A
:104FB4001E007C0000000000000000000000000053
:104FC40000000000000000000000000000000000DD
:104FD40000000000000000000000000000000000CD
:104FE4000780000780000780000780000780000713
:104FF400800007800007800007800007800007808A
:105004000007800007800007800007800007FFF882
:1050140007FFF8000000000000000000000000008E
:10502400000000000000000000000000000000007C
:10503400000000000000000000000000000000006C
:105044003E007C3F00FC3F81DC3B81DC3BC39C3960
:10505400C39C38E71C38EF1C387E1C387C1E383C57
:105064001E78001E78001E78001E78001E78001E30
:1050740078001E0000000000000000000000000096
:10508400000000000000000000000000000000001C
:10509400000000000000000000000000000000000C
:1050A4001F003C1F803C1FC03C1DC03C1DE03C1C3D
:1050B400F03C1C783C1C783C1C3C3C1C1E3C1C0FEB
:1050C4003C1C0F3C1C07BC1C03FC1C01FC1C00FC0E
:1050D4001C00FC00000000000000000000000000B4
:1050E40000000000000000000000000000000000BC
:1050F40000000000000000000000000000000000AC
:1051040001FFC007FFF00F00F81E007C3C003C3C90
:10511400001E78001E78001E78001E78001E78009D
:105124001E3C003C3C003C1E00781F00F007FFE0E2
:1051340001FF8000000000000000000000000000EB
:10514400000000000000000000000000000000005B
:10515400000000000000000000000000000000004B
:105164001FFF801FFFF01E00F81E007C1E003C1E67
:10517400003C1E003C1E00781E03F01FFFC01FFEF3
:10518400001E00001E00001E00001E00001E000085
:105194001E000000000000000000000000000000ED
:1051A40000000000000000000000000000000000FB
:1051B40000000000000000000000000000000000EB
:1051C40001FFC007FFF00F00F81E007C3C003C3CD0
:1051D400001E78001E78001E78001E78001E7800DD
:1051E4001E3C003C3C003C1E00781F80F007FFE0A2
:1051F40001FF80003C00003C00001F06000FFF0080
:1052040001F80000000000000000000000000000A1
:10521400000000000000000000000000000000008A
:105224000FFF800FFFE00E01F00E00F00E00F00EF5
:1052340000F00E01F00FFFC00FFF000E1F000E075D
:10524400800E03C00E01E00E00F00E00F80E007890
:105254000E003C0000000000000000000000000000
:10526400000000000000000000000000000000003A
:10527400000000000000000000000000000000002A
:1052840003FFF00FFFF01F00001E00001E00001FB0
:1052940000000FC00007FC0000FF80000FF00001B9
:1052A400F80000780000780000782000F83FFFE064
:1052B4003FFF80000000000000000000000000002C
:1052C40000000000000000000000000000000000DA
:1052D40000000000000000000000000000000000CA
:1052E4003FFFFC3FFFFC003C00003C00003C000092
:1052F4003C00003C00003C00003C00003C00003C42
:1053040000003C00003C00003C00003C00003C006D
:10531400003C00000000000000000000000000004D
:105324000000000000000000000000000000000079
:105334000000000000000000000000000000000069
:105344003C003C3C003C3C003C3C003C3C003C3CC5
:10535400003C3C003C3C003C3C003C3C003C3C00F1
:105364003C3C003C3C003C1E00781F00F80FFFE072
:1053740003FF8000000000000000000000000000A7
:105384000000000000000000000000000000000019
:105394000000000000000000000000000000000009
:1053A400F8000F78001E3C001E3C003C1E00381E16
:1053B40000780F00700F00F00781E00781E003C35D
:1053C400C003E3C001E78000F78000FF00007E0017
:1053D400007E00000000000000000000000000004B
:1053E40000000000000000000000000000000000B9
:1053F40000000000000000000000000000000000A9
:1054040078000E78000E78000E78001E38001E38E2
:10541400001E383C1C383C1C387E1C387F1C3CE782
:105424001C3CE79C3DC39C1DC3DC1F81DC1F80F832
:105434001F00F80000000000000000000000000051
:105444000000000000000000000000000000000058
:105454000000000000000000000000000000000048
:105464003C003C1E00780F00F00781E003C3C0013C
:10547400E78000FF00007E00007E0000FF0001FFC7
:105484008003E7C007C3E00F81F01F00F83E007CF3
:105494007C003E000000000000000000000000004E
:1054A40000000000000000000000000000000000F8
:1054B40000000000000000000000000000000000E8
:1054C40078001F3C003E1E007C1F00780F80F00710
:1054D400C1E003E3C001E78000FF00007E00003C60
:1054E40000003C00003C00003C00003C00003C008C
:1054F400003C00000000000000000000000000006C
:105504000000000000000000000000000000000097
:105514000000000000000000000000000000000087
:105524001FFFFC1FFFFC0000F80001E00003C000A7
:105534000780000F00001E00003C0000780000F00F
:105544000003E00007C0000F80001F00003FFFFCC5
:105554003FFFFC000000000000000000000000000D
:105564000000000000000000000000000000000037
:105574000000000000000000000001FFC001FFC0A7
:1055840001E00001E00001E00001E00001E00001B1
:10559400E00001E00001E00001E00001E00001E0C2
:1055A4000001E00001E00001E00001E00001E00092
:1055B40001E00001E00001E00001E00001E0000181
:1055C400FFC0000000000000000000000000000018
:1055D400000000000000000000000E00000F0000AA
:1055E40007000003800003C00001E00000E00000A9
:1055F400F000007800003800003C00001E00000E9F
:1056040000000F000007800003800001C00001E0DB
:105614000000E000007000007800003C0000000082
:105624000000000000000000000000000000000076
:105634000000000000000000000003FF8003FF8062
:1056440000078000078000078000078000078000B3
:10565400078000078000078000078000078000079C
:105664008000078000078000078000078000078013
:105674000007800007800007800007800007800380
:10568400FF80000000000000000000000000000097
:105694000000000000000000000000000000000006
:1056A400003C00007E0000E70001C3800381C007C6
:1056B40000E00E00F01E0078000000000000000072
:1056C40000000000000000000000000000000000D6
:1056D40000000000000000000000000000000000C6
:1056E40000000000000000000000000000000000B6
:1056F40000000000000000000000000000000000A6
:105704000000000000000000000000000000000095
:105714000000000000000000000000000000000085
:105724000000000000000000000000000000000075
:10573400000000000000000000000000FFFFFFFF69
:10574400FFFF000000000000000000000000000057
:10575400000000000000000000000F800003E000D3
:1057640000F800003C000000000000000000000001
:105774000000000000000000000000000000000025
:105784000000000000000000000000000000000015
:105794000000000000000000000000000000000005
:1057A40000000000000000000000000000000000F5
:1057B40000000000000000000000000000000000E5
:1057C40000000000000000000000000007FFC00708
:1057D400E7F00000F000007800007800FFF807FF11
:1057E400F80F00781E00781E00781E03F80FFFF8EB
:1057F40007FC78000000000000000000000000002A
:105804000000000000000000000000000000000094
:10581400000000000000000000001E00001E000048
:105824001E00001E00001E00001E00001E7FE01E61
:10583400FFF01FC0781F00781E003C1E003C1E00B5
:105844003C1E003C1E00381E00781E00F01FFFE0C6
:1058540007FF00000000000000000000000000003E
:105864000000000000000000000000000000000034
:105874000000000000000000000000000000000024
:1058840000000000000000000000000000FFF00322
:10589400FFF007C0000F80000F00001E00001E0074
:1058A400001E00000F00000F800007C00003FFF07F
:1058B40000FFF000000000000000000000000000F5
:1058C40000000000000000000000000000000000D4
:1058D40000000000000000000000000078000078D4
:1058E40000007800007800007800007801FFF807D5
:1058F400FFF80F00781E00781E00783C00783C000A
:10590400783C00781C00781E01F81F03F80FFF781C
:1059140003FC78000000000000000000000000000C
:105924000000000000000000000000000000000073
:105934000000000000000000000000000000000063
:1059440000000000000000000000000001FFC0078C
:10595400E3F00F00F81E00781E003C1FFFFC1FFF41
:10596400FC1C00001E00001E00000F800007FFF852
:1059740001FFF8000000000000000000000000002B
:105984000000000000000000000000000000000013
:10599400000000000000000000000003FC001FFEE7
:1059A400003E0000780000780000700000700000E5
:1059B40070003FFFFC3FFFFC0070000070000070AF
:1059C40000007000007000007000007000007000A3
:1059D4000070000000000000000000000000000053
:1059E40000000000000000000000000000000000B3
:1059F40000000000000000000000000000000000A3
:105A040000000000000000000000000003FFFC078D
:105A1400C3FC0F00F01E00F01E00F00F00F00F8317
:105A2400E00FFFC01E7C001C00001F00000FFFF0F1
:105A34000FFFFC1E003C3C003C3C003C1F81F80F67
:105A4400FFE000380000000000000000000000003B
:105A5400000000000000000000001E00001E000006
:105A64001E00001E00001E00001E00001E7FE01E1F
:105A7400FFF01FC0F01F00781E00781E00781E0083
:105A8400781E00781E00781E00781E00781E0078AC
:105A94001E0078000000000000000000000000006C
:105AA40000000000000000000000000000000000F2
:105AB40000000000000000000000003C00007E0028
:105AC400007E00003C000000000000000FFE000FFC
