:020000040800F2
:1000000000C00020253F0008D5280008D728000898
:10001000D9280008DB280008DD28000800000000BF
:10002000000000000000000000000000DF280008C1
:10003000E128000800000000E3280008E528000887
:100040006D3F00086D3F00086D3F00086D3F0008E0
:100050006D3F00086D3F0008ED2800086D3F000867
:100060006D3F00086D3F00086D3F00086D3F0008C0
:100070006D3F00086D3F00086D3F00086D3F0008B0
:100080006D3F00086D3F00086D3F00086D3F0008A0
:100090006D3F00086D3F00086D3F00086D3F000890
:1000A0006D3F00086D3F00086D3F00086D3F000880
:1000B0006D3F00086D3F00086D3F00086D3F000870
:1000C0006D3F00086D3F00086D3F00086D3F000860
:1000D0006D3F00086D3F00086D3F00086D3F000850
:1000E0006D3F00086D3F00086D3F00086D3F000840
:1000F0006D3F00086D3F00086D3F00086D3F000830
:100100006D3F00086D3F00086D3F00086D3F00081F
:100110006D3F00086D3F00086D3F00086D3F00080F
:100120006D3F00086D3F00086D3F00086D3F0008FF
:1001300000000000000000000000000000000000BF
:1001400000000000000000000000000000000000AF
:10015000000000000000000000000000000000009F
:10016000000000000000000000000000000000008F
:10017000000000000000000000000000000000007F
:10018000000000000000000000000000000000006F
:10019000000000000000000000000000000000005F
:1001A000000000000000000000000000000000004F
:1001B000000000000000000000000000000000003F
:1001C000000000000000000000000000000000002F
:1001D000000000000000000000000000000000001F
:0401E0005FF8E0F1F3
:1001E800044B05481B1A062B02D9044B03B11847C8
:1001F800704700BFAF000020AC00002000000000E6
:1002080005490648091A891001EBD171491002D035
:10021800034B03B118477047AC000020AC00002026
:100228000000000010B5064C237843B9FFF7D8FF4B
:10023800044B13B10448AFF300800123237010BDB1
:10024800AC00002000000000703F000808B5084B13
:100258001BB108490848AFF300800848036813B980
:10026800BDE80840CCE7064B002BF9D09847F7E7E4
:1002780000000000B0000020703F0008AC00002023
:100288000000000070B50F4E0F4D761BB61018BF5A
:10029800002405D0013455F8043B9847A642F9D10B
:1002A8000A4E0B4D03F060FE761BB61018BF0024F3
:1002B80006D0013455F8043B9847A642F9D170BDE1
:1002C80070BD00BF5C6B00085C6B0008606B0008C9
:1002D8005C6B000870B4860746D0541E002A41D0D3
:1002E800CAB2034602E014F1FF343BD303F8012BF2
:1002F8009D07F8D1032C2ED9CDB245EA05250F2C40
:1003080045EA054519D9264603F11002103E0F2E7D
:1003180042F8105C42F80C5C42F8085C42F8045C55
:1003280002F11002F2D8A4F1100222F00F0204F038
:100338000F041032032C13440DD91E462246043AEA
:10034800032A46F8045BFAD8221F22F0030204327B
:10035800134404F003042CB1C9B21C4403F8011B74
:100368009C42FBD170BC704714460346C2E700BFED
:100378000EB430B5044682B018B183690BB900F0E9
:10038800A9FB06AD2B46059AA1682046019500F009
:1003980065FF02B0BDE8304003B070470FB430B518
:1003A8000A4B83B01C6824B1A36913B9204600F036
:1003B80091FB07AD2B46069AA1682046019500F0EF
:1003C8004DFF03B0BDE8304004B070470000002086
:1003D80010B5044682B028B183691BB9019100F0B9
:1003E80079FB01992046A26802B0BDE8104001F0EF
:1003F80069BA00BF38B5084B05461C6824B1A36923
:1004080013B9204600F066FB2946A2682046BDE8DD
:10041800384001F057BA00BF0000002070B50D4603
:10042800064600283AD08369002B35D084682B4BC8
:100438009C423DD02A4B9C424ED02A4B9C4208BF3E
:10044800F468A3891B0737D52369002B34D0013DF5
:10045800A36815F8011F013BA360A1B1002B04DBC1
:1004680023685A1C22601970F2E7A269934201DBE3
:100478000A29F5D12246304600F086F80130E7D146
:100488004FF0FF3070BD002B1DDB0A222368104699
:10049800591C21601A7070BD00F01CFBB369B46868
:1004A800002BC4D1304600F015FB0C4B9C42C1D147
:1004B8007468A3891B07C7D42146304600F0C6F8E4
:1004C8000028C4D0DCE7224630460A2100F05CF858
:1004D8000130D5D00A2070BDB468B2E7E03F00080B
:1004E800C03F0008A03F0008024B01461868FFF70C
:1004F80095BF00BF000000200CB40B46F0B56FF0AC
:1005080000454FF402774FF6FF769DB022AC54F8C1
:10051800042B0293069302A923460194ADF81470A4
:1005280004950795ADF8166000F038FD0022029B8F
:100538001A701DB0BDE8F04002B070470EB4014615
:10054800F0B56FF000454FF402774FF6FF769CB098
:1005580021AC54F8042B0B4B02910691186802A9A0
:1005680023460194ADF8147004950795ADF816600C
:1005780000F014FD0022029B1A701CB0BDE8F04088
:1005880003B0704700000020F8B50D461446064633
:1005980010B18369002B42D0254B9C4244D0254B97
:1005A8009C4243D0244B9C4208BFF468A269A389AB
:1005B800A2601A0722D5236903B322686169D31A96
:1005C800EDB28B422F4621DA0133A168501C013964
:1005D800A1602060157062699A4206D0A389DB0782
:1005E80001D50A2D01D03846F8BD2146304600F025
:1005F80035F90028F7D04FF0FF37F4E721463046A9
:1006080000F024F80028F6D12369D6E721463046C1
:1006180000F024F90028EED101232268D5E700F084
:1006280059FA034B9C42BAD17468BFE7B468BDE776
:10063800E03F0008C03F0008A03F0008024B0A4600
:1006480001461868FFF7A0BF00000020384B70B5BE
:100658001D6806460C4615B1AB69002B42D0354BD8
:100668009C4245D0344B9C4258D0344B9C4208BFE6
:10067800EC68B4F90C2093B219070CD52069A8B11D
:1006880013F001021ED000226369A2605B42A361DD
:10069800F0B1002070BDDD0642D558072AD4206984
:1006A80042F00803A3819BB20028E9D103F4207229
:1006B800B2F5007FE4D03046214600F0A5FAA389C0
:1006C8002069DDE7990758BF6269A2600028E0D178
:1006D800B4F90C301A06DDD543F04003A3814FF07E
:1006E800FF3070BD284600F0F5F9124B9C42B9D195
:1006F8006C68BEE7616B51B104F14403994204D0C0
:10070800304600F0C5FAB4F90C20002363630023D7
:10071800206922F0240284E80900C1E7AC68A8E750
:10072800092342F0400233604FF0FF30A28170BDD0
:1007380000000020E03F0008C03F0008A03F00087C
:100748008B892DE9F0411A070D46804632D44A6854
:10075800002A67DDEC6A002C45D00022D8F800603A
:10076800C8F8002013F4805260D06A6D5F0705D581
:1007780069686B6B521A0BB12B6CD21A0023296A69
:100788004046A047441C39D00021AB892A69DB04C4
:1007980069602A6044D4696BC8F8006019B305F130
:1007A8004403994202D0404600F072FA0020686380
:1007B800BDE8F0810E69B6B1980718BF00230C6830
:1007C80008BF4B690E60A41B8B600AE023463246C3
:1007D800AF6A296A4046B8470028A4EB00040644DB
:1007E80004DD002CF2DC0020BDE8F081AB894FF07D
:1007F800FF3043F04003AB81BDE8F081D8F800201A
:100808001D2AF3D8144BD340DB4313F00103EDD179
:10081800A9892C69C9046B602C60BCD5002ABAD19F
:100828006865B8E70A6C002A94DCDCE70123296ACA
:100838004046A047431C024602D0AB89EC6A95E7C4
:10084800D8F80030002BF8D01D2B01D0162BCDD1B5
:10085800C8F80060C7E700BF010040200B6933B348
:1008680010B5044682B008B18369ABB1114B994207
:1008780019D0114B994218D0104B994208BFE16822
:10088800B1F90C3013B9002002B010BD204602B0F7
:10089800BDE81040FFF754BF019100F01BF9019922
:1008A800044B9942E5D16168EAE7A168E8E70020CE
:1008B800704700BFE03F0008C03F0008A03F0008A5
:1008C80020B1054B01461868FFF7C8BF034B044920
:1008D800186800F043B900BF000000209C3F0008E2
:1008E8006508000800207047014900F037B900BFCB
:1008F800650800080020704770B568254A1E05FB8A
:1009080002F50E4605F1740100F00AFA044640B1FA
:1009180000210C30666005F168022160A060FFF7D5
:10092800D9FC204670BD00BF204B70B51D68064637
:10093800AB695BB348356B68AC68013B05D521E012
:10094800013B5A1C04F168041CD0B4F90C20002A9D
:10095800F6D100254FF6FF720123E281A381656677
:100968002560A560656025616561A5612946082245
:1009780004F15C00FFF7AEFC6563A563A564E5645C
:10098800204670BD286828B10546D4E7284600F0FF
:100998000FF8CFE704213046FFF7AEFF28600028A4
:1009A800F2D10C2304463360EAE700BF9C3F0008FD
:1009B80000233D4A2DE9F04F126883649042C364D6
:1009C800036508BF0123394983B008BF8361816289
:1009D8000746FFF7A9FF78603846FFF7A5FFB8601C
:1009E80038460024FFF7A0FF04237D68F8602146FD
:1009F8002C606C60AC606C66EC812C616C61AC61E5
:100A0800AB8105F15C000822FFF764FC0123092291
:100A1800BE68DFF89CB0DFF89CA0DFF89C90DFF898
:100A28009C80C5F824B0C5F828A0C5F82C90C5F856
:100A380030802D622146F381B28134607460B460E5
:100A4800746634617461B46106F15C000822019334
:100A5800FFF740FC12200222FD6821463662C6F8E4
:100A680024B0C6F828A0C6F82C90C6F83080A88113
:100A7800EA812C606C60AC606C662C616C61AC6166
:100A880005F15C000822FFF725FC019B2D62C5F8E3
:100A980024B0C5F828A0C5F82C90C5F83080BB61F3
:100AA80003B0BDE8F08F00BF9C3F0008F1080008C4
:100AB800D9190008011A00083D1A00085D1A000833
:100AC800024B0349186800F049B800BF9C3F000872
:100AD80065080008836903B96AE77047704700BF73
:100AE800704700BF704700BF704700BF024B034903
:100AF800186800F00FB800BF00000020FD080008CB
:100B0800024B0349186800F005B800BF0000002038
:100B1800ED0800082DE9F04110F148071AD0884681
:100B280000267D68BC68013D0ED4A389013D012BD8
:100B380006D9B4F90E30013302D02046C047064327
:100B48006B1C04F16804F0D13F68002FE9D13046EE
:100B5800BDE8F0813E463046BDE8F0812DE9F84316
:100B680010F148061ED0884607464FF00009756800
:100B7800B468013D10D4A389013D012B08D9B4F90B
:100B88000E30013304D021463846C04749EA0009EF
:100B98006B1C04F16804EED13668002EE7D1484694
:100BA800BDE8F883B1464846BDE8F88370B50C4601
:100BB800B1F90E1090B0002915461E4613DB01AAA4
:100BC80000F074FF00280EDB029A4FF4806302F4F1
:100BD8007042A2F50052B2FA82F200205209326045
:100BE8002B6010B070BD0022A38932601B0604D5AB
:100BF800402300202B6010B070BD4FF480630020AC
:100C08002B6010B070BD00BF8A890B46920706D5CD
:100C1800012103F1470259611A601A617047F0B562
:100C280083B001AB6A460C460546FFF7BFFF009943
:100C38000646284600F074F8B4F90C30D0B19DE8A7
:100C48000600124F43F08003AF62A3812060206149
:100C580061611AB93343A38103B0F0BD2846B4F9E2
:100C68000E1001F0B1F8B4F90C300028F2D043F0BE
:100C78000103EFE79A05EFD4012104F1470243F09D
:100C88000203A381616122602261E5E7F10800089F
:100C980091B151F8043C0439002BB8BFC9181F4B57
:100CA8001A68FAB18A4230B40AD908680C18A24204
:100CB80026D04A60196030BC70478B4203D81A4668
:100CC8005368002BF9D1146815198D420DD006D838
:100CD80008680C189C4219D04B605160EBE70C2354
:100CE8000360E8E74A601960704709680C44111905
:100CF80099421460DFD10ACB0C4414605360DAE7E0
:100D080014685268204481E80500D3E71C685B68D2
:100D1800204481E809005160CDE700BFC8000020E9
:100D280070B5CC1C24F0030408340C2C38BF0C24F8
:100D3800002C06463BDBA14239D8274D296851B122
:100D48000B681B1B04D436E013681B1B1AD511460D
:100D58004A68002AF8D16968002937D02146304608
:100D680000F024FE431C22D0C51C25F00305A84230
:100D780005D0291A304600F019FE013017D02A464E
:100D88002C6004E00B2B0DD913601A44146002F197
:100D98000B0020F00700131DC31A02D05942D1508E
:100DA80070BD70BD8A420ED053684B60EFE70C23CC
:100DB8000020336070BD0B2B03D80A464B682B60AC
:100DC800E5E70A46E0E70B460A46F8E7304600F052
:100DD800EDFD6860C2E700BFC80000202DE9F047BC
:100DE8008E680C469E421D46174628D8804688893C
:100DF80010F4906F32D04E692368096906EB4606F5
:100E0800A3EB010906EBD6766B1C76104B44B34274
:100E1800324684BF1E463246430522D51146404617
:100E2800FFF77EFF824680B34A46216901F03AF80F
:100E3800A38923F4906343F08003A38116E01E4640
:100E480008682A46394601F0A3F8A2682368961B69
:100E58002B44A66023600020BDE8F087086835466B
:100E6800EFE7404601F0F8F8824650B1A6EB0903D7
:100E78000AEB09006661C4F810A02060A3602E4642
:100E8800DFE721694046FFF703FF0C23C8F800306D
:100E9800A3894FF0FF3043F04003A381BDE8F087FA
:100EA8002DE9F04F936883B09046002B70D08246AE
:100EB8000C4617688D68086842E0A38913F4906FA0
:100EC8002ED06569216905EB4505A0EB010B05EB03
:100ED800D5750BF101006D103044A8422A4684BF35
:100EE80005462A465B0538D511465046FFF718FFD8
:100EF80000283CD05A462169019000F0D3FFA2890E
:100F0800019B22F4906242F08002A281A5EB0B02C1
:100F180003EB0B006561B346354623612060A26090
:100F28005A46494601F034F8D8F80830A2682068D3
:100F3800551B58449E1BA5602060C8F808603EB346
:100F48007E683B460837002EFAD0AE42D3F80090B0
:100F5800AB46B2D23546B346E2E7504601F07CF8DC
:100F680003460028D2D121695046FFF791FE0C2391
:100F780000224FF0FF30CAF80030A38943F0400345
:100F8800A381C8F80820C8F8042003B0BDE8F08F92
:100F98000020C8F8040003B0BDE8F08F2DE9F04F39
:100FA8000F4689899DB00C0691460393804603D568
:100FB8003B69002B00F0FC803023002020218DF8B5
:100FC8002A3099F800300125814C09908DF82910B4
:100FD800002B00F09180252BCA4603D119E0252B60
:100FE80000F093801AF8013F002BF8D1BAEB090BF7
:100FF80000F082804A465B4639464046FFF7EEFEDF
:10100800013079D0099B9AF800205B440993002AA3
:1010180072D000234FF0FF320AF1010A04930793BC
:1010280006938DF853301A93059205E0049B001B34
:1010380005FA00F0184304909AF80010052220469B
:1010480000F0EAFED1460AF1010A0028EED1049B1D
:10105800D80644BF20228DF85320190748BF2B22F9
:1010680099F8001048BF8DF853202A2971D0A1F1B2
:101078003002092A0BD8079B19F8011F03EB8303D9
:1010880002EB4303A1F13002092AF5D907932E296F
:1010980046D0DFF84CA10322504600F0BDFE48B10F
:1010A8004022049BA0EB0A0002FA00F0034309F176
:1010B8000109049399F800300622194645488DF82D
:1010C800283009F1010900F0A7FE00284DD0424B55
:1010D800FBB103AB00933A46404B04A94046AFF33B
:1010E80000800646721C07D0099B3344099399F87F
:1010F8000030002B7FF46FAFBB895B064CBF4FF00D
:10110800FF3009981DB0BDE8F08FBAEB090B80D00D
:1011180070E7039B073323F0070308330393E3E7E0
:1011280099F8011009F101002A2928D00023A1F11A
:101138003002092A05938146ABD819F8011F03EB41
:10114800830302EB4303A1F13002092AF5D9059381
:101158009FE7039A116804320029039222DB079162
:1011680099F8011009F1010991E703AB00933A4698
:101178001A4B04A9404600F057FA0646B2E7039B0B
:1011880009F102001A680433002A0393B8BF4FF02C
:10119800FF330592AEBF99F8021099F80210059333
:1011A800814676E7494243F0020307910493D7E763
:1011B8004021FFF7B5FD3860386110B140237B61ED
:1011C800FAE60C234FF0FF30C8F800309AE700BF6A
:1011D800206B00082C6B000800000000E50D0008DB
:1011E800286B0008936810B4013B002B936007DB61
:1011F800CCB21368581C10601970204610BC704798
:101208009469A34202DBCCB20A2CF2D110BCFFF7DE
:10121800BBB900BF93B1F8B514460F460646D518BA
:1012280001E0AC4208D03A4614F8011B3046FFF7FB
:10123800D9FF431CF5D1F8BD0020F8BD0020704748
:10124800936810B5144613B95360184610BD00F0E2
:1012580041FC0023A360636010BD00BF2DE9F04F7F
:101268009DB00F4691460393804618B18369002BC1
:1012780000F01981924B9F4200F01B81914B9F42D5
:1012880000F01A81904B9F4208BFD8F80C70BB89B8
:101298001C0740F1FE803B69002B00F0FA803023E8
:1012A800002120228DF82A3099F8003009918DF814
:1012B8002920864C0125002B00F09180252BCA4659
:1012C80003D119E0252B00F091801AF8013F002B7B
:1012D800F8D1BAEB090B00F082804A465B463946E2
:1012E8004046FFF797FF013079D0099B9AF8002014
:1012F8005B440993002A72D000234FF0FF320AF1B1
:10130800010A0493079306938DF853301A930592B4
:1013180005E0049B001B05FA00F0184304909AF8B6
:1013280000100522204600F077FDD1460AF1010A97
:101338000028EED1049BD80644BF20228DF8532004
:10134800190748BF2B2299F8001048BF8DF8532081
:101358002A296FD0A1F13002092A0BD8079B19F866
:10136800011F03EB830302EB4303A1F13002092AB7
:10137800F5D907932E2944D0DFF860A103225046FF
:1013880000F04AFD48B14022049BA0EB0A0002FA93
:1013980000F0034309F10109049399F8003006228B
:1013A80019464B488DF8283009F1010900F034FD41
:1013B80000284BD0474BEBB103AB00933A46464B62
:1013C80004A94046AFF300800646721C07D0099B6B
:1013D8003344099399F80030002B7FF46FAFBB8931
:1013E8005B065DD409981DB0BDE8F08FBAEB090B18
:1013F80082D072E7039B073323F007030833039374
:10140800E5E799F8011009F101002A2928D00023FD
:10141800A1F13002092A05938146ADD819F8011FB8
:1014280003EB830302EB4303A1F13002092AF5D948
:101438000593A1E7039A116804320029039222DB7D
:10144800079199F8011009F1010993E703AB00939B
:101458003A46214B04A9404600F0E6F80646B4E7B0
:10146800039B09F102001A680433002A0393B8BFEA
:101478004FF0FF330592AEBF99F8021099F80210A9
:101488000593814678E7494243F0020307910493A4
:10149800D7E739464046FFF7D9F800283FF4FFAEB2
:1014A8004FF0FF309FE7FFF715FB054B9F427FF496
:1014B800E5AED8F80470EAE6D8F80870E7E600BFA9
:1014C800E03F0008C03F0008A03F0008206B00086C
:1014D8002C6B0008000000001D120008286B000893
:1014E80010B4044C13460A460146206810BCFFF7A6
:1014F800B5BE00BF000000202DE9F0470C46096981
:10150800A56891468D42B8BF0D46156094F8431002
:1015180006461F46DDF8208011B16A1CC9F8002074
:10152800236899065DD5D9F800200232C9F8002051
:10153800236813F0060F19461DD1E1688A1A002A9C
:10154800D8BF194617DD002504F1190A05E0E3683C
:10155800D9F800209B1AAB420CDD012352463946CC
:101568003046C047013005F10105F0D14FF0FF309A
:10157800BDE8F087216894F84330003318BF012391
:101588008A060AD53021E21882F8431094F84510EB
:101598005A1C224482F84310023304F143023946AC
:1015A8003046C0470130E1D0236803F00603042B1E
:1015B80029D0A36822699342C8BF4FF0000930DDE3
:1015C8009B1A994400251A3401E04D4529D001237E
:1015D800224639463046C047013005F10105F4D1AD
:1015E800C4E713F0060F08D1E168D9F800208A1A79
:1015F800002AD8BF1946A6DCBDE794F8433000336B
:1016080018BF0123C9E7D9F80010E068A368226968
:10161800A0EB0109934229EAE979D1DCB9F1000F7D
:10162800D0D10020BDE8F0872DE9F0430C46097EB3
:1016380085B06E2906461746984604F1430C0C9867
:1016480055D00FD8632900F0198100F2D480002901
:101658005CD0582940F0E68084F845102268DFF80D
:101668005CE213E0732900F0FB8000F289806F29A7
:1016780000F0E280702940F0D580226842F0200214
:1016880022607823DFF838E284F8453003681506CD
:1016980003F1040100F1FD8055064BBF1B881B6850
:1016A80001600160D00744BF42F020022260002B95
:1016B80040F093801021226822F02002226000224C
:1016C80084F8432060680028A060C0F28B802268FC
:1016D80022F004022260002B66D1002840F08480AA
:1016E800654608296ED0ACEB0503236111E0236839
:1016F8001A0600F1D18013F0400F0368626903F104
:10170800040101601B6814BF1A801A600023654633
:101718002361CDF800803B4603AA21463046FFF7F7
:10172800EBFE013021D02A46236939463046C047AE
:1017380001301AD02368E06813F0020F039B19D018
:10174800C21A002A16DD002504F1190904E0E06830
:10175800039BC21AAA420DDD01234A463946304688
:10176800C047013005F10105F1D14FF0FF3005B058
:10177800BDE8F0839842B8BF184605B0BDE8F083CD
:10178800752959D078294DD122687AE72D206168CA
:101798005B42002984F84300A16020DB0A2122F083
:1017A8000402DFF818E122606546B3FBF1F201FBA1
:1017B80012331EF80300134605F8010D002AF4D170
:1017C800082990D12368D9078DD5626823699A4280
:1017D80089DC3023013D2B7085E710216FE70A2152
:1017E800DFF8D8E0002BDFD19EF8003004F1420585
:1017F80084F8423075E7642901D0692912D122683A
:101808000368150603F1040152D455064BBFB3F91A
:1018180000301B6801600160002BB7DB0A21DFF88C
:101828009CE04FE7012384F84210236104F142054C
:10183800002384F843306CE723681A0633D413F086
:10184800400F036803F1040215BF1B881B68026080
:1018580002606F2914BF0A210821DFF860E02EE733
:1018680003686268191D01601D680021284600F0A0
:10187800D3FA00B3401B60602061D9E701220368F6
:1018880004F14205191D1B68016084F84230226189
:10189800CEE701601B6805E703686269191D0160EE
:1018A8001B681A6032E703681A1D02601B68D0E7DC
:1018B80001601B68B0E76068DEE700BF346B0008B2
:1018C800486B000870B50D461446064608B1836992
:1018D8000BB3154B9C4223D0144B9C4222D0144B83
:1018E8009C4208BFF468A368013B002BA36005DB9A
:1018F800E8B223685A1C22601D7070BDA269934229
:1019080002DBE8B20A28F4D1224629463046BDE86F
:101918007040FEF739BEFFF7DDF8034B9C42DBD180
:101928007468E0E7B468DEE7E03F0008C03F0008FD
:10193800A03F0008194B70B51D6806460C460DB14E
:10194800AB690BB3164B9C4224D0164B9C4223D058
:10195800154B9C4208BFEC68A368013B002BA360B1
:1019680005DBF0B223685A1C22601E7070BDA269A4
:10197800934202DBF0B20A28F4D1224631462846C7
:10198800BDE87040FEF700BE2846FFF7A3F8044BF9
:101998009C42DAD16C68DFE7AC68DDE70000002024
:1019A800E03F0008C03F0008A03F000838B500230A
:1019B800064C05460846236000F0BEFB431C00D0D9
:1019C80038BD2368002BFBD02B6038BD7801002080
:1019D80010B50C46B1F90E1000F066FB002803DBC9
:1019E800636D0344636510BDA38923F48053A38109
:1019F80010BD00BF002070472DE9F0410C46B1F939
:101A08000C101F46CB051646054607D5B4F90E102F
:101A18000223002200F0EAF9B4F90C1021F48051F5
:101A2800A1813B463246B4F90E102846BDE8F04184
:101A380000F014B810B50C46B1F90E1000F0D6F944
:101A4800A389421C0EBF23F4805343F4805360657E
:101A5800A38110BDB1F90E1000F016B8F8B50E4606
:101A68000025084C114607461A463046256000F006
:101A780071FB431C00D0F8BD2368002BFBD03B60F2
:101A8800F8BD00BF7801002038B50023064C054694
:101A98000846236000F028FB431C00D038BD2368AB
:101AA800002BFBD02B6038BD7801002070B50D46A7
:101AB8000023074C064611462846236000F01CFB0D
:101AC800431C00D070BD2368002BFBD0336070BD71
:101AD800780100209368002B71D02DE9F04F8B8995
:101AE80083B00C4619070090164625D522691AB30B
:101AF80013F0020035682BD04FF00009B0464F466E
:101B0800DFF8C0A2002F55D057453B464A4628BFAC
:101B18005346216A0098A66AB047002856DDD8F8CF
:101B2800083081441B1A3F1AC8F80830002BE9D145
:101B3800002003B0BDE8F08F21460098FEF786FD2F
:101B4800002840F03581A389356813F00200D3D10D
:101B580013F0010944D14F46019637B39A05D4F8DA
:101B6800088040F185804745C346C0F0AD8013F436
:101B7800906F40F0AE80BA4620685A46494600F059
:101B880007FAA2682368A2EB08025B44A2602360FC
:101B9800019AD1449368A7EB0A07A3EB0A03936061
:101BA800002BC5D0A389002FD8D1D5F800906F6835
:101BB8000835D2E7D5F800906F680835A2E700200D
:101BC800704721460098FEF749FE78B3B4F90C3007
:101BD8004FF0FF3043F04003A38103B0BDE8F08F1E
:101BE800814633464E46A8469A464D4656B3002887
:101BF80032D0B145CB4628BFB346206823695F463B
:101C08009842626904D9A36813449B4500F3A880ED
:101C180093454DDB1346A76A2A46216A0098B847C0
:101C2800071ED3DDB9EB0709CBD00120DAF808305D
:101C38003D44DB1BF61BCAF80830002B3FF478AF95
:101C4800002ED4D108F1080353F8046C984653F8D1
:101C5800085C0833002EF7D032460A21284600F0E7
:101C6800DBF8002800F0A1800130A0EB0509C0E7EF
:101C780020682369984202D863699F425DD2B845BB
:101C880028BFB8464946424600F082F9A368226850
:101C9800A3EB08034244A36022600BB1C24677E776
:101CA80021460098FEF7DAFD00288FD1C2466FE77B
:101CB8005A46294600F06CF9A2682368A2EB0B0289
:101CC8005B44A2602360ADE7B846BA46BB462068CD
:101CD80053E762692068216902EB4208A0EB010A18
:101CE80008EBD8780AF101004FEA68083844404503
:101CF800424684BF804642465B0544D5114600985B
:101D0800FFF70EF88346002855D05246216900F0A7
:101D1800C9F8A38923F4906343F08003A3810BEBF4
:101D28000A00A8EB0A03C4F810B0C4F814802060B5
:101D3800A360B846BA46BB461FE76FF00042BA42F6
:101D480028BF3A4692FBF3F2216A03FB02F300989C
:101D58004A46A66AB047B0F1000A3FF719AF35E71F
:101D68001A462946019300F013F92268019B21467F
:101D78001A4422600098FEF771FD019B00287FF449
:101D880025AF1F464EE7009800F066F98346002805
:101D9800C5D1009D21692846FEF77AFF0C22B4F9C7
:101DA8000C302A6023F0800312E706F1010920E7CE
:101DB8004FF0FF30BDE60C220099B4F90C300A60F0
:101DC80006E700BF00FCFF7F38B50023064C054638
:101DD8000846236000F098F9431C00D038BD2368FA
:101DE800002BFBD02B6038BD78010020F8B50E46DB
:101DF8000025084C114607461A463046256000F073
:101E08008BF9431C00D0F8BD2368002BFBD03B6046
:101E1800F8BD00BF78010020830770B4CDB23DD073
:101E2800541E0AB30378AB421FD0431C05E014F1DB
:101E3800FF3419D30278AA4217D013F0030F1846BB
:101E480003F10103F3D1032C11D84CB30378AB424F
:101E58000BD00444431C02E00278AA4205D09C42FD
:101E6800184603F10103F7D1002070BC704709023E
:101E780089B2294341EA0141036806464B40A3F170
:101E8800013222EA030313F0803F00F1040003D17A
:101E9800043C032CF0D8D8E73046D7E71446D2E7FD
:101EA8002046E2E7844641EA000313F0030349D1E0
:101EB800403A23D30B6803604B6843608B688360A8
:101EC800CB68C3600B6903614B6943618B698361AC
:101ED800CB69C3610B6A03624B6A43628B6A836294
:101EE800CB6AC3620B6B03634B6B43638B6B83637C
:101EF800CB6BC36340304031403ADBD230320BD336
:101F08000B6803604B6843608B688360CB68C36071
:101F180010301031103AF3D20C3205D351F8043B8B
:101F280040F8043B043AF9D2043208D0D2071CBF67
:101F380011F8013B00F8013B01D30B880380604690
:101F4800704700BF082A13D38B07B1D010F00303E2
:101F5800AED0C3F10403D21ADB071CBF11F8013B52
:101F680000F8013BA4D331F8023B20F8023B9FE77D
:101F7800043AD9D3013A11F8013B00F8013BF9D2F0
:101F88000B7803704B7843708B788370604670478A
:101F98008842F0B50DD98B1898420AD28418002AC5
:101FA80051D0224613F8014D994202F8014DF9D15A
:101FB800F0BD0F2A48D941EA00039B0746D11546D0
:101FC80000F1100401F1100353F8106C103D44F8AF
:101FD800106C53F80C6C0F2D44F80C6C53F8086C0B
:101FE80004F1100444F8186C53F8046C03F110035E
:101FF80044F8146CE8D8A2F1100323F00F0302F0A0
:102008000F0E1033BEF1030F1944034421D90E46B5
:1020180074461D1F56F8047B043C032C45F8047FC6
:10202800F8D8AEF1040424F0030404342144234412
:1020380002F0030262B1013B0A4411F8014B8A42E3
:1020480003F8014FF9D1F0BD0346F3E70346F2E781
:10205800F0BD7246EEE700BFF8B51446F9B1C2B15B
:1020680006460D4600F036F8844201D82846F8BDE9
:1020780021463046FEF754FE074670B122462946EF
:10208800FFF710FF29463D463046FEF701FE284679
:10209800F8BDFEF7FDFD2546E8E70546E6E71146EB
:1020A800BDE8F840FEF73CBEF8B50E460025084CE2
:1020B800114607461A463046256000F035F8431C9D
:1020C80000D0F8BD2368002BFBD03B60F8BD00BFF3
:1020D8007801002051F8040C0028A0F10400BCBFCE
:1020E8000B58C018704700BF5822024B4FF0FF3002
:1020F8001A607047780100205822024B4FF0FF30D9
:102108001A607047780100205822024B00201A609C
:10211800704700BF780100205822024B4FF0FF3073
:102128001A607047780100205822024B4FF0FF30A8
:102138001A60704778010020044A05491368002B8B
:1021480008BF0B461844106018467047D00000209E
:10215800800100205822024B4FF0FF301A60704770
:102168007801002081F0004102E000BF83F00043C5
:1021780030B54FEA41044FEA430594EA050F08BF1A
:1021880090EA020F1FBF54EA000C55EA020C7FEADE
:10219800645C7FEA655C00F0E2804FEA5454D4EB5B
:1021A8005555B8BF6D420CDD2C4480EA020281EA25
:1021B800030382EA000083EA010180EA020281EA5D
:1021C8000303362D88BF30BD11F0004F4FEA0131AF
:1021D8004FF4801C4CEA113102D0404261EB4101BE
:1021E80013F0004F4FEA03334CEA133302D0524244
:1021F80063EB430394EA050F00F0A780A4F1010400
:10220800D5F1200E0DDB02FA0EFC22FA05F2801839
:1022180041F1000103FA0EF2801843FA05F359411F
:102228000EE0A5F120050EF1200E012A03FA0EFC9E
:1022380028BF4CF0020C43FA05F3C01851EBE371C8
:1022480001F0004507D54FF0000EDCF1000C7EEBE5
:1022580000006EEB0101B1F5801F1BD3B1F5001F23
:102268000CD349085FEA30004FEA3C0C04F1010442
:102278004FEA445212F5800F80F09A80BCF1004F6B
:1022880008BF5FEA500C50F1000041EB045141EAED
:10229800050130BD5FEA4C0C404141EB010111F4EE
:1022A800801FA4F10104E9D191F0000F04BF014699
:1022B8000020B1FA81F308BF2033A3F10B03B3F177
:1022C80020020CDA0C3208DD02F1140CC2F10C0207
:1022D80001FA0CF021FA02F10CE002F11402D8BF65
:1022E800C2F1200C01FA02F120FA0CFCDCBF41EA31
:1022F8000C019040E41AA2BF01EB0451294330BD00
:102308006FEA04041F3C1CDA0C340EDC04F11404DC
:10231800C4F1200220FA04F001FA02F340EA0300B3
:1023280021FA04F345EA030130BDC4F10C04C4F1F9
:10233800200220FA02F001FA04F340EA03002946D9
:1023480030BD21FA04F0294630BD94F0000F83F423
:10235800801306BF81F480110134013D4EE77FEA06
:10236800645C18BF7FEA655C29D094EA050F08BF52
:1023780090EA020F05D054EA000C04BF1946104633
:1023880030BD91EA030F1EBF0021002030BD5FEA77
:10239800545C05D14000494128BF41F0004130BD9F
:1023A80014F580043CBF01F5801130BD01F00045F3
:1023B80045F0FE4141F470014FF0000030BD7FEA66
:1023C800645C1ABF194610467FEA655C1CBF0B4661
:1023D800024650EA013406BF52EA033591EA030F78
:1023E80041F4002130BD00BF90F0000F04BF002170
:1023F800704730B54FF4806404F132044FF00005A3
:102408004FF0000150E700BF90F0000F04BF00211B
:10241800704730B54FF4806404F1320410F0004581
:1024280048BF40424FF000013EE700BF42004FEA7C
:10243800E2014FEA31014FEA02701FBF12F07F43F9
:1024480093F07F4F81F06051704792F0000F14BFF6
:1024580093F07F4F704730B54FF4607401F000453A
:1024680021F0004120E700BF50EA010208BF704791
:1024780030B54FF000050AE050EA010208BF704786
:1024880030B511F0004502D5404261EB41014FF4EF
:10249800806404F132045FEA915C3FF4DCAE4FF0F3
:1024A80003025FEADC0C18BF03325FEADC0C18BFDA
:1024B800033202EBDC02C2F1200300FA03FC20FA2B
:1024C80002F001FA03FE40EA0E0021FA02F1144478
:1024D800C1E600BF4FEA4102B2F1E04324BFB3F5C1
:1024E800001CDCF1FE5C0DD901F0004C4FEAC00283
:1024F8004CEA5070B2F1004F40EB830008BF20F067
:102508000100704711F0804F21D113F13872BCBF20
:1025180001F00040704741F480114FEA5252C2F175
:102528001802C2F1200C10FA0CF320FA02F018BFBE
:1025380040F001004FEAC1234FEAD32303FA0CFC11
:1025480040EA0C0023FA02F34FEA4303CCE77FEAA0
:10255800625307D150EA01331EBF4FF0FE4040F4EA
:102568004000704701F0004040F0FE4040F4000099
:10257800704700BF82B0019002E0019B013B0193CC
:10258800019B002BF9D102B0704700B591B0002132
:102598000B910C910D910E910F91282201A8FDF736
:1025A80099FE012301934FF480330293022208928B
:1025B80009934FF4E0130A9301A801F035F800B12C
:1025C800FEE70F230B9302210C9100230D930F9329
:1025D8004FF480630E930BA801F04CFA00B1FEE7AC
:1025E80011B05DF804FB0000F0B59DB07E4E337865
:1025F800013333707D4C2068FFF718FF78A3D3E9C7
:102608000023FFF7B5FDFFF765FF2060784F3846D8
:1026180000F000FE00214FF4784000F007FE754DF1
:10262800754B1B882A880021084600F017FD327870
:10263800724903A8FDF782FF00F0F2FDC08800EBA5
:10264800800080B200F002FE00F0EAFDC08800EBD6
:10265800800003A980B200F091FD2068FFF7E6FE34
:1026680002460B46664903A8FDF768FF00F0D8FD4F
:10267800C38803EB4303580080B200F0E7FD00F085
:10268800CFFDC38803EB4303580080B203A900F0D1
:1026980075FD2068FFF7CAFE02460B46594903A894
:1026A800FDF74CFF00F0BCFDC088C0EBC00080B255
:1026B80000F0CCFD00F0B4FDC088C0EBC00003A959
:1026C80080B200F05BFD4FF4FC6000F0B9FD4E4CA9
:1026D8004E4B009320230222214603A8FDF72EFF2C
:1026E80000F09EFDC08800EBC00080B200F0AEFD97
:1026F80000F096FDC08800EBC00003A980B200F08E
:102708003DFD00F08DFDC08800EB800300EB430029
:102718003F4980B200F032FD3E4800F07BFD2E8834
:1027280000F07EFD8288B6FBF2F2063A3A4B00933F
:1027380020235208214603A8FDF700FF00F070FD92
:10274800C38803EB4303580080B200F07FFD00F01C
:1027580067FDC38803EB4303580080B203A900F068
:102768000DFD384600F056FD2A88D2080C3A2B4B4E
:10277800009320235208214603A8FDF7DFFE00F04E
:102788004FFDC088C0EB001080B200F05FFD00F084
:1027980047FDC088C0EB001003A980B200F0EEFC32
:1027A8002A88D208153A1E4B009320235208214646
:1027B80003A8FDF7C3FE00F033FDC088000180B216
:1027C80000F044FD00F02CFDC088000180B203A990
:1027D80000F0D4FC6FF07F40FFF7CCFE1DB0F0BDD9
:1027E8009A9999999999B93FD8000020D400002066
:1027F80094000020A6000020A80000200040000847
:10280800144000082C4000084840000850400008C8
:10281800644000088C0000207C40000884400008C8
:102828009440000838B5002528E02A20FDF7E2FD8D
:102838000134072C0ADC154B13F81530A34013F0AC
:10284800800FF2D12020FDF7D5FDF1E7002403E049
:102858002A20FDF7CFFD0134072C0BDC6B00013378
:102868000A4AD35CA34013F0800FF1D12020FDF772
:10287800C1FDF0E70A20FDF7BDFD01350F2D01DC94
:102888000024D6E70248FDF72FFE38BD640000207B
:10289800AC40000808B5FFF778FE00F0E7FC00F050
:1028A80015FD00F09DFB0748FDF71EFE0648FDF7E5
:1028B8001BFE062000F03EFBFFF7B4FFFFF794FE77
:1028C800FCE700BFB0400008F04000087047FEE792
:1028D800FEE7FEE7FEE770477047704708B501F06E
:1028E8000FFB08BD704700000F4B1A6842F0010249
:1028F8001A6059680D4A0A405A601A6822F08472B0
:1029080022F480321A601A6822F480221A605A6807
:1029180022F4FE025A604FF41F029A604FF00062E0
:10292800034B9A60704700BF001002400000FFF898
:1029380000ED00E008B501460248FDF72FFD002034
:1029480008BD00BF5C41000830B58BB0274B9A69C1
:1029580042F004029A619A6902F004020192019A13
:102968009A6942F004029A619A6902F0040202929A
:10297800029A9A6942F004029A619A6902F0040282
:102988000392039A9A6942F004029A619A6902F0E2
:1029980004020492049A9A6942F480529A619B69EB
:1029A80003F480530593059B202306930223079382
:1029B80001250895032309930D4C06A9204600F02C
:1029C8001FFD4023069306A9204600F019FD802329
:1029D800069306A9204600F013FD102306930795D9
:1029E80006A9204600F00CFD0BB030BD00100240D7
:1029F8000008014010B5104C104B23600823E36118
:102A08000023A3600122626102222261A3620722DD
:102A1800E262E36023624FF40072A26163624FF4E2
:102A280082736360204601F007F92268136843F057
:102A38004003136010BD00BFDC00002000300140DF
:102A480008B54FF48052154B1A60154B1B689A68ED
:102A580012F0020F0AD1114A1368591E1160002B97
:102A6800F3D10020FFF766FFC0B208BDD8604FF46D
:102A780080510A4A11609A6812F0010F0AD1074979
:102A88000A68501E0860002AF5D10120FFF752FF9E
:102A9800C0B208BDD868C0B208BD00BF8800002019
:102AA800DC00002070B506460C4615464FF480122F
:102AB8000F4B1A610320FFF7C3FFC4F30740FFF76A
:102AC800BFFFC4F30720FFF7BBFFE0B2FFF7B8FF73
:102AD80005E0FF20FFF7B4FF06F8010B25466B1E43
:102AE8009CB2002DF5D11022014B1A6170BD00BFB8
:102AF8000008014038B505460C460E4B1B788BB1D3
:102B0800210AE4B2A1395E2303FB0141A13909027C
:102B18000ED4C910202201F5CB112846FFF7C2FFB9
:102B2800002038BDFFF766FF0122024B1A70E7E765
:102B38000731EEE7D900002082B0019002E0019B46
:102B4800013B0193019B002BF9D102B070470000B3
:102B580030B589B02E4B9A6942F010029A619A6991
:102B680002F010020092009A9A6942F020029A61DB
:102B78009A6902F020020192019A9A6942F00802C9
:102B88009A619A6902F008020292029A9A6942F0DE
:102B980001029A619B6903F001030393039B1D4B98
:102BA8005A6822F0E0625A605A6842F000725A602D
:102BB8000123059306930323079308AC4FF6FF738D
:102BC80044F8103D2146144800F01AFC20230493D1
:102BD800124D2146284600F013FC40230493214659
:102BE800284600F00DFC102304932146284600F0E7
:102BF80007FC802304932146284600F001FC0423A7
:102C080004932146064800F0FBFB09B030BD00BF25
:102C18000010024000000140000C0140001001407B
:102C280000140140064B10225A618021596120216D
:102C380019610449C8604021596119611A617047D6
:102C480000100140000C0140064B10225A618021FF
:102C58001961202119610449C8604021596119612D
:102C68001A61704700100140000C014008B54FF68A
:102C7800FF70FFF761FFCF20FFF7D4FF0020FFF7B9
:102C8800E3FF8120FFF7E0FF3020FFF7DDFF4FF67D
:102C9800FF70FFF751FFED20FFF7C4FF6420FFF737
:102CA800D3FF0320FFF7D0FF1220FFF7CDFF8120CD
:102CB800FFF7CAFF4FF6FF70FFF73EFFE820FFF768
:102CC800B1FF8520FFF7C0FF1020FFF7BDFF782078
:102CD800FFF7BAFF4FF6FF70FFF72EFFCB20FFF785
:102CE800A1FF3920FFF7B0FF2C20FFF7ADFF002030
:102CF800FFF7AAFF3420FFF7A7FF0220FFF7A4FF82
:102D08004FF6FF70FFF718FFF720FFF78BFF202023
:102D1800FFF79AFF4FF6FF70FFF70EFFEA20FFF765
:102D280081FF0020FFF790FF0020FFF78DFF4FF68F
:102D3800FF70FFF701FFB120FFF774FF0020FFF7D6
:102D480083FF1B20FFF780FF4FF6FF70FFF7F4FEAD
:102D5800B620FFF767FF0A20FFF776FFA220FFF7EC
:102D680073FF4FF6FF70FFF7E7FEC020FFF75AFF2B
:102D78003520FFF769FF4FF6FF70FFF7DDFEC12032
:102D8800FFF750FF1120FFF75FFFC520FFF74AFF4D
:102D98004520FFF759FF4520FFF756FFC720FFF7EB
:102DA80041FFA220FFF750FFF220FFF73BFF002072
:102DB800FFF74AFF2620FFF735FF0120FFF744FF02
:102DC8004FF6FF70FFF7B8FEE020FFF72BFF0F204C
:102DD800FFF73AFF2620FFF737FF2420FFF734FFDD
:102DE8000B20FFF731FF0E20FFF72EFF0920FFF71A
:102DF8002BFF5420FFF728FFA820FFF725FF4620C8
:102E0800FFF722FF0C20FFF71FFF1720FFF71CFF1B
:102E18000920FFF719FF0F20FFF716FF0720FFF71C
:102E280013FF0020FFF710FFE120FFF7FBFE002053
:102E3800FFF70AFF1920FFF707FF1B20FFF704FF22
:102E48000420FFF701FF1020FFF7FEFE0720FFF721
:102E5800FBFE2A20FFF7F8FE4720FFF7F5FE392092
:102E6800FFF7F2FE0320FFF7EFFE0620FFF7ECFE68
:102E78000620FFF7E9FE3020FFF7E6FE3820FFF7CF
:102E8800E3FE0F20FFF7E0FE4FF6FF70FFF754FE5A
:102E98003620FFF7C7FEC820FFF7D6FE4FF6FF70B3
:102EA800FFF74AFE2A20FFF7BDFE0020FFF7CCFE01
:102EB8000020FFF7C9FE0020FFF7C6FEEF20FFF74E
:102EC800C3FE4FF6FF70FFF737FE2B20FFF7AAFE71
:102ED8000020FFF7B9FE0020FFF7B6FE0120FFF73C
:102EE800B3FE3F20FFF7B0FE4FF6FF70FFF724FE5A
:102EF8003A20FFF797FE5520FFF7A6FE1120FFF7AF
:102F080091FE0548FFF718FE4FF6FF70FFF714FE15
:102F18002920FFF787FE08BDFCBF020018B904226C
:102F2800034B1A6170474FF48022014B1A617047B6
:102F38000014014007284BD810B5264B187010F024
:102F4800010F3DD1F022244B1A804FF4A072234B7D
:102F58001A8004463620FFF765FE600140F008003D
:102F6800FFF772FE2A20FFF75DFE0020FFF76CFED8
:102F78000020FFF769FE184C20880138C0F30720AD
:102F8800FFF762FE20880138C0B2FFF75DFE2B20F4
:102F9800FFF748FE0020FFF757FE0020FFF754FE1A
:102FA8000E4C20880138C0F30720FFF74DFE20881B
:102FB8000138C0B2FFF748FE2C20FFF733FE10BDE2
:102FC8004FF4A072044B1A80F022044B1A80C0E719
:102FD800704700BFA4000020A6000020A800002021
:102FE80008B5FFF7B5FD0120FFF798FFFFF73EFE94
:102FF800024B1878FFF79EFF08BD00BFA400002011
:10300800F8B505460C4617461E462A20FFF70AFE65
:10301800280AFFF719FEE8B2FFF716FE3D44681EBE
:10302800C0F30F20FFF710FEADB2681EC0B2FFF765
:103038000BFE2B20FFF7F6FD200AFFF705FEE0B296
:10304800FFF702FE3444601EC0F30F20FFF7FCFDBB
:10305800A4B2601EC0B2FFF7F7FDF8BD70B5144604
:103068001D46FFF7CDFF05FB04F5074B1E882C20F6
:10307800FFF7D8FD002403E03046FFF7E5FD0134F3
:10308800A542F9D870BD00BF9C0000202DE9F04191
:10309800A2F12006B6B2194B1C68A288E38803FB8C
:1030A80002F8B8F1000F0BDBC8F3C708276806FB66
:1030B80008F6FFF7A5FF2C20FFF7B4FD002517E061
:1030C80008F10708F0E70E4B1888FFF7BDFD01343B
:1030D800E4B2072C0AD8BB195A5D802323411A424F
:1030E800F1D0084B1888FFF7AFFDF0E70135EDB2D6
:1030F800454501D20024ECE7BDE8F081A00000209E
:103108009C000020DA00002070B588B01446102317
:103118001A46FFF775FF2C20FFF784FD2146684605
:10312800FFF7E8FC002613E0124B1888FFF78CFD28
:103138000134E4B20F2C09D84FF4004323411D4257
:10314800F2D00D4B1888FFF77FFDF1E70136F6B294
:103158000F2E0DD8730008AA1A4412F8202C013338
:1031680008A90B4413F8205C45EA02250024E1E78E
:1031780008B070BD9C000020DA00002070B505463C
:103188000E46002409E029462046FFF77FFF1E4B24
:103198001B689B881C44A4B201363278002A32D0BE
:1031A8007E2A14D8184B19688B882344174800883E
:1031B800834203DDCB881D44ADB20024CB882B4469
:1031C800134909888B42DEDD00242546DBE704F13C
:1031D80010030E4A1288934202DD1035ADB2002466
:1031E80005F110030A4A1288934201DD002425469E
:1031F80036F8022B52BA92B229462046FFF784FFCE
:103208001034A4B2C9E770BDA0000020A6000020B9
:10321800A8000020014B1860704700BFA0000020E4
:10322800014B1868704700BFA0000020024B1880AF
:10323800024B1980704700BFDA0000209C00002074
:10324800014B1880704700BFDA00002038B50446EB
:10325800054B1D88FFF7E4FFC3882A462146002056
:10326800FFF7FCFE38BD00BFA600002070B586B091
:10327800144B9A6942F010029A619A6902F010029E
:103288000092009A9A6942F010029A619B6903F0D1
:1032980010030193019B04260296012303930493D0
:1032A80003230593084C02A9204600F0A9F8082535
:1032B80002950DEB0501204600F0A2F82661256174
:1032C80006B070BD001002400010014008B5084863
:1032D800084B03604FF4E133436000238360C3600D
:1032E800036183610C23436100F0C4FD08BD00BF86
:1032F800340100200038014010B588B01A4B9A6993
:1033080042F480429A619A6902F480420192019AD9
:103318009A6942F004029A619A6902F004020292E0
:10332800029A9A6942F004029A619B6903F00403C5
:103338000393039B4FF40073049302230593012323
:10334800069303230793094C04A9204600F058F874
:103358004FF4806304930023059304A9204600F0EA
:103368004FF808B010BD00BF00100240000801402F
:1033780030B4164BDB68C3F30223C3F10704042CF3
:1033880028BF04241D1D062D17D9033B012505FA66
:1033980004F4013C2140994005FA03F3013B134032
:1033A800194300280BDB0901C9B200F1604000F5A0
:1033B800614080F8001330BC70470023E6E700F056
:1033C8000F000901C9B2024B1954F4E700ED00E0FF
:1033D80014ED00E00138B0F1807F0AD2064B586046
:1033E800F021064A82F823100020986007221A600C
:1033F80070470120704700BF10E000E000ED00E0DA
:10340800F0B583B00026344679E0002D00F0A9809D
:10341800012D00D1CE68FF2B00F2B7808646FF2B26
:1034280000F2B680A500DEF800200F27AF4022EAA0
:10343800070206FA05F52A43CEF800204A6812F07A
:10344800805F5BD0674A956945F00105956192698F
:1034580002F001020192019AA208971C624D55F8E8
:10346800275004F003074FEA870E0F2707FA0EF7D5
:1034780025EA07055D4FB84200F0908007F58067A0
:10348800B84200F08D8007F58067B84200F08A8066
:1034980007F58067B84200F0878007F58067B84273
:1034A80000F0848007F58067B84275D0062707FAD0
:1034B8000EF73D4302324C4F47F822504A6812F447
:1034C800803F75D04A4D2A681A432A604A6812F428
:1034D800003F73D0464D6A681A436A604A6812F41E
:1034E800801F71D0424DAA681A43AA604A6812F434
:1034F800001F6FD03E4DEA681343EB6001340F2C78
:103508006ED80122A2400B6813409A42F6D14D684A
:10351800122D30D00BD8022D2AD07FF676AF032D8E
:103528002FD0112D7FF477AFCE68043673E7314F73
:10353800BD4216D00CD9304FBD4212D007F58037A6
:10354800BD420ED0A7F58017BD427FF464AF08E0F6
:10355800A7F58017BD4204D007F58037BD427FF438
:103568005AAF8D687DB1012D08D04261082652E717
:10357800CE6808364FE7CE680C364CE7026108265D
:1035880049E7002647E7042645E700F1040E46E729
:10359800A4F10805AD0046E7052788E7002786E778
:1035A800012784E7022782E7032780E704277EE7CD
:1035B8000F4D2A6822EA03022A6087E70C4D6A68E1
:1035C80022EA03026A6089E7094DAA6822EA03022F
:1035D800AA608BE7064DEA6822EA0303EB608DE7F1
:1035E80003B0F0BD00100240000001400008014097
:1035F80000040140000021100000311082B0084B87
:103608001B68084AA2FB03235B0A00FB03F0019036
:1036180000BF019B5A1E0192002BF9D102B07047DE
:1036280084000020D34D621070B582B00446036850
:1036380013F0010F3DD0AC4B5B6803F00C03042B77
:103648002ED0A94B5B6803F00C03082B23D06368CA
:10365800B3F5803F51D0002B55D103F1804303F5DA
:1036680004331A6822F480321A601A6822F480221D
:103678001A606368002B60D000F04AFC05469A4B3C
:103688001B6813F4003F14D100F042FC401B64286F
:10369800F5D90320AFE1944B5B6813F4803FD6D093
:1036A800914B1B6813F4003F03D06368002B00F0B4
:1036B8009F81236813F0020F65D08B4B5B6813F072
:1036C8000C0F4ED0884B5B6803F00C03082B43D0DB
:1036D8002369002B79D00122844B1A6000F018FC72
:1036E8000546814B1B6813F0020F65D100F010FCF2
:1036F800401B0228F5D903207DE17B4A136843F477
:1037080080331360B5E7B3F5A02F09D0764B1A685C
:1037180022F480321A601A6822F480221A60A8E71C
:1037280003F18043A3F53C331A6842F480221A60FF
:103738001A6842F480321A609BE700F0E9FB0546FC
:10374800694B1B6813F4003FB3D000F0E1FB401B4A
:103758006428F5D903204EE1634B5B6813F4803F7E
:10376800B6D1614B1B6813F0020F04D02369012BFB
:1037780001D001203FE15C4A136823F0F803616936
:1037880043EAC1031360236813F0080F32D0A3691A
:10379800002B6ED00122564B1A6000F0B9FB05468B
:1037A800514B5B6A13F0020F21D100F0B1FB401BB3
:1037B8000228F5D903201EE14B4A136823F0F803C9
:1037C800616943EAC1031360DDE70022474B1A60D1
:1037D80000F09EFB0546444B1B6813F0020FD2D045
:1037E80000F096FB401B0228F5D9032003E10120D5
:1037F800FFF704FF236813F0040F00F099803A4B99
:10380800DB6913F0805F46D1374BDA6942F08052AA
:10381800DA61DB6903F080530193019B0125354B85
:103828001B6813F4807F38D0E368012B49D0002B44
:103838004DD103F1804303F504331A6A22F00102E3
:103848001A621A6A22F004021A62E368002B5DD039
:1038580000F05EFB0646244B1B6A13F0020F66D18C
:1038680000F056FB801B41F288339842F3D90320BD
:10387800C1E000221E4B1A6000F04AFB05461A4BB5
:103888005B6A13F0020FB5D000F042FB401B022820
:10389800F5D90320AFE00025C1E7164A136843F4C1
:1038A8008073136000F034FB0646124B1B6813F458
:1038B800807FB9D100F02CFB801B6428F5D9032048
:1038C80099E0094A136A43F001031362BDE7052B27
:1038D80012D0054B1A6A22F001021A621A6A22F003
:1038E80004021A62B1E700BF001002400000424221
:1038F8008004424200700040414B1A6A42F00402C0
:103908001A621A6A42F001021A629EE700F000FB8E
:1039180006463B4B1B6A13F0020F08D000F0F8FA7A
:10392800801B41F288339842F3D9032063E0E5B95C
:10393800E369002B5ED0324A526802F00C02082A72
:103948005BD0022B17D000222E4B1A6000F0E0FA51
:1039580004462B4B1B6813F0007F47D000F0D8FAC1
:10396800001B0228F5D9032045E0254AD36923F036
:103978008053D361DCE70022224B1A6000F0C8FABA
:1039880005461F4B1B6813F0007F06D000F0C0FAF5
:10399800401B0228F5D903202DE0236AB3F5803FA8
:1039A8001AD017494B6823F47413226A606A0243D9
:1039B80013434B600122134B1A6000F0A9FA044626
:1039C8000F4B1B6813F0007F0ED100F0A1FA001B0B
:1039D8000228F5D903200EE0094A536823F400337E
:1039E800A1680B435360DCE7002004E0002002E0FC
:1039F800012000E0002002B070BD0120FBE700BFFD
:103A0800001002406000424210B586B0154C94E8A0
:103A18000F000DF1180E0EE90F00238AADF80430DF
:103A2800114B5B6803F00C02082A18D1C3F38342D8
:103A3800724412F8100C13F4803F03D10B4B03FBB4
:103A480000F00DE0084B5B68C3F34043734413F880
:103A5800142C074BB3FBF2F303FB00F000E004481F
:103A680006B010BD883F00080010024000093D0064
:103A780000127A00594B1B6803F007038B420CD2E3
:103A8800564A136823F007030B431360136803F0C7
:103A98000703994201D00120704770B5036813F0FD
:103AA800020F06D04E4A536823F0F003846823437C
:103AB80053600D460446036813F0010F52D0436863
:103AC800012B23D0022B28D0454A126812F0020F8E
:103AD80000F0828042494A6822F0030213434B6097
:103AE80000F016FA06466368012B1DD0022B2AD077
:103AF8003B4B5B6813F00C0F34D000F009FA801BC5
:103B080041F288339842F3D9032070BD344A1268D1
:103B180012F4003FDED1012070BD314A126812F064
:103B2800007FD7D1012070BD2D4B5B6803F00C03DB
:103B3800042B17D000F0ECF9801B41F2883398422F
:103B4800F2D9032070BD264B5B6803F00C03082BE9
:103B580008D000F0DDF9801B41F288339842F2D991
:103B6800032070BD1D4B1B6803F007039D420CD258
:103B78001A4A136823F007032B431360136803F0F2
:103B880007039D4201D0012070BD236813F0040F84
:103B980006D0134A536823F4E063E1680B4353608B
:103BA800236813F0080F07D00D4A536823F46053B5
:103BB800216943EAC1035360FFF726FF084B5B689E
:103BC800C3F30313074AD35CD840074B18600F2090
:103BD80000F080F9002070BD012070BD0020024077
:103BE800001002404441000884000020014B18687E
:103BF800704700BF8400002008B5FFF7F7FF044BAB
:103C08005B68C3F30223034AD35CD84008BD00BFF6
:103C1800001002405441000808B5FFF7E7FF044BC5
:103C28005B68C3F3C223034AD35CD84008BD00BF16
:103C38000010024054410008002841D010B5044645
:103C480090F85130002B32D0022384F8513022688A
:103C5800136823F04003136022686368A1680B436C
:103C6800E1680B4321690B4361690B43A16901F4C6
:103C780000710B43E1690B43216A0B43A16A0B43B3
:103C880013602268638B03F00403616A0B4353607B
:103C9800A36AB3F5005F0FD02268D36923F40063E9
:103CA800D36100206065012384F8513010BD80F88D
:103CB8005030FEF749FEC7E72368E26A1A61EBE76E
:103CC800012070472DE9F04705460268136923F47F
:103CD8004053C1680B431361836802691343426907
:103CE80013430168CA6822F4B05222F00C0213434D
:103CF800CB600268536923F4407381690B435361B5
:103D0800D0F80080594B984557D0FFF775FF00EB66
:103D1800800000EB80006C68A400B0FBF4F4544F02
:103D2800A7FB043464092601FFF766FF00EB800057
:103D380000EB80006C68A400B0FBF4FAFFF75CFFAE
:103D480000EB800000EB80006C68A400B0FBF4F48A
:103D5800A7FB043464094FF0640909FB14A4240187
:103D68003234A7FB0434640904F0F0043444FFF748
:103D780043FF00EB800000EB80006E68B600B0FBEC
:103D8800F6F6FFF739FF00EB800000EB80006B6868
:103D98009B00B0FBF3F0A7FB0030400909FB10695A
:103DA8004FEA091909F13209A7FB0937C7F3431785
:103DB8002744C8F80870BDE8F087FFF72DFF00EB2F
:103DC800800000EB80006C68A400B0FBF4F4284F7E
:103DD800A7FB043464092601FFF71EFF00EB8000EF
:103DE80000EB80006C68A400B0FBF4FAFFF714FF46
:103DF80000EB800000EB80006C68A400B0FBF4F4DA
:103E0800A7FB043464094FF0640909FB14A42401D6
:103E18003234A7FB0434640904F0F0043444FFF797
:103E2800FBFE00EB800000EB80006E68B600B0FB84
:103E3800F6F6FFF7F1FE00EB800000EB80006B6800
:103E48009B00B0FBF3F3A7FB03235B0909FB136992
:103E58004FEA091909F13209A7FB0937C7F34317D4
:103E68002744C8F80870BDE8F08700BF0038014053
:103E78001F85EB5158B310B5044690F839300BB391
:103E8800242384F839302268D36823F40053D3609C
:103E98002046FFF717FF2268136923F49043136144
:103EA8002268536923F02A0353612268D36843F4D4
:103EB8000053D3600020E063202384F8393084F86D
:103EC8003A3010BD80F83830FFF716FAD8E70120ED
:103ED8007047000010B50446074B1868074BA3FB52
:103EE80000308009FFF776FA002221464FF0FF30B4
:103EF800FFF73EFA002010BD84000020D34D621069
:103F0800024A136801331360704700BF7401002030
:103F1800014B1868704700BF74010020002103E0BE
:103F28000B4B5B58435004310A480B4B42189A42DA
:103F3800F6D30A4A02E0002342F8043B084B9A42AF
:103F4800F9D3FEF7D1FCFCF79DF9FEF7A3FC704707
:103F5800646B000800000020AC000020AC000020CA
:103F68007C010020FEE70000F8B500BFF8BC08BCE3
:103F78009E467047F8B500BFF8BC08BC9E4670471F
:103F880002030405060708090A0B0C0D0E0F101092
:103F980001020000040000200000000000000000F2
:103FA8000000000000000000000000000000000009
:103FB80000000000000000000000000000000000F9
:103FC80000000000000000000000000000000000E9
:103FD80000000000000000000000000000000000D9
:103FE80000000000000000000000000000000000C9
:103FF8000000000000000000CFD4CABED5FBD0CD21
:10400800B1E4C1BFA3BA202564200000CFD4CABE42
:10401800B8A1B5E3D0CDB1E4C1BFA3BA20256620CD
:1040280000000000B8A1B5E3D0CD28B1A3C1F43297
:10403800CEBBD0A1CAFD29A3BA20252E3266200006
:10404800252A632573000000B2E5C8EB32B8F6D321
:10405800A2CEC4BFD5B8F1CABEC0FD00B4BFD3A2BA
:10406800CEC43234783332BED3D6D0CABEC0FDA354
:10407800BA0000004142434445460000D6D0CEC4B1
:10408800BED3D6D0CABEC0FD00000000BAACD3A2D1
:10409800CEC4BED3D6D0CABEC0FD41424344454675
:1040A800470000000A0000000D0A202A2A2A2A2AAE
:1040B8002A2A2A2A2A20D2BABEA7CFD4CABEB1E455
:1040C800C1BFCABEC0FDA3A8D5FBCAFD5FB8A1B5D4
:1040D800E3CAFDB5C8A3A92A2A2A2A2A2A2A2A2AEB
:1040E8002A2A200D000000000D0A20C8F4BABAD709
:1040F800D6CFD4CABEB2BBD5FDB3A3A3ACC7EBD44D
:10410800C4B6C1B9A4B3CCD6D0B5C4726561646D68
:10411800652E747874CEC4BCFECBB5C3F7A3ACB817
:10412800F9BEDDD2AAC7F3B8F8464C415348D6D8F1
:10413800CBA2D7D6C4A3CAFDBEDD0D000000000087
:10414800000000000102030406070809000000003F
:10415800010203043C3C2D464C4153482D45525224
:104168004F522D3E3E2053504920B5C8B4FDB3AC44
:10417800CAB1216572726F72436F6465203D202554
:10418800640A0000000000000000000000000000B9
:104198000000000000000000000000000000000017
:1041A8000000000000000000000000000000000007
:1041B80000000000000000000000000000000000F7
:1041C80000000000000000000000000000000000E7
:1041D80000000000000000000000000000000000D7
:1041E80000000000000000000000000000000000C7
:1041F800000000000000003C00003C00003C000003
:104208003C00003C00003C00003C00003C00003C3E
:1042180000003C00003C00003C00003C00003C006A
:10422800000000000000003C00007E00003C000090
:104238000000000000000000000000000000000076
:104248000000000000000000000000000000000066
:1042580000000000000003C3E003C3E003C3C00381
:10426800C3C003C3C003C3C003C1C0000000000033
:104278000000000000000000000000000000000036
:104288000000000000000000000000000000000026
:104298000000000000000000000000000000000016
:1042A8000000000000000000000000000000000006
:1042B80000000000000000000000000001E0E00134
:1042C800C0E001C0E001C0E03FFFFE3FFFFE03C1C8
:1042D800C00381C00381C00381C07FFFFC7FFFFC56
:1042E8000783800703800703800703800707800090
:1042F80000000000000000000000000000000000B6
:1043080000000000000000000000000000000000A5
:10431800000000000700000F00000E0001FFF0077A
:10432800FFF01F0E001E1E001E1C001E1C000FDCCE
:104338000007FC0000FF80003FF00038F8003878E4
:1043480000783C0070783071F83FFFE01FFF0000F4
:10435800E00000E00000E0000000000000000000B5
:104368000000000000000000000000000000000045
:104378000000000000000F800F3FE01E78703C70C6
:1043880070707070E07071C03FE3801FC700000E4E
:1043980000001C0000780000F0F001E7FC03CF0EDD
:1043A800078E0E0F0E0E1E0E0E3C07BC7003F80093
:1043B80000000000000000000000000000000000F5
:1043C80000000000000000000000000000000000E5
:1043D80000000000000000000001FF0007FF800F40
:1043E80003C00F03C00F03C00F0780079F0003FE21
:1043F8000003F0000FF83C3E7C3C3C1F3C780FF873
:104408007807F87C01F03E03F81FFFFC07FE1F0049
:104418000000000000000000000000000000000094
:104428000000000000000000000000000000000084
:10443800000000000000003E00003C00003C0000BE
:104448003C00003C00003C00003C00000000000074
:104458000000000000000000000000000000000054
:104468000000000000000000000000000000000044
:104478000000000000000000000000000000000034
:104488000000000000000000000000000000000024
:104498000000000000800001C0000780000F00003D
:1044A8001E00003C0000780000F00000E00001E081
:1044B8000001E00001C00003C00003C00001C0000B
:1044C80001E00001E00000F00000F00000780000CA
:1044D8003C00001E00000F000007C00001C00000E3
:1044E80000000000000000000000000000000000C4
:1044F80000000000000003C00001E00000F0000020
:104508007C00003E00001E00000F0000078000072E
:10451800800003800003C00003C00003C00003C084
:10452800000380000780000780000F00001E0000C5
:104538003C0000780000F00001E00003800000006B
:104548000000000000000000000000000000000063
:10455800000000000000001C00001C000018000FF4
:1045680018F007DBE0007F0000FF0007DBE00E1813
:1045780070001800001C00001C0000000000000073
:104588000000000000000000000000000000000023
:104598000000000000000000000000000000000013
:1045A8000000000000000000000000000000000003
:1045B80000000000000000000000000000000000F3
:1045C8000000000000003C00003C00003C00003CF3
:1045D80000003C00003C003FFFFC3FFFFC003C00AB
:1045E800003C00003C00003C00003C0000000000D3
:1045F80000000000000000000000000000000000B3
:1046080000000000000000000000000000000000A2
:104618000000000000000000000000000000000092
:104628000000000000000000000000000000000082
:104638000000000000000000000000000000000072
:10464800000000007C00007E00007E00003E0000AC
:104658001E00003C0000F80007E000040000000015
:104668000000000000000000000000000000000042
:104678000000000000000000000000000000000032
:104688000000000000000000000000000000000022
:104698000000000000000003FFE003FFE00000004E
:1046A8000000000000000000000000000000000002
:1046B80000000000000000000000000000000000F2
:1046C80000000000000000000000000000000000E2
:1046D80000000000000000000000000000000000D2
:1046E80000000000000000000000000000000000C2
:1046F80000000000000000000000000000000000B2
:10470800000000007C0000FE0000FE00007E0000AB
:104718000000000000000000000000000000000091
:104728000000000000000000000000000000000081
:104738000000000000000000780000F00000E00029
:1047480001E00003C0000380000780000F00000E96
:1047580000001E00003C0000380000700000F0005F
:1047680000E00001C00003C0000780000700000F40
:1047780000001E00001C00000000000000000000F7
:104788000000000000000000000000000000000021
:1047980000000000000000000000000001FFC0074A
:1047A800FFE00F00F01E00781E003C3C00FC3C07B8
:1047B800FC3C1FBC3C7C1C3DF03C3FC03C3F003CEB
:1047C8001E00381E00780F80F007FFE001FF800010
:1047D80000000000000000000000000000000000D1
:1047E80000000000000000000000000000000000C1
:1047F800000000000000000000000000007E000330
:10480800FE001FDE000E1E00001E00001E00001E1F
:1048180000001E00001E00001E00001E00001E00FA
:10482800001E00001E00001E000FFFF80FFFF8001A
:104838000000000000000000000000000000000070
:104848000000000000000000000000000000000060
:1048580000000000000000000000000003FF800FBF
:10486800FFE00E01F00000F00000F00000F0000092
:10487800F00001E00003C0000F80003E00007C0053
:1048880001F00003C0000F80001FFFFC1FFFFC00A9
:104898000000000000000000000000000000000010
:1048A8000000000000000000000000000000000000
:1048B8000000000000000000000000000FFF800F53
:1048C800FFE00001E00000F00000F00001E000035C
:1048D800C001FF0001FFC00003F00000780000786D
:1048E8000000780000780001F00FFFC00FFF000003
:1048F80000000000000000000000000000000000B0
:10490800000000000000000000000000000000009F
:10491800000000000000000000000000000FC000C0
:104928001FC0003FC0007BC000F3C001E3C003C349
:10493800C00783C00F03C01C03C03803C07FFFFE3D
:104948007FFFFE0003C00003C00003C00003C000D7
:10495800000000000000000000000000000000004F
:10496800000000000000000000000000000000003F
:104978000000000000000000000000000FFFE00F32
:10498800FFE00F00000F00000F00000F00000F00F5
:10499800000FFF800FFFE00000F0000078000078B3
:1049A8000000780000F00003E00FFFC00FFE0000D9
:1049B80000000000000000000000000000000000EF
:1049C80000000000000000000000000000000000DF
:1049D800000000000000000000000000003FF0019F
:1049E800FFF003E0000780000F00001E00001E1FFC
:1049F800001FFFE01FC1F81E00781E003C1E003C8F
:104A08001E003C0F00780F80F807FFE001FF8000D0
:104A1800000000000000000000000000000000008E
:104A2800000000000000000000000000000000007E
:104A38000000000000000000000000001FFFFC1F35
:104A4800FFFC0000780000F00000E00001E0000337
:104A5800C0000780000F00000F00001E00003C008F
:104A680000780000F00001F00001E00003C0000041
:104A7800000000000000000000000000000000002E
:104A8800000000000000000000000000000000001E
:104A980000000000000000000000000003FFE00F1D
:104AA800E3F00F00781E00781E00780F00F007E38F
:104AB800E001FF8001FF8007E7E00F00F81E0078A3
:104AC8001E003C1E007C1F00F80FFFF003FFC00013
:104AD80000000000000000000000000000000000CE
:104AE80000000000000000000000000000000000BE
:104AF80000000000000000000000000003FF800F1D
:104B0800C7E01E00F01E00783C00783C00783C00AE
:104B1800381E00780FEFF807FFB80000780000781B
:104B28000000F00001E0000FC00FFF000FF00000D0
:104B3800000000000000000000000000000000006D
:104B4800000000000000000000000000000000005D
:104B5800000000000000000000000000000000004D
:104B68000000000000000000007E00007E00007EC3
:104B78000000180000000000000000000000000015
:104B8800000000003C00007E00007E00003E0000A7
:104B9800000000000000000000000000000000000D
:104BA80000000000000000000000000000000000FD
:104BB80000000000000000000000000000000000ED
:104BC8000000000000000000007E00007E00007E63
:104BD80000001800000000000000000000000000B5
:104BE800000000003E00007E00007F00001F000063
:104BF8001E00001E0000FC0007F00004000000007A
:104C0800000000000000000000000000000000009C
:104C1800000000000000000000000000000000008C
:104C280000000000400001E00007C0001F00007EF7
:104C38000001F80003E0000F80000F800003E0008F
:104C480000F800003E00000F800003E00000E000D4
:104C5800000000000000000000000000000000004C
:104C6800000000000000000000000000000000003C
:104C7800000000000000000000000000000000002C
:104C8800000000000000000000000000000000001C
:104C9800001FFFF80000000000000000001FFFF8E0
:104CA8001FFFF800000000000000000000000000E6
:104CB80000000000000000000000000000000000EC
:104CC80000000000000000000000000000000000DC
:104CD80000000000000000000000000000000000CC
:104CE800000000000007800003E00000F800003E1C
:104CF80000000F800003E00000F80001F00007C08A
:104D0800001F00007C0001F00007C0000300000045
:104D1800000000000000000000000000000000008B
:104D2800000000000000000000000000000000007B
:104D380000000000000001C00001FE00007F8000AC
:104D480007C00001E00000F00000F00001F00003DF
:104D5800E0007FC0007E000070000070000070005E
:104D680000000000000000F80000F80000F8000053
:104D7800000000000000000000000000000000002B
:104D8800000000000000000000000000000000001B
:104D9800000000000000001F8000FFF003C078073B
:104DA800801C0E000E1C000E3C000F383FC778FF19
:104DB800C770E3C771C3C7F3C387E3C387E3878EAD
:104DC800E3878EE3CF8EE3FFFC71F9F0700000708B
:104DD80000003800003C00000F01C007FFC00000C1
:104DE80000000000000000000000000000000000BB
:104DF800000000000000000000000000007E00002D
:104E08007F0000FF0000E78001E78003C3C003C301
:104E1800C00781E00781E00F00F00F00F81FFFF8DE
:104E28001FFFFC3C003C3C001E78001EF0000F00F9
:104E3800000000000000000000000000000000006A
:104E4800000000000000000000000000000000005A
:104E58000000000000000000000000001FFFC01F4D
:104E6800FFF01E00F01E00781E00781E00F01E01E4
:104E7800F01FFFC01FFFE01E01F81E00781E003C57
:104E88001E003C1E00781E00F81FFFE01FFF0000F8
:104E9800000000000000000000000000000000000A
:104EA80000000000000000000000000000000000FA
:104EB80000000000000000000000000000FFF803F0
:104EC800FFF807C0000F00001E00001E00003C0095
:104ED800003C00003C00003C00003C00003E00009C
:104EE8001E00000F00000FC00803FFF800FFF800C5
:104EF80000000000000000000000000000000000AA
:104F08000000000000000000000000000000000099
:104F18000000000000000000000000003FFF003F0C
:104F2800FFE03C01F03C00783C003C3C003C3C008D
:104F38003C3C001E3C001E3C001E3C003C3C003C2F
:104F48003C00783C00F83C07E03FFFC03FFC000015
:104F58000000000000000000000000000000000049
:104F68000000000000000000000000000000000039
:104F78000000000000000000000000000FFFF00F1C
:104F8800FFF00F00000F00000F00000F00000F00DF
:104F9800000FFFF00FFFF00F00000F00000F0000E0
:104FA8000F00000F00000F00000FFFF00FFFF000D0
:104FB80000000000000000000000000000000000E9
:104FC80000000000000000000000000000000000D9
:104FD8000000000000000000000000000FFFF00FBC
:104FE800FFF00F00000F00000F00000F00000F007F
:104FF800000FFFF00FFFF00F00000F00000F000080
:105008000F00000F00000F00000F00000F0000004D
:105018000000000000000000000000000000000088
:105028000000000000000000000000000000000078
:1050380000000000000000000000000000FFFC036A
:10504800FFFC0FC0041F00001E00003C00003C00D5
:1050580000780FFC780FFC78003C3C003C3C003C9E
:105068003E003C1F003C0FC03C03FFFC00FFF80063
:105078000000000000000000000000000000000028
:105088000000000000000000000000000000000018
:105098000000000000000000000000003C003C3C54
:1050A800003C3C003C3C003C3C003C3C003C3C00A0
:1050B8003C3FFFFC3FFFFC3C003C3C003C3C003CD0
:1050C8003C003C3C003C3C003C3C003C3C003C0080
:1050D80000000000000000000000000000000000C8
:1050E80000000000000000000000000000000000B8
:1050F8000000000000000000000000000FFFF80F93
:10510800FFF8003C00003C00003C00003C00003C74
:1051180000003C00003C00003C00003C00003C005B
:10512800003C00003C00003C000FFFF80FFFF800B7
:105138000000000000000000000000000000000067
:105148000000000000000000000000000000000057
:105158000000000000000000000000000FFFE00F4A
:10516800FFE00001E00001E00001E00001E00001D3
:10517800E00001E00001E00001E00001E00001E0E2
:105188000001E00003C00C07C00FFF8007FE00000D
:105198000000000000000000000000000000000007
:1051A80000000000000000000000000000000000F7
:1051B8000000000000000000000000001E00781E33
:1051C80001F01E03C01E07801E1F001E3C001E7833
:1051D800001EF0001FF0001EF8001E3C001E1E00FE
:1051E8001E0F801E07C01E01E01E00F81E007C0076
:1051F80000000000000000000000000000000000A7
:105208000000000000000000000000000000000096
:1052180000000000000000000000000007800007F8
:105228008000078000078000078000078000078053
:1052380000078000078000078000078000078000C3
:1052480007800007800007800007FFF807FFF800C5
:105258000000000000000000000000000000000046
:105268000000000000000000000000000000000036
:105278000000000000000000000000003E007C3F2D
:1052880000FC3F81DC3B81DC3BC39C39C39C38E795
:105298001C38EF1C387E1C387C1E383C1E78001EDB
:1052A80078001E78001E78001E78001E78001E0008
:1052B80000000000000000000000000000000000E6
:1052C80000000000000000000000000000000000D6
:1052D8000000000000000000000000001F003C1F4C
:1052E800803C1FC03C1DC03C1DE03C1CF03C1C78B1
:1052F8003C1C783C1C3C3C1C1E3C1C0F3C1C0F3CC2
:105308001C07BC1C03FC1C01FC1C00FC1C00FC0052
:105318000000000000000000000000000000000085
:105328000000000000000000000000000000000075
:1053380000000000000000000000000001FFC0079E
:10534800FFF00F00F81E007C3C003C3C001E78007B
:105358001E78001E78001E78001E78001E3C003C57
:105368003C003C1E00781F00F007FFE001FF8000B2
:105378000000000000000000000000000000000025
:105388000000000000000000000000000000000015
:105398000000000000000000000000001FFF801F48
:1053A800FFF01E00F81E007C1E003C1E003C1E0084
:1053B8003C1E00781E03F01FFFC01FFE001E0000E9
:1053C8001E00001E00001E00001E00001E0000003F
:1053D80000000000000000000000000000000000C5
:1053E80000000000000000000000000000000000B5
:1053F80000000000000000000000000001FFC007DE
:10540800FFF00F00F81E007C3C003C3C001E7800BA
:105418001E78001E78001E78001E78001E3C003C96
:105428003C003C1E00781F80F007FFE001FF800071
:105438003C00003C00001F06000FFF0001F80000C0
:105448000000000000000000000000000000000054
:105458000000000000000000000000000FFF800FA7
:10546800FFE00E01F00E00F00E00F00E00F00E014D
:10547800F00FFFC00FFF000E1F000E07800E03C0C5
:105488000E01E00E00F00E00F80E00780E003C0051
:105498000000000000000000000000000000000004
:1054A80000000000000000000000000000000000F4
:1054B80000000000000000000000000003FFF00FE3
:1054C800FFF01F00001E00001E00001F00000FC09C
:1054D8000007FC0000FF80000FF00001F8000078D2
:1054E8000000780000782000F83FFFE03FFF8000D0
:1054F80000000000000000000000000000000000A4
:105508000000000000000000000000000000000093
:105518000000000000000000000000003FFFFC3F0A
:10552800FFFC003C00003C00003C00003C00003C4C
:1055380000003C00003C00003C00003C00003C0037
:10554800003C00003C00003C00003C00003C000027
:105558000000000000000000000000000000000043
:105568000000000000000000000000000000000033
:105578000000000000000000000000003C003C3C6F
:10558800003C3C003C3C003C3C003C3C003C3C00BB
:105598003C3C003C3C003C3C003C3C003C3C003C6F
:1055A8003C003C1E00781F00F80FFFE003FF80005E
:1055B80000000000000000000000000000000000E3
:1055C80000000000000000000000000000000000D3
:1055D800000000000000000000000000F8000F7844
:1055E800001E3C001E3C003C1E00381E00780F00C8
:1055F800700F00F00781E00781E003C3C003E3C038
:1056080001E78000F78000FF00007E00007E0000B8
:105618000000000000000000000000000000000082
:105628000000000000000000000000000000000072
:1056380000000000000000000000000078000E7864
:10564800000E78000E78001E38001E38001E383C08
:105658001C383C1C387E1C387F1C3CE71C3CE79CF3
:105668003DC39C1DC3DC1F81DC1F80F81F00F800B0
:105678000000000000000000000000000000000022
:105688000000000000000000000000000000000012
:105698000000000000000000000000003C003C1E6C
:1056A80000780F00F00781E003C3C001E78000FF26
:1056B80000007E00007E0000FF0001FF8003E7C0BD
:1056C80007C3E00F81F01F00F83E007C7C003E001D
:1056D80000000000000000000000000000000000C2
:1056E80000000000000000000000000000000000B2
:1056F80000000000000000000000000078001F3CCF
:10570800003E1E007C1F00780F80F007C1E003E315
:10571800C001E78000FF00007E00003C00003C0064
:10572800003C00003C00003C00003C00003C000045
:105738000000000000000000000000000000000061
:105748000000000000000000000000000000000051
:105758000000000000000000000000001FFFFC1F08
:10576800FFFC0000F80001E00003C0000780000F04
:1057780000001E00003C0000780000F00003E0007C
:1057880007C0000F80001F00003FFFFC3FFFFC0028
:105798000000000000000000000000000000000001
:1057A80000000000000000000000000000000000F1
:1057B80000000000000001FFC001FFC001E000017F
:1057C800E00001E00001E00001E00001E00001E08C
:1057D8000001E00001E00001E00001E00001E0005C
:1057E80001E00001E00001E00001E00001E000014B
:1057F800E00001E00001E00001E00001FFC000005E
:105808000000000000000000000000000000000090
:105818000000000000000E00000F00000700000359
:10582800800003C00001E00000E00000F000007804
:1058380000003800003C00001E00000E00000F00B1
:105848000007800003800001C00001E00000E000C4
:10585800007000007800003C00000000000000001C
:105868000000000000000000000000000000000030
:1058780000000000000003FF8003FF800007800095
:105888000780000780000780000780000780000766
:1058980080000780000780000780000780000780DD
:1058A800000780000780000780000780000780004D
:1058B800078000078000078000078003FF80000042
:1058C80000000000000000000000000000000000D0
:1058D800000000000000000000000000003C000084
:1058E8007E0000E70001C3800381C00700E00E00CE
:1058F800F01E00780000000000000000000000001A
:10590800000000000000000000000000000000008F
:10591800000000000000000000000000000000007F
:10592800000000000000000000000000000000006F
:10593800000000000000000000000000000000005F
:10594800000000000000000000000000000000004F
:10595800000000000000000000000000000000003F
:10596800000000000000000000000000000000002F
:105978000000000000000000FFFFFFFFFFFF000025
:10598800000000000000000000000000000000000F
:105998000000000000000F800003E00000F8000095
:1059A8003C000000000000000000000000000000B3
:1059B80000000000000000000000000000000000DF
:1059C80000000000000000000000000000000000CF
:1059D80000000000000000000000000000000000BF
:1059E80000000000000000000000000000000000AF
:1059F800000000000000000000000000000000009F
:105A0800000000000000000007FFC007E7F00000EA
:105A1800F000007800007800FFF807FFF80F007822
:105A28001E00781E00781E03F80FFFF807FC7800A8
:105A3800000000000000000000000000000000005E
:105A4800000000000000000000000000000000004E
:105A58000000000000001E00001E00001E00001EC6
:105A680000001E00001E00001E7FE01EFFF01FC089
:105A7800781F00781E003C1E003C1E003C1E003CA7
:105A88001E00381E00781E00F01FFFE007FF000010
:105A980000000000000000000000000000000000FE
:105AA80000000000000000000000000000000000EE
:105AB80000000000000000000000000000000000DE
:105AC800000000000000000000FFF003FFF007C026
